:0200000280007C
:10000000B0430720F98D0800F58D08008D25080004
:10001000F58D0800F58D0800F58D08000000000042
:10002000000000000000000000000000F58D080046
:10003000F58D080000000000F58D0800F58D080022
:10004000F58D0800F58D0800F58D0800F58D080088
:10005000F58D0800F58D0800F58D0800F58D080078
:10006000F58D0800F58D080000000000A56B080064
:10007000C16B0800DD6B0800F96B08000000000090
:1000800000000000F58D0800F58D0800F58D0800D2
:10009000F58D0800F58D0800F58D0800F58D080038
:1000A000F58D080000000000F58D0800F58D0800B2
:1000B000F58D0800F58D0800F58D0800F58D080018
:1000C000F58D0800F58D0800F58D0800F58D080008
:1000D000F58D0800F58D0800F58D0800F58D0800F8
:1000E00021770800F58D0800F58D0800F58D0800D2
:1000F000F58D080008B50548054B191A062900D8E2
:1001000008BD044A002AFBD09047F9E74CBC080020
:100110004FBC08000000000008B50748074B191A3B
:100120008A1002EBD273591000D108BD044A002A8C
:10013000FBD09047F9E700BF4CBC08004CBC08005E
:100140000000000010B5064C237843B9FFF7D2FF3A
:10015000044810B10448AFF300800121217010BDA4
:10016000800A0720000000004CBC080008B5084BBE
:100170001BB108480849AFF300800848016811B175
:10018000074A02B19047BDE80840FFF7C5BF00BF6E
:10019000000000004CBC0800840A07204CBC08008A
:1001A0000000000010B540F6A023C2F207031A6851
:1001B00092F8224040F6A621C2F2070108781168A1
:1001C000527C231C18BF012341F6B904C0F2080475
:1001D000A04710BD70B582B0069C49F23536C0F21A
:1001E000010641F23535C0F201054FEA017141EADD
:1001F000422242EAC0724FEAC4514FEAD151114340
:100200009DF81C200092002814BF3046284641EA81
:100210008361A2B24FF0010341F6E514C0F2080475
:10022000A04702B070BD00BF08B540F6A623C2F2D9
:100230000703187830B94FF0000041F62D11C0F2D5
:100240000801884708BD00BF10B5029C4FEA422252
:1002500042EA017141EAC07040EAC363227841F288
:10026000343043EA020141F65513C0F208039847BF
:1002700040B141F67D11C0F20801884720704FF06F
:10028000010010BD4FF0000010BD00BF08B540F6E2
:10029000A023C2F207031868818941F609304FEAAA
:1002A000014141F65512C0F20802904770B140F684
:1002B000A023C2F20703186800F1120041F685116D
:1002C000C0F2080188474FF0010008BD4FF0000060
:1002D00008BD00BF10B5002840F0A88040F20C0314
:1002E000C2F2070398684FEA501202F5001101F2BA
:1002F00007734FEA4322D26B00F01F004FF0010159
:1003000001FA00F313421DD040F20C02C2F20702C0
:10031000907B88420CD140F69E23C2F207031978E5
:1003200031B14EF21000CEF200004FF00002026038
:1003300040F20C03C2F207034FF0040199734FF02F
:10034000020010BD40F20C02C2F20702907B0428AA
:1003500031D140F20C01C2F207014FF001028A7361
:100360004EF21003CEF20003186888B940F69E20C2
:10037000C2F2070002704EF21003CEF2000343F205
:10038000A071C0F2A00159601A604FF0020010BDC8
:1003900040F69E21C2F207014FF000020A7048F6B3
:1003A0008050C0F25B0040F20103C2F2070398479D
:1003B0004FF0020010BD012816D140F69E21C2F276
:1003C00007010B78002B3AD04EF21002CEF2000259
:1003D000106810F4803F2CD04EF21001CEF20001D4
:1003E0004FF000030B602AE040F20C00C2F207005D
:1003F000817B032920D040F6A624C2F207044FF0E7
:100400000003237040F20C04C2F2070440F6A0225D
:10041000C2F20702146040F2A510C0F20800804743
:10042000A07B022814BF0020012010BD4FF0040063
:1004300010BD4FF0020010BD4FF0030010BD40F2A0
:100440000C00C2F207004FF0020282734FF4D45145
:10045000C0F2060101604FF0010343744FF0000247
:1004600080F82220C0E700BF08B540F20C03C2F2BA
:1004700007034FF004029A7340F6A620C2F2070069
:100480004FF0FF01017041F66D03C0F20803984779
:1004900008BD00BF2DE9F04F95B040F2D523C0F262
:1004A000080398470446012806D040F22921C0F2EB
:1004B0000801884700F05DBD40F6A020C2F20700A9
:1004C00001684FF00102CA734FF000050D748D8171
:1004D00041F63113C0F2080398474FF48040294693
:1004E00041F65512C0F208029047002800F0C1847E
:1004F00045F208504FF4D57141F65513C0F2080388
:100500009847002800F0C38441F67D10C0F208002F
:100510008047B0F1FF3F00F0BD844FEA00514FEA41
:100520001152B2F5D57F40F0A4844FF0010600F0DF
:10053000B3BC41F67D10C0F208008047014610F0C0
:10054000E04F00F0B58441F2893944F2055741F695
:100550005515C0F2080541F67D18C0F20808384666
:1005600001F4FC11A847002800F08384C047011E55
:100570000ADB09F1FF39384601F4FC11A8470028CD
:1005800040F0398500F075BC11F0006F40F6A023F3
:10059000C2F20703186814BF05220422C27300F0D8
:1005A00087BC41F237174FF0000841F65515C0F2ED
:1005B00008054FF4004941F67D1AC0F2080A384692
:1005C0004146A847002840F0EA8400F07DBC384648
:1005D0004146A847002800F077844946C4F21F012D
:1005E00044F22950002E08BF4FF4FC11A847002800
:1005F00000F06A84D04700280EDA10F0804F00F037
:100600008F8440F6A020C2F207000168CA7B42F046
:100610000803CB7300F084BC0BF1FF3B3846414626
:10062000A847002840F0D18400F04EBC4FF40045AC
:10063000C4F21F0544F2015741F65518C0F20808EC
:1006400041F67D19C0F2080938462946C0470028FE
:1006500040F0938400F079BC38462946C047002812
:1006600000F07384C84700280DDA00F0C040B0F1F4
:10067000804F40F06084A6490B68DA7B42F00800A6
:10068000D87300F058BC06F1FF3638462946C047FB
:10069000002840F07C8400F058BC9D4908684FF069
:1006A0000102828141F203104FF48031994B984747
:1006B000002800F0218198498847002800F01F8118
:1006C000934803689A7CC2F3830101F1FF30032849
:1006D00003D8DFE800F0060A0E124FF01201197479
:1006E0000EE04FF014021A740AE04FF02200187462
:1006F00006E04FF03001197402E04FF040021A7426
:100700005A7D02F00700854951F820104FF47A70A5
:1007100000FB01F1C2F3C302814850F8222002FB22
:1007200001F11960997E187E5A7E4FEA820242EAF0
:10073000802040EAA1114FEA01524FEA125112F50E
:10074000801F15D0187FDA7E4FEA420242EAE0109D
:1007500001F1010100F0070202F1020201FA02F1C7
:10076000D87D00F00F0201FA02F14FEA91205860A3
:100770009B8943F207104FEA0341664A90470028DD
:1007800000F0C080624D2968087C3F2840F29C80C0
:100790004FF00001009141F20810C0F208004FF440
:1007A00000724FF001035F4DA847002800F0D0838E
:1007B0004FF000055C4E02A8B047002800F0C88347
:1007C00005F10105ADB2322DF5D1029E06F002030E
:1007D000DEB24F4A1068877E017E437E4FEA830275
:1007E00042EA812040EAA7174FEA075111F5801F1E
:1007F0001AD14D4F03A8B847002800F0A98305F18E
:100800000105ADB2352DF5D9414B1A6803984FEA71
:100810005007576008E003A8B847002800F0988305
:1008200005F10105ADB200E03F4F7F2DF3D992E312
:100830003E4D28783E4A9047054604280BD04FF499
:100840000071C0F2B7114FF00000C0F2B710082DD0
:1008500018BF014603E04FF48071C0F2B71143F2B4
:1008600006102C4B9847002800F07D8331498847BB
:1008700010F0800F40F07783254A106845742E4BA6
:1008800098472E49884738B336B343F206104FF4E1
:100890008071C0F2B9311F4A9047002800F066838A
:1008A0002448804710F0800F40F06083184E37686E
:1008B0004FF0010587F822504FF4EA43C0F2193394
:1008C0003B601D49884707E01B4FB84704E040469E
:1008D0003946B04740B118E04FF00A0541F2101810
:1008E0004FF400770B4EF2E705F1FF3212F0FF05EF
:1008F000EDD14FF00000ADE24FF00000AAE24FF062
:100900000000A7E24FF00000A4E24FF00100A1E2D6
:10091000A00A0720551908008D0208003CB5080000
:1009200058B50800E5190800BD1A0800A60A0720F6
:10093000A51808007D190800A5010800B1180800D5
:1009400045F602304FF0000141F65513C0F208039E
:100950009847002800F08D8245F203104FF0000107
:1009600041F65512C0F208029047002800F081823B
:1009700040F6A025C2F207052E6841F67D10C0F2B0
:10098000080080474FEA1041B1812B68DA7B12F0F2
:10099000010F56D040F28D20C0F208008047002899
:1009A00000F067822B685A7D02F007004BF23C5141
:1009B000C0F2080151F820104FF47A7000FB01F1E9
:1009C000C2F3C3024BF2FC40C0F2080050F82220F0
:1009D00002FB01F11960987C82090FD0DA7E987EC3
:1009E000597E4FEA014141EA0020024322F44001CE
:1009F00001F101014FEA4120586022E0997E187E02
:100A00005A7E4FEA820242EA802040EAA112187F11
:100A1000D97E4FEA410141EAE0104FEA02524FEA23
:100A2000125202F1010200F0070101F1020102FA83
:100A300001F0DA7D02F00F0100FA01F04FEA902296
:100A40005A6040F6A023C2F207031A68918943F264
:100A500007104FEA014141F65513C0F208039847C9
:100A6000002800F0068240F6A020C2F207000168CC
:100A7000CA7B12F0010F4ED08B8941F237104FEA3A
:100A8000034141F65512C0F208029047002800F0D9
:100A9000F0814FF00103009341F23310C0F20800DF
:100AA0004FF000014FF008024C4DA847002800F01D
:100AB000E08104A84FF00101494B9847002800F05D
:100AC000D88148488047002800F0D3819DF8101055
:100AD00001F00F03012B09D013B1022B16D10BE04B
:100AE000414A13684FF01000187414E03E490B6837
:100AF0004FF01A021A740EE09DF81230DB093A48E2
:100B0000016814BF302220220A7404E0364A1068BB
:100B10004FF01001017440F6A020C2F207000168F6
:100B2000CB7B03F00402D0B2002800F095804FF098
:100B3000000103914FF0030500954FF0010301936D
:100B400008464FF0090240F2D515C0F20805A84743
:100B5000002800F08E8103A84FF00101204B984738
:100B6000002800F086811F498847002800F0818115
:100B7000039DDFF878801A4F1A4E4FF0030200925F
:100B80004FF0010301934FF0000001462A46C04791
:100B9000002800F06E8104A84FF00101B84700283A
:100BA00000F06781B047002800F063819DF81000D5
:100BB000FF2800F05E81222802D19DF81230BBB1DF
:100BC0009DF81110002900F0548101F102016D1807
:100BD000039A02F580708542CFD94AE1E5190800F1
:100BE000511B0800691C0800A00A0720D501080055
:100BF0004FF0060300934FF0010301934FF0000004
:100C000001462A46BB4DA847002800F0328104A8BF
:100C10004FF00101B84A9047002800F02A81B749F7
:100C20008847002800F025819DF81530322B28BF19
:100C30003223B348026803F00700B24951F820108C
:100C40004FF47A7000FB01F1C3F3C303AE4850F8D0
:100C5000233003FB01F1116040F6A622C2F2070225
:100C6000107841F6A503C0F208039847032859D924
:100C700040F6A020C2F207000168CA7B02F004031C
:100C8000D8B230B303AD00954FF0000001464FF0ED
:100C9000080203469D4DA847002800F0EA809DF910
:100CA0000C10002915DA14AB4FF0020203F8442DA2
:100CB00000934FF001004FF000014FF00702034690
:100CC000A847002800F0D5808D4801684FF0040344
:100CD0004B7440F6A022C2F207021068C17B11F0EB
:100CE000010F1AD0838941F237104FEA034141F6D0
:100CF0005512C0F208029047002800F0BA8041F275
:100D000006104FF00201824B9847002800F0B18096
:100D10007B4801684FF004024A7440F2A513C0F208
:100D20000803984741F6B100C0F208008047002848
:100D300000F0818040F6A021C2F207010A68D37B4F
:100D400003F00400C1B259B303AD00954FF00000A9
:100D500001464FF0130203466C4DA847002800F0EF
:100D600088809DF80C2012F0010F19D014AB4FF0C1
:100D7000020003F8440D00934FF001004FF0000112
:100D80004FF013020346A847002872D05C490B6855
:100D90004FF0010283F8222018684FEA40011960E1
:100DA00040F6A023C2F207031868C27B12F0010FBD
:100DB0003CD0017C102939D94FF00103009341F256
:100DC0000610C0F208004FF60171C8F2FF014FF0A3
:100DD0004002504DA84700284BD004A84FF0010115
:100DE000454B9847002844D044488047002840D0CD
:100DF000494A904710F0800F3BD19DF8201001F038
:100E00000F030F2B12D09DF82D009DF82C2050EAD7
:100E100002222ED141498847394B18684FF0010210
:100E200080F8222001684FEA4103036040F2A510D8
:100E3000C0F20800804740F6A022C2F20702116803
:100E4000CB7B13F0010F06D041F210104FF400716C
:100E50002F4A904768B140F6A020C2F2070003680D
:100E60004FF00001997340F22922C0F20802904726
:100E70007FE040F6A024C2F2070420684FF003048C
:100E8000847340F22923C0F20803984771E04FF0C1
:100E9000000601E04FF0000644F205504FF000015B
:100EA00041F65513C0F20803984700287FF441AB80
:100EB00040F6A022C2F207021168CB7B13F0010FAB
:100EC0003FF44AADFFF76DBB40F6A020C2F2070029
:100ED00001684FF00203CB734FF480404FF00001E4
:100EE00041F65512C0F20802904700287FF49EABED
:100EF000B0E700BFD5010800511B0800691C0800BD
:100F0000A00A07203CB50800FCB40800490208000C
:100F100055190800E51908007D1908003119080065
:100F200040F6A020C2F207000168CA7B12F0010F50
:100F30007FF406AD10E545F602304FF00001384B66
:100F4000984700287FF4A9AB84E74FF0000081E7C1
:100F50004FF000007EE733490878334B9847032869
:100F60003FF666AC8DE44FF0000073E74FF00000F1
:100F700070E7204615B0BDE8F08FC8470028FFF69F
:100F800074AB41F2690606F1FF36FFF765BBC8474F
:100F90000028FFF66AAB013E7FF45EABD5E7494619
:100FA000C4F21F0144F22950002E08BF4FF4FC1177
:100FB000A847002888D0D0470028FFF61EAB40F68F
:100FC000350B0BF1FF3BFFF702BB4946C4F21F0193
:100FD00044F22950002E08BF4FF4FC11A847002806
:100FE0003FF472AFD0470028FFF607ABBBF1010B0F
:100FF0007FF4EDAA68E7C047011EFFF6C5AA384690
:1010000001F4FC11A84700283FF433AFC047011E8C
:10101000FFF6BAAAB9F102097FF4A1AA29E700BF35
:1010200055190800A60A0720A518080008B540F2BF
:10103000D523C0F20803984758B940F22920C0F2DE
:101040000800804740F6A021C2F207010A68D07B61
:1010500008BD4FF0000008BD08B540F2D523C0F22E
:101060000803984758B940F22920C0F20800804789
:1010700040F6A021C2F207010A68506808BD4FF08F
:10108000000008BD4FF00000704700BF2DE9F04F91
:1010900083B08B46924640F2D523C0F208039847AE
:1010A0008146002840F0818040F64158C0F2030894
:1010B00040F6A026C2F2070641F20D1541F655147E
:1010C000C0F2080441F67D17C0F208073068818934
:1010D00028464FEA0141A047002846D0B84710F4FF
:1010E000807F4AD108F1FF383268938928464FEA59
:1010F0000341A04700285CD137E04FEA4B2100E0D4
:1011000059464FF0010300934FF40072534641F6E5
:10111000E514C0F20804A04738B940F22921C0F212
:10112000080188474FF005093FE041F67D10C0F205
:10113000080080474FF00001CEF25841014039B11C
:1011400040F22920C0F2080080474FF005092CE04A
:1011500040F6A422C2F20702A2F800A040F69C23A7
:10116000C2F20703A3F800A01FE040F22922C0F258
:10117000080290474FF0050917E041F21110C0F244
:10118000080041F21214C0F21004BAF1010F88BF36
:10119000204640F6A022C2F207021368D97B01F074
:1011A0000804E2B2002AABD1A7E7484603B0BDE885
:1011B000F08FB84710F4807FDFD1306881892846EE
:1011C0004FEA0141A0470028CFD0B84710F4807FF4
:1011D000D3D1B8F102087FF479AFC6E710B50C4659
:1011E00041F65133C0F20803984748B940F6A421AC
:1011F000C2F207014FF000030B804FF0050010BD55
:1012000040F6A420C2F207000288141B04804FF0AD
:10121000000010BD08B541F66943C0F208039847C5
:10122000002830D040F6A420C2F20700018800292F
:101230002CD140F69C22C2F207021388012B07D161
:1012400040F22921C0F2080188474FF0000008BD94
:1012500043F20C104FF0000141F65512C0F20802A3
:10126000904740B943F20C104FF0000141F655137E
:10127000C0F20803984740F22920C0F208008047D6
:101280004FF0000008BD4FF0050008BD4FF0000012
:1012900008BD00BFF0B583B006460F46154640F2C4
:1012A000D524C0F20804A0470446002858D130468F
:1012B00041F28503C0F20803984738B140F2292370
:1012C000C0F2080398474FF0070449E049F21810AC
:1012D000C0F2080049F21911C0F21001012D88BFB7
:1012E000084640F6A022C2F207021668F37B03F01C
:1012F0000801CAB212B94FEA472100E039464FF05F
:10130000010600964FF400722B4641F6E516C0F236
:101310000806B04738B940F22920C0F208008047DB
:101320004FF005041CE041F67D10C0F20800804734
:101330004FF00003CEF2584303403BB140F2292462
:10134000C0F20804A0474FF0050409E040F6A421CC
:10135000C2F207010D8040F69C22C2F207021580FE
:10136000204603B0F0BD00BF10B50C4641F6E14386
:10137000C0F20803984748B940F6A421C2F2070119
:101380004FF000030B804FF0050010BD40F6A42085
:10139000C2F207000288141B04804FF0000010BD49
:1013A00008B541F6D953C0F20803984700282FD05A
:1013B00040F6A420C2F20700018800292BD140F694
:1013C0009C22C2F207021388012B07D140F2292385
:1013D000C0F2080398474FF0000008BD43F20C101C
:1013E0004FF0000141F65512C0F20802904738B99B
:1013F00040F22921C0F2080188474FF0050008BDDE
:1014000040F22920C0F2080080474FF0000008BDDC
:101410004FF0050008BD4FF0000008BD10B50446B0
:1014200040F29543C0F208039847012803D028B141
:10143000022820D115E04FF0030010BD40F6A8218E
:10144000C2F207010B5DCBB9204641F22D02C0F27A
:101450000802904700F0030000280CBF0220002083
:1014600010BD40F6A820C2F207004FF0000202555E
:101470004FF0020010BD4FF0010010BD4FF0020010
:1014800010BD00BF08B54FF0000041F21D43C0F28F
:101490000803984708BD00BF38B504460D4641F221
:1014A0005903C0F2080398474FEA400000F1FF31AA
:1014B0002960204641F21D42C0F20802904738BD23
:1014C00008B501464FF0000041F29943C0F208030D
:1014D000984708BD08B541F28503C0F20803984754
:1014E00008BD00BF08B54FF0000041F2D543C0F27F
:1014F0000803984708BD00BF4FF00100704700BFC8
:1015000008B54FF0000041F2F943C0F208039847D4
:1015100008BD00BF2DE9F041144641F28D03C0F231
:1015200008039847014670B302280CBF022001202F
:10153000BDE8F08144B114F0010F0CBF38464046BD
:101540004FF00101B047A0BB85B914F0010F0CBFEB
:10155000414639464FF001004FF400724FF000034E
:1015600045F64945C0F20805A84730B32CB141F211
:101570001520C0F20800804718BB04F1FF34A4B264
:101580004FF000050DE04FF0010541F2DD16C0F20D
:10159000080641F2B448C2F2070841F2B467C2F249
:1015A00007074FF6FF729442C4D14FF00000BDE828
:1015B000F0814FF00100BDE8F0814FF00100BDE87F
:1015C000F0814FF00100BDE8F08100BF08B503468F
:1015D0000A464FF00000194641F21553C0F20803C5
:1015E000984708BD2DE9F041144641F29523C0F219
:1015F00008039847014668B302280CBF0220012067
:10160000BDE8F08145B914F0010F0CBF38464046E3
:101610004FF00101B04798BB7CB114F0010F0CBF33
:10162000414639464FF000004FF40072034645F63C
:10163000494CC0F2080CE04730B32DB941F2A1305B
:10164000C0F20800804718BB04F1FF34A4B24FF089
:1016500000050DE04FF0010541F26936C0F20806C1
:1016600041F2B448C2F2070841F2B467C2F2070778
:101670004FF6FF729442C5D14FF00000BDE8F081F3
:101680004FF00100BDE8F0814FF00100BDE8F081AE
:101690004FF00100BDE8F08108B503460A464FF05F
:1016A0000000194641F2E553C0F20803984708BD0F
:1016B00010B514464FF0010241F28D03C0F2080349
:1016C000984720B102280CBF0220012010BD2046FF
:1016D0004FF0010141F2DD12C0F20802904740B91B
:1016E00041F21520C0F208008047003018BF0120E9
:1016F00010BD4FF0010010BD08B503460A464FF07B
:101700000000194641F2B163C0F20803984708BDD2
:1017100010B514464FF0010241F29523C0F20803C0
:10172000984720B102280CBF0220012010BD20469E
:101730004FF0010141F26932C0F20802904740B90E
:1017400041F2A130C0F208008047003018BF0120EC
:1017500010BD4FF0010010BD08B503460A464FF01A
:101760000000194641F21173C0F20803984708BD02
:1017700070B44FF080435D689C68D868D9695A6D31
:101780004FF080061E605D609C60D860D9615A652C
:101790004FF0000018654FF00501196070BC7047EC
:1017A00008B501F03F03184311F4807F0CD011F409
:1017B000006F02D040F4845006E011F4005F14BFC3
:1017C00040F4865040F4825011F4804F18BF40F42A
:1017D00000604FF080431A615861184601F480524E
:1017E000036C52B113F41F0F12D041F27172C0F2A8
:1017F000080290474FF0000008BD13F41B0F07D0FC
:1018000041F27171C0F2080188474FF0000008BD35
:1018100013F0010FE4D011F4005F19D14FF0010073
:1018200008BD086C03F1FF3300F03002202A19D103
:101830000BE041F27171C0F2080188474FF00000DF
:1018400008BD00F03002202AEBD14FF0010008BDA6
:101850004FF08040006C44F24023C0F20F034FF081
:101860008041EEE7086C013BEBD1E2E710B54FF0A9
:10187000150046F67554C0F20804A0474FF0270043
:10188000A0474FF080434FF072029A60DA614FF048
:10189000110058654FF4E06159604FF005021A607D
:1018A00010BD00BF00280CBF04200020704700BFFF
:1018B0004FF00100704700BF33B14FF08043586DC7
:1018C00040F48070586505E04FF08043586D20F477
:1018D0008070586581B14FEA41014FF43D43C0F239
:1018E0000153B3FBF1F001FB103109B100F101002C
:1018F00020B100F1FF3001E04FF000004FF08043D5
:10190000596821F0FF0159605968C0B20843586016
:10191000042A04D0082A0CBFC022002201E04FF0A4
:1019200080024FF08043DA60704700BF704700BF0D
:101930004FF080435A6822F4605058604FF0000125
:1019400019614FF410625A611846036C13F0010FCD
:10195000FBD0704710B504460A464FF080435968E3
:1019600021F4605058604FF00000186598612146DE
:1019700041F2A173C0F20803984710BD4FF08043B5
:10198000186A70474FF080431A6A4FEA126101707B
:101990004FEA124141704FEA12218170C2701A6AF7
:1019A0004FEA126101714FEA124141714FEA12216F
:1019B0008171C2711A6A4FEA126101724FEA1241D3
:1019C00041724FEA12218172C2721B6A4FEA13629E
:1019D00002734FEA134141734FEA13228273C373B8
:1019E000704700BF70B504460D469DF8101029B130
:1019F0004FF480704FF08041086504E04FF0000024
:101A00004FF0804630654FF08046706840F4C0511A
:101A1000716012F0030F04D0706840F400517160DF
:101A200005E04FF08046706820F40051716004F4C6
:101A30000046002E0CBF4FF4A0204FF4803014F469
:101A4000803F09D040F400104FEAC2564FEAD65109
:101A50004FF08046B16118E043EA02464FF0804102
:101A60008E6114F4003F02D040F420100DE014F415
:101A7000802F02D040F4801007E014F4002F04D12E
:101A800014F4801F18BF40F4002040F6B021C2F2C9
:101A900007014FF000060E6040F6AC21C2F20701CC
:101AA0000A8040F6AE22C2F20702138021462A467F
:101AB00041F2A173C0F20803984770BD08B54FF01A
:101AC00080414FF00002CCF260020B6C134207D051
:101AD00041F27170C0F2080080474FF0000008BD6D
:101AE00013F0020FF1D04FF080410A6B026040F614
:101AF000B020C2F20700036803F10403036040F65C
:101B0000AE21C2F207010A8840F6AC20C2F20700FB
:101B1000018801FB02F2934216D34FF080404FF050
:101B20000002CCF26002036C134207D041F27171E3
:101B3000C0F2080188474FF0000008BD13F0006FA5
:101B4000F1D04FF0010008BD4FF0010008BD00BF0B
:101B500070B586B0044640F6AC23C2F207031E8877
:101B600006FB01F64FF08040416811F4005F2FD171
:101B70004FF48045C4F20C05284642F21962C0F2C7
:101B80000802904728464FF0000142F22D63C0F250
:101B90000803984728464FF000014FF40072C0F246
:101BA000011242F27565C0F20805A8474FF03000F7
:101BB000C4F200000190029414F0030F02D0B4B2FA
:101BC00003942AE0C6F38F0444F00851039124E003
:101BD0004FF48045C4F20C05284642F21962C0F267
:101BE0000802904728464FF0000142F22D63C0F2F0
:101BF0000803984728464FF000014FF40072C0F2E6
:101C0000011242F27565C0F20805A8474FF0300096
:101C1000C4F2000001900294D1E74FF00001C4F239
:101C2000512104914FF0000405944FF48045C4F213
:101C30000C052846214601AA42F28163C0F208033E
:101C400098472846214642F22162C0F20802904796
:101C500040F6B020C2F207000168761806604FF027
:101C6000010006B070BD00BF10B540F6AE23C2F251
:101C70000703188840F6AC22C2F20702148804FB5E
:101C800000F440F6B021C2F2070108684FF080412D
:101C90004FF00002CCF260020B6C134212D041F202
:101CA0007170C0F2080080474FF48040C4F20C000D
:101CB0004FF0000142F22D62C0F2080290474FF04F
:101CC000000010BD844202D913F0007F05D113F04B
:101CD000006FE1D04FF0010010BD4FF0010010BDCA
:101CE00070B586B0044640F6AC23C2F207031E88E6
:101CF00006FB01F64FF08040416811F4005F27D1E8
:101D00004FF48045C4F20C05284642F21962C0F235
:101D10000802904728464FF000014FF40052C0F2ED
:101D2000011242F27563C0F20803984701944FF024
:101D30003400C4F20000029014F0030F02D0B4B2D9
:101D4000039422E0C6F38F0444F0085103911CE091
:101D50004FF48045C4F20C05284642F21962C0F2E5
:101D60000802904728464FF000014FF40052C0F29D
:101D7000011242F27563C0F20803984701944FF0D4
:101D80003400C4F200000290D9E74FF00001C6F21F
:101D9000310104914FF0000405944FF48045C4F2E2
:101DA0000C052846214601AA42F28163C0F20803CD
:101DB00098472846214642F22162C0F20802904725
:101DC00040F6B020C2F207000168761806604FF0B6
:101DD000010006B070BD00BF10B540F6AE23C2F2E0
:101DE0000703188840F6AC22C2F20702148804FBED
:101DF00000F440F6B021C2F2070108684FF08041BC
:101E00004FF00002CCF260020B6C134212D041F290
:101E10007170C0F2080080474FF48040C4F20C009B
:101E20004FF0000142F22D62C0F2080290474FF0DD
:101E3000000010BD844202D913F0007F05D113F0D9
:101E4000200FE1D04FF0010010BD4FF0010010BD98
:101E500010B504464FF4D350C4F20E004FF0000109
:101E600042F2DD63C0F208039847012C1BD82046DC
:101E700044F25D41C0F208018847032807D120469B
:101E800044F25D42C0F20802904703280ED080B9A8
:101E9000204644F2A943C0F208039847002814BF23
:101EA0000420002010BD4FF0010010BD4FF00100D4
:101EB00010BD4FF0010010BD08B544F25D43C0F203
:101EC0000803984720B102280CBF0320012008BD59
:101ED0004FF0000008BD00BF2DE9F04F85B004466B
:101EE0000E4617461D4644F28D42C0F20802904746
:101EF0008246002835D0204603A944F27543C0F23B
:101F000008039847D0460AFB0570039901FB0AA213
:101F1000904229D8AB4655B34FEA4A2A44F25D595C
:101F2000C0F2080905F1FF3303F0010001902046DB
:101F300039463246C847002821D01BE020463946A2
:101F40003246C847B0B905F101054744564420461A
:101F500039463246C847002829D00BE04FF0000030
:101F60000AE04FF0010007E04FF0040004E04FF0FA
:101F7000000001E04FF0010005B0BDE8F08F4FF028
:101F8000000505F10105474456445D45E6D2019937
:101F90000029D3D0204639463246C8470028E9D127
:101FA00005F10105474456445D45C7D3D6E705F121
:101FB0000105474456445D45C0D3CFE72DE9F04FB6
:101FC00085B004460E4617461D4644F28D42C0F2C7
:101FD000080290478246002835D0204603A944F2E3
:101FE0007543C0F208039847D0460AFB0570039971
:101FF00001FB0AA2904229D8AB4655B34FEA4A2AC0
:1020000044F29559C0F2080905F1FF3303F00100CD
:102010000190204639463246C847002821D01BE0AF
:10202000204639463246C847B0B905F10105474454
:102030005644204639463246C847002829D00BE08E
:102040004FF000000AE04FF0010007E04FF00400FD
:1020500004E04FF0000001E04FF0010005B0BDE8E2
:10206000F08F4FF0000505F10105474456445D45EA
:10207000E6D201990029D3D0204639463246C847D6
:102080000028E9D105F10105474456445D45C7D311
:10209000D6E705F10105474456445D45C0D3CFE777
:1020A0007F282DD911B9C7280BD121E0FF2825D8C9
:1020B000A0F180004BF27872C0F2080232F81000F2
:1020C00070474FF001034BF27872C0F2080232F809
:1020D000021F814215D10DE032F8021F814209D062
:1020E00003F101039BB232F8021F81420DD101E0DE
:1020F0004FF0000303F18000C0B270474FF00000C2
:10210000704703F101039BB2E6E703F101039BB2C1
:10211000802BE1D1EEE700BF61280ED04BF2985141
:10212000C0F208014FF0000202F1010231F8023F53
:102130005BB18342F8D113B970474FF000024BF600
:102140007800C0F2080030F81200704739B140F64C
:10215000B420C2F207004FF001010170704740F651
:10216000B423C2F207034FF000021A70704700BF99
:1021700040F6B523C2F207034FF001021A70704710
:1021800040F6B523C2F207031878E0B1EFF31082EE
:1021900072B6BFF35F8F4FF0000340F23821C2F2F6
:1021A00007010B7040F6B520C2F2070003706AB950
:1021B0004FF0010040F23822C2F207021070BFF364
:1021C0005F8F62B670474FF0000070474FF001001C
:1021D000704700BF704700BF704700BF704700BF27
:1021E00010B54FF0000041F21D43C0F208039847BC
:1021F00041F64C51C2F20701087001281ED041F689
:10220000D824C2F2070420464FF000014FF40C72AC
:1022100049F21343C0F2080398474FF000002146EB
:1022200044F2C512C0F20802904742F25031C2F2A5
:10223000070108700B3818BF012010BD4FF00000D7
:1022400010BD00BF2DE9F04F8DB002460B91037811
:10225000202B07D100F10100024600F101001178A6
:102260002029F9D041F62850C2F20700114644F265
:10227000F913C0F20803984742F25032C2F2070243
:102280001070002840F0C4804FF00008CDF828807E
:10229000C34641F60854C2F2070442F25017C2F294
:1022A000070741F62859C2F2070942F25035AA46FB
:1022B000C2F2070AA7614FF40070E0614846214668
:1022C00044F28D23C0F2080398478AF800000028E2
:1022D0007CD1617A002979D0267A06F01002D5B235
:1022E00025B108F101084FF0440207E00A9800F117
:1022F00001000A9023689B444FF02D0206F0010371
:1023000006F0020C5FFA8CF100290CBF4FF02D0C87
:102310004FF0480C06F0040E5FFA8EF5002D0CBF4E
:102320004FF02D0E4FF0530E06F02006F0B20028AD
:102330000CBF2D214121A088E68841F65055C2F2FC
:102340000705CDF800C0CDF804E002914FEA502116
:1023500001F2BC710391C0F34311049100F01F001E
:1023600005904FEAD6210691C6F3451607962146F9
:1023700051F8090B0890099128464BF65821C0F2F4
:102380000801002B0CBF2D23522349F26546C0F2F1
:102390000806B04740194BF68421C0F208013A46BE
:1023A000B0470B9A002A85D041F65055C2F2070576
:1023B000284649F2AD43C0F2080398470146284633
:1023C00044F65172C0F20802904773E741F6505448
:1023D000C2F20704CDF8008020464BF68C21C0F2F3
:1023E00008010A9A5B4649F26545C0F20805A8470C
:1023F000204649F2AD41C0F2080188470146204617
:1024000044F65173C0F2080398474FF0010001E011
:102410004FF000000DB0BDE8F08F00BF2DE9F8438C
:1024200042F28113C0F20803984700285FD040F6BB
:10243000B624C2F20704208842F25435C2F20705DE
:1024400040194FF0010144F61152C0F208029047C2
:1024500006462188685C44F67D63C0F2080398470D
:10246000208800F1010083B2238016B3312B20D8DD
:1024700042F25435C2F207054FF0010944F61158F3
:10248000C0F2080840F6B624C2F2070444F67D679D
:10249000C0F2080758194946C04706462288A85C7A
:1024A000B847218801F101018BB223800EB1312B95
:1024B000F0D940F6B620C2F20700028842F2543149
:1024C000C2F207018B1813F8010C78280FD142F2E1
:1024D000E112C0F2080290474BF6B820C0F20800A3
:1024E0004FF0010142F24523C0F208039847BDE8CE
:1024F000F88300BF42F29033C2F2070398780428B1
:1025000002D005283BD104E040F24C02C2F207029F
:1025100003E040F25C02C2F2070240F23003C2F272
:10252000070311785980507898809178D980D078B5
:10253000188111795981507998819179D981D0790F
:102540001882117A5982507A9882917AD982D07AF7
:102550001883127B5A834FF01C01197042F290309D
:10256000C2F2070081818360C3881B2B0AD842F224
:102570009032C2F2070293814FF0010070474FF092
:10258000000070474FF00100704700BF0420714603
:10259000084200F00480EFF3098000F005B8EFF383
:1025A000088000F001B800BF8EB003680D93416849
:1025B0000C9182680B92C3680A9301690991426980
:1025C000089283690793C06906904EF62851CEF2AF
:1025D00000010A6805924EF62C53CEF200031868EB
:1025E00004904EF63051CEF200010A6803924EF686
:1025F0003C53CEF20003186802904EF63451CEF2EE
:1026000000010A6800924EF63853CEF200031868B3
:10261000019000BEFEE700BF4FF00103436070472A
:102620004FF0010303FA01F1816270474FF001039B
:1026300003FA01F1C162704701EB810100EBC100B7
:10264000C263704701EB810100EBC1000264704777
:1026500001EB810100EBC1004264704701EB810195
:1026600000EBC1008264704701EB810100EBC10007
:10267000C264704701EB810100EBC1000265704745
:1026800070B504460E461546436A126842F2396335
:10269000C0F208039847204631466A6842F2456313
:1026A000C0F208039847204631464FF0000242F23C
:1026B0005163C0F20803984720463146AA6842F2A7
:1026C0005D63C0F20803984720463146EA6842F24B
:1026D0006963C0F20803984770BD00BF21B142682A
:1026E00042F0010343607047436823F001014160F9
:1026F000704700BF92B182186FEA0003D31803F04D
:10270000010300F8011B904209D17047034603F80A
:10271000011B417003F101009042F7D17047002B7B
:10272000F4D000F8011B9042F0D17047037833B128
:102730008B4204D010F8013F0BB18B42FAD11846FE
:10274000704700BFA1F102018369A3F1020399421E
:1027500004D28278806A02FB010070474FF00000CB
:10276000704700BF03784FEAC31242EA530143782F
:10277000CA18D1B24FEAC11343EA510182788B18CB
:1027800003F0FF014FEAC11242EA5103C1785A181F
:1027900002F0FF034FEAC31141EA5303027999188B
:1027A00001F0FF034FEAC31242EA53014379CA180A
:1027B00002F0FF014FEAC11343EA510182798B18FD
:1027C00003F0FF014FEAC11242EA5103C1795A18DE
:1027D00002F0FF034FEAC31141EA5303027A99184A
:1027E00001F0FF034FEAC31242EA5301437ACA18C9
:1027F00002F0FF014FEAC11343EA5101807A0A183F
:10280000D0B2704708B5034688B1027892B1C0884B
:10281000884212D1587841F6B961C0F20801884760
:1028200000F00103002B14BF0320002008BD4FF06F
:10283000090008BD4FF0090008BD4FF0090008BDB0
:1028400038B504460A46407804F130014FF00103E0
:1028500041F6D965C0F20805A84700283ED194F892
:102860002F2294F82E3243EA022001B24AF6552272
:10287000CFF6FF72914234D194F8690094F8683031
:102880004FEA034141EA006294F8660042EA00031D
:1028900094F8671043EA012222F07F4044F2461385
:1028A000C0F2540398421FD094F8851094F8842005
:1028B0004FEA024040EA016194F8823041EA0302A3
:1028C00094F8830042EA002121F07F4244F246134B
:1028D000C0F25403D01A18BF012038BD4FF00300D6
:1028E00038BD4FF0020038BD4FF0000038BD00BFCA
:1028F0002DE9F041154603681C78A4F13004092C39
:1029000008D85A783A2A05D103F102030360002C53
:1029100040F0978140F6BC20C2F2070004680C60CA
:10292000002C00F092812178A1B1607841F6B96362
:10293000C0F20803984710F0010F0BD1002D00F0F2
:10294000888100F00401C8B2002814BF0A200020CA
:10295000BDE8F0814FF000002070607041F65162D8
:10296000C0F20802904710F0010F40F076812DB1BF
:1029700000F00400C1B2002940F0738120464FF0FE
:10298000000142F64103C0F20803984701281CD118
:1029900094F8F221002A00F0688194F8F95194F833
:1029A000F8014FEA004141EA056294F8F63142EA43
:1029B000030094F8F75140EA05252046294642F6DF
:1029C0004102C0F20802904701E04FF000050328E1
:1029D00000F04F81002840F0508194F83C1094F8AA
:1029E0003B3043EA012002B2B2F5007F40F049815A
:1029F00094F8471094F8463053EA01210FD194F827
:102A0000570094F856204FEA024141EA006094F8DA
:102A1000543040EA030294F8551042EA0121E16182
:102A200094F84020E27002F1FF30C3B2012B00F2B3
:102A30002C8194F83D30A370002B00F02A8103F123
:102A4000FF30184240F0298194F8426094F8410028
:102A500040EA0626B0B2208116F00F0F40F0218127
:102A600094F8447094F8436056EA07260ED194F81F
:102A7000537094F852604FEA064646EA076794F8A6
:102A800050603E4394F8517046EA072694F83FC0E0
:102A900094F83E7057EA0C2700F0078102FB01FC16
:102AA00007EB101262449642C0F00381B61AB6FBDF
:102AB000F3F3002B00F0018140F6F576B3428CBFB2
:102AC000022601264FF6F578434500F2068103F110
:102AD0000203A3615219A262EF192762032E15D1D6
:102AE000002840F0EE8094F85F0094F85E204FEAF2
:102AF000024242EA006094F85C20024394F85D00D0
:102B000042EA002262624FEA830011E0002800F0EE
:102B1000DC8067446762022E02D14FEA430007E07F
:102B20004FF0030000FB03F203F0010303EB52003C
:102B300000F2FF13B1EB532FC0F0CB804FF0FF3109
:102B400021614FF00000E060032E6CD1607194F8B9
:102B5000612094F8603043EA02216A18626160786B
:102B600004F130014FF00103614DA84700285AD10C
:102B700094F82F0294F82E2242EA002319B24AF662
:102B80005520CFF6FF7081424DD194F8332094F850
:102B900032304FEA034141EA026094F8302040EAC3
:102BA000020394F8311043EA012045F25222C4F2A4
:102BB0006112904237D194F8171294F816324FEA06
:102BC000034040EA016294F8141242EA010394F8C7
:102BD000150243EA002247F27221C6F241118A42ED
:102BE00021D194F81F0294F81E324FEA034242EAC0
:102BF000006194F81C0241EA000394F81D2243EAA4
:102C00000221E16094F81B0294F81A324FEA034261
:102C100042EA006194F8180241EA000394F819228C
:102C200043EA0221216126703248038803F101033F
:102C30009AB20280E2804FF00000E0622071BDE8AD
:102C4000F0814FF00B00BDE8F0814FF00C00BDE8C3
:102C5000F0814FF00000BDE8F0814FF00300BDE8C7
:102C6000F0814FF00A00BDE8F0814FF00D00BDE8A3
:102C7000F0814FF00100BDE8F0814FF00D00BDE89C
:102C8000F0814FF00D00BDE8F0814FF00D00BDE880
:102C9000F0814FF00D00BDE8F0814FF00D00BDE870
:102CA000F0814FF00D00BDE8F0814FF00D00BDE860
:102CB000F0814FF00D00BDE8F0814FF00D00BDE850
:102CC000F0814FF00D00BDE8F0814FF00D00BDE840
:102CD000F0814FF00D00BDE8F08103F10203A36124
:102CE0005619A662EF1927624FF00306F8E600BFF7
:102CF000D91E0800B80A07202DE9F8430C4601F157
:102D000009020369002B00F0E28043691E7B1978F9
:102D1000202900F08A80052914BF0A46E52206F022
:102D2000080505F0FF0135B1A2F14105EDB2192DFD
:102D30009CBF2032D2B2627204F10A025D78202D6B
:102D400073D0052D08BFE52531B1A5F14102D2B2FE
:102D5000192A9CBF2035EDB2A57204F10B029D78B3
:102D6000202D62D0052D08BFE52531B1A5F1410226
:102D7000D2B2192A9CBF2035EDB2E57204F10C02E3
:102D8000DD78202D51D0052D08BFE52531B1A5F105
:102D90004102D2B2192A9CBF2035EDB2257304F14D
:102DA0000D021D79202D40D0052D08BFE52531B13C
:102DB000A5F14102D2B2192A9CBF2035EDB265734C
:102DC00004F10E025D79202D2FD0052D08BFE525D9
:102DD00031B1A5F14102D2B2192A9CBF2035EDB222
:102DE000A57304F10F029D79202D1ED0052D08BF7B
:102DF000E52531B1A5F14102D2B2192A9CBF203597
:102E0000EDB2E57304F11002DD79202D0DD0052D12
:102E100008BFE52531B1A5F14101CAB2192A9CBF0D
:102E20002035EDB2257404F111021D7A202D36D023
:102E300015464FF02E0105F8011B197A20292DD0D7
:102E400006F0100606F0FF0536B1A1F14106F6B214
:102E5000192E9CBF2031C9B2517002F10206597A75
:102E600020290DD035B1A1F14106F6B2192E9CBF33
:102E70002031C9B2917002F10306997A202901D15B
:102E800032460CE035B1A1F14105EEB2192E9CBFDE
:102E90002031C9B2D17002F1040200E02A46D97A89
:102EA0002172DD7F9E7F4FEA064141EA05661D7F64
:102EB0002E43597F46EA012626605D7E197E41EA4F
:102EC0000526A680D97D9B7D43EA0126E6804FF04A
:102ED00000011170A669002E34D0E26992B3056931
:102EE000FDB1018C4FF6FF7399421DD0C769388838
:102EF000E8B14FF00005A94642F2A108C0F2080867
:102F00004946C0470146A8B1E06900F1FF32AA4234
:102F100013D9715505F1010537F8020F0028EFD1DB
:102F20000DE04FF000050AE04FF0000507E04FF01C
:102F3000000504E04FF0000501E04FF000054FF000
:102F400000037355BDE8F8832DE9F84F04460D469C
:102F5000C66A8E425BD00379002B48D000F130075F
:102F60004078394632464FF0010341F6BD7CC0F24D
:102F7000080CE04700284ED14FF000002071E269B4
:102F8000216A53189E4232D294F803A0BAF1010F7D
:102F90002DD94FF0010941F6BD78C0F208080AEAC0
:102FA000090BB6186078394632464B46C0470AF1DD
:102FB000FF3A5FFA8AFACA4539D118E0E069361853
:102FC0006078394632464B46C0470AF1FF3C0CF068
:102FD000FF0AE269B6186078394632464B46C04768
:102FE0000AF1FF315FFA81FABAF1010FE6D1B5B10A
:102FF000607804F130012A464FF0010341F6D966AA
:10300000C0F20806B04770B9E562BDE8F88F4FF02E
:103010000000BDE8F88F4FF00100BDE8F88F4FF0D9
:103020000000BDE8F88F4FF00100BDE8F88F4FFABF
:103030008BF2002AC2D0E1697618607839463246B0
:103040004B46C0470AF1FF335FFA83FABAF1010F2A
:10305000B4D1CCE7F8B505460C46012978D9836987
:10306000994278D20078022838D003284ED001281F
:1030700074D101EB5106296A284601EB562142F62C
:103080004972C0F20802904700286AD14FEAC65739
:103090004FEAD753E81890F8307006F10106296A14
:1030A000284601EB562142F64972C0F208029047C9
:1030B000002859D14FEAC6564FEAD656AD1995F8B1
:1030C000303047EA032014F0010F02D04FEA10100D
:1030D000F8BD4FEA00514FEA1150F8BD2B6A28465F
:1030E00003EB112142F64972C0F208029047002812
:1030F0003DD14FEA04604FEAD054291991F830309D
:103100002C1994F8312043EA0220F8BD2A6A284697
:1031100002EBD11142F64973C0F208039847002828
:1031200028D14FEA44644FEAD45101F130002B1802
:103130009C78DA784FEA026040EA04445B7844EA1B
:1031400003226C1894F830100A4322F07040F8BD46
:103150004FF00100F8BD4FF00100F8BD4FF0FF3017
:10316000F8BD4FF0FF30F8BD4FF0FF30F8BD4FF025
:10317000FF30F8BD4FF0FF30F8BD00BFF8B5044692
:103180000D46E1808168012943D003689A69914224
:1031900042D279B91878032801D1596A51B94FF050
:1031A0000000E0601A89AA4239D95B6A03EB151165
:1031B000216122E09E784FEA0616B54213D343F20E
:1031C0005507C0F208072068B8470146B0F1FF3F35
:1031D00028D0012829D923689A69904228D2AD1BAA
:1031E000ADB2AE42EFD9E160206842F24573C0F261
:1031F0000803984700EB1511216105F00F004FEA15
:10320000401202F130022368991861614FF000000A
:10321000F8BD4FF00200F8BD4FF00200F8BD4FF0CE
:103220000200F8BD4FF00100F8BD4FF00200F8BDFC
:103230004FF00200F8BD00BFF8B505460C46164633
:10324000012940F297808369994280F09680007846
:1032500002284CD0032862D0012840F0858001EB81
:103260005107296A284601EB572142F64972C0F2FC
:10327000080290470346002878D14FEAC7534FEA27
:10328000D35014F0010409D02A1892F8303003F01A
:103290000F02F1B242EA0113D9B200E0F1B22818EC
:1032A00080F8301007F101074FF001022A71296AF6
:1032B000284601EB572142F64973C0F208039847AC
:1032C0000346002852D14FEAC7574FEAD75014B1EE
:1032D000C6F3071607E02A1892F8301021F00F07FE
:1032E000C6F303263E432F1887F830603EE02B6A72
:1032F000284603EB112142F64972C0F208029047BA
:10330000034698BB4FEA04644FEAD451681880F82A
:1033100030600446C6F3072680F8316026E02B6A49
:10332000284603EBD11142F64972C0F208029047D9
:103330000346D8B94FEA44644FEAD45000F1300153
:103340006A18D4784FEA04612C1801F070400643E3
:1033500084F83060C6F3072151704FEA1640907030
:103360004FEA1666D67001E04FF002034FF00102FB
:103370002A7104E04FF0020301E04FF00203184607
:10338000F8BD00BF2DE9F8430546894631B9C66846
:103390008EB18069864228BF01260EE043F25503B4
:1033A000C0F208039847014601284ED9AA69904205
:1033B00055D34E4601E04FF0010634464FF0020867
:1033C00043F25507C0F2080704F10104A9698C42D1
:1033D00002D3012E3CD9444628462146B84701462F
:1033E00038B1B0F1FF3F3AD0012838D0B442EBD128
:1033F00031E02646284621466FF0704243F23923D9
:10340000C0F2080398470246C8B9B9F1000F09D0C5
:1034100028464946224643F23923C0F2080398471A
:10342000024660B9EE602869B0F1FF3F16D000F1A6
:10343000FF332B614FF001026A7121460FE0012A30
:1034400014BF01214FF0FF3109E04FF0010106E008
:103450004FF0000103E04FF0000100E02146084674
:10346000BDE8F8832DE9F04704460E46C58805F10E
:103470000105ADB2002D7CD00369002B7DD015F085
:103480000F076AD103F101030361C16821B9036821
:103490001A89AA4275D960E00068827802F1FF3388
:1034A00013EA151359D143F25502C0F208029047AE
:1034B0008046012869D9B0F1FF3F6AD02068816950
:1034C000884540D3002E68D0E168404B984780463D
:1034D000002866D0012868D0B0F1FF3F69D020688D
:1034E0004FF000013A4A9047002866D1206800F169
:1034F00030004FF000014FF40072364EB04726689E
:1035000030464146344B9847F0624FF000064FF08A
:10351000010ADFF8BC900FE080F804A020684FF0AB
:103520000001C84700284CD12068C16A01F101019F
:10353000C16206F10106F6B220688178B142EBD88B
:10354000C26A931BC362C4F80C802068414642F2F1
:103550004572C0F2080290472061E5804FEA4717A4
:1035600007F130072068C11961614FF00000BDE824
:10357000F0874FF00400BDE8F0874FF00400BDE88D
:10358000F0874FF00400BDE8F0874FF00200BDE87F
:10359000F0874FF00100BDE8F0874FF00400BDE870
:1035A000F0874FF00700BDE8F0874FF00200BDE85C
:1035B000F0874FF00100BDE8F0874FF00100BDE853
:1035C000F0874FF00100BDE8F08700BF85330800A9
:1035D000492F0800F5260800452708002DE9F04F7F
:1035E00085B004464FF0000143F27D13C0F208039A
:1035F00098470746002840F03B824FF0FF0BD84623
:1036000042F64979C0F20809DA4642F21910C0F2CE
:103610000800019042F26571C0F208010091206833
:103620002169C8470746002840F0228265692E7844
:10363000002E00F00F82EB7A03F03F02E52E00F03F
:10364000E18103F00800C1B219B10F2A40F0DC811A
:1036500002E00F2A40F09881E769002F00F0ED8129
:1036600006F04001CBB233B195F80DB006F0BF06BD
:10367000E288228404E0B04518BFD04640F0DD81E6
:10368000687B0290584540F0C181297821F04003C1
:1036900003F1FF3000EB400200EB82010391A878B8
:1036A0006B7843EA0020019A904780460399FE29EF
:1036B00000F2DA8101F1010B37F81100019B984704
:1036C000804540F0D1812879EA7842EA0020B8F1BB
:1036D000000F04D14FF6FF71884211D0C4E1019B65
:1036E00098478046BBF1FE0F00F2BE8137F81B0001
:1036F000039A02F1020B01998847804540F0B4819A
:10370000A8796B7943EA0020B8F1000F04D14FF695
:10371000FF72904210D0A7E1019988478046BBF123
:10372000FE0F00F2A18137F81B000BF1010B019B8A
:103730009847804540F09881287AEA7942EA00204B
:10374000B8F1000F04D14FF6FF71884210D08BE121
:10375000019B98478046BBF1FE0F00F2858137F848
:103760001B000BF1010B019A9047804540F07C81D2
:10377000A87A697A41EA0020B8F1000F04D14FF627
:10378000FF73984210D06FE1019A90478046BBF1D9
:10379000FE0F00F2698137F81B000BF1010B019954
:1037A0008847804540F06081E87BAB7B43EA00209E
:1037B000B8F1000F04D14FF6FF72904210D053E1E0
:1037C000019988478046BBF1FE0F00F24D8137F822
:1037D0001B000BF1010B019B9847804540F0448191
:1037E000687C2A7C42EA0020B8F1000F04D14FF631
:1037F000FF71884210D037E1019B98478046BBF1AA
:10380000FE0F00F2318137F81B000BF1010B019A1A
:103810009047804540F02881E87CA97C41EA00205F
:10382000B8F1000F04D14FF6FF73984210D01BE19E
:10383000019A90478046BBF1FE0F00F2158137F8E0
:103840001B000BF1010B01998847804540F00C816A
:10385000687D2B7D43EA0020B8F1000F04D14FF6BC
:10386000FF72904210D0FFE0019988478046BBF17B
:10387000FE0F00F2F98037F81B000BF1010B019BE2
:103880009847804540F0F080E87DAA7D42EA00201C
:10389000B8F1000F04D14FF6FF71884210D0E3E079
:1038A000019B98478046BBF1FE0F00F2DD8037F8A0
:1038B0001B000BF1010B019A9047804540F0D4802A
:1038C000687E297E41EA0020B8F1000F04D14FF64E
:1038D000FF73984210D0C7E0019A90478046BBF131
:1038E000FE0F00F2C18037F81B000BF1010B0199AC
:1038F0008847804540F0B880687F2B7F43EA0020EE
:10390000B8F1000F04D14FF6FF72904210D0ABE037
:10391000019988478046BBF1FE0F00F2A58037F879
:103920001B000BF1010B019B9847804540F09C80E8
:10393000E87FAA7F42EA0020B8F1000F10D0019979
:1039400088478046BBF1FE0F00F28E800BF1010329
:10395000039337F81B00019A9047804505D083E018
:103960004FF6FF77B84278D07EE0287800F040012B
:10397000CBB2002B71D0B8F1000F6ED0039A37F89C
:103980001270002F69D06FE0B8F1000F04D1284603
:10399000009B984758456BD04FF6FF722284A06970
:1039A000C17A11F0010F33D12B780278934231D1D3
:1039B0006978437899422FD1A978827891422DD1A4
:1039C000EB78C1788B422BD12B790279934229D1A4
:1039D00069794379994227D1A9798279914225D190
:1039E000EB79C1798B4223D12B7A027A934221D190
:1039F000697A437A99421FD1AA7A807A824237D073
:103A0000D0461AE0D04618E0D04616E0D04614E082
:103A1000D04612E0D04610E0D0460EE0D0460CE092
:103A2000D0460AE0D04608E0D04606E0D04604E0A2
:103A3000D04602E0D04600E0D04620464FF00001DC
:103A400043F26543C0F208039847074600283FF455
:103A5000E6AD0DE04FF004070AE006F1FF365FFA2D
:103A600086F8DDF808B0E8E7DDF808B0D046E4E70E
:103A7000384605B0BDE8F08F2DE9F04F87B00090D3
:103A80008B460B782F2B01D05C2B01D10BF1010B56
:103A90004FF00000009988609BF800201F2A0DD885
:103AA00008464FF0000143F27D13C0F20803984727
:103AB00002464FF0000000994861B7E142F2A104CC
:103AC000C0F2080405944BF63C36C0F20806039693
:103AD00042F22D77C0F2080702975E461BF8013BC1
:103AE0002F2BFAD05C2BF8D00098C1690191307867
:103AF0001F2840F273812F2800F05A815C2800F0C3
:103B00005C810F46A7F1020735464FF00104A3463A
:103B10000496DDF814A012E02F2B00F053815C2BEB
:103B200000F05281B1F5807F00F0758189460C4626
:103B30005946D0470646002840F0AA816BE1594615
:103B4000D0470646002800F066817F2806D80398F3
:103B50003146029A9047002840F05D8107F1020843
:103B60007E8015F8013F184604F101011F2BD3D8C0
:103B7000049E39E1002C00F04E8104F1FF3000F08A
:103B80000101019B03EB440232F8020D202840F0B2
:103B9000658166E132F8023D202B01D02E2B08D141
:103BA00004F1FF30041E32F8021D202940F0698123
:103BB0006AE12646002C00F02E81019A02EB4408AF
:103BC0004FF0000522F81450009B98694FF0200137
:103BD0004FF00B0242F2F563C0F208039847019AD6
:103BE000A2F1020201E005F1010532F8020F2028DE
:103BF000F9D02E28F7D0002D00F0FB8047F0030706
:103C0000F7E004F1FF30044650B94FF008094FF0D7
:103C10000008C2464BF64833C0F20803049307E09D
:103C2000A8F1020636F8021C2E2940F00D81ECE7BF
:103C3000019830F8156005F10105002E5CD0202EAA
:103C400004D02E2E05D1AC4200F0E88047F00307E7
:103C5000EEE7C84502D2AC4217D1D7E0B9F10B0F5D
:103C600003D147F00307504649E0AC4203D047F088
:103C70000307A54242D84FEA8A0A5FFA8AFA254624
:103C80004FF00B094FF00808D2E77F2E11D93046CC
:103C90004FF00001059EB047002800F0C4804BF6AD
:103CA000BC22C0F20802131813F8806C47F0020718
:103CB00026B104983146029A904720B147F0030795
:103CC0004FF05F0611E0A6F1410081B2192902D838
:103CD0004AF0020A09E0A6F161039AB2192A04D84F
:103CE0004AF0010AA6F12006B6B20098816901F8EF
:103CF000086008F101089BE7504600E05046009B31
:103D000099690A78E52A04BF05220A70B9F1080FFB
:103D100004BF80005FFA80FA0AF00C000C2803D080
:103D20000AF00303032B01D147F0020707F0020159
:103D3000CAB252B90AF0030ABAF1010F08BF47F03C
:103D40001007042808BF47F0080700988369DF724E
:103D500043F2DD51C0F208018847009A9369DB7A8B
:103D6000024648B1042A61D103F00403D9B2002904
:103D700014BF0246052259E003F00400C1B2002935
:103D800054D1009A5369D87A00F01001CAB262B1D6
:103D90005C7D1F7D47EA0426D87E9B7E43EA002196
:103DA00041EA0644009A946097E64FF005023DE030
:103DB0004FF000044FF001010BE04FF000044FF012
:103DC000010106E0049E04E0049E02E0049E00E07F
:103DD000049E06EB010B4FF00007CBE64FF000040A
:103DE0004FF0010100E0049E06EB010B4FF00407C9
:103DF000C0E606F1FF36019931F816202E2A3FF46D
:103E000004AF14F0010F7FF4FCAE13E0B9F10B0F17
:103E10007FF431AF25E74FF0060207E0B9F10B0F51
:103E20007FF429AF1DE747F0020747E7104607B0C8
:103E3000BDE8F08F04F1FF34A8F1020838F8023C25
:103E40002E2B7FF4DEAEE0E600F1FF34A6F102088F
:103E500038F8022C2E2A7FF4D4AED6E62E287FF432
:103E6000A8AE013CD7D000293FF494AE32F8021D31
:103E7000202902D02E297FF49CAE013C7FF48AAE2B
:103E8000C9E72E297FF495AE441E7FF483AEC2E7C6
:103E90007F2805D803983146029A90470028BAD166
:103EA00008F10207A8F8026015F8016F304604F126
:103EB00001011F2E97D92F2E88D05C2E88D009F1B2
:103EC00001043CE62DE9F84F04464FF0FF0B5E4637
:103ED0004FF0040542F64977C0F20807DA464FF082
:103EE000000843F26549C0F2080954E12068B84768
:103EF0000546002840F0548160690378002B00F0EB
:103F00005B81C27AE52B00F03A812E2B00F03981DB
:103F100002F03F0102F00802D2B21AB10F2940F0BC
:103F2000328102E00F2940F01E8103F04005E9B222
:103F300031B190F80DB003F0BF03E688268404E0A9
:103F40009E4218BF564640F02181417B594540F0C2
:103F50001C81E669027802F03F0505F1FF3202EBB1
:103F6000420E02EB8E0E8578427842EA0525BEF1BC
:103F7000FE0F00F2198126F81E500EF1010290F892
:103F800004B090F803C04CEA0B2B25B94FF6FF7E26
:103F9000F34508D008E1FE2A00F2068126F812B0A7
:103FA0000EF102025D4690F806C090F805B04BEAAB
:103FB0000C2E25B94FF6FF7CE64508D0F4E0FE2A2A
:103FC00000F2F28026F812E002F10102754690F844
:103FD00008B090F807E04EEA0B2B25B94FF6FF7CAE
:103FE000E34508D0E0E0FE2A00F2DE8026F812B0B9
:103FF00002F101025D4690F80AB090F809E04EEA3D
:104000000B2B25B94FF6FF7CE34508D0CCE0FE2A08
:1040100000F2CA8026F812B002F101025D4690F863
:104020000FB090F80EE04EEA0B2B25B94FF6FF7C4F
:10403000E34508D0B8E0FE2A00F2B68026F812B0B8
:1040400002F101025D4690F811B090F810E04EEADE
:104050000B2B25B94FF6FF7CE34508D0A4E0FE2AE0
:1040600000F2A28026F812B002F101025D4690F83B
:1040700013B090F812E04EEA0B2B25B94FF6FF7CF7
:10408000E34508D090E0FE2A00F28E8026F812B0B8
:1040900002F101025D4690F815B090F814E04EEA86
:1040A0000B2B25B94FF6FF7CE34507D07CE0FE2AB9
:1040B0007AD826F812B002F101025D4690F817B0E6
:1040C00090F816E04EEA0B2B25B94FF6FF7CE3453E
:1040D00007D069E0FE2A67D826F812B002F1010283
:1040E0005D4690F819B090F818E04EEA0B2B25B910
:1040F0004FF6FF7CE34507D056E0FE2A54D826F859
:1041000012B002F101025D4690F81DB090F81CE07B
:104110004EEA0B2B25B94FF6FF7CE34507D043E071
:10412000FE2A41D826F812B002F101025D4690F84D
:104130001FB090F81EE04EEA0B2C35B1FE2A33D8A2
:1041400026F812C002F1010203E04FF6FF75AC45FC
:104150002AD1007800F04005E8B240B3FE2A23D807
:1041600026F8128023E036B942F26573C0F20803E4
:104170009847584523D04FF6FF7020841FE05646DD
:1041800004E0564602E0564600E0564620464146C8
:10419000C847054620B9216900297FF4A7AE75B14B
:1041A0004FF0000121610AE08B465646EEE703F12D
:1041B000FF33DEB28B46E9E74FF00405F0E728460F
:1041C000BDE8F88FA0B940F6BC23C2F20703186817
:1041D00010B14FF00002027011B14FF000030B70EC
:1041E00040F6BC20C2F2070001604FF000007047AB
:1041F0004FF00B00704700BF10B5ADF5067D0446CB
:10420000019101A821464FF0000242F6F103C0F2ED
:10421000080398470146002833D183A8A06103A969
:10422000E1612046019943F67922C0F208029047E5
:10423000014690B96369BBB1D87A00F01001CAB2E7
:104240007AB1587D197D41EA0022D87E9B7E43EAEF
:10425000002141EA0242A26006E0042908BF0521CC
:104260000FE04FF005010CE02068C388A3802046D2
:104270004FF0000143F27D12C0F208029047014660
:10428000EBE708460DF5067D10BD00BF70B5ADF536
:10429000047D04460E460068A18842F60503C0F27C
:1042A000080398470546002833D14EB920464FF001
:1042B000000143F27D15C0F20805A847054628E035
:1042C00081A8A06101A9E161204643F6C562C0F260
:1042D00008029047042803D14FF00003236100E057
:1042E000A0B92046314642F6F942C0F20802904792
:1042F00020464FF0000143F26543C0F2080398479F
:10430000042805D14FF00000206102E0054600E0DE
:10431000054628460DF5047D70BD00BF10B54FF071
:104320003B0046F6DD03C0F2080398474FF0550006
:1043300046F68D04C0F20804A0474FF05600A0478F
:1043400010BD00BF10B54FF03B0046F68D04C0F223
:104350000804A0474FF05500A0474FF05600A04773
:1043600010BD00BF08B54FF0550046F6DD03C0F2A2
:104370000803984708BD00BF08B54FF0550046F642
:104380008D03C0F20803984708BD00BF08B54FF081
:10439000550046F6DD03C0F20803984708BD00BF8C
:1043A00008B54FF0550046F68D03C0F20803984754
:1043B00008BD00BF08B546F65553C0F2080398473C
:1043C0004FF0000046F6F951C0F20801884746F662
:1043D0001160C0F20800804708BD00BF10B54FF45F
:1043E0003D40C0F2015049F2F903C0F2080398477A
:1043F0004FF000004FF03E0146F6B542C0F2080211
:10440000904746F62554C0F20804A0470028FCD087
:1044100046F63550C0F2080080474FF4C061C4F240
:104420000E0143F60173C2F20D038B6246F645544A
:10443000C0F20804A0470028FCD04FF0100046F658
:104440001542C0F20802904748F63170C0F20800E9
:10445000804710BD4FF00100704700BF08B528B974
:1044600041F28543C0F20803984708BD4FF00100B0
:1044700008BD00BF08B530B9084641F2C143C0F2DB
:104480000803984708BD4FF0010008BDD0F10100B6
:1044900038BF0020704700BF10B981F0010070479D
:1044A0004FF00000704700BF08B528B941F2E5435E
:1044B000C0F20803984708BD4FF0010008BD00BFD7
:1044C00008B528B941F20153C0F20803984708BD66
:1044D0004FF0010008BD00BF20B94BF65030C0F2CC
:1044E000080070474FF00000704700BF70B50446E9
:1044F0000E46154644F26533C0F20803984744B9A6
:104500003046294641F2CD52C0F208029047044697
:1045100001E04FF0010444F27930C0F20800804716
:10452000204670BD70B504460E46154644F28D33E4
:10453000C0F20803984744B93046294641F29962CF
:10454000C0F208029047044601E04FF0010444F233
:10455000A130C0F208008047204670BD70B5044607
:104560000E46154644F26533C0F20803984744B935
:104570003046294641F2F962C0F2080290470446EB
:1045800001E04FF0010444F27930C0F208008047A6
:10459000204670BD70B504460E46154644F28D3374
:1045A000C0F20803984744B93046294641F259728F
:1045B000C0F208029047044601E04FF0010444F2C3
:1045C000A130C0F208008047204670BD40F6D86395
:1045D000C2F207031A7802F1FF30C1B219707047B6
:1045E0004FF00000704700BF4FF00000704700BF61
:1045F000704700BF30B583B040F6EC63C2F20703EA
:104600001878002840F0DF8048F29121C0F20801BC
:10461000884760B140F6E064C2F20704248848F29B
:10462000F520C0F20800804784420DD1CBE040F66F
:10463000E062C2F20702148848F2E523C0F20803E0
:104640009847844200F0BF80EFF31085D5F1010553
:1046500038BF002572B6BFF35F8F40F23821C2F237
:1046600007014FF000020A7040F6CC23C2F20703A4
:104670001C7840F6D020C2F2070030F8141079BB45
:1046800040F6C823C2F207031A8802F101021A8019
:1046900048F29120C0F20800804730B940F6C821A6
:1046A000C2F207010B88632B0DD948F29122C0F2A8
:1046B00008029047A0B140F6C820C2F20700018866
:1046C000B1F5487F0CD2002D7DD040F23823C2F2E4
:1046D00007034FF001021A70BFF35F8F62B672E0FA
:1046E00040F6C823C2F207034FF000021A8041F2DD
:1046F0000030C2F20700017849B9944214BF002289
:10470000012240F6CC23C2F207031A7003E0D4F171
:10471000010438BF002440F6EC60C2F207004FF0FD
:10472000010202703DB140F23825C2F207052A703D
:10473000BFF35F8F62B6254640F6D021C2F2070173
:1047400031F81440B4F5007418BF0124DCB148F20C
:104750009122C0F20802904750B148F2F520C0F211
:104760000800804740F6E062C2F20702108011E0C4
:1047700048F2E521C0F20801884740F6E063C2F242
:104780000703188006E040F6E063C2F207034FF02B
:104790000000188040F6D021C2F2070131F8153030
:1047A00044F2E170C0F2080000904FF0840021460E
:1047B00040F6D424C2F2070404EB452248F2B15477
:1047C000C0F20804A04703B030BD00BF08B54FF0E9
:1047D000000044F2F553C0F20803984708BD00BF3B
:1047E00008B5E8B940F6CC23C2F207031978D1F135
:1047F000010138BF002140F6D023C2F2070323F89D
:10480000110041F20031C2F20701087040F6EC627B
:10481000C2F20702107044F2F553C0F20803984741
:1048200008BD00BF08B542F29033C2F20703187802
:1048300010F0800F20D000F06001202956D142F204
:104840009032C2F207025378212B52D142F29030BB
:10485000C2F20700C18807294ED142F29033C2F25A
:10486000070340F6C022C2F207029A604FF0070029
:1048700098814FF0010008BD00F0600120293ED171
:1048800042F29032C2F207025378202B02D0222B40
:1048900038D11AE042F29033C2F20703D8880728D1
:1048A00033D142F29031C2F2070144F2F152C0F228
:1048B00008020A6140F6C023C2F207038B604FF082
:1048C000070088814FF0010008BD42F29030C2F22B
:1048D000070081784FF0000001F0010142F24D1213
:1048E000C0F2080290474FF0010008BD4FF00000F1
:1048F00008BD4FF0000008BD4FF0000008BD4FF0AC
:10490000000008BD4FF0000008BD4FF0000008BDDA
:1049100008B540F6CA23C2F207031A7802F1FF3045
:10492000C1B21970187849F21D23C0F208039847E4
:1049300040F6E460C2F207004FF00002027008BDCA
:1049400008B54FF0000040F6D863C2F207031870B4
:1049500041F20431C2F20701088040F6F063C2F26E
:1049600007034FF0A10119704FF0200159705880D2
:1049700098804FF00201D980188140F6C023C2F21E
:1049800007034FF4E1311960187158714FF00802B4
:104990009A7149F20D23C0F20803984758B140F6C6
:1049A000D860C2F20700017801F10101CAB20270B9
:1049B0004FF0010008BD4FF0000008BDEFF3108379
:1049C00072B6BFF35F8F40F23822C2F207024FF097
:1049D0000001117040F6DC60C2F20700028890B25C
:1049E00040F6E861C2F20701097840F6D462C2F2EB
:1049F000070232F81110081A4BB940F23823C2F2FC
:104A000007034FF001021A70BFF35F8F62B6704761
:104A100008B544F6BD13C0F208039847003018BF2C
:104A2000012008BD10B582B0EFF31083D3F101006F
:104A300038BF002072B6BFF35F8F40F23822C2F257
:104A400007024FF00001117040F6E864C2F207045B
:104A5000247841F2FC23C2F207031A786AB940F6BF
:104A6000DC61C2F207010B889AB240F6D461C2F24F
:104A7000070131F8143093420ED9002852D040F289
:104A80003821C2F207014FF001020A70BFF35F8FB5
:104A900062B64FF0000047E040F6DC62C2F2070267
:104AA0004FF0000111808C4214BF0021012140F61B
:104AB000E863C2F20703197041F2FC22C2F2070256
:104AC0004FF00101117038B140F23820C2F20700F6
:104AD0000170BFF35F8F62B64FF0000044F6112201
:104AE000C0F20802904730B14FF0000042F271115D
:104AF000C0F20801884744F62D30C0F2080000904B
:104B00004FF005004FF0010140F6FC63C2F20703CD
:104B100003EB44224FF4007348F2B154C0F208048E
:104B2000A04701E04FF0000002B010BD10B582B008
:104B300088BB40F6E863C2F207031878D0F101039E
:104B400038BF0023A9B944F62D34C0F208040094FC
:104B500010464FF0010140F6FC62C2F2070202EB80
:104B600043224FF4007348F2B154C0F20804A04746
:104B700011E040F6D462C2F2070222F813104FF09F
:104B8000000041F2FC21C2F20701087044F625231F
:104B9000C0F20803984702B010BD00BF38B54FF00F
:104BA000000440F6CA23C2F207031C7040F6EC6012
:104BB000C2F20700047041F20031C2F207010C702A
:104BC00040F6CC22C2F20702147040F6D023C2F2A3
:104BD000070325461C805C8040F6E060C2F20700B7
:104BE0000480204644F2F551C0F20801884741F2A2
:104BF000FC22C2F20702147040F6E863C2F2070317
:104C00001C7040F6D460C2F20700048040F6DC61FC
:104C1000C2F207010C80204644F62522C0F20802A9
:104C2000904798B140F6CA23C2F20703187800F102
:104C30000100C1B219701A78012A0AD14FF001009F
:104C400040F6E463C2F20703187038BD4FF000006D
:104C500038BD4FF0010038BD2DE9F04F83B0154647
:104C6000884640F23827C2F207074FF0000B40F6A3
:104C7000DC66C2F2070640F6E86AC2F2070A40F6AE
:104C8000D469C2F2070940F6FC63C2F2070301933C
:104C9000EFF3108272B6BFF35F8F87F800B03088F1
:104CA00083B29AF800102AB94FF001043C70BFF3A8
:104CB0005F8F62B639F81140A34207D340F6E46033
:104CC000C2F2070001780029E2D11DE0E41AA542F2
:104CD00038BF2C4603EB41224046019B99182246DF
:104CE00049F20143C0F208039847308821188AB27C
:104CF0003280A0442D1B4FF0000044F62523C0F263
:104D000008039847002DC3D1284603B0BDE8F08FB3
:104D100008B503460A464FF00000194644F65943C9
:104D2000C0F20803984708BD10B4EFF3108472B6C0
:104D3000BFF35F8F40F23823C2F207034FF0000247
:104D40001A7040F6CC20C2F20700017840F6D0225B
:104D5000C2F2070232F81130D1F1010138BF00214F
:104D6000C8B232F81000B3F5007F1BD140F6EC62F8
:104D7000C2F207021278AAB941F20032C2F2070267
:104D800012787AB941F20033C2F207034FF0010002
:104D9000187040F6CC22C2F2070211704FF4007076
:104DA0004FF000034CB940F23822C2F207024FF034
:104DB00001011170BFF35F8F62B6C018C0F580604B
:104DC00010BC704708B544F62953C0F20803984751
:104DD000003018BF012008BD2DE9F0470D4640F610
:104DE000C023C2F207039F79092F14BF00270127B0
:104DF0004FF0000444F6C556C0F2080640F6E469D8
:104E0000C2F2070940F23828C2F207082046B0472C
:104E100028B999F80030002BF8D1BDE8F087EFF3FE
:104E2000108072B6BFF35F8F88F8004040F6CC2147
:104E3000C2F207010B7840F6D022C2F2070232F824
:104E4000131001EB432C40F6D42AC2F2070A0AF8E9
:104E50000C5001F1010122F8131030B94FF001009C
:104E600088F80000BFF35F8F62B61FB14FEA2525B7
:104E70002746CBE74FF00100BDE8F08708B50146B3
:104E80004FF0000044F6D953C0F20803984708BD1C
:104E90002DE9F04F83B0154640F6C023C2F2070358
:104EA0009879092808BF550089464FF0000840F658
:104EB000E461C2F20701019140F23822C2F2070216
:104EC0000092404644F6C553C0F20803984720B903
:104ED00001980378002BF4D135E0EFF3108B72B614
:104EE000BFF35F8F009C84F8008040F6CC26C2F2AE
:104EF0000706367840F6D02AC2F2070A3AF816704A
:104F0000C7F50074A54238BF2C4607EB462140F692
:104F1000D420C2F2070040184946224649F2014314
:104F2000C0F2080398473F192AF81670BBF1000F2A
:104F300006D14FF00101009A1170BFF35F8F62B686
:104F4000A1442D1BBDD1284603B0BDE8F08F00BFA2
:104F500008B503460A464FF00000194644F691632F
:104F6000C0F20803984708BD4FF00000704700BF2B
:104F7000003018BF012042F28D33C2F207031870CF
:104F800040F2AC11C2F207014FF001020A70704703
:104F900041F25032C2F207024FF00003114641F8CD
:104FA000043B536001F1040141F8043B41F8043B28
:104FB0000B804FF0F00010704FF00A03D371704770
:104FC00008B544F69173C0F20803984740F2E81020
:104FD000C2F207004FF00002027308BD70B506462A
:104FE0000D46144644F69173C0F20803984740F208
:104FF000E810C2F207004FF00102027341F2503193
:10500000C2F207018E704FEA1463CB704FEA14406E
:1050100008714FEA14224A718C714FEA15230B7301
:105020004D7370BD08B54FF006004FF420514FF09E
:10503000000244F6DD73C0F20803984708BD00BFC4
:1050400008B54FF002004FF468514FF0000244F6EB
:10505000DD73C0F20803984708BD00BF08B54FF0E4
:1050600004004FF000010A4644F6DD73C0F2080365
:10507000984708BD08B54FF005004FF410514FF0A8
:10508000000244F6DD73C0F20803984708BD00BF74
:1050900010B582B045F21D23C0F2080300934FF013
:1050A00081004FF0000140F2E812C2F207024FF017
:1050B0000D0348F2B154C0F20804A04750B94FF0B4
:1050C000810045F29101C0F2080148F63D42C0F26C
:1050D0000802904702B010BD08B540F2E813C2F2D2
:1050E0000703996871B141F21032C2F2070292F9D6
:1050F0000C30002BB4BF8120022048F29531C0F261
:105100000801884741F21030C2F20700426840F2BD
:10511000E813C2F207035A6045F29101C0F2080198
:10512000884708BD08B541F21033C2F207031A7B65
:10513000514011F0800F06D140F2E811C2F2070190
:105140008B6883420CD245F27500C0F2080080479C
:1051500045F2D902C0F2080290474FF0000008BDA6
:105160004FF0010008BD00BF10B582B002460B46EB
:1051700045F2A911C0F2080100914FF081004FF0F3
:10518000010148F2B154C0F20804A04748B945F201
:105190005D03C0F20803984745F2D900C0F2080049
:1051A000804702B010BD00BF10B50C4680B944F670
:1051B000C173C0F20803984740F2E810C2F207003A
:1051C0008268141B846045F2D901C0F20801884747
:1051D00010BD00BF10B582B045F23143C0F20803E4
:1051E00000934FF002004FF0010141F21032C2F281
:1051F00007024FF01F0348F2B154C0F20804A04761
:1052000050B94FF0020045F2D511C0F2080148F63E
:105210003D42C0F20802904702B010BD08B545F209
:10522000D513C0F20803984708BD00BF08B541F286
:105230003033C2F20703187888B14FF0020048F209
:105240009531C0F2080188474FF0020045F22D2148
:10525000C0F2080148F63D42C0F20802904708BD7E
:1052600008B541F23033C2F20703187888B14FF025
:10527000810048F29531C0F2080188474FF0810063
:1052800045F26121C0F2080148F63D42C0F2080231
:10529000904708BD70B541F23431C2F207014FF0BA
:1052A00000030A4642F8043B4B6002F1040242F854
:1052B000043B42F8043B1360064648B141F2103407
:1052C000C2F20704E57D01F108014FF0080407E090
:1052D00041F21030C2F20700C57C2B494FF00404A4
:1052E00041F21033C2F207035A7C02F03F001C283F
:1052F00001D03F280BD14FF01C030B704FF00A0276
:105300004A704FF00500C87004F10C04E4B2AC42DE
:1053100038BF254628464FF0800145F22513C0F2DC
:105320000803984770B341F21031C2F20701487B7D
:1053300044F2A942C0F208029047002814BF80201E
:1053400000206EB1A4F10204A4B241F23431C2F2E1
:1053500007014FEA142242EA04240C80C87007E0D7
:1053600041F23433C2F2070304F1FF341C70987029
:1053700041F23430C2F20700294645F26913C0F207
:105380000803984770BD00BF3813072010B50446C6
:10539000D8B941F21033C2F20703587B44F2A94155
:1053A000C0F20801884780B14FF007004FF41C514C
:1053B0004FF0000244F6DD73C0F20803984745F24F
:1053C000D902C0F20802904710BD41F24C32C2F23D
:1053D000070241F21030C2F20700437CD370817C97
:1053E0009170C37C5370017D117041F24832C2F25A
:1053F0000702837D5370C07D107011884FEA4120F1
:10540000002C14BF8021002145F22512C0F20802B1
:10541000904758B141F26433C2F207031C7041F265
:105420000C30C2F207004FF00101017010BD00BF47
:1054300070B5002840F0B8821F290AD145F25533D3
:10544000C4F2423341F21032C2F2070210689842AD
:1054500011D041F23033C2F207034FF001021A704B
:1054600045F22D21C0F20801884745F26120C0F2C3
:105470000800804770BD41F21031C2F207014B7B3A
:1054800003F00F00487341F20832C2F207021178AC
:1054900081420AD245F27501C0F20801884745F2FF
:1054A000D900C0F20800804770BD41F21033C2F24B
:1054B00007039A6840F2E811C2F207018A60DB7BB9
:1054C0005A2B00F25A82DFE813F0A6015802580264
:1054D0005B005802580258025802580258025802FB
:1054E00058025802580258025802580258027900CD
:1054F000580258025802580258025802580296019F
:10550000090258025802260258025802580258024C
:1055100058025802CE01580258024802580250025E
:1055200058025802580258023D02580258025802C6
:10553000580258025802580258025802580258029B
:10554000580258025802580258025802580258028B
:10555000580258025802580258025802580258027B
:10556000580258025802580258025802580258026B
:1055700058025802580258025802580258029E0116
:1055800041F21034C2F20704E47C122C28BF12242A
:1055900020464FF0800145F22512C0F208029047E4
:1055A000002800F0018241F25030C2F2070021468B
:1055B00045F26913C0F20803984770BD41F21034F8
:1055C000C2F20704E47C242C28BF242420464FF098
:1055D000800145F22512C0F208029047002800F031
:1055E000E38141F21030C2F20700017C11F0030F99
:1055F00005D141F21033C2F207035A7C52B145F291
:105600007501C0F20801884745F2D903C0F20803CA
:10561000984770BD41F21035C2F20705687B44F22D
:10562000C146C0F20806B047002814BF8020002001
:1056300040F2C416C2F20706707041F21031C2F295
:105640000701487B44F2D943C0F20803984706F1AA
:105650001005034653F8010F59689A68DB680FC5B7
:10566000327C002A00F09A81222A00F09A81717C13
:1056700000293ED022296BD0B27C002A3CD0222ABD
:1056800069D0F17C00293AD0222967D0327D002AE6
:1056900038D0222A65D0717D002936D0222963D0E6
:1056A000B27DAAB3222A62D0F17DA1B3222961D0B2
:1056B000327E9AB3222A60D0717E91B322295FD0C4
:1056C000B27E8AB3222A5ED0F17E81B322295DD0D8
:1056D000327F7AB3222A5CD0717F71B322295BD0EA
:1056E000B27F6AB3222A5AD0F37F63BB4FF00F0315
:1056F00057E04FF0010354E04FF0020351E04FF048
:1057000003034EE04FF004034BE04FF0050348E085
:105710004FF0060345E04FF0070342E04FF0080367
:105720003FE04FF009033CE04FF00A0339E04FF04F
:105730000B0336E04FF00C0333E04FF00D0330E085
:105740004FF00E032DE0222B08BF0F2329D047E096
:105750004FF0010325E04FF0020322E04FF0030376
:105760001FE04FF004031CE04FF0050319E04FF079
:10577000060316E04FF0070313E04FF0080310E0B4
:105780004FF009030DE04FF00A030AE04FF00B035E
:1057900007E04FF00C0304E04FF00D0301E04FF081
:1057A0000E0340F2C411C2F207014FF02002C3F110
:1057B0000F0505F00100CD182A7403F10103102B29
:1057C00040F0F3800CE0C818027403F1010303F009
:1057D000FF03C818027403F10103DBB2102BF2D1EE
:1057E00040F2C410C2F20700214645F26912C0F22D
:1057F0000802904770BD4FF0000045F29523C0F2BB
:105800000803984770BD4FF0010045F29522C0F2A1
:105810000802904770BD44F25D41C0F2080188471C
:10582000022809D0032801D090B10BE045F22503EE
:10583000C0F20803984710E045F24101C0F20801A8
:1058400088470AE045F25D00C0F20800804704E0A6
:1058500044F6C172C0F20802904745F2D900C0F286
:105860000800804770BD4FF008004FF0800145F2FE
:105870002513C0F208039847002800F0958041F2F4
:105880001030C2F20700407B41F26831C2F20701DA
:1058900044F27542C0F208029047022808D003285B
:1058A00001D078B109E0474880474749884770BD33
:1058B000464B9847444A904770BD45498847424BFC
:1058C000984770BD43484FF40032426001680BBAFC
:1058D00003604FF00801404A904770BD41F210311B
:1058E000C2F20701CB7C03F00202D1B241B183F0D6
:1058F000010303F0010144F29942C0F2080290470B
:1059000044F6C170C0F20800804745F2D901C0F2E8
:105910000801884770BD41F21030C2F20700C17C17
:1059200029B944F6C172C0F20802904704E045F27A
:105930007503C0F20803984745F2D900C0F2080089
:10594000804770BD44F6C170C0F20800804745F240
:10595000D901C0F20801884770BD4FF0010045F23F
:105960008D32C0F20802904770BD4FF0000045F242
:105970008D33C0F20803984770BD4FF005004FF417
:1059800000514FF0000244F6DD73C0F2080398475F
:1059900045F2D902C0F20802904770BD4FF00003F3
:1059A000FFE64FF00003FCE670BD40B200283FF474
:1059B0000AAFC818027403F10103DBB2102B7FF4A5
:1059C00002AF0DE725500800D950080041500800EB
:1059D0005D500800681307206951080010B542F2B5
:1059E0009033C2F20703187810F0800F25D000F032
:1059F0006002202A56D142F29033C2F2070358784F
:105A0000FE2852D142F29031C2F20701CA88012A1F
:105A10004ED142F29033C2F20703588800284AD18F
:105A200042F29031C2F2070141F20832C2F207029B
:105A30008A604FF00100888110BD00F060012029CC
:105A40003CD142F29032C2F207025378FF2B38D198
:105A500042F29030C2F20700C188002934D142F2EC
:105A60009032C2F207025388002B30D141F2303419
:105A7000C2F20704237041F20C30C2F20700037037
:105A80004FF0020048F6B934C0F20804A0474FF0C6
:105A90008100A04745F2D511C0F2080188474FF0B8
:105AA000010010BD4FF0000010BD4FF0000010BD10
:105AB0004FF0000010BD4FF0000010BD4FF000008F
:105AC00010BD4FF0000010BD4FF0000010BD4FF0B2
:105AD000000010BD08B541F20C33C2F207034FF0CD
