:0200000280007C
:10000000383C0720319908002D99080069500800F4
:100010002D9908002D9908002D9908000000000076
:100020000000000000000000000000002D99080002
:100030002D990800000000002D9908002D99080056
:100040002D9908002D9908002D9908002D99080078
:100050002D9908002D9908002D9908002D99080068
:100060002D9908002D99080000000000DD76080099
:10007000F9760800157708003177080000000000C5
:10008000000000002D9908002D9908002D99080006
:100090002D9908002D9908002D9908002D99080028
:1000A0002D990800000000002D9908002D990800E6
:1000B000491F08002D9908002D9908002D99080066
:1000C0002D9908002D9908002D9908002D990800F8
:1000D0002D9908002D9908002D9908002D990800E8
:1000E000598208002D9908002D9908002D990800C3
:1000F0002D99080008B50548054B191A062900D89E
:1001000008BD044A002AFBD09047F9E7F8D208005E
:10011000FBD208000000000008B50748074B191A79
:100120008A1002EBD273591000D108BD044A002A8C
:10013000FBD09047F9E700BFF8D20800F8D20800DA
:100140000000000010B5064C237843B9FFF7D2FF3A
:10015000044810B10448AFF300800121217010BDA4
:10016000E80A072000000000F8D2080008B5084B94
:100170001BB108480849AFF300800848016811B175
:10018000074A02B19047BDE80840FFF7C5BF00BF6E
:1001900000000000F8D20800EC0A0720F8D208009E
:1001A0000000000010B540F60833C2F207031A68D9
:1001B00092F8224040F60E31C2F207010878116829
:1001C000527C231C18BF012344F2A574C0F208041A
:1001D000A04710BD70B582B0069C49F23536C0F21A
:1001E000010641F23535C0F201054FEA017141EADD
:1001F000422242EAC0724FEAC4514FEAD151114340
:100200009DF81C200092002814BF3046284641EA81
:100210008361A2B24FF0010344F6D104C0F2080496
:10022000A04702B070BD00BF08B540F60E33C2F261
:100230000703187830B94FF0000044F61901C0F2F6
:100240000801884708BD00BF10B5029C4FEA422252
:1002500042EA017141EAC07040EAC363227841F288
:10026000343043EA020144F64103C0F208039847E0
:1002700040B144F66901C0F20801884720704FF090
:10028000010010BD4FF0000010BD00BF08B540F6E2
:100290000833C2F207031868818941F609304FEA32
:1002A000014144F64102C0F20802904770B140F6A5
:1002B0000833C2F20703186800F1120044F6710116
:1002C000C0F2080188474FF0010008BD4FF0000060
:1002D00008BD00BF10B5002840F0A88040F20C0314
:1002E000C2F2070398684FEA501202F5001101F2BA
:1002F00007734FEA4322D26B00F01F004FF0010159
:1003000001FA00F313421DD040F20C02C2F20702C0
:10031000907B88420CD140F60633C2F2070319786D
:1003200031B14EF21000CEF200004FF00002026038
:1003300040F20C03C2F207034FF0040199734FF02F
:10034000020010BD40F20C02C2F20702907B0428AA
:1003500031D140F20C01C2F207014FF001028A7361
:100360004EF21003CEF20003186888B940F606304A
:10037000C2F2070002704EF21003CEF2000343F205
:10038000A071C0F2A00159601A604FF0020010BDC8
:1003900040F60631C2F207014FF000020A7048F63B
:1003A0008050C0F25B0040F20103C2F2070398479D
:1003B0004FF0020010BD012816D140F60631C2F2FE
:1003C00007010B78002B3AD04EF21002CEF2000259
:1003D000106810F4803F2CD04EF21001CEF20001D4
:1003E0004FF000030B602AE040F20C00C2F207005D
:1003F000817B032920D040F60E34C2F207044FF06F
:100400000003237040F20C04C2F2070440F60832E5
:10041000C2F20702146040F2A510C0F20800804743
:10042000A07B022814BF0020012010BD4FF0040063
:1004300010BD4FF0020010BD4FF0030010BD40F2A0
:100440000C00C2F207004FF0020282734FF4D45145
:10045000C0F2060101604FF0010343744FF0000247
:1004600080F82220C0E700BF08B540F20C03C2F2BA
:1004700007034FF004029A7340F60E30C2F20700F1
:100480004FF0FF01017044F25973C0F2080398471E
:1004900008BD00BF2DE9F04F95B040F2D523C0F262
:1004A000080398470446012806D040F22921C0F2EB
:1004B0000801884700F05DBD40F60830C2F2070031
:1004C00001684FF00102CA734FF000050D748D8171
:1004D00044F61D03C0F2080398474FF480402946B4
:1004E00044F64102C0F208029047002800F0C1849F
:1004F00045F208504FF4D57144F64103C0F20803A9
:100500009847002800F0C38444F66900C0F2080050
:100510008047B0F1FF3F00F0BD844FEA00514FEA41
:100520001152B2F5D57F40F0A4844FF0010600F0DF
:10053000B3BC44F66900C0F208008047014610F0E1
:10054000E04F00F0B58441F2893944F2055744F692
:100550004105C0F2080544F66908C0F208083846AB
:1005600001F4FC11A847002800F08384C047011E55
:100570000ADB09F1FF39384601F4FC11A8470028CD
:1005800040F0398500F075BC11F0006F40F608337B
:10059000C2F20703186814BF05220422C27300F0D8
:1005A00087BC41F237174FF0000844F64105C0F20E
:1005B00008054FF4004944F6690AC0F2080A3846B3
:1005C0004146A847002840F0EA8400F07DBC384648
:1005D0004146A847002800F077844946C4F21F012D
:1005E00044F22950002E08BF4FF4FC11A847002800
:1005F00000F06A84D04700280EDA10F0804F00F037
:100600008F8440F60830C2F207000168CA7B42F0CE
:100610000803CB7300F084BC0BF1FF3B3846414626
:10062000A847002840F0D18400F04EBC4FF40045AC
:10063000C4F21F0544F2015744F64108C0F208080D
:1006400044F66909C0F2080938462946C04700281F
:1006500040F0938400F079BC38462946C047002812
:1006600000F07384C84700280DDA00F0C040B0F1F4
:10067000804F40F06084A6490B68DA7B42F00800A6
:10068000D87300F058BC06F1FF3638462946C047FB
:10069000002840F07C8400F058BC9D4908684FF069
:1006A0000102828141F203104FF48031994B984747
:1006B000002800F0218198498847002800F01F8118
:1006C000934803689A7CC2F3830101F1FF30032849
:1006D00003D8DFE800F0060A0E124FF01201197479
:1006E0000EE04FF014021A740AE04FF02200187462
:1006F00006E04FF03001197402E04FF040021A7426
:100700005A7D02F00700854951F820104FF47A70A5
:1007100000FB01F1C2F3C302814850F8222002FB22
:1007200001F11960997E187E5A7E4FEA820242EAF0
:10073000802040EAA1114FEA01524FEA125112F50E
:10074000801F15D0187FDA7E4FEA420242EAE0109D
:1007500001F1010100F0070202F1020201FA02F1C7
:10076000D87D00F00F0201FA02F14FEA91205860A3
:100770009B8943F207104FEA0341664A90470028DD
:1007800000F0C080624D2968087C3F2840F29C80C0
:100790004FF00001009141F20810C0F208004FF440
:1007A00000724FF001035F4DA847002800F0D0838E
:1007B0004FF000055C4E02A8B047002800F0C88347
:1007C00005F10105ADB2322DF5D1029E06F002030E
:1007D000DEB24F4A1068877E017E437E4FEA830275
:1007E00042EA812040EAA7174FEA075111F5801F1E
:1007F0001AD14D4F03A8B847002800F0A98305F18E
:100800000105ADB2352DF5D9414B1A6803984FEA71
:100810005007576008E003A8B847002800F0988305
:1008200005F10105ADB200E03F4F7F2DF3D992E312
:100830003E4D28783E4A9047054604280BD04FF499
:100840000071C0F2B7114FF00000C0F2B710082DD0
:1008500018BF014603E04FF48071C0F2B71143F2B4
:1008600006102C4B9847002800F07D8331498847BB
:1008700010F0800F40F07783254A106845742E4BA6
:1008800098472E49884738B336B343F206104FF4E1
:100890008071C0F2B9311F4A9047002800F066838A
:1008A0002448804710F0800F40F06083184E37686E
:1008B0004FF0010587F822504FF4EA43C0F2193394
:1008C0003B601D49884707E01B4FB84704E040469E
:1008D0003946B04740B118E04FF00A0541F2101810
:1008E0004FF400770B4EF2E705F1FF3212F0FF05EF
:1008F000EDD14FF00000ADE24FF00000AAE24FF062
:100900000000A7E24FF00000A4E24FF00100A1E2D6
:10091000080B0720414808008D02080000C70800A6
:100920001CC70800D1480800A94908000E0B072081
:100930009147080069480800A50108009D47080084
:1009400045F602304FF0000144F64103C0F20803BF
:100950009847002800F08D8245F203104FF0000107
:1009600044F64102C0F208029047002800F081825C
:1009700040F60835C2F207052E6844F66900C0F259
:10098000080080474FEA1041B1812B68DA7B12F0F2
:10099000010F56D040F28D20C0F208008047002899
:1009A00000F067822B685A7D02F007004CF200715C
:1009B000C0F2080151F820104FF47A7000FB01F1E9
:1009C000C2F3C3024CF2C060C0F2080050F822200B
:1009D00002FB01F11960987C82090FD0DA7E987EC3
:1009E000597E4FEA014141EA0020024322F44001CE
:1009F00001F101014FEA4120586022E0997E187E02
:100A00005A7E4FEA820242EA802040EAA112187F11
:100A1000D97E4FEA410141EAE0104FEA02524FEA23
:100A2000125202F1010200F0070101F1020102FA83
:100A300001F0DA7D02F00F0100FA01F04FEA902296
:100A40005A6040F60833C2F207031A68918943F2EC
:100A500007104FEA014144F64103C0F208039847EA
:100A6000002800F0068240F60830C2F20700016854
:100A7000CA7B12F0010F4ED08B8941F237104FEA3A
:100A8000034144F64102C0F208029047002800F0FA
:100A9000F0814FF00103009341F23310C0F20800DF
:100AA0004FF000014FF008024C4DA847002800F01D
:100AB000E08104A84FF00101494B9847002800F05D
:100AC000D88148488047002800F0D3819DF8101055
:100AD00001F00F03012B09D013B1022B16D10BE04B
:100AE000414A13684FF01000187414E03E490B6837
:100AF0004FF01A021A740EE09DF81230DB093A48E2
:100B0000016814BF302220220A7404E0364A1068BB
:100B10004FF01001017440F60830C2F2070001687E
:100B2000CB7B03F00402D0B2002800F095804FF098
:100B3000000103914FF0030500954FF0010301936D
:100B400008464FF0090240F2D515C0F20805A84743
:100B5000002800F08E8103A84FF00101204B984738
:100B6000002800F086811F498847002800F0818115
:100B7000039DDFF878801A4F1A4E4FF0030200925F
:100B80004FF0010301934FF0000001462A46C04791
:100B9000002800F06E8104A84FF00101B84700283A
:100BA00000F06781B047002800F063819DF81000D5
:100BB000FF2800F05E81222802D19DF81230BBB1DF
:100BC0009DF81110002900F0548101F102016D1807
:100BD000039A02F580708542CFD94AE1D1480800D6
:100BE0003D4A0800554B0800080B0720D5010800B6
:100BF0004FF0060300934FF0010301934FF0000004
:100C000001462A46BB4DA847002800F0328104A8BF
:100C10004FF00101B84A9047002800F02A81B749F7
:100C20008847002800F025819DF81530322B28BF19
:100C30003223B348026803F00700B24951F820108C
:100C40004FF47A7000FB01F1C3F3C303AE4850F8D0
:100C5000233003FB01F1116040F60E32C2F20702AD
:100C6000107844F29173C0F208039847032859D9C9
:100C700040F60830C2F207000168CA7B02F00403A4
:100C8000D8B230B303AD00954FF0000001464FF0ED
:100C9000080203469D4DA847002800F0EA809DF910
:100CA0000C10002915DA14AB4FF0020203F8442DA2
:100CB00000934FF001004FF000014FF00702034690
:100CC000A847002800F0D5808D4801684FF0040344
:100CD0004B7440F60832C2F207021068C17B11F073
:100CE000010F1AD0838941F237104FEA034144F6CD
:100CF0004102C0F208029047002800F0BA8041F299
:100D000006104FF00201824B9847002800F0B18096
:100D10007B4801684FF004024A7440F2A513C0F208
:100D20000803984744F29D70C0F2080080470028ED
:100D300000F0818040F60831C2F207010A68D37BD7
:100D400003F00400C1B259B303AD00954FF00000A9
:100D500001464FF0130203466C4DA847002800F0EF
:100D600088809DF80C2012F0010F19D014AB4FF0C1
:100D7000020003F8440D00934FF001004FF0000112
:100D80004FF013020346A847002872D05C490B6855
:100D90004FF0010283F8222018684FEA40011960E1
:100DA00040F60833C2F207031868C27B12F0010F45
:100DB0003CD0017C102939D94FF00103009341F256
:100DC0000610C0F208004FF60171C8F2FF014FF0A3
:100DD0004002504DA84700284BD004A84FF0010115
:100DE000454B9847002844D044488047002840D0CD
:100DF000494A904710F0800F3BD19DF8201001F038
:100E00000F030F2B12D09DF82D009DF82C2050EAD7
:100E100002222ED141498847394B18684FF0010210
:100E200080F8222001684FEA4103036040F2A510D8
:100E3000C0F20800804740F60832C2F2070211688B
:100E4000CB7B13F0010F06D041F210104FF400716C
:100E50002F4A904768B140F60830C2F20700036895
:100E60004FF00001997340F22922C0F20802904726
:100E70007FE040F60834C2F2070420684FF0030414
:100E8000847340F22923C0F20803984771E04FF0C1
:100E9000000601E04FF0000644F205504FF000015B
:100EA00044F64103C0F20803984700287FF441ABA1
:100EB00040F60832C2F207021168CB7B13F0010F33
:100EC0003FF44AADFFF76DBB40F60830C2F20700B1
:100ED00001684FF00203CB734FF480404FF00001E4
:100EE00044F64102C0F20802904700287FF49EAB0E
:100EF000B0E700BFD50108003D4A0800554B080087
:100F0000080B072000C70800C0C6080049020800F7
:100F100041480800D1480800694808001D480800F9
:100F200040F60830C2F207000168CA7B12F0010FD8
:100F30007FF406AD10E545F602304FF00001384B66
:100F4000984700287FF4A9AB84E74FF0000081E7C1
:100F50004FF000007EE733490878334B9847032869
:100F60003FF666AC8DE44FF0000073E74FF00000F1
:100F700070E7204615B0BDE8F08FC8470028FFF69F
:100F800074AB41F2690606F1FF36FFF765BBC8474F
:100F90000028FFF66AAB013E7FF45EABD5E7494619
:100FA000C4F21F0144F22950002E08BF4FF4FC1177
:100FB000A847002888D0D0470028FFF61EAB40F68F
:100FC000350B0BF1FF3BFFF702BB4946C4F21F0193
:100FD00044F22950002E08BF4FF4FC11A847002806
:100FE0003FF472AFD0470028FFF607ABBBF1010B0F
:100FF0007FF4EDAA68E7C047011EFFF6C5AA384690
:1010000001F4FC11A84700283FF433AFC047011E8C
:10101000FFF6BAAAB9F102097FF4A1AA29E700BF35
:10102000414808000E0B07209147080008B540F220
:10103000D523C0F20803984758B940F22920C0F2DE
:101040000800804740F60831C2F207010A68D07BE9
:1010500008BD4FF0000008BD08B540F2D523C0F22E
:101060000803984758B940F22920C0F20800804789
:1010700040F60831C2F207010A68506808BD4FF017
:10108000000008BD4FF00000704700BF2DE9F04F91
:1010900083B08B46924640F2D523C0F208039847AE
:1010A0008146002840F0818040F64158C0F2030894
:1010B00040F60836C2F2070641F20D1544F6410427
:1010C000C0F2080444F66907C0F208073068818955
:1010D00028464FEA0141A047002846D0B84710F4FF
:1010E000807F4AD108F1FF383268938928464FEA59
:1010F0000341A04700285CD137E04FEA4B2100E0D4
:1011000059464FF0010300934FF40072534644F6E2
:10111000D104C0F20804A04738B940F22921C0F236
:10112000080188474FF005093FE044F66900C0F226
:10113000080080474FF00001CEF25841014039B11C
:1011400040F22920C0F2080080474FF005092CE04A
:1011500040F60C32C2F20702A2F800A040F60433B7
:10116000C2F20703A3F800A01FE040F22922C0F258
:10117000080290474FF0050917E041F21110C0F244
:10118000080041F21214C0F21004BAF1010F88BF36
:10119000204640F60832C2F207021368D97B01F0FC
:1011A0000804E2B2002AABD1A7E7484603B0BDE885
:1011B000F08FB84710F4807FDFD1306881892846EE
:1011C0004FEA0141A0470028CFD0B84710F4807FF4
:1011D000D3D1B8F102087FF479AFC6E710B50C4659
:1011E00044F63D23C0F20803984748B940F60C3155
:1011F000C2F207014FF000030B804FF0050010BD55
:1012000040F60C30C2F207000288141B04804FF035
:10121000000010BD08B544F65533C0F208039847E6
:10122000002830D040F60C30C2F2070001880029B7
:101230002CD140F60432C2F207021388012B07D1E9
:1012400040F22921C0F2080188474FF0000008BD94
:1012500043F20C104FF0000144F64102C0F20802C4
:10126000904740B943F20C104FF0000144F641039F
:10127000C0F20803984740F22920C0F208008047D6
:101280004FF0000008BD4FF0050008BD4FF0000012
:1012900008BD00BFF0B583B006460F46154640F2C4
:1012A000D524C0F20804A0470446002858D130468F
:1012B00041F28503C0F20803984738B140F2292370
:1012C000C0F2080398474FF0070449E049F21810AC
:1012D000C0F2080049F21911C0F21001012D88BFB7
:1012E000084640F60832C2F207021668F37B03F0A4
:1012F0000801CAB212B94FEA472100E039464FF05F
:10130000010600964FF400722B4644F6D106C0F257
:101310000806B04738B940F22920C0F208008047DB
:101320004FF005041CE044F66900C0F20800804755
:101330004FF00003CEF2584303403BB140F2292462
:10134000C0F20804A0474FF0050409E040F60C3154
:10135000C2F207010D8040F60432C2F20702158086
:10136000204603B0F0BD00BF10B50C4644F6CD33A7
:10137000C0F20803984748B940F60C31C2F20701A1
:101380004FF000030B804FF0050010BD40F60C300D
:10139000C2F207000288141B04804FF0000010BD49
:1013A00008B544F6C543C0F20803984700282FD07B
:1013B00040F60C30C2F20700018800292BD140F61C
:1013C0000432C2F207021388012B07D140F229230D
:1013D000C0F2080398474FF0000008BD43F20C101C
:1013E0004FF0000144F64102C0F20802904738B9BC
:1013F00040F22921C0F2080188474FF0050008BDDE
:1014000040F22920C0F2080080474FF0000008BDDC
:101410004FF0050008BD4FF0000008BDF0B48CB0DF
:1014200006460F4601AC4CF25C75C0F208050FCDC4
:101430000FC40FCD0FC495E8070084E80700019B97
:10144000B7FBF3F0B0FBF6F1B1F5807F52D902990A
:10145000B7FBF1F2B2FBF6F1B1F5807F4FD9039BF8
:10146000B7FBF3F0B0FBF6F1B1F5807F4AD90499F0
:10147000B7FBF1F2B2FBF6F1B1F5807F45D9059BE0
:10148000B7FBF3F0B0FBF6F1B1F5807F40D90699D8
:10149000B7FBF1F2B2FBF6F1B1F5807F3BD9079BC8
:1014A000B7FBF3F0B0FBF6F1B1F5807F36D90899C0
:1014B000B7FBF1F2B2FBF6F1B1F5807F31D9099BB0
:1014C000B7FBF3F0B0FBF6F1B1F5807F2CD90A99A8
:1014D000B7FBF1F2B2FBF6F1B1F5807F27D90B9B98
:1014E000B7FBF3F0B0FBF6F1B1F5807F22D94FF6F0
:1014F000FF7022E04FF0000241EA02201DE04FF0B1
:101500000102F9E74FF00202F6E74FF00302F3E7BA
:101510004FF00402F0E74FF00502EDE74FF006024E
:10152000EAE74FF00702E7E74FF00802E4E74FF081
:101530000902E1E74FF00A02DEE70CB0F0BC7047A9
:1015400070B506460C46086858B1896841F21D43DB
:10155000C0F2080398474FF6FF71884214D0054641
:1015600001E04FF00005606858B1A16841F21D42EA
:10157000C0F2080290474FF6FF73984204D045EA44
:10158000004535604FF0000070BD00BF70B40B68BF
:101590004FF0010202FA03F28E8A4C6804F00F0544
:1015A0002E430C8926438D7A46EA45268C7D46EAF1
:1015B0000445CE7D45EA46450C7E45EA844603F166
:1015C00010054FEA451405190651CC686C600C698A
:1015D00000EB4315C5F80C428C7D3CB18D8B4C8BD8
:1015E00044EA054500EB4314C4F81852CD7F05FAD0
:1015F00003F58C7F04FA03F444EA0545856491F809
:10160000215005FA03F591F8204004FA03F444EA66
:101610000544446491F822401CB1046A14430462F6
:1016200003E0046A24EA0204046291F82440012CD5
:1016300003D1846E1443846606E0846E002A14BFCE
:10164000002404F00104846691F82540012C04D1A3
:10165000846E44EA0242826606E0846E120414BF7D
:10166000002204F001028266032B0FD8C46E4FEAF9
:10167000C3034FF0FF0202FA03F224EA020291F8D8
:10168000231001FA03F31A43C26610E0A3F1040326
:10169000046F4FEAC3034FF0FF0202FA03F224EA99
:1016A000020291F8231001FA03F31A4302674FF084
:1016B000000070BC704700BF10B40C680B69934207
:1016C00007D3CA6000EB4410C0F808224FF00000B6
:1016D00001E04FF6FF7010BC704700BF4FF00103F0
:1016E00003FA01F1416070474FF0010303FA01F181
:1016F0008160704702F110024FF0010303FA02F219
:1017000003FA01F10A434261704700BF10B44FEA87
:10171000811143184FF0020444504FF0FF3098629B
:10172000196A5A6010BC70474FEA81114FF00503E7
:101730004350704700EB8111CA61704700EB811183
:101740004A62704700EB8111086A704770B487B035
:101750004FF0020401944FF0080502954FF0200469
:1017600003944FF0800504950A9C4FEAD434059405
:101770004FEA5145B0EB510F3ED8A84251D24FF03D
:101780000806B1FBF6F54FEA1546A84237D8B04235
:101790001ED24FF02005B1FBF5F54FEA1546A842E1
:1017A00030D8B04217D24FF08006B1FBF6F54FEAC1
:1017B0001546A84229D8B04210D2B1FBF4F14FEA45
:1017C0001144814224D3844298BF04212BD922E0C2
:1017D0004FF0010127E04FF0020124E04FF0030138
:1017E00021E006AC04EB810050F8140C1060ABB1A2
:1017F00019604FF0010019E04FF0000016E04FF0C3
:10180000000013E04FF0000010E04FF000000DE08A
:101810004FF000000AE04FF0000007E04FF0010039
:1018200004E04FF00001002ADBD1E0E707B070BC14
:10183000704700BF4FF0080303604FF020010160C4
:101840004FF00402026070474FF4D453C0F2060315
:10185000994245D84FEA4101B2FBF1F2A2F10402EC
:10186000FF2A2ED94FEA5202FF2A18D94FEA520214
:10187000FF2A17D94FEA5202FF2A16D94FEA52021D
:10188000FF2A15D94FEA5202FF2A14D94FEA520211
:10189000FF2A13D94FEA52024FF0070313E04FF02B
:1018A000010310E04FF002030DE04FF003030AE0E4
:1018B0004FF0040307E04FF0050304E04FF0060388
:1018C00001E04FF000034FEA02614FEA034343EAAD
:1018D0001141D2B241EA020303614FF000007047A8
:1018E0004FF00100704700BF4FF080030360036BAF
:1018F000704700BF38B504460D464FF0FF33836292
:10190000036A41F6E901C0F208018847204641F622
:101910003502C0F208029047204669682A6841F6FD
:101920004903C0F208039847012814BF0020012092
:10193000697A012904BF4021216038BD4FF400437A
:101940004360704770B54FF02B004FF0006147F2D5
:101950008954C0F20804A0474FF02A004FF00061FC
:10196000A0474FF014004FF00061A0474FF0130064
:101970004FF00061A0474FF015004FF00061A04705
:101980004FF016004FF00061A0474FF017004FF0E6
:101990000061A0474FF018004FF00061A0474FF0E2
:1019A00067004FF00801A0474FF0160047F6AD065C
:1019B000C0F20806B0474FF011004FF00061A04799
:1019C0004FF012004FF00061A0474FF00C00B047FD
:1019D0004FF48055C4F20E054FF080732B61C5F8AB
:1019E000A0306B634FF46064C4F20E044FF4805077
:1019F000206660656062C4F88000226F024322673F
:101A000060604FF00101216661656162C4F8801079
:101A1000236F0B43236761604FF4005020666065BD
:101A20006062C4F88000226F0243226760604FF05A
:101A30000C00B0474FF400016961C5F8A010696659
:101A400069652962C5F884102B6F23F400002867AC
:101A50004FF00E00B0474FF4A055C4F20E054FF4FE
:101A600080626A61C5F8A0206A666A652A62C5F864
:101A70008420296F21F480632B674FF00B00B0475F
:101A80004FF020002061C4F8A00060634FF00B000D
:101A9000B0474FF080022261C4F8A02022634FF0CB
:101AA0000B00B0474FF002016161C4F8A01021663D
:101AB00061652162C4F88410236F23F0020020675F
:101AC0004FF00E00B0474FF480726A61C5F8A02055
:101AD0002A666A652A62C5F88420296F21F480731A
:101AE0002B674FF00E00B0474FF400702861C5F827
:101AF000A000686370BD00BF08B542F26953C0F230
:101B000008039847D0B94FF46060C4F20E004FF05C
:101B1000400303634FF0080101634FF010020263BA
:101B20004FF48050C4F20E004FF4005303634FF49F
:101B3000802101634FF40032026308BD4FF46060FE
:101B4000C4F20E00C16B11F0040F3DD040F234031B
:101B5000C2F207031A88032A10D14FF46060C4F25E
:101B60000E00C16B11F0100F4FF46063C4F20E034E
:101B70004FF0100214BF5A631A6332E0022A10D1E8
:101B80004FF46060C4F20E00C16B11F0080F4FF407
:101B90006063C4F20E034FF0080214BF5A631A6365
:101BA0001FE0012A1DD14FF46060C4F20E00C16B2A
:101BB00011F0400F4FF46063C4F20E034FF0400287
:101BC00014BF5A631A630CE04FF46063C4F20E034F
:101BD0004FF040021A634FF0080018634FF01001F5
:101BE00019634FF48050C4F20E00C16B11F4002F42
:101BF0003DD040F23203C2F207031A88032A10D103
:101C00004FF48050C4F20E00C16B11F4003F4FF44A
:101C10008053C4F20E034FF4003214BF5A631A63A8
:101C200032E0022A10D14FF48050C4F20E00C16B92
:101C300011F4802F4FF48053C4F20E034FF480222E
:101C400014BF5A631A631FE0012A1DD14FF480505C
:101C5000C4F20E00C16B11F4005F4FF48053C4F264
:101C60000E034FF4005214BF5A631A630CE04FF492
:101C70008053C4F20E034FF400521A634FF48020D5
:101C800018634FF4003119634FF49050C4F20E0002
:101C9000C16B11F4005F3DD040F23602C2F2070280
:101CA0001088032810D14FF49051C4F20E01CB6B71
:101CB00013F4006F4FF49050C4F20E004FF4006222
:101CC00014BF4263026336E0022810D14FF49051F2
:101CD000C4F20E01CB6B13F4805F4FF49050C4F24A
:101CE0000E004FF4805214BF4263026323E00128C8
:101CF00021D14FF48051C4F20E01CB6B13F4001FBD
:101D00004FF48050C4F20E004FF4001214BF42632F
:101D1000026310E04FF48053C4F20E034FF400123C
:101D20001A634FF49050C4F20E004FF480510163D7
:101D30004FF4006303634FF49051C4F20E01CB6B78
:101D400013F4802F3DD040F23800C2F20700028821
:101D5000032A10D14FF49051C4F20E01CB6B13F44F
:101D6000803F4FF49050C4F20E004FF4803214BF05
:101D70004263026332E0022A10D14FF49051C4F260
:101D80000E01CB6B13F4003F4FF49050C4F20E00E1
:101D90004FF4003214BF426302631FE0012A1DD1D9
:101DA0004FF49051C4F20E01CB6B13F4004F4FF47B
:101DB0009050C4F20E004FF4004214BF426302631D
:101DC0000CE04FF49050C4F20E004FF40042026356
:101DD0004FF4003101634FF4803303634FF49051AB
:101DE000C4F20E01CB6B13F4806F3DD040F2300093
:101DF000C2F207000388032B10D14FF48051C4F2C4
:101E00000E01CA6B12F0040F4FF48050C4F20E00A2
:101E10004FF0040314BF4363036336E0022B10D179
:101E20004FF49051C4F20E01CA6B12F0100F4FF430
:101E30009050C4F20E004FF0100314BF43630363CD
:101E400023E0012B21D14FF48051C4F20E01CA6B63
:101E500012F0020F4FF48050C4F20E004FF0020354
:101E600014BF4363036310E04FF48050C4F20E00CC
:101E70004FF0020202634FF49053C4F20E034FF08E
:101E8000100119634FF0040202634FF49051C4F241
:101E90000E01CA6B12F4801F3DD040F23000C2F236
:101EA00007000388032B10D14FF48051C4F20E01B8
:101EB000CA6B12F0200F4FF48050C4F20E004FF0A6
:101EC000200314BF4363036332E0022B10D14FF4AD
:101ED0008051C4F20E01CA6B12F0400F4FF48050D3
:101EE000C4F20E004FF0400314BF436303631FE0CE
:101EF000012B1DD14FF48051C4F20E01CA6B12F0B8
:101F0000100F4FF48050C4F20E004FF0100314BFB6
:101F1000436303630CE04FF48050C4F20E004FF0B3
:101F2000100303634FF0400101634FF0200202638E
:101F30004FF49051C4F20E014FF480020A6300BFC7
:101F400000BF00BF4A6308BD08B54FF00000C4F2EF
:101F500008004FF0010141F24573C0F208039847B1
:101F600041F6F920C0F20800804708BD032806D8D2
:101F700041F24863C2F2070333F8100070474FF094
:101F800000007047032859D8032957D841F2486305
:101F9000C2F2070323F8110010F0010F4FF4606341
:101FA000C4F20E034FF0806214BF1A635A6300F04C
:101FB000020083B23BB14FF46063C4F20E034FF0F2
:101FC0000070186306E04FF46060C4F20E004FF03A
:101FD0000072426311F0010F4FF46063C4F20E030C
:101FE0004FF0005214BF1A635A6301F0020188B225
:101FF00038B14FF48051C4F20E014FF00100086374
:1020000006E04FF48053C4F20E034FF001025A630E
:1020100000BF00BF4FF46063C4F20E034FF00062D4
:102020001A6300BF00BF5A6300BF00BF4FF080516A
:10203000196300BF00BF596300BF00BF704700BFF6
:102040002DE9F04F85B04FF00B0047F6AD05C0F21B
:102050000805A8474FF46067C4F20E074FF0400A26
:10206000C7F810A0C7F8A0A0C7F830A04FF00B0029
:10207000A8474FF008033B61C7F8A0303B634FF01F
:102080000B00A8474FF01008C7F81080C7F8A080D1
:10209000C7F830804FF00C00A8474FF48054C4F2CA
:1020A0000E044FF400512161C4F8A01021634FF0D9
:1020B0000C00A8474FF480202061C4F8A0002063E2
:1020C0004FF00C00A8474FF4003BC4F810B0C4F820
:1020D000A0B0C4F830B04FF00C00A8474FF4001285
:1020E0002261C4F8A02022634FF00D00A8474FF4EE
:1020F0009056C4F20E064FF48059C6F81090C6F8F8
:10210000A090C6F830904FF00D00A8474FF4006340
:102110003361C6F8A03033634FF00D00A8474FF489
:1021200000413161C6F8A01031634FF00D00A8479F
:10213000C6F810B0C6F8A0B0C6F830B04FF00D0029
:10214000A8474FF480303061C6F8A00030634FF0EC
:102150000C00A8474FF002022261C4F8A0202263BD
:102160004FF00D00A847C6F81080C6F8A080C6F84A
:1021700030804FF00C00A8474FF0040BC4F810B0AB
:10218000C4F8A0B0C4F830B04FF00C00A847C4F8B1
:102190001080C4F8A080C4F830804FF00C00A8472D
:1021A000C4F810A0C4F8A0A0C4F830A04FF00C00F0
:1021B000A8474FF020032361C4F8A03023634FF0F9
:1021C0000B00A847C7F814B0C7F8A0B04FF00C0038
:1021D000A8474FF4002BC4F814B0C4F8A0B04FF0D7
:1021E0000D00A8474FF400517161C6F8A0104FF0E0
:1021F0000D00A8474FF480207061C6F8A0004FF092
:102200000D00A8474FF480627261C6F8A0204FF01D
:102210000D00A8474FF4801AC6F814A0C6F8A0A075
:102220004FF00C00A847C4F81490C4F8A0904FF0E9
:102230000C00A847C4F814A0C4F8A0A04FF00D00EB
:10224000A8474FF480437361C6F8A0304FF00D00EB
:10225000A847C6F814B0C6F8A0B04FF00C00A847C5
:10226000C4F81490C4F8A0904FF00D00A8474FF4A4
:1022700000117161C6F8A0104FF00D00A8474FF48F
:1022800080003061C6F8A00070634FF00B00A847D3
:102290004FF080663E61C7F8A0607E634FF00B0090
:1022A000A8474FF000723A61C7F8A0207A634FF058
:1022B0000B00A8474FF000533B61C7F8A0307B6389
:1022C0004FF00C00A8474FF001062661C4F8A0604B
:1022D00066634FF00B00A8474FF000643C61C7F8FD
:1022E000A0407C634FF00B00A8474FF080543C6146
:1022F000C7F8A0407C634FF01C00A8474FF43D474F
:10230000C0F2015700974FF01400394603AA02AB00
:1023100041F24D75C0F20805A8474FF00005C4F220
:10232000080528463146029A42F4804241F20D7374
:10233000C0F2080398470399B7FBF1F74CF6CD407C
:10234000CCF6CC40A0FB0712284631464FEA1212C9
:1023500041F23573C0F2080398472846314641F2EE
:102360002972C0F2080290474FF46141CEF2000199
:10237000C1F88040C1F880410C6028463146424691
:1023800041F23D73C0F20803984705B0BDE8F08FF5
:10239000704700BF704700BF38B541F25064C2F2C9
:1023A00007044FF43D43C0F2015323604FF4D4506F
:1023B000C0F2060060604FF0500121724FF0000241
:1023C00062724FF44045C4F20805284641F63503D1
:1023D000C0F2080398472846214641F6F502C0F2AC
:1023E0000802904738BD00BF2DE9F04F85B04FF08F
:1023F000240047F6AD03C0F2080398474FF4804429
:10240000C4F2090420464FF0010141F2E965C0F22F
:102410000805A84720464FF00301A84720464FF083
:102420000201A8474FF47A2001904FF43D41C0F2D9
:10243000015102910391204601A941F24152C0F29B
:102440000802904741F27061C2F207014FF00005A7
:102450000D814FF001068E724FF00B0BC1F804B0E6
:102460004FF4806AC1F810A0CD600E60204641F2A2
:102470008D59C0F20809C847204631462A4641F224
:10248000F568C0F20808C04741F2C061C2F2070116
:102490000D818E72C1F804B0C1F810A0CD604FF06C
:1024A00003070F602046C847204639462A46C047E2
:1024B00041F298631946C2F207010D814FF0000006
:1024C0008872C1F804B0C1F810A0CD604FF0020AC4
:1024D000C1F800A02046C847204651462A46C047BA
:1024E0002046314641F2DD65C0F20805A847204686
:1024F0003946A84720465146A84705B0BDE8F08FA9
:10250000F8B503460E4617464FF48044C4F209045A
:10251000204641F27061C2F207011A4641F2B965E4
:10252000C0F20805A847204641F2C061C2F2070187
:102530003A46A847204641F29861C2F20701324666
:10254000A847F8BD4FF48053C4F20E03D86B80F453
:102550000001C1F3C05070474FF46063C4F20E0332
:10256000D86BC0F3400070474FF4A053C4F20E0381
:10257000D86BC0F3002070474FF4A053C4F20E0391
:102580004FF400721A6370474FF4A053C4F20E0365
:102590004FF400725A63704708B540F62043C2F208
:1025A0000703C362184642F2C971C0F208018847A6
:1025B00008BD00BF08B5C06A42F2D973C0F2080373
:1025C000984708BD00B583B002A94FF0000321F879
:1025D000023DC06A42F2E572C0F208029047BDF9BE
:1025E000060003B000BD00BF00B583B002A94FF0E4
:1025F000000321F8023DC06A42F68102C0F20802DF
:102600009047BDF9060003B000BD00BF38B50546D0
:102610000C46C06A42F62503C0F20803984714F13D
:10262000630F0CDA14F1C70F09DB28464FF00201E3
:102630004FF0200242F63123C0F20803984714F10C
:10264000C70F0CDA14F5967F09DD28464FF002011A
:102650004FF0100242F63123C0F20803984714F5F8
:10266000967F0CDC14F5C87F09DD28464FF0020187
:102670004FF0080242F63123C0F20803984714F5E0
:10268000C87F0CDC14F5FA7F09DD28464FF0020103
:102690004FF0040242F63123C0F20803984714F5C4
:1026A000FA7F0CDC14F5167F09DD28464FF0020195
:1026B0004FF0800242F63123C0F20803984714F528
:1026C000167F0CDC14F52F7F09DD28464FF0020140
:1026D0004FF0400242F63123C0F20803984714F548
:1026E0002F7F0BDC14F5487F08DD28464FF00201F0
:1026F0000A4642F63123C0F20803984714F5487F92
:102700000CDC14F5617F09DD28464FF002014FF023
:10271000010242F63123C0F20803984755B1E86937
:1027200020B1026812B12846214690474FF00101BE
:1027300085F8281038BD00BF10F16D0F2BD009DCD3
:1027400010F1830F2CD010F1710F1AD010F18A0FF5
:1027500030D12AE010F1670F0ED003DC10F16C0FBE
:1027600028D113E010F1660F29D0002822D14CF6B1
:10277000BC40C0F2080070474CF6D840C0F20800D8
:1027800070474CF6EC40C0F2080070474CF6005021
:10279000C0F2080070474CF61850C0F208007047AD
:1027A0004CF62C50C0F2080070474CF63C50C0F27A
:1027B000080070474CF65050C0F2080070474CF6C5
:1027C000C840C0F2080070474FF000030380438008
:1027D0004FF01001818070474FF000030380438069
:1027E000704700BF10B44388B0F900401AB2944259
:1027F00014D019B100EB4202D3880B80B0F902204B
:1028000002F10102B0F9043003F1010392FBF3F18C
:1028100003FB112242804FF0010001E04FF0000065
:1028200010BC704738B504460D46B0F90430B0F915
:102830000010B0F90220D21803F1010392FBF3F06B
:1028400003FB1023994207D120464FF0000142F2CA
:10285000E572C0F208029047B4F9000004EB4001B1
:10286000CD8000F10100B4F9043003F1010390FBC5
:10287000F3F203FB120020804FF0010038BD00BFCF
:1028800002884388D21A92B293B20B8013F4004F9D
:1028900004D0808800F1010012180A804FF0010076
:1028A000704700BF072904D8036B2BB133F8110020
:1028B00070474FF0000070474FF00000704700BFB6
:1028C00070B505460C46164642F6A503C0F208034D
:1028D000984720EA06022846214692B242F61D1386
:1028E000C0F20803984770BD70B505460E461C46F9
:1028F000114642F6A503C0F2080398473042284625
:102900004FF00001224619BF42F63123C0F20803FE
:1029100042F6C103C0F20803984770BDF8B50546FA
:102920000C461646072900F28180036B002B7DD0F0
:1029300033F8117023F81420072957D8DFE801F085
:1029400004151D28434E303B4FF0010142F6A5020D
:10295000C0F2080290474FF6BF713140014252D099
:1029600046F04006B74253D14EE04FF0000142F628
:102970005923C0F20803984746E011464FF003027E
:102980004FF0200342F6E907C0F20807B8473BE0E2
:102990004FF0020142F65922C0F20802904733E09C
:1029A00011464FF007024FF0080342F6E907C0F264
:1029B0000807B84728E04FF0060142F65922C0F256
:1029C0000802904720E011464FF005024FF08003C7
:1029D00042F6E907C0F20807B84715E04FF00401D6
:1029E00042F65923C0F2080398470DE0006B20F827
:1029F0001420F8BDE969C9B18B68BBB128464FF016
:102A000001019847F8BD0E46286B20F81460F8BD08
:102A10002B6B23F8146028464FF0000142F6A50204
:102A2000C0F2080290470246002DE3D1F8BD00BF76
:102A300070B505460C46164642F6A503C0F20803DB
:102A4000984740EA06022846214692B242F61D13F4
:102A5000C0F20803984770BD38B505460C4642F6EB
:102A6000A503C0F20803984702462846214642F6CD
:102A70001D13C0F20803984738BD00BF08B54FF0DA
:102A800002014FF0000242F61D13C0F208039847FE
:102A900008BD00BF38B5044642F67D23C0F20803E6
:102AA0009847204642F2B551C0F2080188472046B7
:102AB0004FF004014FF0000242F61D15C0F2080568
:102AC000A84720464FF006014FF00002A8474FF0FC
:102AD000010038BD10B582B0044601A94FF00102D3
:102AE00043F2B923C0F20803984748B120464FF09B
:102AF0000301BDF8042042F61D13C0F208039847F5
:102B00004FF0010002B010BD10B504464FF00301B4
:102B100042F6A503C0F2080398470146204643F257
:102B2000A112C0F2080290474FF0010010BD00BF93
:102B300010B504464FF0020142F6A503C0F20803A7
:102B400098470146204643F2A112C0F2080290477E
:102B500020464FF002014FF0000242F61D13C0F272
:102B6000080398474FF0010010BD00BF38B5054677
:102B70004CF66051C0F2080143F26114C0F208043F
:102B8000A04728464CF66851C0F20801A0472846E5
:102B90004CF68851C0F20801A0474FF0010038BD43
:102BA00008B54FF002014FF0010242F63123C0F2A6
:102BB000080398474FF0010008BD00BF08B54FF06B
:102BC000010143F2A113C0F2080398474FF001003E
:102BD00008BD00BF08B528B1C36933B1196939B15F
:102BE000884707E04FF0010004E04FF0010001E0EA
:102BF0004FF0010040B208BD10B582B0044601A9F3
:102C00004FF0010243F2B923C0F20803984748B1DC
:102C100020464FF00101BDF8042042F61D13C0F21A
:102C2000080398474FF0010002B010BD10B50446EC
:102C30004FF0010142F6A503C0F208039847014690
:102C4000204643F2A112C0F2080290474FF0010063
:102C500010BD00BF10B504464FF0000142F6A503B9
:102C6000C0F2080398470146204643F2A112C0F281
:102C7000080290474FF0010010BD00BF10B5044698
:102C800030B1C3693BB1596941B18847014607E09A
:102C90004FF0000104E04FF0000101E04FF00001AF
:102CA000204643F2A112C0F2080290474FF0010003
:102CB00010BD00BF4FF00100704700BF08B54DF2D6
:102CC000DC01C0F2080143F26113C0F20803984727
:102CD0004FF0010008BD00BF08B54CF68851C0F2A6
:102CE000080143F26113C0F2080398474FF0010056
:102CF00008BD00BF38B5044642F2C553C0F2080310
:102D0000984705462046294643F2A112C0F2080220
:102D10009047284642F23971C0F2080188470146BF
:102D2000204643F2E913C0F2080398474FF0010030
:102D300038BD00BF10B5044642F2E953C0F20803A3
:102D400098470146204643F2A112C0F2080290477C
:102D50004FF0010010BD00BF10B504464FF0060152
:102D600042F6A503C0F2080398470146204643F205
:102D7000A112C0F20802904720464FF006014FF022
:102D8000000242F61D13C0F2080398474FF00100FD
:102D900010BD00BF10B504464FF0070142F6A50371
:102DA000C0F2080398470146204643F2A112C0F240
:102DB000080290474FF0010010BD00BF10B582B06F
:102DC000044601A94FF0010243F2B923C0F20803FF
:102DD000984748B120464FF00701BDF8042042F65D
:102DE0001D13C0F2080398474FF0010002B010BD58
:102DF00008B54FF006014FF0000242F61D13C0F275
:102E0000080398474FF0010008BD00BF08B5C3692B
:102E10005B68984708BD00BF08B5036A002B0BDD4F
:102E20004CF69051C0F208014FF0020242F60D63D9
:102E3000C0F20803984708BD4FF0000008BD00BF6E
:102E40008369994228BF1946426952184261591A4A
:102E50008161704710B504464069A16943F2A163DE
:102E6000C0F2080398470146204642F64162C0F28C
:102E70000802904710BD00BF38B504460D4642F623
:102E80005563C0F208039847A06960B9002D31D09E
:102E900020466FF06C0142F20D62C0F208029047CA
:102EA0004FF0000038BD616AE9B1626913782C2BDC
:102EB0000ED120464FF0010142F64163C0F20803F3
:102EC0009847204642F65561C0F2080188470AE05B
:102ED00020466FF0660142F20D62C0F20802904790
:102EE0004FF0000038BD606A00F1010060624FF0F1
:102EF000010038BD4FF0000038BD00BF08B54CF6EA
:102F00009452C0F2080243F23133C0F208039847EA
:102F100008BD00BF2DE9F04F83B001EB020B07465F
:102F2000002800F09E80594580F09E800D4642F2B8
:102F30000D63C0F2080301932C46C5EB0B0828462D
:102F40004146514A43F23136C0F20806B04708B153
:102F5000461B00E046462846414642F6FD62C0F266
:102F60000802904710B1001B009001E0CDF80080EE
:102F7000002E5FD0D7F80090D9F80000002876D056
:102F80004FF0080443F2F57AC0F2080A29463246A7
:102F9000D04790B1C7F81090AB197B610098861BA1
:102FA000BE614FF0000487F828404FF000013962FD
:102FB0007962D9F804204AB914E0396801EB0409B0
:102FC000085904F108040028E0D150E03846904741
:102FD000012807D097F8283023B938466FF0C70189
:102FE000019CA047386A002811DD38464DF2C00127
:102FF000C0F208014FF0020242F60D63C0F208036E
:103000009847F96919B1CA680AB1384690473846F5
:1030100042F65564C0F20804A047B86968B197F851
:1030200028306BB938466FF06B01019A90474FF02A
:10303000010407E04FF0000404E04FF0010401E058
:103040004FF001042846414642F6FD63C0F20803F2
:103050009847454408B100F10105AB453FF66CAF18
:103060000DE04FF0FF340AE04FF0000407E038466F
:103070006FF07001019A90474FF00004E2E720469C
:1030800003B0BDE8F08F00BF98CD080008B54FF041
:103090000002826042F29951C0F20801884708BDDF
:1030A000F8B50446154672B9C16882684FF000064B
:1030B0008E54E168A26842F61575C0F20805A8476B
:1030C0000546A66049E08368426802F1FF30C21AF3
:1030D00095423DD8E768F8182A464AF2E533C0F22F
:1030E00008039847A1686D18A560E0684FF00002DA
:1030F0004255E068A16843F2A167C0F20807B847EB
:103100000546E368A1681818491B4DF2C002C0F2D9
:10311000080243F23137C0F20807B8470746D0B17A
:10312000E268861A20465119721B42F61575C0F2E4
:103130000805A8470546A368E06839469A1B4AF285
:10314000F733C0F208039847A068861BA66004E026
:103150004FF0FF3501E04FF000052846F8BD00BFF5
:10316000F8B504460D4608464AF2F143C0F208039A
:1031700098470746204642F61961C0F20801884781
:103180000646204629463A4642F60D63C0F2080339
:103190009847226A02F1010222628019F8BD00BF3D
:1031A00070B584B00446084601A94FF00C0243F202
:1031B0007D33C0F2080398470646204642F619615F
:1031C000C0F2080188470546204601A9324642F66A
:1031D0000D63C0F208039847226A02F101022262DD
:1031E000401904B070BD00BF2DE9F04104460F4600
:1031F00042F61963C0F20803984780464DF2141650
:10320000C0F20806204631464FF0010242F60D6535
:10321000C0F20805A847804438464AF2F141C0F29E
:1032200008018847024620463946A84708EB0007B0
:10323000204631464FF00102A847226A02F10102FE
:1032400022623818BDE8F08170B582B00446154698
:103250000E4619B32AB3194642F67963C0F2080341
:10326000984708B36069A169324601AB43F2D14681
:10327000C0F20806B047D0B12046019942F641623B
:10328000C0F208029047204642F65561C0F208019C
:103290008847019828604FF001000AE04FF00000D5
:1032A00007E04FF0000004E04FF0000001E04FF0B5
:1032B000000002B070BD00BF70B582B00446134676
:1032C0000E46E1B101A96A4643F24925C0F208055C
:1032D000A847B8B10198314643F28543C0F20803CC
:1032E00098470099884210D020466FF0890142F239
:1032F0000D62C0F2080290474FF0000007E04FF067
:10330000000004E04FF0000001E04FF0010002B0C7
:1033100070BD00BFA0F10203D9B2022904D9D0F1D7
:10332000010038BF002070474FF00100704700BF18
:1033300070B4411888421AD0034613F8016B36B9AD
:103340004FF0000018E0B54202D115E023461446C4
:1033500014F8015B002DF6D18B420BD01C4614F8FB
:10336000016B1846002EF1D14FF0000004E04FF041
:10337000000001E04FF0000070BC7047F0B403465D
:1033800038B9002A55D04FF0300008704FF00100D6
:1033900049E0002808DAC0F1000342B14FF02D00E7
:1033A00008704FF0010004E04FF0000001E04FF022
:1033B00000001D464CF6FF14C3F69A34A34210D801
:1033C0004FF44A43C3F69A334CF6CD46CCF6CC467E
:1033D000A6FB03434FEAD303B5FBF3F4002CF7D06D
:1033E00003E04FF44A43C3F69A33824233D9B5FB24
:1033F000F3F6F6B24CF6CD47CCF6CC476FEA0004B4
:10340000A41814F0010F28D106F130040C5400F177
:103410000104204603FB1655A7FB0363DB0802D01B
:10342000A24209D817E0904215D24FF000020A5488
:1034300011E04FF000000EE0B5FBF3F0C6B206F16C
:103440003000085504F1010003FB1655A7FB0343A8
:10345000DB0813D1E7E7F0BC704706F130040C54E9
:1034600000F1010003FB1655A7FB0363DB08DAD06C
:103470008242F0D9B5FBF3F6F6B2C5E7B5FBF3F639
:10348000F6B2C1E730B583B004460D4601A94FF04E
:1034900000024AF29963C0F2080398472860019835
:1034A000001B03B030BD00BF10B50C4699420BD1D4
:1034B000114622464AF20153C0F208039847D0F160
:1034C000010038BF002010BD4FF0000010BD00BF4C
:1034D0002DE9F04F83B00646019299460B4600292C
:1034E0003ED040F2A422C2F20702D2F800E04FF030
:1034F00001054FF000042746A0464FF0020B6FEA8B
:103500000401C9182940005D2246002C4FD062E01A
:10351000315D12B1022A1BD10FE00EEB01004078A1
:1035200000F00800C0B210B12F46A84610E02C29C8
:103530001BD0A0462F465A460AE02C2918D00EEB85
:103540000100417801F00800C1B2002908BF2F46F0
:1035500004F1010405F10105315D002A76D089E00E
:103560004FF00007B8463A4604E04FF0040201E08D
:103570004FF00402104643F21533C0F20803984797
:1035800068B1019A0AB146441660B9F1000F09D03A
:10359000C8EB0707C9F800704FF0010004E04FF0D6
:1035A000000001E04FF0010003B0BDE8F08F0EEB2A
:1035B000000C9CF801C00CF0080C5FFA8CFCBCF10C
:1035C000000F05D12C28D0D0A0462F465A460EE039
:1035D0002F46A8460BE0022C09D12C28C8D07044F5
:1035E000407800F00800C0B2002808BF2F4604F160
:1035F000010405F101059C42BCD0002988D0315D51
:103600007AB90EEB0100407800F00800C0B228B98A
:103610002C29AAD0A0462F465A460FE02F46A8468E
:103620000CE0022A0AD12C29A2D00EEB010041782D
:1036300001F00800C1B2002908BF2F4604F10104BF
:1036400005F101059C427FF463AF93E70EEB010A9D
:103650009AF801A00AF0080A5FFA8AFABAF1000F94
:1036600005D12C2981D0A0462F465A460FE02F467F
:10367000A8460CE0022A0AD12C293FF479AF714404
:10368000497801F00801C9B2002908BF2F4604F1AA
:10369000010405F101059C427FF43AAF6AE700BFDF
:1036A00070B40E4611B340F2A423C2F207031C68A3
:1036B00001786218537803F00801CAB2C2B1034618
:1036C0004FF0000016F0010F09D115E013F8015F6B
:1036D00061194D7805F00801CDB2CDB90AE000F1CD
:1036E00001021046B242F1D1304603E0084601E043
:1036F0004FF0000070BC704700F1010013F8011F8B
:103700006218517801F00802D1B20029E7D1F1E73F
:1037100002F1010013F8012FA1184A7802F0080104
:10372000CAB2002ADBD1E5E72DE9F0478046914691
:103730009A468E4621B303782BB340F2A422C2F2FC
:1037400007021068C1184C7804F00305022D1DD043
:1037500042464FF000041EF0010F07D12FE0C719B9
:10376000797801F00305022D36D111E004F101064C
:10377000344676450CD012F8017F002FEFD107E0D8
:103780004FF0000404E04FF0000401E04FF00004AB
:10379000404671464A46534643F2A945C0F20805E1
:1037A000A84730B9404621464A4653462C46A847CA
:1037B00001E04FF0010000F00100BDE8F08704F1E6
:1037C000010412F8013F002BE2D0C1184D7805F03A
:1037D0000303022BCAD1DBE706F1010412F8013F13
:1037E000002BD5D0C1184D7805F00303022BBDD1B5
:1037F000CEE700BF2DE9F84F05460C4616464AF2C3
:10380000F143C0F20803984705EB00092046314612
:103810004AF27352C0F20802904704EB000A207883
:103820003A2808BF01344DF20C0BC0F2080B43F2EA
:103830003138C0F20808C5EB0907284639465A4610
:10384000C04700B1471BC4EB0A06204631461B4A5D
:10385000C04700B1061B284639462246334643F28C
:10386000297CC0F2080CE047C0B1ED19A4194D4500
:1038700005D1A2458CBF00200120BDE8F88FA245EC
:1038800010D928782278824210D13A2801D03F28D6
:1038900010D105F1010504F10104CCE74FF000005F
:1038A000BDE8F88F4FF00000BDE8F88F4FF0000042
:1038B000BDE8F88F4FF00000BDE8F88F14D0080085
:1038C00038B541F6E825C2F207054DF21804C0F2FA
:1038D00008040FCC28606960AA60EB60206828614A
:1038E000A288A379AA82AB75284644F63D51C0F25E
:1038F000080188474FF0010038BD00BF38B541F6D8
:10390000E825C2F207054DF21804C0F208040FCCF6
:1039100028606960AA60EB6020682861A288A379AA
:10392000AA82AB75284644F63D51C0F2080188478B
:103930004FF0010038BD00BF38B541F6E825C2F2AE
:1039400007054DF21804C0F208040FCC2860696026
:10395000AA60EB6020682861A288A379AA82AB756F
:10396000284644F63D51C0F2080188474FF0010057
:1039700038BD00BF08B541F6E822C2F207024DF299
:103980003003C0F2080303CB10605160104644F6C8
:103990003D51C0F2080188474FF0010008BD00BF4B
:1039A00008B541F6E823C2F207034DF23802C0F22F
:1039B0000802106818609188927999809A71184667
:1039C00044F63D53C0F2080398474FF0010008BD8C
:1039D00008B541F6E823C2F207034DF24002C0F2F7
:1039E00008021068186011791971184644F63D53A1
:1039F000C0F2080398474FF0010008BD08B541F632
:103A0000E823C2F207034DF24002C0F20802106838
:103A1000186011791971184644F63D53C0F2080335
:103A200098474FF0010008BD08B541F6E823C2F2FF
:103A300007034DF24802C0F20802106818601846E9
:103A400044F63D51C0F2080188474FF0010008BD1F
:103A500008B541F6E823C2F207034DF24802C0F26E
:103A6000080210681860184644F63D51C0F208017B
:103A700088474FF0010008BD08B542F24553C0F237
:103A800008039847012811D141F6E822C2F2070243
:103A90004DF24C03C0F2080303CB10605160104696
:103AA00044F63D51C0F20801884712E041F6E82291
:103AB000C2F207024DF25403C0F2080303CB1060B8
:103AC000516018881081104644F63D51C0F208013B
:103AD00088474FF0010008BD4FF00100704700BF5C
:103AE0004FF00100704700BF30B583B001A96A46AE
:103AF0004FF0010343F24924C0F20804A047002814
:103B000039D0009C012C39D9019D28464DF2600125
:103B1000C0F208014FF002024AF24553C0F2080316
:103B2000984760B942F27953C0F20803984742F2CD
:103B30009130C0F2080080474FF0010026E0022CCF
:103B40001FD928464DF26401C0F208014FF003026C
:103B50004AF24553C0F208039847A8B942F295319A
:103B6000C0F20801884742F28952C0F20802904729
:103B70004FF001000AE04FF0FF0007E04FF00100B6
:103B800004E04FF0FF0001E04FF0FF0040B203B04F
:103B900030BD00BF2DE9F04784B0044603A94FF0C3
:103BA000010243F2B923C0F208039847002846D027
:103BB000204602A94FF0010243F2B923C0F20803E4
:103BC000984700283ED0204601A94FF0010243F259
:103BD000B923C0F208039847002836D04AF2A51945
:103BE000C0F208090398C84749F68D68C0F2080872
:103BF000C04706460F460298C847C04704460D46D0
:103C00000198C847C047804689464AF2912AC0F2C7
:103C1000080A30463946D04786B220462946D04762
:103C200084B240464946D04782B23046214642F2ED
:103C30000153C0F2080398474FF0010007E04FF02E
:103C4000FF0004E04FF0FF0001E04FF0FF0040B242
:103C500004B0BDE8F08700BF10B582B001A96A4684
:103C60004FF0010343F24924C0F20804A0470028A2
:103C700067D0009B022B19D101984DF26801C0F268
:103C800008014FF002024AF24553C0F20803984778
:103C9000002859D14FF001004FF0000141F6857224
:103CA000C0F2080290474FF0010055E0032B4ED1BF
:103CB000019C20464DF26C01C0F208014FF0030256
:103CC0004AF24553C0F20803984758B94FF0030031
:103CD0004FF0000141F68572C0F2080290474FF0A4
:103CE000010039E020464DF27001C0F208014FF0AA
:103CF00003024AF24553C0F20803984758B94FF0FF
:103D000002004FF0000141F68573C0F208039847A6
:103D10004FF0010020E020464DF27401C0F208018E
:103D20004FF003024AF24553C0F20803984788B99E
:103D3000014641F68572C0F2080290474FF001003B
:103D40000AE04FF0FF0007E04FF0FF0004E04FF003
:103D5000FF0001E04FF0FF0040B202B010BD00BF15
:103D600010B582B001A96A464FF0010343F249241D
:103D7000C0F20804A047002867D0009B022B18D18E
:103D800001984DF26801C0F208014FF002024AF2B8
:103D90004553C0F208039847002859D14FF001005D
:103DA000014641F68572C0F2080290474FF00100CB
:103DB00056E0032B4FD1019C20464DF26C01C0F21E
:103DC00008014FF003024AF24553C0F20803984736
:103DD00058B94FF003004FF0010141F68572C0F26F
:103DE000080290474FF001003AE020464DF2700182
:103DF000C0F208014FF003024AF24553C0F2080333
:103E0000984758B94FF002004FF0010141F6857311
:103E1000C0F2080398474FF0010021E020464DF220
:103E20007401C0F208014FF003024AF24553C0F298
:103E30000803984790B94FF0010141F68572C0F22E
:103E4000080290474FF001000AE04FF0FF0007E042
:103E50004FF0FF0004E04FF0FF0001E04FF0FF00E3
:103E600040B202B010BD00BF10B582B001A96A46D1
:103E70004FF0010343F24924C0F20804A047002890
:103E800067D0009B022B19D101984DF26801C0F256
:103E900008014FF002024AF24553C0F20803984766
:103EA000002859D14FF001004FF0020141F6857210
:103EB000C0F2080290474FF0010055E0032B4ED1AD
:103EC000019C20464DF26C01C0F208014FF0030244
:103ED0004AF24553C0F20803984758B94FF003001F
:103EE0004FF0020141F68572C0F2080290474FF090
:103EF000010039E020464DF27001C0F208014FF098
:103F000003024AF24553C0F20803984750B94FF0F4
:103F10000200014641F68573C0F2080398474FF04E
:103F2000010021E020464DF27401C0F208014FF07B
:103F300003024AF24553C0F20803984790B94FF084
:103F4000020141F68572C0F2080290474FF001006D
:103F50000AE04FF0FF0007E04FF0FF0004E04FF0F1
:103F6000FF0001E04FF0FF0040B202B010BD00BF03
:103F700010B582B001A96A464FF0010343F249240B
:103F8000C0F20804A047002867D0009B022B19D17B
:103F900001984DF26801C0F208014FF002024AF2A6
:103FA0004553C0F208039847002859D14FF001004B
:103FB0004FF0030141F68572C0F2080290474FF0BE
:103FC000010055E0032B4ED1019C20464DF26C01BF
:103FD000C0F208014FF003024AF24553C0F2080351
:103FE000984750B94FF00300014641F68572C0F280
:103FF000080290474FF001003AE020464DF2700170
:10400000C0F208014FF003024AF24553C0F2080320
:10401000984758B94FF002004FF0030141F68573FD
:10402000C0F2080398474FF0010021E020464DF20E
:104030007401C0F208014FF003024AF24553C0F286
:104040000803984790B94FF0030141F68572C0F21A
:10405000080290474FF001000AE04FF0FF0007E030
:104060004FF0FF0004E04FF0FF0001E04FF0FF00D1
:1040700040B202B010BD00BF08B54FF0000041F6DD
:104080006D73C0F208039847032858D8A0B941F6C9
:10409000E821C2F207014DF27802C0F2080210686E
:1040A000086013790B71084644F63D51C0F20801CF
:1040B00088474FF0010047E0012812D141F6E8217E
:1040C000C2F207014DF28002C0F2080210680860D7
:1040D000084644F63D53C0F2080398474FF00100EC
:1040E00032E0022814D141F6E823C2F207034DF270
:1040F0008402C0F20802106818601179197118461C
:1041000044F63D53C0F2080398474FF001001BE00E
:10411000032817D141F6E821C2F207014DF28C02C3
:10412000C0F2080213680B6010790871084644F663
:104130003D51C0F2080188474FF0010004E04FF004
:10414000FF0001E04FF0010040B208BD08B54FF09C
:10415000010041F66D73C0F208039847032858D850
:10416000A0B941F6E821C2F207014DF27802C0F28F
:1041700008021068086013790B71084644F63D5137
:10418000C0F2080188474FF0010047E0012812D132
:1041900041F6E821C2F207014DF28002C0F20802A6
:1041A00010680860084644F63D53C0F2080398477B
:1041B0004FF0010032E0022814D141F6E823C2F2A8
:1041C00007034DF28402C0F20802106818601179EA
:1041D0001971184644F63D53C0F2080398474FF052
:1041E00001001BE0032817D141F6E821C2F20701C4
:1041F0004DF28C02C0F2080213680B60107908714E
:10420000084644F63D51C0F2080188474FF00100CE
:1042100004E04FF0FF0001E04FF0010040B208BDA4
:1042200008B54FF0020041F66D73C0F208039847DD
:10423000032858D8A0B941F6E821C2F207014DF28F
:104240007802C0F208021068086013790B71084602
:1042500044F63D51C0F2080188474FF0010047E0A5
:10426000012812D141F6E821C2F207014DF2800285
:10427000C0F2080210680860084644F63D53C0F2D8
:10428000080398474FF0010032E0022814D141F6AC
:10429000E823C2F207034DF28402C0F2080210685C
:1042A000186011791971184644F63D53C0F208039D
:1042B00098474FF001001BE0032817D141F6E82191
:1042C000C2F207014DF28C02C0F2080213680B60C3
:1042D00010790871084644F63D51C0F2080188473C
:1042E0004FF0010004E04FF0FF0001E04FF001004B
:1042F00040B208BD08B54FF0030041F66D73C0F23F
:1043000008039847032858D8A0B941F6E821C2F21B
:1043100007014DF27802C0F20802106808601379B4
:104320000B71084644F63D51C0F2080188474FF032
:10433000010047E0012812D141F6E821C2F207014D
:104340004DF28002C0F2080210680860084644F688
:104350003D53C0F2080398474FF0010032E00228B5
:1043600014D141F6E823C2F207034DF28402C0F2F1
:1043700008021068186011791971184644F63D5307
:10438000C0F2080398474FF001001BE0032817D143
:1043900041F6E821C2F207014DF28C02C0F2080298
:1043A00013680B6010790871084644F63D51C0F25D
:1043B000080188474FF0010004E04FF0FF0001E0E2
:1043C0004FF0010040B208BD10B5044640F29543DD
:1043D000C0F208039847012803D028B1022820D151
:1043E00015E04FF0030010BD40F64841C2F207014E
:1043F0000B5DCBB9204641F22D02C0F20802904776
:1044000000F0030000280CBF0220002010BD40F681
:104410004840C2F207004FF0000202554FF0020080
:1044200010BD4FF0010010BD4FF0020010BD00BFE5
:1044300008B54FF0000044F2C933C0F208039847B2
:1044400008BD00BF38B504460D4641F25903C0F21D
:10445000080398474FEA400000F1FF3129602046E9
:1044600044F2C932C0F20802904738BD08B501468F
:104470004FF0000044F24543C0F20803984708BDDE
:1044800008B541F28503C0F20803984708BD00BF94
:1044900008B54FF0000044F28143C0F2080398478A
:1044A00008BD00BF4FF00100704700BF08B54FF0D6
:1044B000000044F2A543C0F20803984708BD00BFBE
:1044C0002DE9F041144641F28D03C0F208039847EC
:1044D000014670B302280CBF02200120BDE8F08124
:1044E00044B114F0010F0CBF384640464FF00101B3
:1044F000B047A0BB85B914F0010F0CBF4146394647
:104500004FF001004FF400724FF0000346F6F5053E
:10451000C0F20805A84730B32CB141F21520C0F213
:104520000800804718BB04F1FF34A4B24FF0000527
:104530000DE04FF0010541F2DD16C0F2080641F230
:10454000E868C2F2070841F6E807C2F207074FF62B
:10455000FF729442C4D14FF00000BDE8F0814FF0EB
:104560000100BDE8F0814FF00100BDE8F0814FF09F
:104570000100BDE8F08100BF08B503460A464FF0D0
:104580000000194644F2C143C0F20803984708BD31
:104590002DE9F041144641F29523C0F208039847F3
:1045A000014668B302280CBF02200120BDE8F0815B
:1045B00045B914F0010F0CBF384640464FF00101D9
:1045C000B04798BB7CB114F0010F0CBF414639468F
:1045D0004FF000004FF40072034646F6F50CC0F2AF
:1045E000080CE04730B32DB941F2A130C0F2080009
:1045F000804718BB04F1FF34A4B24FF000050DE072
:104600004FF0010541F26936C0F2080641F2E86850
:10461000C2F2070841F6E807C2F207074FF6FF7239
:104620009442C5D14FF00000BDE8F0814FF0010089
:10463000BDE8F0814FF00100BDE8F0814FF00100CE
:10464000BDE8F08108B503460A464FF00000194660
:1046500044F29153C0F20803984708BD70B44FF07C
:1046600080435D689C68D868D9695A6D4FF08006B0
:104670001E605D609C60D860D9615A654FF0000093
:1046800018654FF00501196070BC704708B501F05E
:104690003F03184311F4807F0CD011F4006F02D057
:1046A00040F4845006E011F4005F14BF40F48650DB
:1046B00040F4825011F4804F18BF40F400604FF076
:1046C00080431A615861184601F48052036C52B15C
:1046D00013F41F0F12D044F25D62C0F2080290473B
:1046E0004FF0000008BD13F41B0F07D044F25D61CA
:1046F000C0F2080188474FF0000008BD13F0010F19
:10470000E4D011F4005F19D14FF0010008BD086C2E
:1047100003F1FF3300F03002202A19D10BE044F2FC
:104720005D61C0F2080188474FF0000008BD00F04D
:104730003002202AEBD14FF0010008BD4FF080403D
:10474000006C44F24023C0F20F034FF08041EEE7CB
:10475000086C013BEBD1E2E710B54FF0150047F6CE
:10476000AD04C0F20804A0474FF02700A0474FF067
:1047700080434FF072029A60DA614FF01100586581
:104780004FF4E06159604FF005021A6010BD00BFA0
:1047900000280CBF04200020704700BF4FF001002C
:1047A000704700BF33B14FF08043586D40F48070C4
:1047B000586505E04FF08043586D20F480705865CF
:1047C00081B14FEA41014FF43D43C0F20153B3FBC5
:1047D000F1F001FB103109B100F1010020B100F14D
:1047E000FF3001E04FF000004FF08043596821F0A6
:1047F000FF0159605968C0B208435860042A04D0C8
:10480000082A0CBFC022002201E04FF080024FF0C6
:104810008043DA60704700BF704700BF4FF08043AD
:104820005A6822F4605058604FF0000119614FF44B
:1048300010625A611846036C13F0010FFBD07047E9
:1048400010B504460A464FF08043596821F4605081
:1048500058604FF0000018659861214644F28D635E
:10486000C0F20803984710BD4FF08043186A7047A4
:104870004FF080431A6A4FEA126101704FEA124109
:1048800041704FEA12218170C2701A6A4FEA1261B8
:1048900001714FEA124141714FEA12218171C271D7
:1048A0001A6A4FEA126101724FEA124141724FEAED
:1048B00012218172C2721B6A4FEA136202734FEABD
:1048C000134141734FEA13228273C373704700BFD1
:1048D00070B504460D469DF8101029B14FF4807054
:1048E0004FF08041086504E04FF000004FF0804633
:1048F00030654FF08046706840F4C051716012F02E
:10490000030F04D0706840F40051716005E04FF06F
:104910008046706820F40051716004F40046002E57
:104920000CBF4FF4A0204FF4803014F4803F09D026
:1049300040F400104FEAC2564FEAD6514FF080467D
:10494000B16118E043EA02464FF080418E6114F4F1
:10495000003F02D040F420100DE014F4802F02D06C
:1049600040F4801007E014F4002F04D114F4801FE9
:1049700018BF40F4002040F65041C2F207014FF04A
:1049800000060E6040F64C41C2F207010A8040F674
:104990004E42C2F20702138021462A4644F28D633A
:1049A000C0F20803984770BD08B54FF080414FF042
:1049B0000002CCF260020B6C134207D044F25D603F
:1049C000C0F2080080474FF0000008BD13F0020F4E
:1049D000F1D04FF080410A6B026040F65040C2F2C5
:1049E0000700036803F10403036040F64E41C2F27E
:1049F00007010A8840F64C40C2F20700018801FB1B
:104A000002F2934216D34FF080404FF00002CCF2F6
:104A10006002036C134207D044F25D61C0F20801EA
:104A200088474FF0000008BD13F0006FF1D04FF041
:104A3000010008BD4FF0010008BD00BF70B586B091
:104A4000044640F64C43C2F207031E8806FB01F6FB
:104A50004FF08040416811F4005F2FD14FF4804542
:104A6000C4F20C05284645F2F502C0F20802904750
:104A700028464FF0000145F20913C0F20803984799
:104A800028464FF000014FF40072C0F2011245F2C7
:104A90005115C0F20805A8474FF03000C4F20000DD
:104AA0000190029414F0030F02D0B4B203942AE0F0
:104AB000C6F38F0444F00851039124E04FF480457D
:104AC000C4F20C05284645F2F502C0F208029047F0
:104AD00028464FF0000145F20913C0F20803984739
:104AE00028464FF000014FF40072C0F2011245F267
:104AF0005115C0F20805A8474FF03000C4F200007D
:104B000001900294D1E74FF00001C4F251210491C9
:104B10004FF0000405944FF48045C4F20C0528467C
:104B2000214601AA45F25D13C0F2080398472846C2
:104B3000214645F2FD02C0F20802904740F650407F
:104B4000C2F207000168761806604FF0010006B057
:104B500070BD00BF10B540F64E43C2F2070318887F
:104B600040F64C42C2F20702148804FB00F440F6FF
:104B70005041C2F2070108684FF080414FF0000237
:104B8000CCF260020B6C134212D044F25D60C0F2B2
:104B9000080080474FF48040C4F20C004FF0000141
:104BA00045F20912C0F2080290474FF0000010BD14
:104BB000844202D913F0007F05D113F0006FE1D0D9
:104BC0004FF0010010BD4FF0010010BD70B586B070
:104BD000044640F64C43C2F207031E8806FB01F66A
:104BE0004FF08040416811F4005F27D14FF48045B9
:104BF000C4F20C05284645F2F502C0F208029047BF
:104C000028464FF000014FF40052C0F2011245F265
:104C10005113C0F20803984701944FF03400C4F2D6
:104C20000000029014F0030F02D0B4B2039422E00B
:104C3000C6F38F0444F0085103911CE04FF4804503
:104C4000C4F20C05284645F2F502C0F2080290476E
:104C500028464FF000014FF40052C0F2011245F215
:104C60005113C0F20803984701944FF03400C4F286
:104C700000000290D9E74FF00001C6F23101049123
:104C80004FF0000405944FF48045C4F20C0528460B
:104C9000214601AA45F25D13C0F208039847284651
:104CA000214645F2FD02C0F20802904740F650400E
:104CB000C2F207000168761806604FF0010006B0E6
:104CC00070BD00BF10B540F64E43C2F2070318880E
:104CD00040F64C42C2F20702148804FB00F440F68E
:104CE0005041C2F2070108684FF080414FF00002C6
:104CF000CCF260020B6C134212D044F25D60C0F241
:104D0000080080474FF48040C4F20C004FF00001CF
:104D100045F20912C0F2080290474FF0000010BDA2
:104D2000844202D913F0007F05D113F0200FE1D0A7
:104D30004FF0010010BD4FF0010010BD10B504464A
:104D400040F65443C2F20703187868B120464AF28D
:104D5000F142C0F2080290470146204645F6FD3375
:104D6000C0F20803984710BD20464AF2F141C0F254
:104D70000801884710BD00BF39B140F65440C2F267
:104D800007004FF001010170704740F65443C2F232
:104D900007034FF000021A70704700BF40F65543FA
:104DA000C2F207034FF001021A707047704700BF4C
:104DB000704700BF704700BF30B583B0134641F65F
:104DC000E824C2F20704009120464FF064014DF23E
:104DD0009402C0F208024AF28B45C0F20805A847C7
:104DE000204644F63D53C0F2080398474FF00100B7
:104DF00003B030BD4FF00100704700BF30B583B045
:104E00000D4608B242F23973C0F20803984741F6E2
:104E1000E824C2F20704009020464FF064014DF2EE
:104E20009C02C0F208022B464AF28B45C0F20805EC
:104E3000A847204644F63D51C0F2080188474FF08C
:104E4000000003B030BD00BF30B583B00B46144640
:104E5000012918D141F6E825C2F20705009228463B
:104E60004FF064014DF2B002C0F2080223464AF24C
:104E70008B44C0F20804A047284644F63D51C0F2D6
:104E80000801884717E041F6E825C2F207050092BD
:104E9000019228464FF064014DF2C402C0F20802AC
:104EA0004AF28B44C0F20804A047284644F63D531A
:104EB000C0F2080398474FF0010003B030BD00BFB7
:104EC00008B541F6E822C2F207024DF2E003C0F253
:104ED000080303CB1060516018781072104644F636
:104EE0003D51C0F2080188474FF0010008BD00BFE6
:104EF00008B541F6E822C2F207024DF2EC03C0F217
:104F0000080303CB1060516018881081104644F6E6
:104F10003D51C0F2080188474FF0010008BD00BFB5
:104F200008B540F23C00C2F2070043F28D03C0F224
:104F30000803984708BD00BF2DE9F04745F26173AB
:104F4000C0F208039847002840D040F65644C2F209
:104F5000070441F64C35C2F207054FF0010645F64D
:104F6000752AC0F2080A40F23C09C2F2070943F26E
:104F7000A108C0F20808208840193146D0470746EA
:104F80002188484649193246C047228802F1010269
:104F900093B22380E81810F8011C0D2901D00A29CA
:104FA00002D14FF00002228017B12388C72BE2D92B
:104FB00040F65640C2F207000188C82906D140F6E3
:104FC0005643C2F207034FF000021A80BDE8F08793
:104FD00041F61C43C2F207039878042802D0052842
:104FE0003BD104E040F2C002C2F2070203E040F20B
:104FF0009402C2F2070240F2A403C2F2070311783E
:105000005980507898809178D980D078188111791A
:105010005981507998819179D981D0791882117A02
:105020005982507A9882917AD982D07A1883127BE9
:105030005A834FF01C01197041F61C40C2F2070060
:1050400081818360C3881B2B0AD841F61C42C2F2BF
:10505000070293814FF0010070474FF00000704746
:105060004FF00100704700BF04207146084200F075
:105070000480EFF3098000F005B8EFF3088000F03A
:1050800001B800BF8EB003680D9341680C9182682F
:105090000B92C3680A930169099142690892836976
:1050A0000793C06906904EF62851CEF200010A68B7
:1050B00005924EF62C53CEF20003186804904EF67B
:1050C0003051CEF200010A6803924EF63C53CEF204
:1050D0000003186802904EF63451CEF200010A68BF
:1050E00000924EF63853CEF200031868019000BECD
:1050F000FEE700BF4FF00103436070474FF001032C
:1051000003FA01F1816270474FF0010303FA01F1E4
:10511000C162704701EB810100EBC100C2637047BF
:1051200001EB810100EBC1000264704701EB8101DA
:1051300000EBC1004264704701EB810100EBC1004C
:105140008264704701EB810100EBC100C2647047CB
:1051500001EB810100EBC1000265704770B50446A8
:105160000E461546436A126845F21513C0F208034D
:105170009847204631466A6845F22113C0F2080379
:105180009847204631464FF0000245F22D13C0F2F9
:105190000803984720463146AA6845F23913C0F201
:1051A0000803984720463146EA6845F24513C0F2A5
:1051B0000803984770BD00BF08B547F68D03C0F2DD
:1051C000080398474FF0000047F63111C0F208017C
:1051D000884747F64910C0F20800804708BD00BF65
:1051E00010B54FF43D40C0F2015049F63143C0F2D2
:1051F000080398474FF000004FF03E0147F2ED7270
:10520000C0F20802904747F65D04C0F20804A047C8
:105210000028FCD047F66D00C0F2080080474FF42C
:10522000C061C4F20E0143F60173C2F20D038B623A
:1052300047F67D04C0F20804A0470028FCD04FF0D8
:10524000100047F24D72C0F20802904749F66920FB
:10525000C0F20800804710BD4FF00100704700BF4A
:1052600008B528B944F23143C0F20803984708BD95
:105270004FF0010008BD00BF08B530B9084644F240
:105280006D43C0F20803984708BD4FF0010008BD08
:1052900010B981F0010070474FF00000704700BF67
:1052A00008B528B944F29143C0F20803984708BDF5
:1052B0004FF0010008BD00BF08B528B944F2AD4366
:1052C000C0F20803984708BD4FF0010008BD00BFB9
:1052D00020B94DF2F800C0F2080070474FF000000E
:1052E000704700BF08B538B90846114644F27953F3
:1052F000C0F20803984708BD4FF0010008BD00BF89
:1053000008B538B90846114644F24563C0F20803AF
:10531000984708BD4FF0010008BD00BF41F274037B
:10532000C2F207031A7802F1FF30C1B21970704758
:105330004FF00000704700BF4FF00000704700BF03
:10534000704700BF30B583B041F28803C2F2070353
:105350001878002840F0DF8048F6C951C0F20801F3
:10536000884760B141F27C04C2F20704248848F601
:105370002D60C0F20800804784420DD1CBE041F29D
:105380007C02C2F20702148848F61D63C0F20803CB
:105390009847844200F0BF80EFF31085D5F10105F6
:1053A00038BF002572B6BFF35F8F40F29C21C2F276
:1053B00007014FF000020A7040F66843C2F207038B
:1053C0001C7840F66C40C2F2070030F8141079BB2C
:1053D00041F29843C2F207031A8802F101021A80CF
:1053E00048F6C950C0F20800804730B941F29841F0
:1053F000C2F207010B88632B0DD948F6C952C0F2DF
:1054000008029047A0B141F29840C2F2070001881B
:10541000B1F5487F0CD2002D7DD040F29C23C2F222
:1054200007034FF001021A70BFF35F8F62B672E09C
:1054300041F29843C2F207034FF000021A8041F292
:105440009C40C2F20700017849B9944214BF00227F
:10545000012240F66843C2F207031A7003E0D4F158
:10546000010438BF002441F28800C2F207004FF067
:10547000010202703DB140F29C25C2F207052A707C
:10548000BFF35F8F62B6254640F66C41C2F207015A
:1054900031F81440B4F5007418BF0124DCB148F6AB
:1054A000C952C0F20802904750B148F62D60C0F2D0
:1054B0000800804741F27C02C2F20702108011E02E
:1054C00048F61D61C0F20801884741F27C03C2F230
:1054D0000703188006E041F27C03C2F207034FF095
:1054E0000000188040F66C41C2F2070131F8153017
:1054F00045F23150C0F2080000904FF08400214680
:1055000040F67044C2F2070404EB452249F2E90474
:10551000C0F20804A04703B030BD00BF08B54FF08B
:10552000000045F24533C0F20803984708BD00BFAC
:1055300008B5E8B940F66843C2F207031978D1F11B
:10554000010138BF002140F66C43C2F2070323F883
:10555000110041F29C41C2F20701087041F2880239
:10556000C2F20702107045F24533C0F208039847B3
:1055700008BD00BF08B541F61C43C2F20703187806
:1055800010F0800F20D000F06001202956D141F6A4
:105590001C42C2F207025378212B52D141F61C4023
:1055A000C2F20700C18807294ED141F61C43C2F25E
:1055B000070340F65C42C2F207029A604FF0070010
:1055C00098814FF0010008BD00F0600120293ED114
:1055D00041F61C42C2F207025378202B02D0222B44
:1055E00038D11AE041F61C43C2F20703D8880728D5
:1055F00033D141F61C41C2F2070145F24132C0F2FB
:1056000008020A6140F65C43C2F207038B604FF068
:10561000070088814FF0010008BD41F61C40C2F22E
:10562000070081784FF0000001F0010144F6795243
:10563000C0F2080290474FF0010008BD4FF0000093
:1056400008BD4FF0000008BD4FF0000008BD4FF04E
:10565000000008BD4FF0000008BD4FF0000008BD7D
:1056600008B540F66443C2F207031A7802F1FF302E
:10567000C1B21970187849F65553C0F2080398471B
:1056800041F28000C2F207004FF00002027008BD34
:1056900008B54FF0000041F27403C2F2070318701E
:1056A00041F2A041C2F20701088041F28C03C2F22C
:1056B00007034FF0A10119704FF020015970588075
:1056C00098804FF00201D980188140F65C43C2F205
:1056D00007034FF4E1311960187158714FF0080257
:1056E0009A7149F64553C0F20803984758B141F200
:1056F0007400C2F20700017801F10101CAB2027020
:105700004FF0010008BD4FF0000008BDEFF310831B
:1057100072B6BFF35F8F40F29C22C2F207024FF0D5
:105720000001117041F27800C2F20700028890B2C5
:1057300041F28401C2F20701097841F27002C2F21B
:10574000070232F81110081A4BB940F29C23C2F23A
:1057500007034FF001021A70BFF35F8F62B6704704
:1057600008B54FF0000045F20D73C0F208039847EA
:1057700008BD00BF08B545F20D73C0F20803984795
:10578000003018BF012008BD10B582B0EFF31083C0
:10579000D3F1010038BF002072B6BFF35F8F40F233
:1057A0009C22C2F207024FF00001117041F2840402
:1057B000C2F20704247840F65843C2F207031A786D
:1057C0006AB941F27801C2F207010B889AB241F23C
:1057D0007001C2F2070131F8143093420ED900284B
:1057E00052D040F29C21C2F207014FF001020A7030
:1057F000BFF35F8F62B64FF0000047E041F27802DE
:10580000C2F207024FF0000111808C4214BF002148
:10581000012141F28403C2F20703197040F6584295
:10582000C2F207024FF00101117038B140F29C2022
:10583000C2F207000170BFF35F8F62B64FF0000045
:1058400045F27572C0F20802904730B14FF0000087
:1058500044F69D51C0F20801884745F69100C0F218
:10586000080000904FF005004FF0010141F298034D
:10587000C2F2070303EB44224FF4007349F2E90438
:10588000C0F20804A04701E04FF0000002B010BDD4
:1058900010B582B088BB41F28403C2F207031878C6
:1058A000D0F1010338BF0023A9B945F69104C0F235
:1058B0000804009410464FF0010141F29802C2F230
:1058C000070202EB43224FF4007349F2E904C0F2ED
:1058D0000804A04711E041F27002C2F2070222F868
:1058E00013104FF0000040F65841C2F20701087053
:1058F00045F28973C0F20803984702B010BD00BF9B
:1059000038B54FF0000440F66443C2F207031C7040
:1059100041F28800C2F20700047041F29C41C2F2D9
:1059200007010C7040F66842C2F20702147040F69C
:105930006C43C2F2070325461C805C8041F27C0068
:10594000C2F207000480204645F24531C0F208014A
:10595000884740F65842C2F20702147041F28403AD
:10596000C2F207031C7041F27000C2F2070004800B
:1059700041F27801C2F207010C80204645F289729B
:10598000C0F20802904798B140F66443C2F20703A0
:10599000187800F10100C1B219701A78012A0AD1F1
:1059A0004FF0010041F28003C2F20703187038BDC6
:1059B0004FF0000038BD4FF0010038BD2DE9F04F29
:1059C00083B01546884640F29C27C2F207074FF085
:1059D000000B41F27806C2F2070641F2840AC2F2D5
:1059E000070A41F27009C2F2070941F29803C2F2B4
:1059F00007030193EFF3108272B6BFF35F8F87F84E
:105A000000B0308883B29AF800102AB94FF0010430
:105A10003C70BFF35F8F62B639F81140A34207D3E1
:105A200041F28000C2F2070001780029E2D11DE0B6
:105A3000E41AA54238BF2C4603EB41224046019BA5
:105A4000991822464AF2E533C0F208039847308895
:105A500021188AB23280A0442D1B4FF0000045F27D
:105A60008973C0F208039847002DC3D1284603B0BC
:105A7000BDE8F08F08B503460A464FF0000019460E
:105A800045F6BD13C0F20803984708BD10B4EFF304
:105A9000108472B6BFF35F8F40F29C23C2F20703FB
:105AA0004FF000021A7040F66840C2F20700017819
:105AB00040F66C42C2F2070232F81130D1F1010116
:105AC00038BF0021C8B232F81000B3F5007F1BD1F7
:105AD00041F28802C2F207021278AAB941F29C424E
