S00F00007261636B5F66772E7372656338
S11300000C94FC000C9419010C9419010C94190122
S11300100C9419010C9419010C9419010C941901F4
S11300200C9419010C9419010C9455060C948F0628
S11300300C9419010C9419010C9419010C941901D4
S11300400C9419010C9419010C9419010C941901C4
S11300500C9419010C9419010C9419010C941901B4
S11300600C9419010C9419010C9419010C941901A4
S11300700C9419010C9413020C9419010C94190199
S11300800C9419010C9419010C9419010C94190184
S11300900C9419010C9419010C9419010C94190174
S11300A00C9419010C9419010C9419013F063A0699
S11300B0350630062B06260621061C0617061206F0
S11300C00D0608060306FE05F905F405EF05EA0525
S11300D0E505E005DB05D605D105CC05C705C20558
S11300E0BD05B805B305AE05A905A4059F059A0588
S11300F0950590058B05860581057C0577057205B8
S11301006D05680563055E05590554054F054A05E7
S1130110450540053B05360531052C052705220517
S11301201D05180513050E0509050405FF04000146
S11301300000620112000200007401430003000089
S1130140B7010401030904BB011402030904D1012A
S11301501603030904E9010C0001C11201803601F0
S113016081361201000202000010C0167A04000158
S11301700102030109024300020100C03209040024
S113018000010202010005240010010524010101FF
S1130190042402060524060001070582031000401A
S11301A009040100020A00000007050302400000E0
S11301B00705840240000004030904140359006F76
S11301C0007500720020004E0061006D00650000A3
S11301D000160355005300420020005300650072CE
S11301E000690061006C0000000C03310032003330
S11301F0003400350000000011241FBECFEFDAE008
S1130200DEBFCDBF11E0A0E0B1E0E0EFF0E102C05D
S113021005900D92AE30B107D9F721E0AEE0B1E020
S113022001C01D92A736B207E1F70E943F040C9467
S113023076080C9400008091BC0087FFFCCF0895E1
S1130240FF920F931F93CF93DF938C0184EA8093E3
S1130250BC000E941B018091B900887F883029F07E
S113026084E98093BC0085E02CC081E98093BB00C5
S113027084E8F82EF092BC000E941B018091B90022
S1130280887F803429F084E98093BC0089E019C018
S113029084EC8093BC000E941B018091BB00D82F8A
S11302A080E0C82FF092BC000E941B018091BB002B
S11302B094E99093BC00C80FD11DF801D183C08389
S11302C080E0DF91CF911F910F91FF9008958BB142
S11302D083608BB98AB183608AB981E18093B80065
S11302E0E9EBF0E080818C7F808308958091120196
S11302F0909113011C9B02C08D7F01C0816090937B
S11303001301809312018091120190911301189BA3
S113031002C0977F01C094609093130180931201EF
S11303208091120190911301379B02C08F7B01C011
S11303308062909313018093120180911201909135
S11303401301369B02C08F7701C080649093130120
S11303508093120180911201909113014F9B02C06E
S11303608B7F01C08260909313018093120180916E
S11303701201909113014E9B02C0877F01C08460DB
S113038090931301809312018091120190911301B3
S11303904D9B02C09E7F01C080689093130180939F
S11303A0120180911201909113014C9B02C08F7E27
S11303B001C088609093130180931201809112010F
S11303C0909113014B9B02C09D7F01C0916090935B
S11303D013018093120180911201909113014A9BA1
S11303E002C09B7F01C0926090931301809312011D
S11303F08091120190911301669B02C09F7E01C0FF
S1130400986090931301809312018091120190914E
S113041013017F9B02C08F7D01C080619093130103
S11304208093120108951F920F920FB60F92112418
S11304302F933F938F939F93EF93FF938091780033
S113044090916501809114012091790030E1939F8E
S1130450F0011124E80FF11DEB5EFE4F20839F5F36
S113046090936501953061F4109265018F5F8093DC
S11304701401803129F41092140181E08093660103
S1130480E0916501F0E0E050FF4F8081806E809341
S11304907C0080917A00806480937A00FF91EF91D0
S11304A09F918F913F912F910F900FBE0F901F90AE
S11304B01895FC0180E090E020E03191830F911DBC
S11304C02F5F2031D1F724E0969587952A95E1F79F
S11304D00895109213011092120185B7806885BFA8
S11304E085B7806885BF84B1866084B984B18E7E07
S11304F084B985B18E7E85B987B18F7387B988B188
S11305008F7388B98AB183708AB98BB183708BB9C0
S11305106E98769887988F9880B38C7880BB81B3D7
S11305208C7881BBEEE7F0E0808183678083E09183
S11305306501F0E0E050FF4F8081806E80937C0085
S113054010927B008FEC80937A0008951F93CF93D1
S1130550DF93CDB7DEB7C256D1090FB6F894DEBF2C
S11305600FBECDBFBE016F5F7F4F8091120190918E
S113057013010E94FD07CE0101960E940E0861E05E
S113058070E06C0F7D1F680F711D42E050E08CE03D
S113059091E00E941F0885E191E00E945902282FF2
S11305A030E029513109220F331F44E6429FC00134
S11305B0439F900D1124880F892F881F990B9195C3
S11305C0A3969FAF8EAFA397BE016F5B7F4F0E9430
S11305D02D08CE018F5B9F4F0E940E08182FCE016D
S11305E001960E940E08412F50E04F5F5F4F61E07B
S11305F070E06C0F7D1F680F711DCE018F5B9F4FE4
S11306000E941F08CE0101960E940E0861E070E06E
S11306106C0F7D1F680F711D42E050E08CE091E08B
S11306200E941F0885E291E00E94590224E0829F03
S1130630C0011124A3969FAF8EAFA397BE016F5B39
S11306407F4F0E942D08CE018F5B9F4F0E940E08A2
S1130650182FCE0101960E940E08412F50E04F5FE3
S11306605F4F61E070E06C0F7D1F680F711DCE015C
S11306708F5B9F4F0E941F08CE0101960E940E08B7
S113068061E070E06C0F7D1F680F711D42E050E067
S11306908CE091E00E941F0885E391E00E945902DA
S11306A028E0829FC0011124A3969FAF8EAFA39729
S11306B0BE016F5B7F4F0E942D08CE018F5B9F4F61
S11306C00E940E08182FCE0101960E940E08412F99
S11306D050E04F5F5F4F61E070E06C0F7D1F680F6B
S11306E0711DCE018F5B9F4F0E941F08CE010196A2
S11306F00E940E0861E070E06C0F7D1F680F711D91
S113070042E050E08CE091E00E941F0885E491E013
S11307100E94590290E0880F991FA3969FAF8EAF55
S1130720A397BE016F5B7F4F0E942D08CE018F5BA4
S11307309F4F0E940E08182FCE0101960E940E08AA
S1130740412F50E04F5F5F4F61E070E06C0F7D1F01
S1130750680F711DCE018F5B9F4F0E941F08CE0151
S113076001960E940E0861E070E06C0F7D1F680F17
S1130770711D42E050E08CE091E00E941F0885E585
S113078091E00E94590224E0829FC0011124A396A3
S11307909FAF8EAFA397BE016F5B7F4F0E942D0862
S11307A0CE018F5B9F4F0E940E08182FCE01019639
S11307B00E940E08412F50E04F5F5F4F61E070E0F0
S11307C06C0F7D1F680F711DCE018F5B9F4F0E94C0
S11307D01F08CE0101960E940E0861E070E06C0FC4
S11307E07D1F680F711D42E050E08CE091E00E9493
S11307F01F08CE018F599F4F0E94200181112BC0E9
S1130800A3968EAD9FADA397880F892F881F990B50
S11308109195A3969FAF8EAFA397BE016F5B7F4F59
S11308200E942D08CE018F5B9F4F0E940E08182F47
S1130830CE0101960E940E08412F50E04F5F5F4F9A
S113084061E070E06C0F7D1F680F711DCE018F5B3E
S11308509F4F0E941F08CE0101960E941608BC01FA
S1130860CE0101960E94B204CE59DF4F0FB6F89420
S1130870DEBF0FBECDBFDF91CF911F91089580E8F9
S113088080936100109261000E9467010E946902D6
S11308900E947404809166018823C1F0109266015D
S11308A085E491E00E9459028B3910F0803B10F0EE
S11308B0299801C0299A85E591E00E945902883758
S11308C010F0833810F02A9801C02A9A0E948D04EF
S11308D097FDE0CF0E9476010E94A602DBCF8091B3
S11308E0E80080FFFCCF089581E08093D70080EA80
S11308F08093D80082E189BD09B400FEFDCF80E970
S11309008093D8001092E00010920F011092100111
S11309108CE08093E200789408958FB7F8949091D6
S11309200F01911101C00DC093E09093E9002BE6F3
S11309309091E80095FD09C092FF03C02093E80060
S1130940F7CF8FBF2FEF3FEF0BC02091F1009091B5
S1130950E80095FD03C09BE69093E8008FBF30E06C
S1130960C90108950F931F93CF938C0180910F01B8
S1130970811101C00FC04FB7F89484E08093E9005F
S113098080911101882309F483C18091E80085FDD9
S113099003C04FBF8FEF85C11092110179C18091BF
S11309A0E400875E9091E80095FD12C04FBF9091DE
S11309B0E400981304C081E080931101EBCF90917F
S11309C00F01992339F34FB7F8945093E900EACF14
S11309D08091F2009A2F981B892F292F30E06217FB
S11309E0730708F4862F681B710990E08134910520
S11309F008F040C18A5A9F4FFC010C947008F8011A
S1130A0081918F018093F100F80181918F0180938E
S1130A10F100F80181918F018093F100F801819137
S1130A208F018093F100F80181918F018093F1008F
S1130A30F80181918F018093F100F80181918F0178
S1130A408093F100F80181918F018093F100F80106
S1130A5081918F018093F100F80181918F0180933E
S1130A60F100F80181918F018093F100F8018191E7
S1130A708F018093F100F80181918F018093F1003F
S1130A80F80181918F018093F100F80181918F0128
S1130A908093F100F80181918F018093F100F801B6
S1130AA081918F018093F100F80181918F018093EE
S1130AB0F100F80181918F018093F100F801819197
S1130AC08F018093F100F80181918F018093F100EF
S1130AD0F80181918F018093F100F80181918F01D8
S1130AE08093F100F80181918F018093F100F80166
S1130AF081918F018093F100F80181918F0180939E
S1130B00F100F80181918F018093F100F801819146
S1130B108F018093F100F80181918F018093F1009E
S1130B20F80181918F018093F100F80181918F0187
S1130B308093F100F80181918F018093F100F80115
S1130B4081918F018093F100F80181918F0180934D
S1130B50F100F80181918F018093F100F8018191F6
S1130B608F018093F100F80181918F018093F1004E
S1130B70F80181918F018093F100F80181918F0137
S1130B808093F100F80181918F018093F100F801C5
S1130B9081918F018093F100F80181918F018093FD
S1130BA0F100F80181918F018093F100F8018191A6
S1130BB08F018093F100F80181918F018093F100FE
S1130BC0F80181918F018093F100F80181918F01E7
S1130BD08093F100F80181918F018093F100F80175
S1130BE081918F018093F100F80181918F018093AD
S1130BF0F100F80181918F018093F100F801819156
S1130C008F018093F100F80181918F018093F100AD
S1130C10F80181918F018093F100F80181918F0196
S1130C208093F100F80181918F018093F100F80124
S1130C3081918F018093F100F80181918F0180935C
S1130C40F100F80181918F018093F100F801819105
S1130C508F018093F100F80181918F018093F1005D
S1130C60F80181918F018093F100F80181918F0146
S1130C708093F100F80181918F018093F1008091BC
S1130C80E80085FFB093E800C0930E014FBF04C095
S1130C9054E0A0E4BAE3C5E06115710509F07FCE24
S1130CA080E0CF911F910F9108951F920F920FB67C
S1130CB00F9211248F939F938091E1001092E10091
S1130CC083FF11C01092E90091E09093EB00109221
S1130CD0EC0092E19093ED0098E09093F000109274
S1130CE00F011092100182FF13C080910F0188231D
S1130CF079F080910E01882359F0815080930E0180
S1130D00811106C084E08093E9008AE38093E800BF
S1130D109F918F910F900FBE0F901F9018951F9267
S1130D200F920FB60F921124EF92FF920F931F931D
S1130D302F933F934F935F936F937F938F939F93DF
S1130D40AF93BF93EF93FF93CF93DF931F92CDB7EE
S1130D50DEB71092E9008091E80083FF20C19091F2
S1130D60F1008091F1002091F1003091F100F32E17
S1130D70E12CE22A2091F1003091F100132F00E0E0
S1130D80022B6091F1007091F10022EF2093E800B2
S1130D90863009F04DC046E08EE291E0FC012591D9
S1130DA034912E153F0509F007C0FC0132962591B8
S1130DB034912017310711F0079615C0FC013496C1
S1130DC0459154919A01FC0136968491572F40E045
S1130DD0462B4F3F510519F010F04FEF50E04817E4
S1130DE028F4842F03C04150C9F6D9C07EEF9091F6
S1130DF0E800492F4570D9F392FDD4C0982F813172
S1130E0008F090E1A901692F07C0FA014F5F5F4F15
S1130E10E491E093F10061506111F7CF290F311D86
S1130E20891B7093E8008111E2CF903101F3BAC0BD
S1130E30853051F48EEF8093E8000E946F0468942B
S1130E40E7F8E092E300AEC0893061F59111A7C0E4
S1130E50E0920F011092100110920E018EEF809318
S1130E60E80041E088E591E001C0C9014093E90050
S1130E709C012F5F3F4FFC0154915093EB0055238D
S1130E8061F0F90124912093EC009C012D5F3F4F08
S1130E90FC01329684918093ED004F5F453029F731
S1130EA08EE178C0883051F4903809F078C00E94FF
S1130EB06F0480910F018093F10048C0813279F46E
S1130EC0913A09F06CC00E946F04E5E0F1E0819171
S1130ED08093F10031E0EC30F307C9F737C080327A
S1130EE0A1F4913209F05BC08091E80082FFFCCF4D
S1130EF0E5E0F1E08091F100819381E0EC30F807C6
S1130F00C9F78BEF8093E80021C0823241F491321B
S1130F1009F045C0E09210010E946F0417C08111CE
S1130F2019C099830E946F049981923851F40093F7
S1130F30E9008091EB0085FB882780F91092E90095
S1130F4001C080E08093F1001092F1008EEF809355
S1130F50E80028C0813011F0833009F59230F9F4AB
S1130F60EF28E9F40F771127902F91509430B8F4BB
S1130F709EEF9093E8000093E900833009F40FC0DA
S1130F8089E18093EB0081E090E0002E01C0880F9E
S1130F900A94EAF78093EA001092EA0003C081E21F
S1130FA08093EB000F90DF91CF91FF91EF91BF9170
S1130FB0AF919F918F917F916F915F914F913F91ED
S1130FC02F911F910F91FF90EF900F900FBE0F90F4
S1130FD01F901895FB01982F9F709A3010F0995C20
S1130FE001C0905D918382958F708A3010F0895C86
S1130FF001C0805D8083128208951F93CF93DF9395
S1131000182FEB01892F0E94EA07BE016E5F7F4F04
S1131010812FDF91CF911F910C94EA07FC019E2F41
S1131020981B21912111FBCF892F0895FC019F0169
S1131030281B390B41914111FACFC9010895FC01D4
S1131040DB01CA0120E030E004C041914D932F5FE1
S11310503F4F28173907C9F70895CF93DF93FB0152
S1131060009721F480E38083118223C040E02AE0CA
S113107030E0B9010E945C08582FCB01DF01A40FB6
S1131080B11D505D5C934F5F009799F7242F26950F
S1131090CF01840F911DEC014E2FDF0104C03C9160
S11310A05A915D9338833A2F341B3217C0F3FC01F5
S11310B01082DF91CF910895AA1BBB1B51E107C099
S11310C0AA1FBB1FA617B70710F0A61BB70B881FD4
S11310D0991F5A95A9F780959095BC01CD01089563
S11310E0EE0FFF1F0590F491E02D0994F894FFCFC3
S11110F0000104050600E100000000087C0079
S9030000FC
