:0200000280007C
:10000000E83D0720D99A0800D59A08001152080047
:10001000D59A0800D59A0800D59A0800000000007B
:10002000000000000000000000000000D59A080059
:10003000D59A080000000000D59A0800D59A08005B
:10004000D59A0800D59A0800D59A0800D59A0800D4
:10005000D59A0800D59A0800D59A0800D59A0800C4
:10006000D59A0800D59A080000000000857808009D
:10007000A1780800BD780800D978080000000000C9
:1000800000000000D59A0800D59A0800D59A08000B
:10009000D59A0800D59A0800D59A0800D59A080084
:1000A000D59A080000000000D59A0800D59A0800EB
:1000B00001200800D59A0800D59A0800D59A0800B2
:1000C000D59A0800D59A0800D59A0800D59A080054
:1000D000D59A0800D59A0800D59A0800D59A080044
:1000E00001840800D59A0800D59A0800D59A08001E
:1000F000D59A080008B50548054B191A062900D8F5
:1001000008BD044A002AFBD09047F9E7BCF7080075
:10011000BFF708000000000008B50748074B191A90
:100120008A1002EBD273591000D108BD044A002A8C
:10013000FBD09047F9E700BFBCF70800BCF7080008
:100140000000000010B5064C237843B9FFF7D2FF3A
:10015000044810B10448AFF300800121217010BDA4
:100160008C0B072000000000BCF7080008B5084B06
:100170001BB108480849AFF300800848016811B175
:10018000074A02B19047BDE80840FFF7C5BF00BF6E
:1001900000000000BCF70800900B0720BCF7080027
:1001A0000000000010B540F6AC33C2F207031A6835
:1001B00092F8224040F6B231C2F207010878116885
:1001C000527C231C18BF012344F61914C0F2080402
:1001D000A04710BD70B582B0069C49F23536C0F21A
:1001E000010641F23535C0F201054FEA017141EADD
:1001F000422242EAC0724FEAC4514FEAD151114340
:100200009DF81C200092002814BF3046284641EA81
:100210008361A2B24FF0010344F64524C0F2080402
:10022000A04702B070BD00BF08B540F6B233C2F2BD
:100230000703187830B94FF0000044F68D11C0F272
:100240000801884708BD00BF10B5029C4FEA422252
:1002500042EA017141EAC07040EAC363227841F288
:10026000343043EA020144F6B513C0F2080398475C
:1002700040B144F6DD11C0F20801884720704FF00C
:10028000010010BD4FF0000010BD00BF08B540F6E2
:10029000AC33C2F207031868818941F609304FEA8E
:1002A000014144F6B512C0F20802904770B140F621
:1002B000AC33C2F20703186800F1120044F6E511EE
:1002C000C0F2080188474FF0010008BD4FF0000060
:1002D00008BD00BF10B5002840F0A88040F20C0314
:1002E000C2F2070398684FEA501202F5001101F2BA
:1002F00007734FEA4322D26B00F01F004FF0010159
:1003000001FA00F313421DD040F20C02C2F20702C0
:10031000907B88420CD140F6AA33C2F207031978C9
:1003200031B14EF21000CEF200004FF00002026038
:1003300040F20C03C2F207034FF0040199734FF02F
:10034000020010BD40F20C02C2F20702907B0428AA
:1003500031D140F20C01C2F207014FF001028A7361
:100360004EF21003CEF20003186888B940F6AA30A6
:10037000C2F2070002704EF21003CEF2000343F205
:10038000A071C0F2A00159601A604FF0020010BDC8
:1003900040F6AA31C2F207014FF000020A7048F697
:1003A0008050C0F25B0040F20103C2F2070398479D
:1003B0004FF0020010BD012816D140F6AA31C2F25A
:1003C00007010B78002B3AD04EF21002CEF2000259
:1003D000106810F4803F2CD04EF21001CEF20001D4
:1003E0004FF000030B602AE040F20C00C2F207005D
:1003F000817B032920D040F6B234C2F207044FF0CB
:100400000003237040F20C04C2F2070440F6AC3241
:10041000C2F20702146040F2A510C0F20800804743
:10042000A07B022814BF0020012010BD4FF0040063
:1004300010BD4FF0020010BD4FF0030010BD40F2A0
:100440000C00C2F207004FF0020282734FF4D45145
:10045000C0F2060101604FF0010343744FF0000247
:1004600080F82220C0E700BF08B540F20C03C2F2BA
:1004700007034FF004029A7340F6B230C2F207004D
:100480004FF0FF01017044F6CD03C0F20803984716
:1004900008BD00BF2DE9F04F95B040F2D523C0F262
:1004A000080398470446012806D040F22921C0F2EB
:1004B0000801884700F05DBD40F6AC30C2F207008D
:1004C00001684FF00102CA734FF000050D748D8171
:1004D00044F69113C0F2080398474FF48040294630
:1004E00044F6B512C0F208029047002800F0C1841B
:1004F00045F208504FF4D57144F6B513C0F2080325
:100500009847002800F0C38444F6DD10C0F20800CC
:100510008047B0F1FF3F00F0BD844FEA00514FEA41
:100520001152B2F5D57F40F0A4844FF0010600F0DF
:10053000B3BC44F6DD10C0F208008047014610F05D
:10054000E04F00F0B58441F2893944F2055744F692
:10055000B515C0F2080544F6DD18C0F208083846A3
:1005600001F4FC11A847002800F08384C047011E55
:100570000ADB09F1FF39384601F4FC11A8470028CD
:1005800040F0398500F075BC11F0006F40F6AC33D7
:10059000C2F20703186814BF05220422C27300F0D8
:1005A00087BC41F237174FF0000844F6B515C0F28A
:1005B00008054FF4004944F6DD1AC0F2080A38462F
:1005C0004146A847002840F0EA8400F07DBC384648
:1005D0004146A847002800F077844946C4F21F012D
:1005E00044F22950002E08BF4FF4FC11A847002800
:1005F00000F06A84D04700280EDA10F0804F00F037
:100600008F8440F6AC30C2F207000168CA7B42F02A
:100610000803CB7300F084BC0BF1FF3B3846414626
:10062000A847002840F0D18400F04EBC4FF40045AC
:10063000C4F21F0544F2015744F6B518C0F2080889
:1006400044F6DD19C0F2080938462946C04700289B
:1006500040F0938400F079BC38462946C047002812
:1006600000F07384C84700280DDA00F0C040B0F1F4
:10067000804F40F06084A6490B68DA7B42F00800A6
:10068000D87300F058BC06F1FF3638462946C047FB
:10069000002840F07C8400F058BC9D4908684FF069
:1006A0000102828141F203104FF48031994B984747
:1006B000002800F0218198498847002800F01F8118
:1006C000934803689A7CC2F3830101F1FF30032849
:1006D00003D8DFE800F0060A0E124FF01201197479
:1006E0000EE04FF014021A740AE04FF02200187462
:1006F00006E04FF03001197402E04FF040021A7426
:100700005A7D02F00700854951F820104FF47A70A5
:1007100000FB01F1C2F3C302814850F8222002FB22
:1007200001F11960997E187E5A7E4FEA820242EAF0
:10073000802040EAA1114FEA01524FEA125112F50E
:10074000801F15D0187FDA7E4FEA420242EAE0109D
:1007500001F1010100F0070202F1020201FA02F1C7
:10076000D87D00F00F0201FA02F14FEA91205860A3
:100770009B8943F207104FEA0341664A90470028DD
:1007800000F0C080624D2968087C3F2840F29C80C0
:100790004FF00001009141F20810C0F208004FF440
:1007A00000724FF001035F4DA847002800F0D0838E
:1007B0004FF000055C4E02A8B047002800F0C88347
:1007C00005F10105ADB2322DF5D1029E06F002030E
:1007D000DEB24F4A1068877E017E437E4FEA830275
:1007E00042EA812040EAA7174FEA075111F5801F1E
:1007F0001AD14D4F03A8B847002800F0A98305F18E
:100800000105ADB2352DF5D9414B1A6803984FEA71
:100810005007576008E003A8B847002800F0988305
:1008200005F10105ADB200E03F4F7F2DF3D992E312
:100830003E4D28783E4A9047054604280BD04FF499
:100840000071C0F2B7114FF00000C0F2B710082DD0
:1008500018BF014603E04FF48071C0F2B71143F2B4
:1008600006102C4B9847002800F07D8331498847BB
:1008700010F0800F40F07783254A106845742E4BA6
:1008800098472E49884738B336B343F206104FF4E1
:100890008071C0F2B9311F4A9047002800F066838A
:1008A0002448804710F0800F40F06083184E37686E
:1008B0004FF0010587F822504FF4EA43C0F2193394
:1008C0003B601D49884707E01B4FB84704E040469E
:1008D0003946B04740B118E04FF00A0541F2101810
:1008E0004FF400770B4EF2E705F1FF3212F0FF05EF
:1008F000EDD14FF00000ADE24FF00000AAE24FF062
:100900000000A7E24FF00000A4E24FF00100A1E2D6
:10091000AC0B0720B54908008D0208001CEA08004E
:1009200038EA0800454A08001D4B0800B20B0720B2
:1009300005490800DD490800A50108001149080023
:1009400045F602304FF0000144F6B513C0F208033B
:100950009847002800F08D8245F203104FF0000107
:1009600044F6B512C0F208029047002800F08182D8
:1009700040F6AC35C2F207052E6844F6DD10C0F231
:10098000080080474FEA1041B1812B68DA7B12F0F2
:10099000010F56D040F28D20C0F208008047002899
:1009A00000F067822B685A7D02F007004EF61C218A
:1009B000C0F2080151F820104FF47A7000FB01F1E9
:1009C000C2F3C3024EF6DC10C0F2080050F8222039
:1009D00002FB01F11960987C82090FD0DA7E987EC3
:1009E000597E4FEA014141EA0020024322F44001CE
:1009F00001F101014FEA4120586022E0997E187E02
:100A00005A7E4FEA820242EA802040EAA112187F11
:100A1000D97E4FEA410141EAE0104FEA02524FEA23
:100A2000125202F1010200F0070101F1020102FA83
:100A300001F0DA7D02F00F0100FA01F04FEA902296
:100A40005A6040F6AC33C2F207031A68918943F248
:100A500007104FEA014144F6B513C0F20803984766
:100A6000002800F0068240F6AC30C2F207000168B0
:100A7000CA7B12F0010F4ED08B8941F237104FEA3A
:100A8000034144F6B512C0F208029047002800F076
:100A9000F0814FF00103009341F23310C0F20800DF
:100AA0004FF000014FF008024C4DA847002800F01D
:100AB000E08104A84FF00101494B9847002800F05D
:100AC000D88148488047002800F0D3819DF8101055
:100AD00001F00F03012B09D013B1022B16D10BE04B
:100AE000414A13684FF01000187414E03E490B6837
:100AF0004FF01A021A740EE09DF81230DB093A48E2
:100B0000016814BF302220220A7404E0364A1068BB
:100B10004FF01001017440F6AC30C2F207000168DA
:100B2000CB7B03F00402D0B2002800F095804FF098
:100B3000000103914FF0030500954FF0010301936D
:100B400008464FF0090240F2D515C0F20805A84743
:100B5000002800F08E8103A84FF00101204B984738
:100B6000002800F086811F498847002800F0818115
:100B7000039DDFF878801A4F1A4E4FF0030200925F
:100B80004FF0010301934FF0000001462A46C04791
:100B9000002800F06E8104A84FF00101B84700283A
:100BA00000F06781B047002800F063819DF81000D5
:100BB000FF2800F05E81222802D19DF81230BBB1DF
:100BC0009DF81110002900F0548101F102016D1807
:100BD000039A02F580708542CFD94AE1454A080060
:100BE000B14B0800C94C0800AC0B0720D501080028
:100BF0004FF0060300934FF0010301934FF0000004
:100C000001462A46BB4DA847002800F0328104A8BF
:100C10004FF00101B84A9047002800F02A81B749F7
:100C20008847002800F025819DF81530322B28BF19
:100C30003223B348026803F00700B24951F820108C
:100C40004FF47A7000FB01F1C3F3C303AE4850F8D0
:100C5000233003FB01F1116040F6B232C2F2070209
:100C6000107844F60513C0F208039847032859D9B1
:100C700040F6AC30C2F207000168CA7B02F0040300
:100C8000D8B230B303AD00954FF0000001464FF0ED
:100C9000080203469D4DA847002800F0EA809DF910
:100CA0000C10002915DA14AB4FF0020203F8442DA2
:100CB00000934FF001004FF000014FF00702034690
:100CC000A847002800F0D5808D4801684FF0040344
:100CD0004B7440F6AC32C2F207021068C17B11F0CF
:100CE000010F1AD0838941F237104FEA034144F6CD
:100CF000B512C0F208029047002800F0BA8041F215
:100D000006104FF00201824B9847002800F0B18096
:100D10007B4801684FF004024A7440F2A513C0F208
:100D20000803984744F61110C0F2080080470028D5
:100D300000F0818040F6AC31C2F207010A68D37B33
:100D400003F00400C1B259B303AD00954FF00000A9
:100D500001464FF0130203466C4DA847002800F0EF
:100D600088809DF80C2012F0010F19D014AB4FF0C1
:100D7000020003F8440D00934FF001004FF0000112
:100D80004FF013020346A847002872D05C490B6855
:100D90004FF0010283F8222018684FEA40011960E1
:100DA00040F6AC33C2F207031868C27B12F0010FA1
:100DB0003CD0017C102939D94FF00103009341F256
:100DC0000610C0F208004FF60171C8F2FF014FF0A3
:100DD0004002504DA84700284BD004A84FF0010115
:100DE000454B9847002844D044488047002840D0CD
:100DF000494A904710F0800F3BD19DF8201001F038
:100E00000F030F2B12D09DF82D009DF82C2050EAD7
:100E100002222ED141498847394B18684FF0010210
:100E200080F8222001684FEA4103036040F2A510D8
:100E3000C0F20800804740F6AC32C2F207021168E7
:100E4000CB7B13F0010F06D041F210104FF400716C
:100E50002F4A904768B140F6AC30C2F207000368F1
:100E60004FF00001997340F22922C0F20802904726
:100E70007FE040F6AC34C2F2070420684FF0030470
:100E8000847340F22923C0F20803984771E04FF0C1
:100E9000000601E04FF0000644F205504FF000015B
:100EA00044F6B513C0F20803984700287FF441AB1D
:100EB00040F6AC32C2F207021168CB7B13F0010F8F
:100EC0003FF44AADFFF76DBB40F6AC30C2F207000D
:100ED00001684FF00203CB734FF480404FF00001E4
:100EE00044F6B512C0F20802904700287FF49EAB8A
:100EF000B0E700BFD5010800B14B0800C94C08009D
:100F0000AC0B07201CEA0800DCE9080049020800D5
:100F1000B5490800454A0800DD4908009149080024
:100F200040F6AC30C2F207000168CA7B12F0010F34
:100F30007FF406AD10E545F602304FF00001384B66
:100F4000984700287FF4A9AB84E74FF0000081E7C1
:100F50004FF000007EE733490878334B9847032869
:100F60003FF666AC8DE44FF0000073E74FF00000F1
:100F700070E7204615B0BDE8F08FC8470028FFF69F
:100F800074AB41F2690606F1FF36FFF765BBC8474F
:100F90000028FFF66AAB013E7FF45EABD5E7494619
:100FA000C4F21F0144F22950002E08BF4FF4FC1177
:100FB000A847002888D0D0470028FFF61EAB40F68F
:100FC000350B0BF1FF3BFFF702BB4946C4F21F0193
:100FD00044F22950002E08BF4FF4FC11A847002806
:100FE0003FF472AFD0470028FFF607ABBBF1010B0F
:100FF0007FF4EDAA68E7C047011EFFF6C5AA384690
:1010000001F4FC11A84700283FF433AFC047011E8C
:10101000FFF6BAAAB9F102097FF4A1AA29E700BF35
:10102000B5490800B20B07200549080008B540F291
:10103000D523C0F20803984758B940F22920C0F2DE
:101040000800804740F6AC31C2F207010A68D07B45
:1010500008BD4FF0000008BD08B540F2D523C0F22E
:101060000803984758B940F22920C0F20800804789
:1010700040F6AC31C2F207010A68506808BD4FF073
:10108000000008BD4FF00000704700BF2DE9F04F91
:1010900083B08B46924640F2D523C0F208039847AE
:1010A0008146002840F0818040F64158C0F2030894
:1010B00040F6AC36C2F2070641F20D1544F6B514FF
:1010C000C0F2080444F6DD17C0F2080730688189D1
:1010D00028464FEA0141A047002846D0B84710F4FF
:1010E000807F4AD108F1FF383268938928464FEA59
:1010F0000341A04700285CD137E04FEA4B2100E0D4
:1011000059464FF0010300934FF40072534644F6E2
:101110004524C0F20804A04738B940F22921C0F2A2
:10112000080188474FF005093FE044F6DD10C0F2A2
:10113000080080474FF00001CEF25841014039B11C
:1011400040F22920C0F2080080474FF005092CE04A
:1011500040F6B032C2F20702A2F800A040F6A8336F
:10116000C2F20703A3F800A01FE040F22922C0F258
:10117000080290474FF0050917E041F21110C0F244
:10118000080041F21214C0F21004BAF1010F88BF36
:10119000204640F6AC32C2F207021368D97B01F058
:1011A0000804E2B2002AABD1A7E7484603B0BDE885
:1011B000F08FB84710F4807FDFD1306881892846EE
:1011C0004FEA0141A0470028CFD0B84710F4807FF4
:1011D000D3D1B8F102087FF479AFC6E710B50C4659
:1011E00044F6B133C0F20803984748B940F6B0312D
:1011F000C2F207014FF000030B804FF0050010BD55
:1012000040F6B030C2F207000288141B04804FF091
:10121000000010BD08B544F6C943C0F20803984762
:10122000002830D040F6B030C2F207000188002913
:101230002CD140F6A832C2F207021388012B07D145
:1012400040F22921C0F2080188474FF0000008BD94
:1012500043F20C104FF0000144F6B512C0F2080240
:10126000904740B943F20C104FF0000144F6B5131B
:10127000C0F20803984740F22920C0F208008047D6
:101280004FF0000008BD4FF0050008BD4FF0000012
:1012900008BD00BFF0B583B006460F46154640F2C4
:1012A000D524C0F20804A0470446002858D130468F
:1012B00041F28503C0F20803984738B140F2292370
:1012C000C0F2080398474FF0070449E049F21810AC
:1012D000C0F2080049F21911C0F21001012D88BFB7
:1012E000084640F6AC32C2F207021668F37B03F000
:1012F0000801CAB212B94FEA472100E039464FF05F
:10130000010600964FF400722B4644F64526C0F2C3
:101310000806B04738B940F22920C0F208008047DB
:101320004FF005041CE044F6DD10C0F208008047D1
:101330004FF00003CEF2584303403BB140F2292462
:10134000C0F20804A0474FF0050409E040F6B031B0
:10135000C2F207010D8040F6A832C2F207021580E2
:10136000204603B0F0BD00BF10B50C4644F6415313
:10137000C0F20803984748B940F6B031C2F20701FD
:101380004FF000030B804FF0050010BD40F6B03069
:10139000C2F207000288141B04804FF0000010BD49
:1013A00008B544F63963C0F20803984700282FD0E7
:1013B00040F6B030C2F20700018800292BD140F678
:1013C000A832C2F207021388012B07D140F2292369
:1013D000C0F2080398474FF0000008BD43F20C101C
:1013E0004FF0000144F6B512C0F20802904738B938
:1013F00040F22921C0F2080188474FF0050008BDDE
:1014000040F22920C0F2080080474FF0000008BDDC
:101410004FF0050008BD4FF0000008BDF0B48CB0DF
:1014200006460F4601AC4EF67825C0F208050FCDF2
:101430000FC40FCD0FC495E8070084E80700019B97
:10144000B7FBF3F0B0FBF6F1B1F5807F52D902990A
:10145000B7FBF1F2B2FBF6F1B1F5807F4FD9039BF8
:10146000B7FBF3F0B0FBF6F1B1F5807F4AD90499F0
:10147000B7FBF1F2B2FBF6F1B1F5807F45D9059BE0
:10148000B7FBF3F0B0FBF6F1B1F5807F40D90699D8
:10149000B7FBF1F2B2FBF6F1B1F5807F3BD9079BC8
:1014A000B7FBF3F0B0FBF6F1B1F5807F36D90899C0
:1014B000B7FBF1F2B2FBF6F1B1F5807F31D9099BB0
:1014C000B7FBF3F0B0FBF6F1B1F5807F2CD90A99A8
:1014D000B7FBF1F2B2FBF6F1B1F5807F27D90B9B98
:1014E000B7FBF3F0B0FBF6F1B1F5807F22D94FF6F0
:1014F000FF7022E04FF0000241EA02201DE04FF0B1
:101500000102F9E74FF00202F6E74FF00302F3E7BA
:101510004FF00402F0E74FF00502EDE74FF006024E
:10152000EAE74FF00702E7E74FF00802E4E74FF081
:101530000902E1E74FF00A02DEE70CB0F0BC7047A9
:1015400070B506460C46086858B1896841F21D43DB
:10155000C0F2080398474FF6FF71884214D0054641
:1015600001E04FF00005606858B1A16841F21D42EA
:10157000C0F2080290474FF6FF73984204D045EA44
:10158000004535604FF0000070BD00BF70B40B68BF
:101590004FF0010202FA03F28E8A4C6804F00F0544
:1015A0002E430C8926438D7A46EA45268C7D46EAF1
:1015B0000445CE7D45EA46450C7E45EA844603F166
:1015C00010054FEA451405190651CC686C600C698A
:1015D00000EB4315C5F80C428C7D3CB18D8B4C8BD8
:1015E00044EA054500EB4314C4F81852CD7F05FAD0
:1015F00003F58C7F04FA03F444EA0545856491F809
:10160000215005FA03F591F8204004FA03F444EA66
:101610000544446491F822401CB1046A14430462F6
:1016200003E0046A24EA0204046291F82440012CD5
:1016300003D1846E1443846606E0846E002A14BFCE
:10164000002404F00104846691F82540012C04D1A3
:10165000846E44EA0242826606E0846E120414BF7D
:10166000002204F001028266032B0FD8C46E4FEAF9
:10167000C3034FF0FF0202FA03F224EA020291F8D8
:10168000231001FA03F31A43C26610E0A3F1040326
:10169000046F4FEAC3034FF0FF0202FA03F224EA99
:1016A000020291F8231001FA03F31A4302674FF084
:1016B000000070BC704700BF10B40C680B69934207
:1016C00007D3CA6000EB4410C0F808224FF00000B6
:1016D00001E04FF6FF7010BC704700BF4FF00103F0
:1016E00003FA01F1416070474FF0010303FA01F181
:1016F0008160704702F110024FF0010303FA02F219
:1017000003FA01F10A434261704700BF08B54FF484
:101710000043C4F20003984206D14FF0180047F688
:101720005521C0F20801884708BD00BF10B4036905
:1017300013F0010F20D00AE003F1FF33046914F025
:10174000010F1ED003E0046914F0010FF4D0836888
:1017500040F6B434C2F207042360406810F0020F70
:101760001CBFC3F3034010700B804FF0000001E07A
:101770004FF0010010BC704743F6992404F1FF3389
:10178000E1E7013BDFD1F3E730B4046914F0020F65
:101790001FD00AE004F1FF34056915F0020F1DD0D7
:1017A00003E0056915F0020FF4D0446814F0020F4D
:1017B00007D04FEA024202F4702211430BB141F00C
:1017C0008071C1604FF0000001E04FF0010030BCBB
:1017D000704743F6992505F1FF34E2E7013CE0D17B
:1017E000F3E700BF42B101F10C0150F8213043F0A2
:1017F000010240F82120704701F10C0150F821301E
:1018000023F0010240F82120704700BF42B101F1EE
:101810000C0150F8213043F0020240F821207047BB
:1018200001F10C0150F8213023F0020240F8212090
:10183000704700BF042A0ED101F10C0150F821308D
:1018400023F0080240F8212050F8213043F0040230
:1018500040F82120704772B901F10C0150F8213095
:1018600023F0080240F8212050F8213023F0040230
:1018700040F821207047082A07D101F10C0150F8E7
:10188000213043F0080240F82120704701F10C019B
:1018900050F8213023F0F00340F8213050F8213087
:1018A0001A4340F82120704701F10C0150F8213013
:1018B00023F47F4340F8213050F8213043EA0222DC
:1018C00040F82120704700BF10B401F10C0150F81E
:1018D0002140A4B240F8214050F821404FEA036370
:1018E00043EA0242144340F8214010BC704700BF55
:1018F00010B44FEA811143184FF0020444504FF0E6
:10190000FF309862196A5A6010BC70474FEA811123
:101910004FF005034350704700EB8111CA617047D7
:1019200000EB81114A62704700EB8111086A704731
:1019300070B487B04FF0020401944FF0080502958F
:101940004FF0200403944FF0800504950A9C4FEA61
:10195000D43405944FEA5145B0EB510F3ED8A8421C
:1019600051D24FF00806B1FBF6F54FEA1546A842F2
:1019700037D8B0421ED24FF02005B1FBF5F54FEA43
:101980001546A84230D8B04217D24FF08006B1FBBE
:10199000F6F54FEA1546A84229D8B04210D2B1FB5D
:1019A000F4F14FEA1144814224D3844298BF0421C8
:1019B0002BD922E04FF0010127E04FF0020124E093
:1019C0004FF0030121E006AC04EB810050F8140C49
:1019D0001060ABB119604FF0010019E04FF000004A
:1019E00016E04FF0000013E04FF0000010E04FF061
:1019F00000000DE04FF000000AE04FF0000007E0AB
:101A00004FF0010004E04FF00001002ADBD1E0E7D5
:101A100007B070BC704700BF4FF0080303604FF081
:101A2000200101604FF00402026070474FF4D4536C
:101A3000C0F20603994245D84FEA4101B2FBF1F2E8
:101A4000A2F10402FF2A2ED94FEA5202FF2A18D926
:101A50004FEA5202FF2A17D94FEA5202FF2A16D93B
:101A60004FEA5202FF2A15D94FEA5202FF2A14D92F
:101A70004FEA5202FF2A13D94FEA52024FF00703EE
:101A800013E04FF0010310E04FF002030DE04FF0C0
:101A900003030AE04FF0040307E04FF0050304E0FE
:101AA0004FF0060301E04FF000034FEA02614FEAF6
:101AB000034343EA1141D2B241EA020303614FF00A
:101AC000000070474FF00100704700BF4FF08003E7
:101AD0000360036B704700BF38B504460D464FF0F6
:101AE000FF338362036A41F6CD21C0F208018847C3
:101AF000204641F61922C0F2080290472046696844
:101B00002A6841F62D23C0F208039847012814BF24
:101B100000200120697A012904BF4021216038BDDD
:101B20004FF400434360704770B54FF02B004FF007
:101B3000006147F23174C0F20804A0474FF02A0058
:101B40004FF00061A0474FF014004FF00061A04734
:101B50004FF013004FF00061A0474FF015004FF019
:101B60000061A0474FF016004FF00061A0474FF012
:101B700017004FF00061A0474FF018004FF00061D0
:101B8000A0474FF067004FF00801A0474FF0160044
:101B900047F65526C0F20806B0474FF011004FF047
:101BA0000061A0474FF012004FF00061A0474FF0D6
:101BB0000C00B0474FF48055C4F20E054FF080730F
:101BC0002B61C5F8A0306B634FF46064C4F20E045F
:101BD0004FF48050206660656062C4F88000226F18
:101BE0000243226760604FF0010121666165616216
:101BF000C4F88010236F0B43236761604FF40050DB
:101C0000206660656062C4F88000226F024322672C
:101C100060604FF00C00B0474FF400016961C5F8F7
:101C2000A010696669652962C5F884102B6F23F4DA
:101C3000000028674FF00E00B0474FF4A055C4F2E3
:101C40000E054FF480626A61C5F8A0206A666A6575
:101C50002A62C5F88420296F21F480632B674FF036
:101C60000B00B0474FF020002061C4F8A000606373
:101C70004FF00B00B0474FF080022261C4F8A02063
:101C800022634FF00B00B0474FF002016161C4F8CE
:101C9000A010216661652162C4F88410236F23F0CF
:101CA000020020674FF00E00B0474FF480726A6167
:101CB000C5F8A0202A666A652A62C5F88420296FC3
:101CC00021F480732B674FF00E00B0474FF4007083
:101CD0002861C5F8A000686370BD00BF40F6C0333E
:101CE000C2F207031880704708B542F60523C0F218
:101CF0000803984730B140F6C030C2F207000188AF
:101D0000012930D14FF46063C4F20E034FF040005C
:101D100018634FF0080119634FF010021A634FF077
:101D2000040018634FF48053C4F20E034FF40051C3
:101D300019634FF480521A634FF49050C4F20E00AE
:101D40004FF4803303634FF4804101634FF400424A
:101D500002634FF4003303634FF4002101634FF437
:101D60008022026308BD4FF46062C4F20E02D36B9E
:101D700013F4803F3DD040F23400C2F207000188E6
:101D8000032910D14FF46062C4F20E02D36B13F03A
:101D9000100F4FF46060C4F20E004FF0100114BF3A
:101DA0004163016332E0022910D14FF46062C4F252
:101DB0000E02D36B13F0080F4FF46060C4F20E00F4
:101DC0004FF0080114BF416301631FE001291DD1D9
:101DD0004FF46062C4F20E02D36B13F0400F4FF465
:101DE0006060C4F20E004FF0400114BF4163016314
:101DF0000CE04FF46060C4F20E004FF0400101634C
:101E00004FF0080202634FF0100303634FF4805257
:101E1000C4F20E02D36B13F4802F3DD040F2320196
:101E2000C2F207010B88032B10D14FF48052C4F289
:101E30000E02D06B10F4805F4FF48051C4F20E019B
:101E40004FF4805314BF4B630B6336E0022B10D169
:101E50004FF48052C4F20E02D06B10F4005F4FF4C6
:101E60008051C4F20E014FF4005314BF4B630B6357
:101E700023E0012B21D14FF46062C4F20E02D06B3B
:101E800010F0040F4FF46061C4F20E014FF0040330
:101E900014BF4B630B6310E04FF46060C4F20E009C
:101EA0004FF0040101634FF48053C4F20E034FF46A
:101EB00000521A634FF4805018634FF48052C4F2FA
:101EC0000E02D06B10F0040F6DD140F23601C2F259
:101ED00007010B88032B20D14FF49052C4F20E025D
:101EE000D06B10F4004F4FF49051C4F20E014FF438
:101EF000004314BF4B630B634FF49052C4F20E02C5
:101F0000D06B10F4802F4FF49051C4F20E014FF4B7
:101F1000802314BF4B630B635BE0022B20D14FF493
:101F20009052C4F20E02D06B10F4804F4FF49051D7
:101F3000C4F20E014FF4804314BF4B630B634FF4A4
:101F40009052C4F20E02D06B10F4002F4FF4905157
:101F5000C4F20E014FF4002314BF4B630B6338E04F
:101F6000012B36D14FF49052C4F20E02D06B10F414
:101F7000803F4FF49051C4F20E014FF4803314BFF0
:101F80004B630B634FF49052C4F20E02D06B10F40B
:101F9000003F4FF49051C4F20E014FF4003314BFD0
:101FA0004B630B6315E04FF49051C4F20E014FF4F4
:101FB00080330B634FF480420A634FF400400863A0
:101FC0004FF400330B634FF400220A634FF4802078
:101FD00008634FF48053C4F20E034FF400201863DB
:101FE0004FF4801119634FF001021A6300BF00BF64
:101FF00000BF00BF00BF586359635A6308BD00BFEC
:1020000008B54FF00000C4F208004FF0010141F69E
:102010002913C0F20803984741F6E940C0F20800CE
:10202000804708BD2DE9F04F85B04FF00B0047F613
:102030005528C0F20808C0474FF4606AC4F20E0A7F
:102040004FF04003CAF81030CAF8A030CAF8303058
:102050004FF00B00C0474FF00801CAF81010CAF843
:10206000A010CAF830104FF00B00C0474FF010021C
:10207000CAF81020CAF8A020CAF830204FF00B0090
:10208000C0474FF00400CAF81000CAF8A000CAF810
:1020900030004FF00C00C0474FF48057C4F20E07D9
:1020A0004FF400543C61C7F8A0403C634FF00C0073
:1020B000C0474FF480553D61C7F8A0503D634FF0D5
:1020C0000D00C0474FF49059C4F20E094FF480360A
:1020D000C9F81060C9F8A060C9F830604FF00D0071
:1020E000C0474FF48044C9F81040C9F8A040C9F86F
:1020F00030404FF00D00C0474FF40045C9F8105074
:10210000C9F8A050C9F830504FF00D00C0474FF447
:102110000033C9F81030C9F8A030C9F830304FF09A
:102120000D00C0474FF4002BC9F810B0C9F8A0B09B
:10213000C9F830B04FF00D00C0474FF48021C9F806
:102140001010C9F8A010C9F830104FF00C00C047AB
:102150004FF004027A61C7F8A0204FF00C00C0478E
:102160004FF480207861C7F8A0004FF00B00C04703
:10217000CAF81460CAF8A0604FF00C00C0474FF0D6
:1021800008037B61C7F8A0304FF00C00C0474FF444
:1021900000317961C7F8A0104FF00C00C0477E6194
:1021A000C7F8A0604FF00C00C0474FF001063E6139
:1021B000C7F8A0607E634FF00C00C047C7F810B0AE
:1021C000C7F8A0B0C7F834B04FF00C00C0474FF4C8
:1021D00080123A61C7F8A0207A634FF00C00C04724
:1021E0004FF400103861C7F8A00078634FF00B007F
:1021F000C0474FF0805BCAF810B0CAF8A0B0CAF868
:1022000034B04FF00B00C0474FF00053CAF8103005
:10221000CAF8A030CAF834304FF00C00C0474FF075
:10222000020AC7F810A0C7F8A0A0C7F834A04FF062
:102230000D00C0474FF40067C9F81070C9F8A070CE
:10224000C9F830704FF00D00C0474FF48051C9F805
:102250001010C9F8A010C9F830104FF00D00C04799
:102260004FF40052C9F81020C9F8A020C9F8302056
:102270004FF01C00C0474FF43D48C0F20158CDF864
:1022800000804FF01400414603AA02AB41F631171B
:10229000C0F20807B8474FF00007C4F208073846F5
:1022A0003146029A224341F6F103C0F208039847EF
:1022B0000398B8FBF0F14CF6CD42CCF6CC42A2FB31
:1022C0000113384631464FEA131241F61913C0F292
:1022D000080398473846314641F60D12C0F208020D
:1022E00090474FF46140CEF20000C0F880B0C0F8D3
:1022F00080B1C0F800B0384631464FF0100241F6C8
:102300002117C0F20807B8474FF019004FF00061DD
:1023100047F23177C0F20807B8474FF01A004FF084
:102320000061B8474FF01B004FF00061B84745EA25
:10233000044041F20D71C0F2080188472B4664F356
:102340001F43C3F800A0284664F31F404FF08002EB
:1023500002602F4664F31F474FF0807139602B46AF
:1023600064F31F43586830432A4664F31F425060A9
:102370002F4664F31F47796841F010002B4664F341
:102380001F4358602A4664F31F42576847EA0A0110
:10239000284664F31F40416045EA04404FF00001C5
:1023A0000A4641F2E57BC0F2080BD84745EA0440F3
:1023B0004FF00001324641F60D0AC0F2080AD0473C
:1023C00045EA04404FF000014FF0300241F68D081D
:1023D000C0F20808C04745EA04404FF000014FF042
:1023E000040241F63503C0F20803984745EA044069
:1023F0004FF000014FF0480241F6A907B946C0F27C
:102400000809C84745EA04404FF000010A460B4658
:1024100041F6C907C0F20807B84745EA044031460B
:102420004FF00002D84745EA044031463246D047D3
:1024300045EA044031464FF08002C04745EA044077
:1024400031464FF0040241F63503C0F208039847C5
:1024500045EA044031464FF04802C84745EA044087
:1024600031464FF000021346B84764F31F452E6013
:1024700005B0BDE8F08F00BF40F6BC33C2F20703E1
:102480001888704740F6C433C2F2070318887047B3
:1024900040F6C233C2F207031888704701280ED1F4
:1024A00040F6BC33C2F207034FF001021A804FF42A
:1024B0009050C4F20E004FF400514163704740F653
:1024C000BC33C2F207034FF000021A804FF4905061
:1024D000C4F20E004FF400510163704701280ED181
:1024E00040F6C433C2F207034FF001021A804FF4E2
:1024F0009050C4F20E004FF400614163704740F603
:10250000C433C2F207034FF000021A804FF4905018
:10251000C4F20E004FF400610163704701280ED130
:1025200040F6C233C2F207034FF001021A804FF4A3
:102530009050C4F20E004FF480514163704740F652
:10254000C233C2F207034FF000021A804FF49050DA
:10255000C4F20E004FF4805101637047F0B583B0B0
:1025600005460F4616464FF40044C4F200042046C8
:102570000DF102010DF1010241F22D73C0F20803C9
:1025800098474FEA87070197019840F003010191AE
:10259000019A92FAA2F3019301984FEA50510191E6
:1025A000019A204691B24FF00002134641F289741D
:1025B000C0F20804A0474FF40040C4F200000369D1
:1025C00013F0010FFBD04FF40040C4F200000DF1F6
:1025D00002010DF1010241F22D74C0F20804A0477E
:1025E0004FEA551101F5001202F207704FEA40243C
:1025F00005F01F054FF0010303FA05F525634FF0C1
:102600001E0202F1FF314A1EFBD165634FEA8606C6
:102610000196019840F002030193019991FAA1F209
:102620000192019E4FEA56500190019B4FF40040E9
:10263000C4F2000099B24FF00002134641F28976CD
:10264000C0F20806B0474FF40041C4F200010A6925
:1026500012F0010FFBD04FF40040C4F200000DF166
:1026600002010DF1010241F22D73C0F208039847F7
:1026700025634FF01E0101F1FF30411EFBD1656360
:1026800003B0F0BD30B583B0054640F23003C2F26E
:10269000070318804FF40044C4F2000420460DF1F3
:1026A00002010DF1010241F22D73C0F208039847B7
:1026B00005F07F050195019890FAA0F10191019A2A
:1026C0004FEA124301930199204689B24FF001026B
:1026D0004FF0000341F28974C0F20804A0474FF4A0
:1026E0000040C4F20000026912F0010FFBD04FF469
:1026F0000040C4F200000DF102010DF1010241F2AF
:102700002D73C0F2080398474FF48051C4F20E01B4
:102710004FF0020008634FF01E0303F1FF32531E17
:10272000FBD14FF48051C4F20E014FF00200486318
:1027300003B030BD40F23003C2F20703188870477F
:1027400008B540F6B833C2F20703188000F105005F
:102750004AF2E922C2F68B6282FB00134FEA53036E
:10276000B3F5007F26BFA3F2FF1189B200214FF01D
:102770001C0040F2FF12934238BF1A4642F25D53EA
:10278000C0F20803984708BD40F6B833C2F2070309
:102790001888704708B540F6BA33C2F207031880AC
:1027A00000F105004AF2E922C2F68B6282FB0013B7
:1027B0004FEA5303B3F5007F26BFA3F2FF1189B29E
:1027C00000214FF01D0040F2FF12934238BF1A461D
:1027D00042F25D53C0F20803984708BD40F6BA3391
:1027E000C2F207031888704708B540F6BE33C2F23C
:1027F0000703188000F105004AF2E922C2F68B6255
:1028000082FB00134FEA5303B3F5007F26BFA3F208
:10281000FF1189B200214FF0350040F2FF129342C0
:1028200038BF1A4642F25D53C0F20803984708BD0C
:1028300040F6BE33C2F2070318887047704700BFE6
:10284000704700BF38B541F20074C2F207044FF47C
:102850003D43C0F2015323604FF4D450C0F2060050
:1028600060604FF0500121724FF0000262724FF42D
:102870004045C4F20805284641F61923C0F2080372
:1028800098472846214641F6D922C0F208029047CF
:1028900038BD00BF2DE9F04F85B04FF0240047F65A
:1028A0005523C0F2080398474FF48044C4F209044A
:1028B00020464FF0010141F2E965C0F20805A84742
:1028C00020464FF00301A84720464FF00201A847D9
:1028D0004FF47A2001904FF43D41C0F20151029132
:1028E0000391204601A941F24152C0F208029047EB
:1028F00041F22071C2F207014FF000050D814FF047
:1029000001068E724FF00B0BC1F804B04FF4806AD1
:10291000C1F810A0CD600E60204641F28D59C0F282
:102920000809C847204631462A4641F2F568C0F2F8
:102930000808C04741F27071C2F207010D818E7222
:10294000C1F804B0C1F810A0CD604FF003070F60CC
:102950002046C847204639462A46C04741F24873B8
:102960001946C2F207010D814FF000008872C1F8CC
:1029700004B0C1F810A0CD604FF0020AC1F800A069
:102980002046C847204651462A46C0472046314681
:1029900041F2DD65C0F20805A84720463946A84740
:1029A00020465146A84705B0BDE8F08FF8B503466C
:1029B0000E4617464FF48044C4F20904204641F203
:1029C0002071C2F207011A4641F2B965C0F208054A
:1029D000A847204641F27071C2F207013A46A84763
:1029E000204641F24871C2F207013246A847F8BDBD
:1029F0004FF48053C4F20E03D86B80F40001C1F38E
:102A0000C05070474FF4A053C4F20E03D86BC0F30C
:102A1000002070474FF4A053C4F20E034FF400722D
:102A20001A6370474FF4A053C4F20E034FF40072C0
:102A30005A63704708B540F6D843C2F20703C36231
:102A4000184642F66541C0F20801884708BD00BF3C
:102A500008B5C06A42F67543C0F20803984708BD3E
:102A600000B583B002A94FF0000321F8023DC06A0F
:102A700042F68142C0F208029047BDF9060003B059
:102A800000BD00BF00B583B002A94FF0000321F8DC
:102A9000023DC06A42F61D52C0F208029047BDF9DD
:102AA000060003B000BD00BF38B505460C46C06A3D
:102AB00042F6C143C0F20803984714F1630F0CDAE1
:102AC00014F1C70F09DB28464FF002014FF0200236
:102AD00042F6CD63C0F20803984714F1C70F0CDA31
:102AE00014F5967F09DD28464FF002014FF01002E1
:102AF00042F6CD63C0F20803984714F5967F0CDCCC
:102B000014F5C87F09DD28464FF002014FF0080296
:102B100042F6CD63C0F20803984714F5C87F0CDC79
:102B200014F5FA7F09DD28464FF002014FF0040248
:102B300042F6CD63C0F20803984714F5FA7F0CDC27
:102B400014F5167F09DD28464FF002014FF0800290
:102B500042F6CD63C0F20803984714F5167F0CDCEB
:102B600014F52F7F09DD28464FF002014FF0400297
:102B700042F6CD63C0F20803984714F52F7F0BDCB3
:102B800014F5487F08DD28464FF002010A4642F658
:102B9000CD63C0F20803984714F5487F0CDC14F5A8
:102BA000617F09DD28464FF002014FF0010242F635
:102BB000CD63C0F20803984755B1E86920B10268B7
:102BC00012B12846214690474FF0010185F82810A0
:102BD00038BD00BF10F16D0F2BD009DC10F1830F51
:102BE0002CD010F1710F1AD010F18A0F30D12AE0D9
:102BF00010F1670F0ED003DC10F16C0F28D113E039
:102C000010F1660F29D0002822D14FF22400C0F223
:102C1000080070474FF24000C0F2080070474FF2C2
:102C20005400C0F2080070474FF26800C0F208007C
:102C300070474FF28000C0F2080070474FF29400D6
:102C4000C0F2080070474FF2A400C0F208007047BD
:102C50004FF2B800C0F2080070474FF23000C0F2E7
:102C6000080070474FF00003038043804FF01001CD
:102C7000818070474FF0000303804380704700BF9E
:102C800010B44388B0F900401AB2944214D019B17C
:102C900000EB4202D3880B80B0F9022002F101025E
:102CA000B0F9043003F1010392FBF3F103FB1122AD
:102CB00042804FF0010001E04FF0000010BC70476F
:102CC00038B504460D46B0F90430B0F90010B0F93B
:102CD0000220D21803F1010392FBF3F003FB10234F
:102CE000994207D120464FF0000142F68142C0F2DE
:102CF00008029047B4F9000004EB4001CD8000F1D8
:102D00000100B4F9043003F1010390FBF3F203FB7B
:102D1000120020804FF0010038BD00BF02884388B8
:102D2000D21A92B293B20B8013F4004F04D0808871
:102D300000F1010012180A804FF00100704700BF37
:102D4000072904D8036B2BB133F8110070474FF0FB
:102D5000000070474FF00000704700BF70B5054697
:102D60000C46164642F64153C0F20803984720EA43
:102D700006022846214692B242F6B953C0F2080331
:102D8000984770BD70B505460E461C46114642F682
:102D90004153C0F208039847304228464FF00001E3
:102DA000224619BF42F6CD63C0F2080342F65D53D6
:102DB000C0F20803984770BDF8B505460C461646A4
:102DC000072900F28180036B002B7DD033F811704E
:102DD00023F81420072957D8DFE801F004151D282F
:102DE000434E303B4FF0010142F64152C0F208021F
:102DF00090474FF6BF713140014252D046F0400635
:102E0000B74253D14EE04FF0000142F6F563C0F2F5
:102E10000803984746E011464FF003024FF02003A5
:102E200042F68557C0F20807B8473BE04FF0020171
:102E300042F6F562C0F20802904733E011464FF0C7
:102E400007024FF0080342F68557C0F20807B8475B
:102E500028E04FF0060142F6F562C0F20802904702
:102E600020E011464FF005024FF0800342F68557EF
:102E7000C0F20807B84715E04FF0040142F6F563C9
:102E8000C0F2080398470DE0006B20F81420F8BD4D
:102E9000E969C9B18B68BBB128464FF00101984779
:102EA000F8BD0E46286B20F81460F8BD2B6B23F894
:102EB000146028464FF0000142F64152C0F2080269
:102EC00090470246002DE3D1F8BD00BF70B505461E
:102ED0000C46164642F64153C0F20803984740EAB2
:102EE00006022846214692B242F6B953C0F20803C0
:102EF000984770BD38B505460C4642F64153C0F2BE
:102F00000803984702462846214642F6B953C0F2C4
:102F10000803984738BD00BF08B54FF002014FF0D5
:102F2000000242F6B953C0F20803984708BD00BF3B
:102F300038B5044642F61973C0F208039847204694
:102F400042F65121C0F20801884720464FF00401A3
:102F50004FF0000242F6B955C0F20805A8472046D6
:102F60004FF006014FF00002A8474FF0010038BDB6
:102F700010B582B0044601A94FF0010243F29573E7
:102F8000C0F20803984748B120464FF00301BDF84E
:102F9000042042F6B953C0F2080398474FF00100ED
:102FA00002B010BD10B504464FF0030142F6415384
:102FB000C0F2080398470146204643F22162C0F25E
:102FC000080290474FF0010010BD00BF10B5044645
:102FD0004FF0020142F64153C0F208039847014600
:102FE000204643F22162C0F20802904720464FF08B
:102FF00002014FF0000242F6B953C0F208039847AD
:103000004FF0010010BD00BF38B505464FF2C801B2
:10301000C0F2080143F2E154C0F20804A047284678
:103020004FF2D001C0F20801A04728464FF2F0014C
:10303000C0F20801A0474FF0010038BD08B54FF0BD
:1030400002014FF0010242F6CD63C0F20803984737
:103050004FF0010008BD00BF08B54FF0010143F279
:103060002163C0F2080398474FF0010008BD00BF7C
:1030700008B528B1C36933B1196939B1884707E088
:103080004FF0010004E04FF0010001E04FF00100BB
:1030900040B208BD10B582B0044601A94FF001024C
:1030A00043F29573C0F20803984748B120464FF0A9
:1030B0000101BDF8042042F6B953C0F20803984755
:1030C0004FF0010002B010BD10B504464FF00101F1
:1030D00042F64153C0F2080398470146204643F2A6
:1030E0002162C0F2080290474FF0010010BD00BFFE
:1030F00010B504464FF0000142F64153C0F20803F8
:1031000098470146204643F22162C0F208029047E8
:103110004FF0010010BD00BF10B5044630B1C369C7
:103120003BB1596941B18847014607E04FF00001C2
:1031300004E04FF0000101E04FF00001204643F2AF
:103140002162C0F2080290474FF0010010BD00BF9D
:103150004FF00100704700BF08B54FF2F001C0F218
:10316000080143F2E153C0F2080398474FF0010011
:1031700008BD00BF38B5044642F66123C0F208031B
:10318000984705462046294643F22162C0F20802CC
:103190009047284642F6D531C0F2080188470146DB
:1031A000204643F26963C0F2080398474FF00100DC
:1031B00038BD00BF10B5044642F68523C0F20803AF
:1031C00098470146204643F22162C0F20802904728
:1031D0004FF0010010BD00BF10B504464FF00601CE
:1031E00042F64153C0F2080398470146204643F295
:1031F0002162C0F20802904720464FF006014FF0CE
:10320000000242F6B953C0F2080398474FF001009C
:1032100010BD00BF10B504464FF0070142F6415300
:10322000C0F2080398470146204643F22162C0F2EB
:10323000080290474FF0010010BD00BF10B582B0EA
:10324000044601A94FF0010243F29573C0F208034E
:10325000984748B120464FF00701BDF8042042F6D8
:10326000B953C0F2080398474FF0010002B010BDF7
:1032700008B54FF006014FF0000242F6B953C0F214
:10328000080398474FF0010008BD00BF08B5C369A7
:103290005B68984708BD00BF08B5036A002B0BDDCB
:1032A0004FF2F801C0F208014FF0020243F28D2301
:1032B000C0F20803984708BD4FF0000008BD00BFEA
:1032C0008369994228BF1946426952184261591AC6
:1032D0008161704710B504464069A16943F69D338A
:1032E000C0F2080398470146204643F2C122C0F2CB
:1032F0000802904710BD00BF38B504460D4643F2A2
:10330000D523C0F208039847A06960B9002D31D0D9
:1033100020466FF06C0142F6A922C0F208029047E5
:103320004FF0000038BD616AE9B1626913782C2B57
:103330000ED120464FF0010143F2C123C0F2080331
:103340009847204643F2D521C0F2080188470AE099
:1033500020466FF0660142F6A922C0F208029047AB
:103360004FF0000038BD606A00F1010060624FF06C
:10337000010038BD4FF0000038BD00BF08B54FF266
:10338000FC02C0F2080243F60D03C0F2080398479E
:1033900008BD00BF2DE9F04F83B001EB020B0746DB
:1033A000002800F09E80594580F09E800D4642F630
:1033B000A923C0F2080301932C46C5EB0B0828464D
:1033C0004146514A43F60D06C0F20806B04708B11F
:1033D000461B00E046462846414643F27D32C0F295
:1033E0000802904710B1001B009001E0CDF800806A
:1033F000002E5FD0D7F80090D9F80000002876D0D2
:103400004FF0080443F6F14AC0F2080A2946324652
:10341000D04790B1C7F81090AB197B610098861B1C
:10342000BE614FF0000487F828404FF00001396278
:103430007962D9F804204AB914E0396801EB04092B
:10344000085904F108040028E0D150E038469047BC
:10345000012807D097F8283023B938466FF0C70104
:10346000019CA047386A002811DD38464FF20C4114
:10347000C0F208014FF0020243F28D23C0F20803AC
:103480009847F96919B1CA680AB138469047384671
:1034900043F2D524C0F20804A047B86968B197F890
:1034A00028306BB938466FF06B01019A90474FF0A6
:1034B000010407E04FF0000404E04FF0010401E0D4
:1034C0004FF001042846414643F27D33C0F2080321
:1034D0009847454408B100F10105AB453FF66CAF94
:1034E0000DE04FF0FF340AE04FF0000407E03846EB
:1034F0006FF07001019A90474FF00004E2E7204618
:1035000003B0BDE8F08F00BF00F1080008B54FF030
:103510000002826042F63521C0F20801884708BDEA
:10352000F8B50446154672B9C16882684FF00006C6
:103530008E54E168A26843F29535C0F20805A847A9
:103540000546A66049E08368426802F1FF30C21A6E
:1035500095423DD8E768F8182A464AF6B123C0F2EA
:1035600008039847A1686D18A560E0684FF0000255
:103570004255E068A16843F69D37C0F20807B84796
:103580000546E368A1681818491B4FF20C42C0F2C7
:10359000080243F60D07C0F20807B8470746D0B146
:1035A000E268861A20465119721B43F29535C0F223
:1035B0000805A8470546A368E06839469A1B4AF6FD
:1035C000C323C0F208039847A068861BA66004E0E6
:1035D0004FF0FF3501E04FF000052846F8BD00BF71
:1035E000F8B504460D4608464AF6CD33C0F2080346
:1035F00098470746204643F29921C0F208018847C0
:103600000646204629463A4643F28D23C0F2080377
:103610009847226A02F1010222628019F8BD00BFB8
:1036200070B584B00446084601A94FF00C0243F679
:103630005903C0F2080398470646204643F29921F1
:10364000C0F2080188470546204601A9324643F2E8
:103650008D23C0F208039847226A02F10102226218
:10366000401904B070BD00BF2DE9F04104460F467B
:1036700043F29923C0F20803984780464FF2604610
:10368000C0F20806204631464FF0010243F28D2574
:10369000C0F20805A847804438464AF6CD31C0F24A
:1036A00008018847024620463946A84708EB00072C
:1036B000204631464FF00102A847226A02F101027A
:1036C00022623818BDE8F08170B582B00446154614
:1036D0000E4619B32AB3194643F2F923C0F2080380
:1036E000984708B36069A169324601AB43F6CD162D
:1036F000C0F20806B047D0B12046019943F2C1227A
:10370000C0F208029047204643F2D521C0F20801DA
:103710008847019828604FF001000AE04FF0000050
:1037200007E04FF0000004E04FF0000001E04FF030
:10373000000002B070BD00BF70B582B004461346F1
:103740000E46E1B101A96A4643F2C965C0F2080517
:10375000A847B8B10198314643F68513C0F2080373
:1037600098470099884210D020466FF0890142F6B0
:10377000A922C0F2080290474FF0000007E04FF086
:10378000000004E04FF0000001E04FF0010002B043
:1037900070BD00BF70B582B0044613460E46E1B15D
:1037A00001A96A4643F2C965C0F20805A847B8B145
:1037B0000198314643F66113C0F208039847009917
:1037C000884210D020466FF0890142F6A922C0F24B
:1037D000080290474FF0000007E04FF0000004E0BF
:1037E0004FF0000001E04FF0010002B070BD00BFDB
:1037F000A0F10203D9B2022904D9D0F1010038BFE7
:10380000002070474FF00100704700BF70B44118AE
:1038100088421AD0034613F8016B36B94FF0000006
:1038200018E0B54202D115E02346144614F8015BB6
:10383000002DF6D18B420BD01C4614F8016B1846B4
:10384000002EF1D14FF0000004E04FF0000001E045
:103850004FF0000070BC7047F0B4034638B9002A3E
:1038600055D04FF0300008704FF0010049E00028BB
:1038700008DAC0F1000342B14FF02D0008704FF09C
:10388000010004E04FF0000001E04FF000001D4691
:103890004CF6FF14C3F69A34A34210D84FF44A43AF
:1038A000C3F69A334CF6CD46CCF6CC46A6FB034382
:1038B0004FEAD303B5FBF3F4002CF7D003E04FF449
:1038C0004A43C3F69A33824233D9B5FBF3F6F6B2D4
:1038D0004CF6CD47CCF6CC476FEA0004A41814F0A0
:1038E000010F28D106F130040C5400F101042046E8
:1038F00003FB1655A7FB0363DB0802D0A24209D8DD
:1039000017E0904215D24FF000020A5411E04FF038
:1039100000000EE0B5FBF3F0C6B206F1300008552A
:1039200004F1010003FB1655A7FB0343DB0813D189
:10393000E7E7F0BC704706F130040C5400F10100D9
:1039400003FB1655A7FB0363DB08DAD08242F0D9EC
:10395000B5FBF3F6F6B2C5E7B5FBF3F6F6B2C1E791
:1039600030B583B004460D4601A94FF000024BF676
:103970000513C0F20803984728600198001B03B0A4
:1039800030BD00BF30B583B004460D4601A94BF2EF
:10399000B173C0F208039847C5E900010198001B04
:1039A00003B030BD10B50C4699420BD111462246EA
:1039B0004AF6DD33C0F208039847D0F1010038BF62
:1039C000002010BD4FF0000010BD00BF2DE9F04FEA
:1039D00083B00646019299460B4600293ED040F23C
:1039E000A022C2F20702D2F800E04FF001054FF02A
:1039F00000042746A0464FF0020B6FEA0401C918E5
:103A00002940005D2246002C4FD062E0315D12B1AA
:103A1000022A1BD10FE00EEB0100407800F00800F5
:103A2000C0B210B12F46A84610E02C291BD0A046EA
:103A30002F465A460AE02C2918D00EEB0100417897
:103A400001F00800C1B2002908BF2F4604F10104AB
:103A500005F10105315D002A76D089E04FF00007BD
:103A6000B8463A4604E04FF0040201E04FF0040289
:103A7000104643F2F173C0F20803984768B1019A07
:103A80000AB146441660B9F1000F09D0C8EB070728
:103A9000C9F800704FF0010004E04FF0000001E0B1
:103AA0004FF0010003B0BDE8F08F0EEB000C9CF866
:103AB00001C00CF0080C5FFA8CFCBCF1000F05D1C2
:103AC0002C28D0D0A0462F465A460EE02F46A846B6
:103AD0000BE0022C09D12C28C8D07044407800F0AB
:103AE0000800C0B2002808BF2F4604F1010405F108
:103AF00001059C42BCD0002988D0315D7AB90EEB1B
:103B00000100407800F00800C0B228B92C29AAD0E2
:103B1000A0462F465A460FE02F46A8460CE0022A40
:103B20000AD12C29A2D00EEB0100417801F0080047
:103B3000C1B2002908BF2F4604F1010405F10105B7
:103B40009C427FF463AF93E70EEB010A9AF801A061
:103B50000AF0080A5FFA8AFABAF1000F05D12C2997
:103B600081D0A0462F465A460FE02F46A8460CE0CB
:103B7000022A0AD12C293FF479AF7144497801F027
:103B80000801C9B2002908BF2F4604F1010405F15C
:103B900001059C427FF43AAF6AE700BF70B40E465D
:103BA00011B340F2A023C2F207031C680178621827
:103BB000537803F00801CAB2C2B103464FF00000C7
:103BC00016F0010F09D115E013F8015F61194D7866
:103BD00005F00801CDB2CDB90AE000F101021046AE
:103BE000B242F1D1304603E0084601E04FF0000058
:103BF00070BC704700F1010013F8011F6218517882
:103C000001F00802D1B20029E7D1F1E702F1010089
:103C100013F8012FA1184A7802F00801CAB2002A4D
:103C2000DBD1E5E72DE9F047804691469A468E467E
:103C300021B303782BB340F2A022C2F2070210682E
:103C4000C1184C7804F00305022D1DD042464FF0F8
:103C500000041EF0010F07D12FE0C719797801F099
:103C60000305022D36D111E004F1010634467645F4
:103C70000CD012F8017F002FEFD107E04FF00004C5
:103C800004E04FF0000401E04FF0000440467146AC
:103C90004A46534643F6A515C0F20805A84730B971
:103CA000404621464A4653462C46A84701E04FF07D
:103CB000010000F00100BDE8F08704F1010412F8F2
:103CC000013F002BE2D0C1184D7805F00303022B11
:103CD000CAD1DBE706F1010412F8013F002BD5D071
:103CE000C1184D7805F00303022BBDD1CEE700BF0C
:103CF0002DE9F84F05460C4616464AF6CD33C0F27C
:103D00000803984705EB0009204631464AF64F4222
:103D1000C0F20802904704EB000A20783A2808BF56
:103D200001344FF2743BC0F2080B43F60D08C0F2A9
:103D30000808C5EB0907284639465A46C04700B16E
:103D4000471BC4EB0A06204631461B4AC04700B158
:103D5000061B284639462246334643F6254CC0F218
:103D6000080CE047C0B1ED19A4194D4505D1A24595
:103D70008CBF00200120BDE8F88FA24510D928781B
:103D80002278824210D13A2801D03F2810D105F183
:103D9000010504F10104CCE74FF00000BDE8F88F05
:103DA0004FF00000BDE8F88F4FF00000BDE8F88F3D
:103DB0004FF00000BDE8F88F7CF3080038B541F6FD
:103DC0009835C2F207054FF28034C0F208040FCCD8
:103DD00028606960AA60EB6007CC28616961AA610C
:103DE000284644F6B163C0F2080398474FF001003B
:103DF00038BD00BF38B541F69835C2F207054FF21D
:103E00008034C0F208040FCC28606960AA60EB60BF
:103E100007CC28616961AA61284644F6B163C0F203
:103E2000080398474FF0010038BD00BF38B541F690
:103E30009835C2F207054FF28034C0F208040FCC67
:103E400028606960AA60EB6007CC28616961AA619B
:103E5000284644F6B163C0F2080398474FF00100CA
:103E600038BD00BF08B541F69832C2F207024FF2E2
:103E70009C33C0F2080303CB10605160104644F637
:103E8000B161C0F2080188474FF0010008BD00BFD2
:103E900008B541F69833C2F207034FF2A432C0F2DC
:103EA0000802106818609188927999809A71184672
:103EB00044F6B163C0F2080398474FF0010008BD13
:103EC00008B541F69833C2F207034FF2AC32C0F2A4
:103ED00008021068186011791971184644F6B16328
:103EE000C0F2080398474FF0010008BD08B541F63D
:103EF0009833C2F207034FF2AC32C0F208021068E6
:103F0000186011791971184644F6B163C0F20803BC
:103F100098474FF0010008BD08B541F69833C2F24A
:103F200007034FF2B432C0F2080210681860184656
:103F300044F6B161C0F2080188474FF0010008BDA6
:103F400008B541F69833C2F207034FF2B432C0F21B
:103F5000080210681860184644F6B161C0F2080102
:103F600088474FF0010008BD08B542F6F113C0F2D2
:103F700008039847012811D141F69832C2F207028E
:103F80004FF2B833C0F2080303CB10605160104603
:103F900044F6B161C0F20801884712E041F6983258
:103FA000C2F207024FF2C033C0F2080303CB106025
:103FB000516018881081104644F6B161C0F20801C2
:103FC00088474FF0010008BD4FF00100704700BF67
:103FD0004FF00100704700BF30B583B001A96A46B9
:103FE0004FF0010343F2C964C0F20804A04700285F
:103FF00039D0009C012C39D9019D28464FF2CC3193
:10400000C0F208014FF002024AF62143C0F2080351
:10401000984760B942F61523C0F20803984742F664
:104020003D00C0F2080080474FF0010026E0022C5E
:104030001FD928464FF2D031C0F208014FF00302D9
:104040004AF62143C0F208039847A8B942F6410155
:10405000C0F20801884742F62522C0F208029047C4
:104060004FF001000AE04FF0FF0007E04FF00100C1
:1040700004E04FF0FF0001E04FF0FF0040B203B05A
:1040800030BD00BF10B584B0044603A94FF0010253
:1040900043F29573C0F20803984708B3204602A97B
:1040A0004FF0010243F29573C0F208039847D0B174
:1040B000204601A94FF0010243F29573C0F20803B4
:1040C000984798B1BDF80C00BDF80810BDF8042061
:1040D00042F6AD13C0F2080398474FF0010007E025
:1040E0004FF0FF0004E04FF0FF0001E04FF0FF0051
:1040F00040B204B010BD00BF00B583B001A94FF0BD
:10410000010243F29573C0F20803984768B1019821
:1041100042F6EA3188420BD880B242F29572C0F280
:10412000080290474FF0010304E04FF0FF0301E065
:104130004FF0FF0358B203B000BD00BF00B583B01D
:1041400001A94FF0010243F29573C0F208039847AA
:1041500068B1019842F6EA3188420BD880B242F247
:10416000E972C0F2080290474FF0010304E04FF0FB
:10417000FF0301E04FF0FF0358B203B000BD00BFE2
:1041800000B583B001A94FF0010243F29573C0F26C
:104190000803984768B1019842F6EA3188420BD883
:1041A00080B242F24172C0F2080290474FF0010320
:1041B00004E04FF0FF0301E04FF0FF0358B203B0FB
:1041C00000BD00BF38B542F2DD73C0F20803984766
:1041D000034641F69834C2F2070420464FF06401CA
:1041E0004FF2D432C0F208024AF66735C0F2080531
:1041F000A847204644F6B161C0F2080188474FF055
:10420000010038BD38B542F63103C0F208039847C3
:10421000034641F69834C2F2070420464FF0640189
:104220004FF2D432C0F208024AF66735C0F20805F0
:10423000A847204644F6B161C0F2080188474FF014
:10424000010038BD38B542F28973C0F208039847BF
:10425000034641F69834C2F2070420464FF0640149
:104260004FF2D432C0F208024AF66735C0F20805B0
:10427000A847204644F6B161C0F2080188474FF0D4
:10428000010038BD00B583B001A94FF0010243F22F
:104290009573C0F208039847A8B1019848B94FF048
:1042A000000042F29D42C0F2080290474FF0010325
:1042B0000BE04FF0010042F29D41C0F20801884737
:1042C0004FF0010301E04FF0FF0358B203B000BD0F
:1042D00000B583B001A94FF0010243F29573C0F21B
:1042E00008039847A8B1019848B94FF0000042F27E
:1042F000DD42C0F2080290474FF001030BE04FF09F
:10430000010042F2DD41C0F2080188474FF001038D
:1043100001E04FF0FF0358B203B000BD00B583B019
:1043200001A94FF0010243F29573C0F208039847C8
:10433000A8B1019848B94FF0000042F21D52C0F2F6
:10434000080290474FF001030BE04FF0010042F2EA
:104350001D51C0F2080188474FF0010301E04FF002
:10436000FF0358B203B000BD00B583B001A94FF000
:10437000010243F29573C0F208039847A8B101986F
:1043800048B94FF0000041F6DD42C0F20802904704
:104390004FF001030BE04FF0010041F6DD41C0F2A8
:1043A000080188474FF0010301E04FF0FF0358B2C6
:1043B00003B000BD38B542F27943C0F20803984714
:1043C000034641F69834C2F2070420464FF06401D8
:1043D0004FF2D432C0F208024AF66735C0F208053F
:1043E000A847204644F6B161C0F2080188474FF063
:1043F000010038BD38B542F28543C0F20803984742
:10440000034641F69834C2F2070420464FF0640197
:104410004FF2D432C0F208024AF66735C0F20805FE
:10442000A847204644F6B161C0F2080188474FF022
:10443000010038BD38B542F29143C0F208039847F5
:10444000034641F69834C2F2070420464FF0640157
:104450004FF2D432C0F208024AF66735C0F20805BE
:10446000A847204644F6B161C0F2080188474FF0E2
:10447000010038BD30B583B042F23573C0F2080395
:1044800098474AF23D31C0F20801884741F6983416
:10449000C2F207044FF000024FF00003C3F6D073DE
:1044A0004AF22945C0F20805A847CDE90001204697
:1044B0004FF064014FF2D832C0F208024AF6673377
:1044C000C0F208039847204644F6B162C0F20802E1
:1044D00090474FF0010003B030BD00BF10B582B06F
:1044E00069464FF0010243F23973C0F2080398475E
:1044F000F8B1DDE900014FF000024FF00003C4F213
:1045000010034AF22944C0F20804A0474AF22502E7
:10451000C0F2080290474AF65D13C0F208039847BC
:1045200080B242F28561C0F2080188474FF0010075
:1045300001E04FF0FF0040B202B010BD10B50446DC
:1045400040F29543C0F208039847012803D028B1F0
:10455000022820D115E04FF0030010BD40F60051B5
:10456000C2F207010B5DCBB9204641F22D02C0F229
:104570000802904700F0030000280CBF0220002032
:1045800010BD40F60050C2F207004FF00002025585
:104590004FF0020010BD4FF0010010BD4FF00200BF
:1045A00010BD00BF08B54FF0000044F23D53C0F20B
:1045B0000803984708BD00BF38B504460D4641F2D0
:1045C0005903C0F2080398474FEA400000F1FF3159
:1045D0002960204644F23D52C0F20802904738BD9F
:1045E00008B501464FF0000044F2B953C0F2080389
:1045F000984708BD08B541F28503C0F20803984703
:1046000008BD00BF08B54FF0000044F2F553C0F2FA
:104610000803984708BD00BF4FF00100704700BF76
:1046200008B54FF0000044F21963C0F20803984740
:1046300008BD00BF2DE9F041144641F28D03C0F2E0
:1046400008039847014670B302280CBF02200120DE
:10465000BDE8F08144B114F0010F0CBF384640466C
:104660004FF00101B047A0BB85B914F0010F0CBF9A
:10467000414639464FF001004FF400724FF00003FD
:1046800046F69D25C0F20805A84730B32CB141F28B
:104690001520C0F20800804718BB04F1FF34A4B213
:1046A0004FF000050DE04FF0010541F2DD16C0F2BC
:1046B000080641F29878C2F2070841F69817C2F24C
:1046C00007074FF6FF729442C4D14FF00000BDE8D7
:1046D000F0814FF00100BDE8F0814FF00100BDE82E
:1046E000F0814FF00100BDE8F08100BF08B503463E
:1046F0000A464FF00000194644F23563C0F2080341
:10470000984708BD2DE9F041144641F29523C0F2C7
:1047100008039847014668B302280CBF0220012015
:10472000BDE8F08145B914F0010F0CBF3846404692
:104730004FF00101B04798BB7CB114F0010F0CBFE2
:10474000414639464FF000004FF40072034646F6EA
:104750009D2CC0F2080CE04730B32DB941F2A130D6
:10476000C0F20800804718BB04F1FF34A4B24FF038
:1047700000050DE04FF0010541F26936C0F2080670
:1047800041F29878C2F2070841F69817C2F207077B
:104790004FF6FF729442C5D14FF00000BDE8F081A2
:1047A0004FF00100BDE8F0814FF00100BDE8F0815D
:1047B0004FF00100BDE8F08108B503460A464FF00E
:1047C0000000194644F20573C0F20803984708BD7B
:1047D00070B44FF080435D689C68D868D9695A6DA1
:1047E0004FF080061E605D609C60D860D9615A659C
:1047F0004FF0000018654FF00501196070BC70475C
:1048000008B501F03F03184311F4807F0CD011F478
:10481000006F02D040F4845006E011F4005F14BF32
:1048200040F4865040F4825011F4804F18BF40F499
:1048300000604FF080431A615861184601F48052BD
:10484000036C52B113F41F0F12D044F2D172C0F2B4
:10485000080290474FF0000008BD13F41B0F07D06B
:1048600044F2D171C0F2080188474FF0000008BD42
:1048700013F0010FE4D011F4005F19D14FF00100E3
:1048800008BD086C03F1FF3300F03002202A19D173
:104890000BE044F2D171C0F2080188474FF00000EC
:1048A00008BD00F03002202AEBD14FF0010008BD16
:1048B0004FF08040006C44F24023C0F20F034FF0F1
:1048C0008041EEE7086C013BEBD1E2E710B54FF019
:1048D000150047F65524C0F20804A0474FF0270002
:1048E000A0474FF080434FF072029A60DA614FF0B8
:1048F000110058654FF4E06159604FF005021A60ED
:1049000010BD00BF00280CBF04200020704700BF6E
:104910004FF00100704700BF33B14FF08043586D36
:1049200040F48070586505E04FF08043586D20F4E6
:104930008070586581B14FEA41014FF43D43C0F2A8
:104940000153B3FBF1F001FB103109B100F101009B
:1049500020B100F1FF3001E04FF000004FF0804344
:10496000596821F0FF0159605968C0B20843586086
:10497000042A04D0082A0CBFC022002201E04FF014
:1049800080024FF08043DA60704700BF704700BF7D
:104990004FF080435A6822F4605058604FF0000195
:1049A00019614FF410625A611846036C13F0010F3D
:1049B000FBD0704710B504460A464FF08043596853
:1049C00021F4605058604FF000001865986121464E
:1049D00044F60103C0F20803984710BD4FF080432E
:1049E000186A70474FF080431A6A4FEA12610170EB
:1049F0004FEA124141704FEA12218170C2701A6A67
:104A00004FEA126101714FEA124141714FEA1221DE
:104A10008171C2711A6A4FEA126101724FEA124142
:104A200041724FEA12218172C2721B6A4FEA13620D
:104A300002734FEA134141734FEA13228273C37327
:104A4000704700BF70B504460D469DF8101029B19F
:104A50004FF480704FF08041086504E04FF0000093
:104A60004FF0804630654FF08046706840F4C0518A
:104A7000716012F0030F04D0706840F4005171604F
:104A800005E04FF08046706820F40051716004F436
:104A90000046002E0CBF4FF4A0204FF4803014F4D9
:104AA000803F09D040F400104FEAC2564FEAD65179
:104AB0004FF08046B16118E043EA02464FF0804172
:104AC0008E6114F4003F02D040F420100DE014F485
:104AD000802F02D040F4801007E014F4002F04D19E
:104AE00014F4801F18BF40F4002040F60851C2F2B1
:104AF00007014FF000060E6040F60451C2F20701B4
:104B00000A8040F60652C2F20702138021462A4666
:104B100044F60103C0F20803984770BD08B54FF092
:104B200080414FF00002CCF260020B6C134207D0C0
:104B300044F2D170C0F2080080474FF0000008BD79
:104B400013F0020FF1D04FF080410A6B026040F683
:104B50000850C2F20700036803F10403036040F643
:104B60000651C2F207010A8840F60450C2F207005B
:104B7000018801FB02F2934216D34FF080404FF0C0
:104B80000002CCF26002036C134207D044F2D171F0
:104B9000C0F2080188474FF0000008BD13F0006F15
:104BA000F1D04FF0010008BD4FF0010008BD00BF7B
:104BB00070B586B0044640F60453C2F207031E885F
:104BC00006FB01F64FF08040416811F4005F2FD1E1
:104BD0004FF48045C4F20C05284645F29D22C0F2F0
:104BE0000802904728464FF0000145F2B123C0F279
:104BF0000803984728464FF000014FF40072C0F2B6
:104C0000011245F2F925C0F20805A8474FF030001F
:104C1000C4F200000190029414F0030F02D0B4B269
:104C200003942AE0C6F38F0444F00851039124E072
:104C30004FF48045C4F20C05284645F29D22C0F28F
:104C40000802904728464FF0000145F2B123C0F218
:104C50000803984728464FF000014FF40072C0F255
:104C6000011245F2F925C0F20805A8474FF03000BF
:104C7000C4F2000001900294D1E74FF00001C4F2A9
:104C8000512104914FF0000405944FF48045C4F283
:104C90000C052846214601AA45F20533C0F2080357
:104CA00098472846214645F2A522C0F208029047BF
:104CB00040F60850C2F207000168761806604FF00F
:104CC000010006B070BD00BF10B540F60653C2F239
:104CD0000703188840F60452C2F20702148804FB46
:104CE00000F440F60851C2F2070108684FF0804115
:104CF0004FF00002CCF260020B6C134212D044F26F
:104D0000D170C0F2080080474FF48040C4F20C001C
:104D10004FF0000145F2B122C0F2080290474FF077
:104D2000000010BD844202D913F0007F05D113F0BA
:104D3000006FE1D04FF0010010BD4FF0010010BD39
:104D400070B586B0044640F60453C2F207031E88CD
:104D500006FB01F64FF08040416811F4005F27D157
:104D60004FF48045C4F20C05284645F29D22C0F25E
:104D70000802904728464FF000014FF40052C0F25D
:104D8000011245F2F923C0F20803984701944FF04D
:104D90003400C4F20000029014F0030F02D0B4B249
:104DA000039422E0C6F38F0444F0085103911CE001
:104DB0004FF48045C4F20C05284645F29D22C0F20E
:104DC0000802904728464FF000014FF40052C0F20D
:104DD000011245F2F923C0F20803984701944FF0FD
:104DE0003400C4F200000290D9E74FF00001C6F28F
:104DF000310104914FF0000405944FF48045C4F252
:104E00000C052846214601AA45F20533C0F20803E5
:104E100098472846214645F2A522C0F2080290474D
:104E200040F60850C2F207000168761806604FF09D
:104E3000010006B070BD00BF10B540F60653C2F2C7
:104E40000703188840F60452C2F20702148804FBD4
:104E500000F440F60851C2F2070108684FF08041A3
:104E60004FF00002CCF260020B6C134212D044F2FD
:104E7000D170C0F2080080474FF48040C4F20C00AB
:104E80004FF0000145F2B122C0F2080290474FF006
:104E9000000010BD844202D913F0007F05D113F049
:104EA000200FE1D04FF0010010BD4FF0010010BD08
:104EB00010B5044640F60C53C2F20703187868B1E7
:104EC00020464AF6CD32C0F20802904701462046FD
:104ED00045F6A553C0F20803984710BD20464AF690
:104EE000CD31C0F20801884710BD00BF39B140F68E
:104EF0000C50C2F207004FF001010170704740F6FC
:104F00000C53C2F207034FF000021A70704700BF43
:104F100040F60D53C2F207034FF001021A707047BA
:104F2000704700BF704700BF704700BF30B583B007
:104F3000134641F69834C2F20704009120464FF020
:104F400064014FF2E032C0F208024AF66735C0F25F
:104F50000805A847204644F6B163C0F20803984705
:104F60004FF0010003B030BD4FF00100704700BFAB
:104F70002DE9F04F83B00546884690F82830002B85
:104F800030D0806870B34FF00006344642F6D53B0F
:104F90005F46C0F2080741F69839C2F207094FF29E
:104FA000E83AC0F2080AE9688A5D3F2A13D10FFA8D
:104FB00088F0B847009048464FF064015246434697
:104FC0004AF66736C0F20806B047484644F6B16371
:104FD000C0F20803984704F10104A4B22646A86869
:104FE0008442E0D34FF0000003B0BDE8F08F00BF73
:104FF00030B583B00B461446012918D141F69835D7
:10500000C2F20705009228464FF064014FF2FC32CD
:10501000C0F2080223464AF66734C0F20804A047EB
:10502000284644F6B161C0F20801884717E041F60E
:105030009835C2F207050092019228464FF06401AC
:105040004FF21042C0F208024AF66734C0F2080478
:10505000A047284644F6B163C0F2080398474FF0D2
:10506000010003B030BD00BF08B541F69832C2F26E
:1050700007024FF22C43C0F2080303CB10605160CB
:1050800018781072104644F6B161C0F208018847E2
:105090004FF0010008BD00BF08B541F69832C2F2DA
:1050A00007024FF23843C0F2080303CB106051608F
:1050B00018881081104644F6B161C0F20801884793
:1050C0004FF0010008BD00BF08B540F23800C2F241
:1050D000070043F20D53C0F20803984708BD00BF14
:1050E0002DE9F04745F60913C0F208039847002858
:1050F00040D040F60E54C2F2070441F6FC35C2F22D
:1051000007054FF0010645F61D4AC0F2080A40F2B5
:105110003809C2F2070943F22158C0F20808208872
:1051200040193146D047074621884846491932463A
:10513000C047228802F1010293B22380E81810F8D8
:10514000011C0D2901D00A2902D14FF00002228052
:1051500017B12388C72BE2D940F60E50C2F20700E0
:105160000188C82906D140F60E53C2F207034FF05A
:1051700000021A80BDE8F08741F6CC43C2F2070373
:105180009878042802D005283BD104E040F2900230
:10519000C2F2070203E040F2BC02C2F2070240F290
:1051A000A003C2F207031178598050789880917853
:1051B000D980D07818811179598150799881917965
:1051C000D981D0791882117A5982507A9882917A4D
:1051D000D982D07A1883127B5A834FF01C01197040
:1051E00041F6CC40C2F2070081818360C3881B2B4B
:1051F0000AD841F6CC42C2F2070293814FF0010077
:1052000070474FF0000070474FF00100704700BF3B
:1052100004207146084200F00480EFF3098000F09A
:1052200005B8EFF3088000F001B800BF8EB0036846
:105230000D9341680C9182680B92C3680A930169CF
:1052400009914269089283690793C06906904EF6F6
:105250002851CEF200010A6805924EF62C53CEF288
:105260000003186804904EF63051CEF200010A682F
:1052700003924EF63C53CEF20003186802904EF6AD
:105280003451CEF200010A6800924EF63853CEF245
:1052900000031868019000BEFEE700BF4FF0010355
:1052A000436070474FF0010303FA01F181627047D8
:1052B0004FF0010303FA01F1C162704701EB810174
:1052C00000EBC100C263704701EB810100EBC1003C
:1052D0000264704701EB810100EBC100426470473A
:1052E00001EB810100EBC1008264704701EB810199
:1052F00000EBC100C264704701EB810100EBC1000B
:105300000265704770B504460E461546436A12683A
:1053100045F2BD23C0F208039847204631466A682B
:1053200045F2C923C0F208039847204631464FF0A2
:10533000000245F2D523C0F20803984720463146C3
:10534000AA6845F2E123C0F2080398472046314697
:10535000EA6845F2ED23C0F20803984770BD00BF2C
:1053600008B547F63523C0F2080398474FF0000010
:1053700047F6D921C0F20801884747F6F120C0F26C
:105380000800804708BD00BF10B54FF43D40C0F293
:10539000015049F6D953C0F2080398474FF0000076
:1053A0004FF03E0147F69512C0F20802904747F6CB
:1053B0000524C0F20804A0470028FCD047F61520B9
:1053C000C0F2080080474FF4C061C4F20E0143F6FA
:1053D0000173C2F20D038B6247F62524C0F2080464
:1053E000A0470028FCD04FF0100047F6F502C0F2AD
:1053F0000802904749F61140C0F20800804710BDEE
:105400004FF00100704700BF08B528B944F2A5531A
:10541000C0F20803984708BD4FF0010008BD00BF67
:1054200008B530B9084644F2E153C0F20803984782
:1054300008BD4FF0010008BD10B981F001007047B0
:105440004FF00000704700BF08B528B944F205636B
:10545000C0F20803984708BD4FF0010008BD00BF27
:1054600008B528B944F22163C0F20803984708BD83
:105470004FF0010008BD00BF20B94FF24440C0F218
:10548000080070474FF00000704700BF08B538B9FA
:105490000846114644F2ED63C0F20803984708BD80
:1054A0004FF0010008BD00BF08B538B908461146E5
:1054B00044F2B973C0F20803984708BD4FF00100E9
:1054C00008BD00BF41F22813C2F207031A7802F1A7
:1054D000FF30C1B2197070474FF00000704700BF35
:1054E0004FF00000704700BF704700BF30B583B079
:1054F00041F24013C2F207031878002840F0DF8021
:1055000048F67171C0F20801884760B141F2341465
:10551000C2F20704248848F6D570C0F2080080471C
:1055200084420DD1CBE041F23412C2F2070214885A
:1055300048F6C573C0F208039847844200F0BF8064
:10554000EFF31085D5F1010538BF002572B6BFF322
:105550005F8F40F29821C2F207014FF000020A70FB
:1055600040F61C53C2F207031C7840F62050C2F2EA
:10557000070030F8141079BB41F25453C2F207030C
:105580001A8802F101021A8048F67170C0F2080010
:10559000804730B941F25451C2F207010B88632BA6
:1055A0000DD948F67172C0F208029047A0B141F2DD
:1055B0005450C2F207000188B1F5487F0CD2002D8B
:1055C0007DD040F29823C2F207034FF001021A7017
:1055D000BFF35F8F62B672E041F25453C2F2070329
:1055E0004FF000021A8041F23010C2F20700017839
:1055F00049B9944214BF0022012240F61C53C2F262
:1056000007031A7003E0D4F1010438BF002441F20B
:105610004010C2F207004FF0010202703DB140F2AB
:105620009825C2F207052A70BFF35F8F62B6254640
:1056300040F62051C2F2070131F81440B4F500746D
:1056400018BF0124DCB148F67172C0F2080290471D
:1056500050B148F6D570C0F20800804741F23412CC
:10566000C2F20702108011E048F6C571C0F20801CD
:10567000884741F23413C2F20703188006E041F272
:105680003413C2F207034FF00000188040F6205197
:10569000C2F2070131F8153045F2D960C0F20800B6
:1056A00000904FF08400214640F62454C2F20704D3
:1056B00004EB452249F29124C0F20804A04703B04C
:1056C00030BD00BF08B54FF0000045F2ED43C0F219
:1056D0000803984708BD00BF08B5E8B940F61C5359
:1056E000C2F207031978D1F1010138BF002140F659
:1056F0002053C2F2070323F8110041F23011C2F225
:105700000701087041F24012C2F20702107045F220
:10571000ED43C0F20803984708BD00BF08B541F645
:10572000CC43C2F20703187810F0800F20D000F0AD
:105730006001202956D141F6CC42C2F207025378CB
:10574000212B52D141F6CC40C2F20700C188072973
:105750004ED141F6CC43C2F2070340F61052C2F2DA
:1057600007029A604FF0070098814FF0010008BDD2
:1057700000F0600120293ED141F6CC42C2F207027E
:105780005378202B02D0222B38D11AE041F6CC439B
:10579000C2F20703D888072833D141F6CC41C2F2C0
:1057A000070145F2E942C0F208020A6140F61053CF
:1057B000C2F207038B604FF0070088814FF00100B1
:1057C00008BD41F6CC40C2F2070081784FF00000DE
:1057D00001F0010144F6ED62C0F2080290474FF07B
:1057E000010008BD4FF0000008BD4FF0000008BDEB
:1057F0004FF0000008BD4FF0000008BD4FF0000062
:1058000008BD4FF0000008BD08B540F61853C2F2BD
:1058100007031A7802F1FF30C1B21970187849F6FF
:10582000FD63C0F20803984741F23810C2F2070046
:105830004FF00002027008BD08B54FF0000041F2C1
:105840002813C2F20703187041F25851C2F207013F
:10585000088041F24413C2F207034FF0A10119700E
:105860004FF020015970588098804FF00201D98084
:10587000188140F61053C2F207034FF4E13119606A
:10588000187158714FF008029A7149F6ED63C0F231
:105890000803984758B141F22810C2F20700017876
:1058A00001F10101CAB202704FF0010008BD4FF0D2
:1058B000000008BDEFF3108372B6BFF35F8F40F2B4
:1058C0009822C2F207024FF00001117041F22C1031
:1058D000C2F20700028890B241F23C11C2F2070105
:1058E000097841F22412C2F2070232F81110081AA4
:1058F0004BB940F29823C2F207034FF001021A702D
:10590000BFF35F8F62B6704708B54FF0000045F6F1
:10591000B503C0F20803984708BD00BF08B545F6B7
:10592000B503C0F208039847003018BF012008BD36
:1059300010B582B0EFF31083D3F1010038BF00201F
:1059400072B6BFF35F8F40F29822C2F207024FF0A7
:105950000001117041F23C14C2F20704247841F2B4
:105960005053C2F207031A786AB941F22C11C2F2FD
:1059700007010B889AB241F22411C2F2070131F8F3
:10598000143093420ED9002852D040F29821C2F22E
:1059900007014FF001020A70BFF35F8F62B64FF04C
:1059A000000047E041F22C12C2F207024FF0000162
:1059B00011808C4214BF0021012141F23C13C2F23C
:1059C0000703197041F25052C2F207024FF0010171
:1059D000117038B140F29820C2F207000170BFF395
:1059E0005F8F62B64FF0000045F61D12C0F208024C
:1059F000904730B14FF0000044F61171C0F2080139
:105A0000884745F63920C0F2080000904FF00500A5
:105A10004FF0010141F25013C2F2070303EB44229D
:105A20004FF4007349F29124C0F20804A04701E04A
:105A30004FF0000002B010BD10B582B088BB41F23B
:105A40003C13C2F207031878D0F1010338BF0023DA
:105A5000A9B945F63924C0F20804009410464FF065
:105A6000010141F25012C2F2070202EB43224FF44D
:105A7000007349F29124C0F20804A04711E041F2FA
:105A80002412C2F2070222F813104FF0000041F274
:105A90005051C2F20701087045F63113C0F20803F5
:105AA000984702B010BD00BF38B54FF0000440F673
:105AB0001853C2F207031C7041F24010C2F20700F3
:105AC000047041F23011C2F207010C7040F61C5212
:105AD000C2F20702147040F62053C2F207032546B3
