:0200000280007C
:10000000283E0720A19708009D970800B14E0800E0
:100010009D9708009D9708009D970800000000002C
:100020000000000000000000000000009D97080094
:100030009D970800000000009D9708009D9708000C
:100040009D9708009D970800E11B08009D970800F8
:100050009D9708009D9708009D9708009D970800B0
:100060009D9708009D970800000000004D7508004E
:100070006975080085750800A1750800000000007A
:10008000000000009D9708009D9708009D970800BC
:100090009D9708009D9708009D9708009D97080070
:1000A0009D970800000000009D970800411C080073
:1000B000751D0800E51D08009D9708009D97080024
:1000C000AD1D08009D9708009D9708009D970800AA
:1000D0009D9708009D9708009D9708009D97080030
:1000E000C98008009D9708009D9708009D9708000B
:1000F0009D97080008B50548054B191A062900D830
:1001000008BD044A002AFBD09047F9E708D8080048
:100110000BD808000000000008B50748074B191A63
:100120008A1002EBD273591000D108BD044A002A8C
:10013000FBD09047F9E700BF08D8080008D80800AE
:100140000000000010B5064C237843B9FFF7D2FF3A
:10015000044810B10448AFF300800121217010BDA4
:10016000E80A07200000000008D8080008B5084B7E
:100170001BB108480849AFF300800848016811B175
:10018000074A02B19047BDE80840FFF7C5BF00BF6E
:100190000000000008D80800EC0A072008D8080072
:1001A0000000000010B540F60833C2F207031A68D9
:1001B00092F8224040F60E31C2F207010878116829
:1001C000527C231C18BF012344F2ED54C0F20804F2
:1001D000A04710BD70B582B0069C49F23536C0F21A
:1001E000010641F23535C0F201054FEA017141EADD
:1001F000422242EAC0724FEAC4514FEAD151114340
:100200009DF81C200092002814BF3046284641EA81
:100210008361A2B24FF0010344F21974C0F20804E2
:10022000A04702B070BD00BF08B540F60E33C2F261
:100230000703187830B94FF0000044F26161C0F252
:100240000801884708BD00BF10B5029C4FEA422252
:1002500042EA017141EAC07040EAC363227841F288
:10026000343043EA020144F28963C0F2080398473C
:1002700040B144F2B161C0F20801884720704FF0EC
:10028000010010BD4FF0000010BD00BF08B540F6E2
:100290000833C2F207031868818941F609304FEA32
:1002A000014144F28962C0F20802904770B140F601
:1002B0000833C2F20703186800F1120044F2B96172
:1002C000C0F2080188474FF0010008BD4FF0000060
:1002D00008BD00BF10B5002840F0A88040F20C0314
:1002E000C2F2070398684FEA501202F5001101F2BA
:1002F00007734FEA4322D26B00F01F004FF0010159
:1003000001FA00F313421DD040F20C02C2F20702C0
:10031000907B88420CD140F60633C2F2070319786D
:1003200031B14EF21000CEF200004FF00002026038
:1003300040F20C03C2F207034FF0040199734FF02F
:10034000020010BD40F20C02C2F20702907B0428AA
:1003500031D140F20C01C2F207014FF001028A7361
:100360004EF21003CEF20003186888B940F606304A
:10037000C2F2070002704EF21003CEF2000343F205
:10038000A071C0F2A00159601A604FF0020010BDC8
:1003900040F60631C2F207014FF000020A7048F63B
:1003A0008050C0F25B0040F20103C2F2070398479D
:1003B0004FF0020010BD012816D140F60631C2F2FE
:1003C00007010B78002B3AD04EF21002CEF2000259
:1003D000106810F4803F2CD04EF21001CEF20001D4
:1003E0004FF000030B602AE040F20C00C2F207005D
:1003F000817B032920D040F60E34C2F207044FF06F
:100400000003237040F20C04C2F2070440F60832E5
:10041000C2F20702146040F2A510C0F20800804743
:10042000A07B022814BF0020012010BD4FF0040063
:1004300010BD4FF0020010BD4FF0030010BD40F2A0
:100440000C00C2F207004FF0020282734FF4D45145
:10045000C0F2060101604FF0010343744FF0000247
:1004600080F82220C0E700BF08B540F20C03C2F2BA
:1004700007034FF004029A7340F60E30C2F20700F1
:100480004FF0FF01017044F2A153C0F208039847F6
:1004900008BD00BF2DE9F04F95B040F2D523C0F262
:1004A000080398470446012806D040F22921C0F2EB
:1004B0000801884700F05DBD40F60830C2F2070031
:1004C00001684FF00102CA734FF000050D748D8171
:1004D00044F26563C0F2080398474FF48040294610
:1004E00044F28962C0F208029047002800F0C184FB
:1004F00045F208504FF4D57144F28963C0F2080305
:100500009847002800F0C38444F2B160C0F20800AC
:100510008047B0F1FF3F00F0BD844FEA00514FEA41
:100520001152B2F5D57F40F0A4844FF0010600F0DF
:10053000B3BC44F2B160C0F208008047014610F03D
:10054000E04F00F0B58441F2893944F2055744F296
:100550008965C0F2080544F2B168C0F2080838465F
:1005600001F4FC11A847002800F08384C047011E55
:100570000ADB09F1FF39384601F4FC11A8470028CD
:1005800040F0398500F075BC11F0006F40F608337B
:10059000C2F20703186814BF05220422C27300F0D8
:1005A00087BC41F237174FF0000844F28965C0F26A
:1005B00008054FF4004944F2B16AC0F2080A38460F
:1005C0004146A847002840F0EA8400F07DBC384648
:1005D0004146A847002800F077844946C4F21F012D
:1005E00044F22950002E08BF4FF4FC11A847002800
:1005F00000F06A84D04700280EDA10F0804F00F037
:100600008F8440F60830C2F207000168CA7B42F0CE
:100610000803CB7300F084BC0BF1FF3B3846414626
:10062000A847002840F0D18400F04EBC4FF40045AC
:10063000C4F21F0544F2015744F28968C0F2080869
:1006400044F2B169C0F2080938462946C04700287B
:1006500040F0938400F079BC38462946C047002812
:1006600000F07384C84700280DDA00F0C040B0F1F4
:10067000804F40F06084A6490B68DA7B42F00800A6
:10068000D87300F058BC06F1FF3638462946C047FB
:10069000002840F07C8400F058BC9D4908684FF069
:1006A0000102828141F203104FF48031994B984747
:1006B000002800F0218198498847002800F01F8118
:1006C000934803689A7CC2F3830101F1FF30032849
:1006D00003D8DFE800F0060A0E124FF01201197479
:1006E0000EE04FF014021A740AE04FF02200187462
:1006F00006E04FF03001197402E04FF040021A7426
:100700005A7D02F00700854951F820104FF47A70A5
:1007100000FB01F1C2F3C302814850F8222002FB22
:1007200001F11960997E187E5A7E4FEA820242EAF0
:10073000802040EAA1114FEA01524FEA125112F50E
:10074000801F15D0187FDA7E4FEA420242EAE0109D
:1007500001F1010100F0070202F1020201FA02F1C7
:10076000D87D00F00F0201FA02F14FEA91205860A3
:100770009B8943F207104FEA0341664A90470028DD
:1007800000F0C080624D2968087C3F2840F29C80C0
:100790004FF00001009141F20810C0F208004FF440
:1007A00000724FF001035F4DA847002800F0D0838E
:1007B0004FF000055C4E02A8B047002800F0C88347
:1007C00005F10105ADB2322DF5D1029E06F002030E
:1007D000DEB24F4A1068877E017E437E4FEA830275
:1007E00042EA812040EAA7174FEA075111F5801F1E
:1007F0001AD14D4F03A8B847002800F0A98305F18E
:100800000105ADB2352DF5D9414B1A6803984FEA71
:100810005007576008E003A8B847002800F0988305
:1008200005F10105ADB200E03F4F7F2DF3D992E312
:100830003E4D28783E4A9047054604280BD04FF499
:100840000071C0F2B7114FF00000C0F2B710082DD0
:1008500018BF014603E04FF48071C0F2B71143F2B4
:1008600006102C4B9847002800F07D8331498847BB
:1008700010F0800F40F07783254A106845742E4BA6
:1008800098472E49884738B336B343F206104FF4E1
:100890008071C0F2B9311F4A9047002800F066838A
:1008A0002448804710F0800F40F06083184E37686E
:1008B0004FF0010587F822504FF4EA43C0F2193394
:1008C0003B601D49884707E01B4FB84704E040469E
:1008D0003946B04740B118E04FF00A0541F2101810
:1008E0004FF400770B4EF2E705F1FF3212F0FF05EF
:1008F000EDD14FF00000ADE24FF00000AAE24FF062
:100900000000A7E24FF00000A4E24FF00100A1E2D6
:10091000080B0720894608008D020800C0C908009E
:10092000DCC9080019470800F14708000E0B072032
:10093000D9450800B1460800A5010800E5450800B2
:1009400045F602304FF0000144F28963C0F208031B
:100950009847002800F08D8245F203104FF0000107
:1009600044F28962C0F208029047002800F08182B8
:1009700040F60835C2F207052E6844F2B160C0F2B5
:10098000080080474FEA1041B1812B68DA7B12F0F2
:10099000010F56D040F28D20C0F208008047002899
:1009A00000F067822B685A7D02F007004CF6C011F8
:1009B000C0F2080151F820104FF47A7000FB01F1E9
:1009C000C2F3C3024CF68010C0F2080050F8222097
:1009D00002FB01F11960987C82090FD0DA7E987EC3
:1009E000597E4FEA014141EA0020024322F44001CE
:1009F00001F101014FEA4120586022E0997E187E02
:100A00005A7E4FEA820242EA802040EAA112187F11
:100A1000D97E4FEA410141EAE0104FEA02524FEA23
:100A2000125202F1010200F0070101F1020102FA83
:100A300001F0DA7D02F00F0100FA01F04FEA902296
:100A40005A6040F60833C2F207031A68918943F2EC
:100A500007104FEA014144F28963C0F20803984746
:100A6000002800F0068240F60830C2F20700016854
:100A7000CA7B12F0010F4ED08B8941F237104FEA3A
:100A8000034144F28962C0F208029047002800F056
:100A9000F0814FF00103009341F23310C0F20800DF
:100AA0004FF000014FF008024C4DA847002800F01D
:100AB000E08104A84FF00101494B9847002800F05D
:100AC000D88148488047002800F0D3819DF8101055
:100AD00001F00F03012B09D013B1022B16D10BE04B
:100AE000414A13684FF01000187414E03E490B6837
:100AF0004FF01A021A740EE09DF81230DB093A48E2
:100B0000016814BF302220220A7404E0364A1068BB
:100B10004FF01001017440F60830C2F2070001687E
:100B2000CB7B03F00402D0B2002800F095804FF098
:100B3000000103914FF0030500954FF0010301936D
:100B400008464FF0090240F2D515C0F20805A84743
:100B5000002800F08E8103A84FF00101204B984738
:100B6000002800F086811F498847002800F0818115
:100B7000039DDFF878801A4F1A4E4FF0030200925F
:100B80004FF0010301934FF0000001462A46C04791
:100B9000002800F06E8104A84FF00101B84700283A
:100BA00000F06781B047002800F063819DF81000D5
:100BB000FF2800F05E81222802D19DF81230BBB1DF
:100BC0009DF81110002900F0548101F102016D1807
:100BD000039A02F580708542CFD94AE1194708008F
:100BE000854808009D490800080B0720D50108002A
:100BF0004FF0060300934FF0010301934FF0000004
:100C000001462A46BB4DA847002800F0328104A8BF
:100C10004FF00101B84A9047002800F02A81B749F7
:100C20008847002800F025819DF81530322B28BF19
:100C30003223B348026803F00700B24951F820108C
:100C40004FF47A7000FB01F1C3F3C303AE4850F8D0
:100C5000233003FB01F1116040F60E32C2F20702AD
:100C6000107844F2D953C0F208039847032859D9A1
:100C700040F60830C2F207000168CA7B02F00403A4
:100C8000D8B230B303AD00954FF0000001464FF0ED
:100C9000080203469D4DA847002800F0EA809DF910
:100CA0000C10002915DA14AB4FF0020203F8442DA2
:100CB00000934FF001004FF000014FF00702034690
:100CC000A847002800F0D5808D4801684FF0040344
:100CD0004B7440F60832C2F207021068C17B11F073
:100CE000010F1AD0838941F237104FEA034144F2D1
:100CF0008962C0F208029047002800F0BA8041F2F1
:100D000006104FF00201824B9847002800F0B18096
:100D10007B4801684FF004024A7440F2A513C0F208
:100D20000803984744F2E550C0F2080080470028C5
:100D300000F0818040F60831C2F207010A68D37BD7
:100D400003F00400C1B259B303AD00954FF00000A9
:100D500001464FF0130203466C4DA847002800F0EF
:100D600088809DF80C2012F0010F19D014AB4FF0C1
:100D7000020003F8440D00934FF001004FF0000112
:100D80004FF013020346A847002872D05C490B6855
:100D90004FF0010283F8222018684FEA40011960E1
:100DA00040F60833C2F207031868C27B12F0010F45
:100DB0003CD0017C102939D94FF00103009341F256
:100DC0000610C0F208004FF60171C8F2FF014FF0A3
:100DD0004002504DA84700284BD004A84FF0010115
:100DE000454B9847002844D044488047002840D0CD
:100DF000494A904710F0800F3BD19DF8201001F038
:100E00000F030F2B12D09DF82D009DF82C2050EAD7
:100E100002222ED141498847394B18684FF0010210
:100E200080F8222001684FEA4103036040F2A510D8
:100E3000C0F20800804740F60832C2F2070211688B
:100E4000CB7B13F0010F06D041F210104FF400716C
:100E50002F4A904768B140F60830C2F20700036895
:100E60004FF00001997340F22922C0F20802904726
:100E70007FE040F60834C2F2070420684FF0030414
:100E8000847340F22923C0F20803984771E04FF0C1
:100E9000000601E04FF0000644F205504FF000015B
:100EA00044F28963C0F20803984700287FF441ABFD
:100EB00040F60832C2F207021168CB7B13F0010F33
:100EC0003FF44AADFFF76DBB40F60830C2F20700B1
:100ED00001684FF00203CB734FF480404FF00001E4
:100EE00044F28962C0F20802904700287FF49EAB6A
:100EF000B0E700BFD5010800854808009D490800FB
:100F0000080B0720C0C9080080C908004902080072
:100F10008946080019470800B146080065460800E0
:100F200040F60830C2F207000168CA7B12F0010FD8
:100F30007FF406AD10E545F602304FF00001384B66
:100F4000984700287FF4A9AB84E74FF0000081E7C1
:100F50004FF000007EE733490878334B9847032869
:100F60003FF666AC8DE44FF0000073E74FF00000F1
:100F700070E7204615B0BDE8F08FC8470028FFF69F
:100F800074AB41F2690606F1FF36FFF765BBC8474F
:100F90000028FFF66AAB013E7FF45EABD5E7494619
:100FA000C4F21F0144F22950002E08BF4FF4FC1177
:100FB000A847002888D0D0470028FFF61EAB40F68F
:100FC000350B0BF1FF3BFFF702BB4946C4F21F0193
:100FD00044F22950002E08BF4FF4FC11A847002806
:100FE0003FF472AFD0470028FFF607ABBBF1010B0F
:100FF0007FF4EDAA68E7C047011EFFF6C5AA384690
:1010000001F4FC11A84700283FF433AFC047011E8C
:10101000FFF6BAAAB9F102097FF4A1AA29E700BF35
:10102000894608000E0B0720D945080008B540F294
:10103000D523C0F20803984758B940F22920C0F2DE
:101040000800804740F60831C2F207010A68D07BE9
:1010500008BD4FF0000008BD08B540F2D523C0F22E
:101060000803984758B940F22920C0F20800804789
:1010700040F60831C2F207010A68506808BD4FF017
:10108000000008BD4FF00000704700BF2DE9F04F91
:1010900083B08B46924640F2D523C0F208039847AE
:1010A0008146002840F0818040F64158C0F2030894
:1010B00040F60836C2F2070641F20D1544F2896483
:1010C000C0F2080444F2B167C0F2080730688189B1
:1010D00028464FEA0141A047002846D0B84710F4FF
:1010E000807F4AD108F1FF383268938928464FEA59
:1010F0000341A04700285CD137E04FEA4B2100E0D4
:1011000059464FF0010300934FF40072534644F2E6
:101110001974C0F20804A04738B940F22921C0F27E
:10112000080188474FF005093FE044F2B160C0F282
:10113000080080474FF00001CEF25841014039B11C
:1011400040F22920C0F2080080474FF005092CE04A
:1011500040F60C32C2F20702A2F800A040F60433B7
:10116000C2F20703A3F800A01FE040F22922C0F258
:10117000080290474FF0050917E041F21110C0F244
:10118000080041F21214C0F21004BAF1010F88BF36
:10119000204640F60832C2F207021368D97B01F0FC
:1011A0000804E2B2002AABD1A7E7484603B0BDE885
:1011B000F08FB84710F4807FDFD1306881892846EE
:1011C0004FEA0141A0470028CFD0B84710F4807FF4
:1011D000D3D1B8F102087FF479AFC6E710B50C4659
:1011E00044F68503C0F20803984748B940F60C312D
:1011F000C2F207014FF000030B804FF0050010BD55
:1012000040F60C30C2F207000288141B04804FF035
:10121000000010BD08B544F69D13C0F208039847BE
:10122000002830D040F60C30C2F2070001880029B7
:101230002CD140F60432C2F207021388012B07D1E9
:1012400040F22921C0F2080188474FF0000008BD94
:1012500043F20C104FF0000144F28962C0F2080220
:10126000904740B943F20C104FF0000144F28963FB
:10127000C0F20803984740F22920C0F208008047D6
:101280004FF0000008BD4FF0050008BD4FF0000012
:1012900008BD00BFF0B583B006460F46154640F2C4
:1012A000D524C0F20804A0470446002858D130468F
:1012B00041F28503C0F20803984738B140F2292370
:1012C000C0F2080398474FF0070449E049F21810AC
:1012D000C0F2080049F21911C0F21001012D88BFB7
:1012E000084640F60832C2F207021668F37B03F0A4
:1012F0000801CAB212B94FEA472100E039464FF05F
:10130000010600964FF400722B4644F21976C0F2A3
:101310000806B04738B940F22920C0F208008047DB
:101320004FF005041CE044F2B160C0F208008047B1
:101330004FF00003CEF2584303403BB140F2292462
:10134000C0F20804A0474FF0050409E040F60C3154
:10135000C2F207010D8040F60432C2F20702158086
:10136000204603B0F0BD00BF10B50C4644F615236F
:10137000C0F20803984748B940F60C31C2F20701A1
:101380004FF000030B804FF0050010BD40F60C300D
:10139000C2F207000288141B04804FF0000010BD49
:1013A00008B544F60D33C0F20803984700282FD043
:1013B00040F60C30C2F20700018800292BD140F61C
:1013C0000432C2F207021388012B07D140F229230D
:1013D000C0F2080398474FF0000008BD43F20C101C
:1013E0004FF0000144F28962C0F20802904738B918
:1013F00040F22921C0F2080188474FF0050008BDDE
:1014000040F22920C0F2080080474FF0000008BDDC
:101410004FF0050008BD4FF0000008BDF0B48CB0DF
:1014200006460F4601AC4CF61C25C0F208050FCD50
:101430000FC40FCD0FC495E8070084E80700019B97
:10144000B7FBF3F0B0FBF6F1B1F5807F52D902990A
:10145000B7FBF1F2B2FBF6F1B1F5807F4FD9039BF8
:10146000B7FBF3F0B0FBF6F1B1F5807F4AD90499F0
:10147000B7FBF1F2B2FBF6F1B1F5807F45D9059BE0
:10148000B7FBF3F0B0FBF6F1B1F5807F40D90699D8
:10149000B7FBF1F2B2FBF6F1B1F5807F3BD9079BC8
:1014A000B7FBF3F0B0FBF6F1B1F5807F36D90899C0
:1014B000B7FBF1F2B2FBF6F1B1F5807F31D9099BB0
:1014C000B7FBF3F0B0FBF6F1B1F5807F2CD90A99A8
:1014D000B7FBF1F2B2FBF6F1B1F5807F27D90B9B98
:1014E000B7FBF3F0B0FBF6F1B1F5807F22D94FF6F0
:1014F000FF7022E04FF0000241EA02201DE04FF0B1
:101500000102F9E74FF00202F6E74FF00302F3E7BA
:101510004FF00402F0E74FF00502EDE74FF006024E
:10152000EAE74FF00702E7E74FF00802E4E74FF081
:101530000902E1E74FF00A02DEE70CB0F0BC7047A9
:1015400070B506460C46086858B1896841F21D43DB
:10155000C0F2080398474FF6FF71884214D0054641
:1015600001E04FF00005606858B1A16841F21D42EA
:10157000C0F2080290474FF6FF73984204D045EA44
:10158000004535604FF0000070BD00BF70B40B68BF
:101590004FF0010202FA03F28E8A4C6804F00F0544
:1015A0002E430C8926438D7A46EA45268C7D46EAF1
:1015B0000445CE7D45EA46450C7E45EA844603F166
:1015C00010054FEA451405190651CC686C600C698A
:1015D00000EB4315C5F80C428C7D3CB18D8B4C8BD8
:1015E00044EA054500EB4314C4F81852CD7F05FAD0
:1015F00003F58C7F04FA03F444EA0545856491F809
:10160000215005FA03F591F8204004FA03F444EA66
:101610000544446491F822401CB1046A14430462F6
:1016200003E0046A24EA0204046291F82440012CD5
:1016300003D1846E1443846606E0846E002A14BFCE
:10164000002404F00104846691F82540012C04D1A3
:10165000846E44EA0242826606E0846E120414BF7D
:10166000002204F001028266032B0FD8C46E4FEAF9
:10167000C3034FF0FF0202FA03F224EA020291F8D8
:10168000231001FA03F31A43C26610E0A3F1040326
:10169000046F4FEAC3034FF0FF0202FA03F224EA99
:1016A000020291F8231001FA03F31A4302674FF084
:1016B000000070BC704700BF10B40C680B69934207
:1016C00007D3CA6000EB4410C0F808224FF00000B6
:1016D00001E04FF6FF7010BC704700BF4FF00103F0
:1016E00003FA01F1416070474FF0010303FA01F181
:1016F0008160704702F110024FF0010303FA02F219
:1017000003FA01F10A434261704700BF012905D184
:10171000836843F0254141F480128260036843F0FE
:10172000254141F008020260704700BF10B44FEA43
:10173000811143184FF0020444504FF0FF3098627B
:10174000196A5A6010BC7047C0F8C410704700BFD7
:101750004FEA81114FF00503435070474FEA811162
:101760004FF002034350704700EB81110869704746
:1017700000EB81118A61704700EB8111CA617047EB
:1017800000EB81114A62704700EB8111086A7047D3
:1017900070B487B04FF0020401944FF00805029531
:1017A0004FF0200403944FF0800504950A9C4FEA03
:1017B000D43405944FEA5145B0EB510F3ED8A842BE
:1017C00051D24FF00806B1FBF6F54FEA1546A84294
:1017D00037D8B0421ED24FF02005B1FBF5F54FEAE5
:1017E0001546A84230D8B04217D24FF08006B1FB60
:1017F000F6F54FEA1546A84229D8B04210D2B1FBFF
:10180000F4F14FEA1144814224D3844298BF042169
:101810002BD922E04FF0010127E04FF0020124E034
:101820004FF0030121E006AC04EB810050F8140CEA
:101830001060ABB119604FF0010019E04FF00000EB
:1018400016E04FF0000013E04FF0000010E04FF002
:1018500000000DE04FF000000AE04FF0000007E04C
:101860004FF0010004E04FF00001002ADBD1E0E777
:1018700007B070BC704700BF4FF0080303604FF023
:10188000200101604FF00402026070474FF4D4530E
:10189000C0F20603994245D84FEA4101B2FBF1F28A
:1018A000A2F10402FF2A2ED94FEA5202FF2A18D9C8
:1018B0004FEA5202FF2A17D94FEA5202FF2A16D9DD
:1018C0004FEA5202FF2A15D94FEA5202FF2A14D9D1
:1018D0004FEA5202FF2A13D94FEA52024FF0070390
:1018E00013E04FF0010310E04FF002030DE04FF062
:1018F00003030AE04FF0040307E04FF0050304E0A0
:101900004FF0060301E04FF000034FEA02614FEA97
:10191000034343EA1141D2B241EA020303614FF0AB
:10192000000070474FF00100704700BF4FF0800388
:101930000360036B704700BF38B504460D464FF097
:10194000FF338362036A41F62D11C0F20801884714
:10195000204641F67902C0F20802904720466968A5
:101960002A6841F68D03C0F208039847012814BF86
:1019700000200120697A012904BF4021216038BD7F
:101980004FF400434360704770B54FF02B004FF0A9
:10199000006147F2F934C0F20804A0474FF02A0072
:1019A0004FF00061A0474FF014004FF00061A047D6
:1019B0004FF013004FF00061A0474FF015004FF0BB
:1019C0000061A0474FF016004FF00061A0474FF0B4
:1019D00017004FF00061A0474FF018004FF0006172
:1019E000A0474FF067004FF00801A0474FF01600E6
:1019F00047F21D76C0F20806B0474FF011004FF0D5
:101A00000061A0474FF012004FF00061A0474FF077
:101A10000C00B0474FF48055C4F20E054FF08073B0
:101A20002B61C5F8A0306B634FF46064C4F20E0400
:101A30004FF48050206660656062C4F88000226FB9
:101A40000243226760604FF00101216661656162B7
:101A5000C4F88010236F0B43236761604FF400507C
:101A6000206660656062C4F88000226F02432267CE
:101A700060604FF00C00B0474FF400016961C5F899
:101A8000A010696669652962C5F884102B6F23F47C
:101A9000000028674FF00E00B0474FF4A055C4F285
:101AA0000E054FF480626A61C5F8A0206A666A6517
:101AB0002A62C5F88420296F21F480632B674FF0D8
:101AC0000B00B0474FF020002061C4F8A000606315
:101AD0004FF00B00B0474FF080022261C4F8A02005
:101AE00022634FF00B00B0474FF002016161C4F870
:101AF000A010216661652162C4F88410236F23F071
:101B0000020020674FF00E00B0474FF480726A6108
:101B1000C5F8A0202A666A652A62C5F88420296F64
:101B200021F480732B674FF00E00B0474FF4007024
:101B30002861C5F8A000686370BD00BF4FF49053E2
:101B4000C4F20E034FF020025A634FF08000586336
:101B50004FF4007159634FF400125A634FF480013F
:101B600059634FF400025A634FF0807159634FF08C
:101B700000725A634FF0806159634FF48053C4F28E
:101B80000E0358634FF0400058634FF480725A635D
:101B9000704700BF4FF48053C4F20E034FF480022D
:101BA0005A6340F23000C2F207004FF00101018099
:101BB000704700BF4FF48053C4F20E034FF480020D
:101BC0001A6340F23000C2F207004FF000010180BA
:101BD000704700BF40F23003C2F207031888704715
:101BE00010B54FF4D350C4F20E0045F22103C0F2F9
:101BF0000803984710F0040F20D04FF4D354C4F2D8
:101C00000E0420464FF0040145F21D02C0F2080206
:101C1000904749F6D530C0F20800804720464FF083
:101C2000040145F22503C0F20803984720464FF00F
:101C3000040145F21902C0F20802904710BD00BF2E
:101C400030B583B04FF00004C4F2080420464FF0D2
:101C5000000141F28973C0F20803984749F6E53064
:101C6000C0F2080080474FF48040C4F208004FF0F3
:101C7000020141F26975C0F20805A84701902046AB
:101C80004FF00101A847009041F2C861C2F207017C
:101C90000A68BAB141F2C863C2F20703196840F694
:101CA0001032C2F207021068019B091801F101010C
:101CB000CA184FF0000341F2C060C2F20700C0E949
:101CC00000230EE0019840F61033C2F207031968B2
:101CD000421A4FF0000341F2C060C2F20700C0E9AF
:101CE000002341F2CC63C2F207031968C1B141F28B
:101CF000CC62C2F20702116840F61433C2F2070345
:101D00001868009A091801F101018B181A464FF062
:101D1000000341F2D060C2F20700C0E900230FE0E7
:101D2000009A40F61430C2F207000368D11A0A463E
:101D30004FF0000341F2D060C2F20700C0E9002377
:101D4000019A40F61031C2F207010A60009840F68D
:101D50001433C2F2070318604FF0000141F2C86269
:101D6000C2F20702116041F2CC60C2F207000160CA
:101D700003B030BD08B54FF00000C4F208004FF0CA
:101D8000010141F28973C0F20803984740F614300C
:101D9000C2F2070001686FEA010341F2CC62C2F2AD
:101DA000070213604FF00001016008BD08B54FF451
:101DB0008040C4F208004FF0020141F28973C0F282
:101DC0000803984740F61030C2F2070001686FEA36
:101DD000010341F2C862C2F2070213604FF0000132
:101DE000016008BD08B54FF00000C4F208004FF0D4
:101DF000020141F28973C0F20803984741F63D3071
:101E0000C0F20800804708BD41F2C063C2F2070378
:101E1000D3E9002310461946704700BF41F2D06352
:101E2000C2F20703D3E9002310461946704700BFEA
:101E300010B54FF4D354C4F20E0420464FF0000105
:101E400045F20103C0F20803984741F61020C4F29E
:101E50000E004FF0000141F20D72C0F208029047EF
:101E60004FF46140CEF200004FF00401C0F8801042
:101E7000C0F880110160204645F21903C0F2080342
:101E8000984710BD10B540F61A33C2F20703188800
:101E900000283ED14FF0200047F21D71C0F208012A
:101EA00088474FF48044C4F2080420464FF00201F2
:101EB00048F2070241F22D73C0F20803984720460A
:101EC0004FF0000141F24972C0F2080290472046EB
:101ED0004FF002014FF0010241F28173C0F208039A
:101EE000984720464FF0020141F25172C0F20802B9
:101EF00090474FF46140CEF200004FF00101C0F86E
:101F00008410C0F88411416040F61A33C2F207030E
:101F1000198010BD10B540F61833C2F207031888B7
:101F200000283FD14FF01C0047F21D71C0F208019C
:101F300088474FF00004C4F2080420464FF0010126
:101F400048F2060241F22D73C0F20803984720467A
:101F50004FF0000141F24972C0F20802904720465A
:101F60004FF001010A4641F28173C0F2080398471D
:101F700020464FF0010141F25172C0F20802904731
:101F80004FF46140CEF200004FF08051C0F8801055
:101F9000C0F88011016040F61833C2F207034FF019
:101FA00001021A8010BD00BF08B541F68563C0F27A
:101FB0000803984741F61570C0F20800804708BD35
:101FC00008B54FF48040C4F208004FF0020141F21E
:101FD0005D73C0F20803984740F61A30C2F207005A
:101FE0004FF00002028008BD08B54FF00000C4F2B7
:101FF00008004FF0010141F25D73C0F208039847F9
:1020000040F61830C2F207004FF00002028008BD0F
:1020100008B541F6C173C0F20803984741F6E9706C
:10202000C0F20800804708BD40F61A33C2F2070329
:102030001888704740F61833C2F2070318887047B3
:102040002DE9F04F85B041F63163C0F2080398479F
:102050004FF00D0047F21D74C0F20804A0474FF482
:102060009056C4F20E064FF00055356675657562E0
:10207000C6F88050306F2843306775604FF4805742
:10208000C4F20E074FF4804179604FF00C00A04776
:102090004FF48009C7F81090C7F8A090C7F83490A3
:1020A0004FF00B00A0474FF46068C4F20E084FF4E5
:1020B0008062C8F81020C8F8A020C8F830204FF07F
:1020C0000D00A0474FF080537361C6F8A0304FF069
:1020D0000C00A0474FF0800AC7F810A0C7F8A0A0D6
:1020E000C7F830A04FF00C00A0474FF04000386117
:1020F000C7F8A00038634FF00C00A0474FF4807180
:102100003961C7F8A01039634FF00D00A0474FF0B8
:1021100020023261C6F8A02032634FF00D00A047C4
:10212000C6F810A0C6F8A0A0C6F830A04FF00D0069
:10213000A0474FF400733361C6F8A03033634FF00B
:102140000D00A0474FF400103061C6F8A0003063C6
:102150004FF00D00A047C6F81090C6F8A090C6F842
:1021600030904FF00D00A0474FF400013161C6F8E8
:10217000A01031634FF00D00A0474FF08072326124
:10218000C6F8A02032634FF00D00A0474FF0007357
:102190003361C6F8A03033634FF00D00A0474FF015
:1021A00080603061C6F8A00030634FF01009C8F8B5
:1021B0006090C8F85490C8F82490C8F88090D8F877
:1021C000701021F01002C8F87020C8F804904FF485
:1021D00080333B667B657B62C7F88030386F20F4C4
:1021E000803139677B604FF0006BC6F860B0C6F88D
:1021F00054B0C6F824B0C6F880B0376F47EA0B0277
:102200003267C6F804B0356675657562C6F88050E9
:10221000336F2B43336775604FF01B00A0474FF0BF
:102220000006C4F2080630464FF000014CF20502E9
:1022300041F22D7AC0F2080AD04730464FF0000133
:1022400042F2A052C0F2260241F27977C0F20807AA
:10225000B84730464FF0000141F24972C0F208021F
:10226000904730464FF000014A4641F28173C0F278
:102270000803984730464FF0000141F25177C0F211
:102280000807B8474FF46147CEF20007C7F880B09F
:10229000C7F880B1C7F800B04FF01D00A0474FF459
:1022A0003D48C0F20158CDF800804FF0140041467F
:1022B00003AA02AB41F2917BC0F2080BD84730462B
:1022C0004FF00201029A42F48042D0470398B8FBD3
:1022D000F0F14CF6CD43CCF6CC43A3FB01123046D3
:1022E0004FF002014FEA121241F27973C0F2080373
:1022F000984730464FF0020141F25172C0F2080295
:102300009047C7F88050C7F880513D6030464FF085
:1023100002014A4641F28175C0F20805A84740F221
:102320003405C2F207054CF2503028604FF022000D
:10233000A0472868CDF80080414603AA02ABD847E1
:102340004FF40044C4F20804029941F0C0632046EF
:102350004FF0010143F44442D04720464FF00101C1
:102360004FF0020241F27173C0F208039847039ADA
:10237000B8FBF2F22B6820464FF00101B2FBF3F2FA
:1023800041F27973C0F20803984720464FF00101EB
:1023900041F25172C0F2080290474FF00400C7F8B2
:1023A0008400C7F8840105B0BDE8F08FF0B585B0B2
:1023B00040F23406C2F2070630604FF40044C4F223
:1023C000080420464FF0010141F25D73C0F208039A
:1023D000984730684FF43D45C0F2015500952946B5
:1023E00003AA02AB41F29177C0F20807B847029AFC
:1023F00042F0C06320464FF0010143F4444241F2F1
:102400002D73C0F20803984720464FF001014FF0AA
:10241000020241F27173C0F2080398470398B5FBBA
:10242000F0F2336820464FF00101B2FBF3F241F2C3
:102430007973C0F20803984720464FF0010141F23A
:102440005172C0F20802904705B0F0BD40F234036B
:10245000C2F2070318687047704700BF704700BF9B
:1024600038B541F2D864C2F207044FF43D43C0F2DC
:10247000015323604FF4D450C0F2060060604FF067
:10248000500121724FF0000262724FF44045C4F2D5
:102490000805284641F67903C0F208039847284604
:1024A000214641F63912C0F20802904738BD00BFFC
:1024B0002DE9F04F85B04FF0240047F21D73C0F2B4
:1024C000080398474FF48044C4F2090420464FF0B3
:1024D000010141F2E965C0F20805A84720464FF026
:1024E0000301A84720464FF00201A8474FF47A2085
:1024F00001904FF43D41C0F20151029103912046F9
:1025000001A941F24152C0F20802904741F2F8613C
:10251000C2F207014FF000050D814FF001068E72E7
:102520004FF00B0BC1F804B04FF4806AC1F810A053
:10253000CD600E60204641F28D59C0F20809C847AF
:10254000204631462A4641F2F568C0F20808C047E5
:1025500041F24871C2F207010D818E72C1F804B0D8
:10256000C1F810A0CD604FF003070F602046C847A8
:10257000204639462A46C04741F220731946C2F226
:1025800007010D814FF000008872C1F804B0C1F856
:1025900010A0CD604FF0020AC1F800A02046C84745
:1025A000204651462A46C0472046314641F2DD6565
:1025B000C0F20805A84720463946A847204651469C
:1025C000A84705B0BDE8F08FF8B503460E4617469C
:1025D0004FF48044C4F20904204641F2F861C2F28B
:1025E00007011A4641F2B965C0F20805A84720461E
:1025F00041F24871C2F207013A46A847204641F22B
:102600002071C2F207013246A847F8BD4FF480534B
:10261000C4F20E03D86B80F40001C1F3C0507047C0
:102620004FF4A053C4F20E03D86BC0F300207047E0
:102630004FF4A053C4F20E034FF400721A637047B4
:102640004FF4A053C4F20E034FF400725A63704764
:1026500008B540F62C43C2F20703C362184642F69F
:102660008101C0F20801884708BD00BF08B5C06AF3
:1026700042F69103C0F20803984708BD00B583B045
:1026800002A94FF0000321F8023DC06A42F69D0204
:10269000C0F208029047BDF9060003B000BD00BFBC
:1026A00000B583B002A94FF0000321F8023DC06AD3
:1026B00042F63912C0F208029047BDF9060003B095
:1026C00000BD00BF38B505460C46C06A42F6DD03C2
:1026D000C0F20803984714F1630F0CDA14F1C70F26
:1026E00009DB28464FF002014FF0200242F6E923B1
:1026F000C0F20803984714F1C70F0CDA14F5967F5F
:1027000009DD28464FF002014FF0100242F6E9239E
:10271000C0F20803984714F5967F0CDC14F5C87FC7
:1027200009DD28464FF002014FF0080242F6E92386
:10273000C0F20803984714F5C87F0CDC14F5FA7F43
:1027400009DD28464FF002014FF0040242F6E9236A
:10275000C0F20803984714F5FA7F0CDC14F5167FD5
:1027600009DD28464FF002014FF0800242F6E923CE
:10277000C0F20803984714F5167F0CDC14F52F7F80
:1027800009DD28464FF002014FF0400242F6E923EE
:10279000C0F20803984714F52F7F0BDC14F5487F2F
:1027A00008DD28464FF002010A4642F6E923C0F24E
:1027B0000803984714F5487F0CDC14F5617F09DDA8
:1027C00028464FF002014FF0010242F6E923C0F221
:1027D0000803984755B1E86920B1026812B128464C
:1027E000214690474FF0010185F8281038BD00BF01
:1027F00010F16D0F2BD009DC10F1830F2CD010F1EC
:10280000710F1AD010F18A0F30D12AE010F1670F42
:102810000ED003DC10F16C0F28D113E010F1660F1D
:1028200029D0002822D14DF2B010C0F20800704724
:102830004DF2CC10C0F2080070474DF2E010C0F22B
:10284000080070474DF2F410C0F2080070474DF2D6
:102850000C20C0F2080070474DF22020C0F20800A2
:1028600070474DF23020C0F2080070474DF244200E
:10287000C0F2080070474DF2BC10C0F2080070476B
:102880004FF00003038043804FF0100181807047B8
:102890004FF0000303804380704700BF10B44388AB
:1028A000B0F900401AB2944214D019B100EB4202C0
:1028B000D3880B80B0F9022002F10102B0F9043094
:1028C00003F1010392FBF3F103FB112242804FF06D
:1028D000010001E04FF0000010BC704738B504461D
:1028E0000D46B0F90430B0F90010B0F90220D2184A
:1028F00003F1010392FBF3F003FB1023994207D18C
:1029000020464FF0000142F69D02C0F208029047B7
:10291000B4F9000004EB4001CD8000F10100B4F9EE
:10292000043003F1010390FBF3F203FB120020805B
:102930004FF0010038BD00BF02884388D21A92B21E
:1029400093B20B8013F4004F04D0808800F1010093
:1029500012180A804FF00100704700BF072904D801
:10296000036B2BB133F8110070474FF00000704734
:102970004FF00000704700BF70B505460C46164684
:1029800042F65D13C0F20803984720EA0602284683
:10299000214692B242F6D513C0F20803984770BDA3
:1029A00070B505460E461C46114642F65D13C0F250
:1029B00008039847304228464FF00001224619BFCD
:1029C00042F6E923C0F2080342F67913C0F2080385
:1029D000984770BDF8B505460C461646072900F223
:1029E0008180036B002B7DD033F8117023F8142005
:1029F000072957D8DFE801F004151D28434E303B66
:102A00004FF0010142F65D12C0F2080290474FF606
:102A1000BF713140014252D046F04006B74253D117
:102A20004EE04FF0000142F61133C0F20803984720
:102A300046E011464FF003024FF0200342F6A11783
:102A4000C0F20807B8473BE04FF0020142F61132EE
:102A5000C0F20802904733E011464FF007024FF0F2
:102A6000080342F6A117C0F20807B84728E04FF064
:102A7000060142F61132C0F20802904720E01146EA
:102A80004FF005024FF0800342F6A117C0F208078D
:102A9000B84715E04FF0040142F61133C0F20803C5
:102AA00098470DE0006B20F81420F8BDE969C9B122
:102AB0008B68BBB128464FF001019847F8BD0E4620
:102AC000286B20F81460F8BD2B6B23F8146028469F
:102AD0004FF0000142F65D12C0F208029047024634
:102AE000002DE3D1F8BD00BF70B505460C46164673
:102AF00042F65D13C0F20803984740EA06022846F2
:102B0000214692B242F6D513C0F20803984770BD31
:102B100038B505460C4642F65D13C0F208039847E7
:102B200002462846214642F6D513C0F208039847CC
:102B300038BD00BF08B54FF002014FF0000242F669
:102B4000D513C0F20803984708BD00BF38B5044646
:102B500042F63533C0F208039847204642F26D61D1
:102B6000C0F20801884720464FF004014FF00002F0
:102B700042F6D515C0F20805A84720464FF00601D9
:102B80004FF00002A8474FF0010038BD10B582B0E9
:102B9000044601A94FF0010243F27133C0F2080369
:102BA000984748B120464FF00301BDF8042042F693
:102BB000D513C0F2080398474FF0010002B010BDD2
:102BC00010B504464FF0030142F65D13C0F208034E
:102BD00098470146204643F25922C0F20802904726
:102BE0004FF0010010BD00BF10B504464FF00201C8
:102BF00042F65D13C0F2080398470146204643F2AF
:102C00005922C0F20802904720464FF002014FF0CF
:102C1000000242F6D513C0F2080398474FF00100B6
:102C200010BD00BF38B505464DF25421C0F2080171
:102C300043F21924C0F20804A04728464DF25C2153
:102C4000C0F20801A04728464DF27C21C0F20801DD
:102C5000A0474FF0010038BD08B54FF002014FF01A
:102C6000010242F6E923C0F2080398474FF0010041
:102C700008BD00BF08B54FF0010143F25923C0F26F
:102C8000080398474FF0010008BD00BF08B528B100
:102C9000C36933B1196939B1884707E04FF00100C2
:102CA00004E04FF0010001E04FF0010040B208BD28
:102CB00010B582B0044601A94FF0010243F271330E
:102CC000C0F20803984748B120464FF00101BDF813
:102CD000042042F6D513C0F2080398474FF00100D4
:102CE00002B010BD10B504464FF0010142F65D136D
:102CF000C0F2080398470146204643F25922C0F229
:102D0000080290474FF0010010BD00BF10B5044607
:102D10004FF0000142F65D13C0F2080398470146E8
:102D2000204643F25922C0F2080290474FF00100BA
:102D300010BD00BF10B5044630B1C3693BB159693D
:102D400041B18847014607E04FF0000104E04FF031
:102D5000000101E04FF00001204643F25922C0F289
:102D6000080290474FF0010010BD00BF4FF0010076
:102D7000704700BF08B54DF2BC51C0F2080143F2E4
:102D80001923C0F2080398474FF0010008BD00BFA7
:102D900008B54DF27C21C0F2080143F21923C0F2BC
:102DA000080398474FF0010008BD00BF38B504463E
:102DB00042F27D63C0F20803984705462046294643
:102DC00043F25922C0F208029047284642F2F171BC
:102DD000C0F2080188470146204643F2A123C0F211
:102DE000080398474FF0010038BD00BF10B50446F6
:102DF00042F2A163C0F2080398470146204643F21D
:102E00005922C0F2080290474FF0010010BD00BFE8
:102E100010B504464FF0060142F65D13C0F20803F8
:102E200098470146204643F25922C0F208029047D3
:102E300020464FF006014FF0000242F6D513C0F2D3
:102E4000080398474FF0010010BD00BF10B50446BD
:102E50004FF0070142F65D13C0F2080398470146A0
:102E6000204643F25922C0F2080290474FF0010079
:102E700010BD00BF10B582B0044601A94FF0010299
:102E800043F27133C0F20803984748B120464FF02F
:102E90000701BDF8042042F6D513C0F20803984795
:102EA0004FF0010002B010BD08B54FF006014FF021
:102EB000000242F6D513C0F2080398474FF0010014
:102EC00008BD00BF08B5C3695B68984708BD00BF6F
:102ED00008B5036A002B0BDD4DF28421C0F2080116
:102EE0004FF0020242F6C563C0F20803984708BDDE
:102EF0004FF0000008BD00BF8369994228BF194602
:102F0000426952184261591A8161704710B50446EE
:102F10004069A16943F25973C0F20803984701461A
:102F2000204642F6F962C0F20802904710BD00BF89
:102F300038B504460D4642F60D73C0F208039847B3
:102F4000A06960B9002D31D020466FF06C0142F2CB
:102F5000C562C0F2080290474FF0000038BD616AB8
:102F6000E9B1626913782C2B0ED120464FF0010194
:102F700042F6F963C0F208039847204642F60D7105
:102F8000C0F2080188470AE020466FF0660142F26D
:102F9000C562C0F2080290474FF0000038BD606A79
:102FA00000F1010060624FF0010038BD4FF00000F9
:102FB00038BD00BF08B54DF28822C0F2080243F2C6
:102FC000E933C0F20803984708BD00BF2DE9F04F70
:102FD00083B001EB020B0746002800F09E805945A4
:102FE00080F09E800D4642F2C563C0F20803019353
:102FF0002C46C5EB0B0828464146514A43F2E936B8
:10300000C0F20806B04708B1461B00E04646284615
:10301000414642F6B572C0F20802904710B1001B5B
:10302000009001E0CDF80080002E5FD0D7F800902E
:10303000D9F80000002876D04FF0080443F6AD0A16
:10304000C0F2080A29463246D04790B1C7F810901E
:10305000AB197B610098861BBE614FF0000487F8B6
:1030600028404FF0000139627962D9F804204AB94A
:1030700014E0396801EB0409085904F10804002838
:10308000E0D150E038469047012807D097F8283023
:1030900023B938466FF0C701019CA047386A002861
:1030A00011DD38464DF2A051C0F208014FF0020286
:1030B00042F6C563C0F208039847F96919B1CA68B6
:1030C0000AB138469047384642F60D74C0F20804FB
:1030D000A047B86968B197F828306BB938466FF0E7
:1030E0006B01019A90474FF0010407E04FF0000494
:1030F00004E04FF0010401E04FF00104284641468E
:1031000042F6B573C0F208039847454408B100F190
:103110000105AB453FF66CAF0DE04FF0FF340AE020
:103120004FF0000407E038466FF07001019A9047B5
:103130004FF00004E2E7204603B0BDE8F08F00BF87
:103140008CD2080008B54FF00002826042F2516153
:10315000C0F20801884708BDF8B50446154672B9A3
:10316000C16882684FF000068E54E168A26842F69A
:10317000CD75C0F20805A8470546A66049E08368FA
:10318000426802F1FF30C21A95423DD8E768F8184C
:103190002A464AF2A563C0F208039847A1686D1851
:1031A000A560E0684FF000024255E068A16843F274
:1031B0005977C0F20807B8470546E368A1681818B0
:1031C000491B4DF2A052C0F2080243F2E937C0F2A7
:1031D0000807B8470746D0B1E268861A2046511959
:1031E000721B42F6CD75C0F20805A8470546A368D4
:1031F000E06839469A1B4AF2B763C0F20803984761
:10320000A068861BA66004E04FF0FF3501E04FF098
:1032100000052846F8BD00BFF8B504460D4608462F
:103220004AF2B173C0F2080398470746204642F6B7
:10323000D161C0F2080188470646204629463A4631
:1032400042F6C563C0F208039847226A02F1010200
:1032500022628019F8BD00BF70B584B004460846EC
:1032600001A94FF00C0243F23543C0F2080398471E
:103270000646204642F6D161C0F20801884705465D
:10328000204601A9324642F6C563C0F208039847BA
:10329000226A02F101022262401904B070BD00BF2F
:1032A0002DE9F04104460F4642F6D163C0F208030F
:1032B000984780464DF2F456C0F208062046314643
:1032C0004FF0010242F6C565C0F20805A8478044E8
:1032D00038464AF2B171C0F20801884702462046DA
:1032E0003946A84708EB0007204631464FF0010257
:1032F000A847226A02F1010222623818BDE8F08173
:1033000070B582B0044615460E4619B32AB3194665
:1033100042F63173C0F20803984708B36069A169A7
:10332000324601AB43F28956C0F20806B047D0B12D
:103330002046019942F6F962C0F208029047204601
:1033400042F60D71C0F208018847019828604FF0DD
:1033500001000AE04FF0000007E04FF0000004E039
:103360004FF0000001E04FF0000002B070BD00BF60
:1033700070B582B0044613460E46E1B101A96A4613
:1033800043F20135C0F20805A847B8B101983146AB
:1033900043F23D53C0F2080398470099884210D089
:1033A00020466FF0890142F2C562C0F208029047E0
:1033B0004FF0000007E04FF0000004E04FF0000085
:1033C00001E04FF0010002B070BD00BFA0F10203A8
:1033D000D9B2022904D9D0F1010038BF00207047CA
:1033E0004FF00100704700BF70B4411888421AD0F6
:1033F000034613F8016B36B94FF0000018E0B542F0
:1034000002D115E02346144614F8015B002DF6D1D5
:103410008B420BD01C4614F8016B1846002EF1D1DC
:103420004FF0000004E04FF0000001E04FF000001A
:1034300070BC7047F0B4034638B9002A55D04FF03D
:10344000300008704FF0010049E0002808DAC0F1B0
:10345000000342B14FF02D0008704FF0010004E06E
:103460004FF0000001E04FF000001D464CF6FF1445
:10347000C3F69A34A34210D84FF44A43C3F69A33A2
:103480004CF6CD46CCF6CC46A6FB03434FEAD3031D
:10349000B5FBF3F4002CF7D003E04FF44A43C3F636
:1034A0009A33824233D9B5FBF3F6F6B24CF6CD47E8
:1034B000CCF6CC476FEA0004A41814F0010F28D111
:1034C00006F130040C5400F10104204603FB1655AC
:1034D000A7FB0363DB0802D0A24209D817E09042A1
:1034E00015D24FF000020A5411E04FF000000EE038
:1034F000B5FBF3F0C6B206F13000085504F1010047
:1035000003FB1655A7FB0343DB0813D1E7E7F0BC29
:10351000704706F130040C5400F1010003FB16550E
:10352000A7FB0363DB08DAD08242F0D9B5FBF3F6E0
:10353000F6B2C5E7B5FBF3F6F6B2C1E730B583B036
:1035400004460D4601A94FF000024AF65913C0F295
:103550000803984728600198001B03B030BD00BFE6
:1035600010B50C4699420BD1114622464AF2C1735E
:10357000C0F208039847D0F1010038BF002010BD09
:103580004FF0000010BD00BF2DE9F04F83B006469C
:10359000019299460B4600293ED040F2A422C2F285
:1035A0000702D2F800E04FF001054FF00004274673
:1035B000A0464FF0020B6FEA0401C9182940005DD4
:1035C0002246002C4FD062E0315D12B1022A1BD19D
:1035D0000FE00EEB0100407800F00800C0B210B11F
:1035E0002F46A84610E02C291BD0A0462F465A464D
:1035F0000AE02C2918D00EEB0100417801F00800F8
:10360000C1B2002908BF2F4604F1010405F10105EC
:10361000315D002A76D089E04FF00007B8463A467F
:1036200004E04FF0040201E04FF00402104643F2C0
:10363000CD33C0F20803984768B1019A0AB14644F5
:103640001660B9F1000F09D0C8EB0707C9F8007080
:103650004FF0010004E04FF0000001E04FF00100E6
:1036600003B0BDE8F08F0EEB000C9CF801C00CF02D
:10367000080C5FFA8CFCBCF1000F05D12C28D0D0CF
:10368000A0462F465A460EE02F46A8460BE0022CD5
:1036900009D12C28C8D07044407800F00800C0B28E
:1036A000002808BF2F4604F1010405F101059C42E2
:1036B000BCD0002988D0315D7AB90EEB010040788A
:1036C00000F00800C0B228B92C29AAD0A0462F4685
:1036D0005A460FE02F46A8460CE0022A0AD12C29B0
:1036E000A2D00EEB0100417801F00800C1B2002920
:1036F00008BF2F4604F1010405F101059C427FF447
:1037000063AF93E70EEB010A9AF801A00AF0080AEA
:103710005FFA8AFABAF1000F05D12C2981D0A046B0
:103720002F465A460FE02F46A8460CE0022A0AD13F
:103730002C293FF479AF7144497801F00801C9B2EE
:10374000002908BF2F4604F1010405F101059C4240
:103750007FF43AAF6AE700BF70B40E4611B340F28F
:10376000A423C2F207031C6801786218537803F09F
:103770000801CAB2C2B103464FF0000016F0010FB3
:1037800009D115E013F8015F61194D7805F00801C2
:10379000CDB2CDB90AE000F101021046B242F1D13A
:1037A000304603E0084601E04FF0000070BC70476F
:1037B00000F1010013F8011F6218517801F00802AE
:1037C000D1B20029E7D1F1E702F1010013F8012F8E
:1037D000A1184A7802F00801CAB2002ADBD1E5E755
:1037E0002DE9F047804691469A468E4621B30378EC
:1037F0002BB340F2A422C2F207021068C1184C7821
:1038000004F00305022D1DD042464FF000041EF0C7
:10381000010F07D12FE0C719797801F00305022DB8
:1038200036D111E004F10106344676450CD012F889
:10383000017F002FEFD107E04FF0000404E04FF0CC
:10384000000401E04FF00004404671464A465346EA
:1038500043F26155C0F20805A84730B940462146F9
:103860004A4653462C46A84701E04FF0010000F0BD
:103870000100BDE8F08704F1010412F8013F002BBC
:10388000E2D0C1184D7805F00303022BCAD1DBE763
:1038900006F1010412F8013F002BD5D0C1184D7874
:1038A00005F00303022BBDD1CEE700BF2DE9F84F91
:1038B00005460C4616464AF2B173C0F20803984713
:1038C00005EB0009204631464AF63302C0F20802F1
:1038D000904704EB000A20783A2808BF01344DF2E3
:1038E000FC4BC0F2080B43F2E938C0F20808C5EB04
:1038F0000907284639465A46C04700B1471BC4EB62
:103900000A06204631461B4AC04700B1061B28461E
:1039100039462246334643F2E17CC0F2080CE047C8
:10392000C0B1ED19A4194D4505D1A2458CBF0020A9
:103930000120BDE8F88FA24510D92878227882426C
:1039400010D13A2801D03F2810D105F1010504F12A
:103950000104CCE74FF00000BDE8F88F4FF0000005
:10396000BDE8F88F4FF00000BDE8F88F4FF0000081
:10397000BDE8F88F04D50800F8B54DF20857C0F23D
:10398000080741F67035C2F207053C460FCC2860A7
:103990006960AA60EB6005F110052E460FCC286027
:1039A0006960AA60EB60274623782B7441F670307B
:1039B000C2F2070044F68531C0F2080188474FF093
:1039C0000100F8BDF8B54DF20857C0F2080741F6FE
:1039D0007035C2F207053C460FCC28606960AA60CA
:1039E000EB6005F110052E460FCC28606960AA60D7
:1039F000EB60274623782B7441F67030C2F2070043
:103A000044F68531C0F2080188474FF00100F8BD47
:103A1000F8B54DF20857C0F2080741F67035C2F20A
:103A200007053C460FCC28606960AA60EB6005F191
:103A300010052E460FCC28606960AA60EB6027460F
:103A400023782B7441F67030C2F2070044F68531BA
:103A5000C0F2080188474FF00100F8BD08B541F6F3
:103A60007032C2F207024DF22C53C0F2080303CBAE
:103A700010605160104644F68531C0F20801884755
:103A80004FF0010008BD00BF08B541F67033C2F227
:103A900007034DF23452C0F2080210681860918892
:103AA000927999809A71184644F68533C0F20803DA
:103AB00098474FF0010008BD08B541F67033C2F2D7
:103AC00007034DF23C52C0F20802106818601179E9
:103AD0001971184644F68533C0F2080398474FF031
:103AE000010008BD08B541F67033C2F207034DF27C
:103AF0003C52C0F20802106818601179197118461A
:103B000044F68533C0F2080398474FF0010008BD22
:103B100008B541F67033C2F207034DF24452C0F2C9
:103B2000080210681860184644F68531C0F2080192
:103B300088474FF0010008BD08B541F67033C2F266
:103B400007034DF24452C0F208021068186018468C
:103B500044F68531C0F2080188474FF0010008BDE6
:103B600008B542F20D63C0F208039847012811D14D
:103B700041F67032C2F207024DF24853C0F2080318
:103B800003CB10605160104644F68531C0F2080145
:103B9000884712E041F67032C2F207024DF25053EC
:103BA000C0F2080303CB10605160188810811046E2
:103BB00044F68531C0F2080188474FF0010008BD86
:103BC0004FF00100704700BF4FF00100704700BF89
:103BD00030B583B001A96A464FF0010343F20134C6
:103BE000C0F20804A047002839D0009C012C39D924
:103BF000019D28464DF25C51C0F208014FF00202CF
:103C00004AF60503C0F20803984760B942F23163EF
:103C1000C0F20803984742F25940C0F208008047BA
:103C20004FF0010026E0022C1FD928464DF26051CA
:103C3000C0F208014FF003024AF60503C0F2080380
:103C40009847A8B942F25D41C0F20801884742F2A4
:103C50004162C0F2080290474FF001000AE04FF0C5
:103C6000FF0007E04FF0010004E04FF0FF0001E02B
:103C70004FF0FF0040B203B030BD00BF2DE9F04768
:103C800084B0044603A94FF0010243F27133C0F23D
:103C900008039847002846D0204602A94FF00102A9
:103CA00043F27133C0F20803984700283ED0204603
:103CB00001A94FF0010243F27133C0F208039847A3
:103CC000002836D04AF26549C0F208090398C8476F
:103CD0004AF24D18C0F20808C04706460F4602983F
:103CE000C847C04704460D460198C847C0478046AC
:103CF00089464AF2515AC0F2080A30463946D0473E
:103D000086B220462946D04784B240464946D0472D
:103D100082B23046214642F2C953C0F208039847A6
:103D20004FF0010007E04FF0FF0004E04FF0FF000C
:103D300001E04FF0FF0040B204B0BDE8F08700BFE3
:103D400000B583B001A94FF0010243F27133C0F214
:103D500008039847C0B101984AF26541C0F20801D2
:103D600088474AF24D12C0F2080290474AF2515376
:103D7000C0F20803984780B249F66541C0F20801D5
:103D800088474FF0010001E04FF0FF0040B203B060
:103D900000BD00BF08B541F6A973C0F208039847FB
:103DA0004FF0010008BD00BF08B542F21103C0F298
:103DB000080398474FF0010008BD00BF08B549F659
:103DC000F533C0F2080398474FF0010008BD00BF6B
:103DD00008B549F60543C0F2080398474FF00100C3
:103DE00008BD00BF08B541F69533C0F208039847F7
:103DF0004FF0010008BD00BF00B583B001A94FF02E
:103E0000010243F27133C0F20803984788B1019868
:103E100038B941F6C172C0F2080290474FF0010371
:103E200009E041F68561C0F2080188474FF00103BF
:103E300001E04FF0FF0358B203B000BD00B583B0FE
:103E400001A94FF0010243F27133C0F20803984711
:103E500088B1019838B941F6E972C0F2080290477A
:103E60004FF0010309E041F61571C0F208018847DF
:103E70004FF0010301E04FF0FF0358B203B000BD63
:103E800010B584B002A849F6C143C0F208039847B0
:103E900001281AD141F67034C2F20704DDE9022389
:103EA000CDE9002320464FF064014DF25062C0F28C
:103EB00008024AF24B73C0F208039847204644F6C2
:103EC0008531C0F20801884711E041F67034C2F232
:103ED00007044DF26453C0F2080307CB2060616011
:103EE000A260204644F68531C0F2080188474FF0B1
:103EF000010004B010BD00BF10B584B002A849F69F
:103F00000553C0F20803984701281AD141F67034CE
:103F1000C2F20704DDE90223CDE9002320464FF079
:103F200064014DF25062C0F208024AF24B73C0F2D3
:103F300008039847204644F68531C0F208018847B7
:103F400011E041F67034C2F207044DF26453C0F23E
:103F5000080307CB20606160A260204644F68531EB
:103F6000C0F2080188474FF0010004B010BD00BF47
:103F700000B583B001A94FF0010243F27133C0F2E2
:103F800008039847C0B101984AF26541C0F20801A0
:103F900088474AF24D12C0F2080290474AF2515344
:103FA000C0F20803984780B249F61541C0F20801F3
:103FB00088474FF0010001E04FF0FF0040B203B02E
:103FC00000BD00BF00B583B001A94FF0010243F26C
:103FD0007133C0F208039847C0B101984AF26541B5
:103FE000C0F2080188474AF24D12C0F20802904719
:103FF0004AF25153C0F20803984780B249F6314162
:10400000C0F2080188474FF0010001E04FF0FF00C7
:1040100040B203B000BD00BF00B583B001A94FF0AE
:10402000010243F27133C0F20803984788B1019846
:1040300038B941F6B532C0F2080290474FF001039B
:1040400009E041F69531C0F2080188474FF00103BD
:1040500001E04FF0FF0358B203B000BD00B583B0DC
:1040600001A94FF0010243F27133C0F208039847EF
:1040700040B1019842F2AD31C0F2080188474FF0DB
:10408000010001E04FF0FF0040B203B000BD00BFEF
:1040900038B542F22903C0F208039847034641F6B7
:1040A0007034C2F2070420464FF064014DF27052A2
:1040B000C0F208024AF24B75C0F20805A847204634
:1040C00044F68531C0F2080188474FF0010038BD41
:1040D00038B542F23503C0F208039847034641F66B
:1040E0007034C2F2070420464FF064014DF2705262
:1040F000C0F208024AF24B75C0F20805A8472046F4
:1041000044F68531C0F2080188474FF0010038BD00
:1041100038B549F64D43C0F208039847034641F6C7
:104120007034C2F2070420464FF064014DF2705221
:10413000C0F208024AF24B75C0F20805A8472046B3
:1041400044F68531C0F2080188474FF0010038BDC0
:1041500038B549F65943C0F208039847034641F67B
:104160007034C2F2070420464FF064014DF27052E1
:10417000C0F208024AF24B75C0F20805A847204673
:1041800044F68531C0F2080188474FF0010038BD80
:1041900038B541F6D533C0F208039847034641F6D7
:1041A0007034C2F2070420464FF064014DF27052A1
:1041B000C0F208024AF24B75C0F20805A847204633
:1041C00044F68531C0F2080188474FF0010038BD40
:1041D00038B542F24D43C0F208039847034641F612
:1041E0007034C2F2070420464FF064014DF2705261
:1041F000C0F208024AF24B75C0F20805A8472046F3
:1042000044F68531C0F2080188474FF0010038BDFF
:1042100010B5044640F29543C0F2080398470128C0
:1042200003D028B1022820D115E04FF0030010BDC3
:1042300040F65441C2F207010B5DCBB9204641F272
:104240002D02C0F20802904700F0030000280CBFC6
:104250000220002010BD40F65440C2F207004FF08B
:10426000000202554FF0020010BD4FF0010010BDDA
:104270004FF0020010BD00BF08B54FF0000044F23F
:104280001123C0F20803984708BD00BF38B50446A3
:104290000D4641F25903C0F2080398474FEA400027
:1042A00000F1FF312960204644F21122C0F20802D9
:1042B000904738BD08B501464FF0000044F28D2309
:1042C000C0F20803984708BD08B541F28503C0F263
:1042D0000803984708BD00BF08B54FF0000044F23E
:1042E000C923C0F20803984708BD00BF4FF0010082
:1042F000704700BF08B54FF0000044F2ED23C0F254
:104300000803984708BD00BF2DE9F041144641F26B
:104310008D03C0F208039847014670B302280CBF12
:1043200002200120BDE8F08144B114F0010F0CBF60
:10433000384640464FF00101B047A0BB85B914F0A4
:10434000010F0CBF414639464FF001004FF4007297
:104350004FF0000346F26575C0F20805A84730B378
:104360002CB141F21520C0F20800804718BB04F1BF
:10437000FF34A4B24FF000050DE04FF0010541F20B
:10438000DD16C0F2080641F27078C2F2070841F665
:104390007017C2F207074FF6FF729442C4D14FF074
:1043A0000000BDE8F0814FF00100BDE8F0814FF062
:1043B0000100BDE8F0814FF00100BDE8F08100BFD1
:1043C00008B503460A464FF00000194644F2093387
:1043D000C0F20803984708BD2DE9F041144641F2A8
:1043E0009523C0F208039847014668B302280CBF22
:1043F00002200120BDE8F08145B914F0010F0CBF87
:10440000384640464FF00101B04798BB7CB114F0EC
:10441000010F0CBF414639464FF000004FF40072C7
:10442000034646F2657CC0F2080CE04730B32DB974
:1044300041F2A130C0F20800804718BB04F1FF34FC
:10444000A4B24FF000050DE04FF0010541F26936CE
:10445000C0F2080641F27078C2F2070841F6701700
:10446000C2F207074FF6FF729442C5D14FF0000029
:10447000BDE8F0814FF00100BDE8F0814FF0010090
:10448000BDE8F0814FF00100BDE8F08108B50346BA
:104490000A464FF00000194644F2D933C0F208032F
:1044A000984708BD70B44FF080435D689C68D86839
:1044B000D9695A6D4FF080061E605D609C60D860BF
:1044C000D9615A654FF0000018654FF00501196079
:1044D00070BC704708B501F03F03184311F4807FAA
:1044E0000CD011F4006F02D040F4845006E011F4B7
:1044F000005F14BF40F4865040F4825011F4804FA6
:1045000018BF40F400604FF080431A6158611846AC
:1045100001F48052036C52B113F41F0F12D044F215
:10452000A542C0F2080290474FF0000008BD13F406
:104530001B0F07D044F2A541C0F2080188474FF095
:10454000000008BD13F0010FE4D011F4005F19D191
:104550004FF0010008BD086C03F1FF3300F030029A
:10456000202A19D10BE044F2A541C0F20801884786
:104570004FF0000008BD00F03002202AEBD14FF0D0
:10458000010008BD4FF08040006C44F24023C0F2AF
:104590000F034FF08041EEE7086C013BEBD1E2E7FF
:1045A00010B54FF0150047F21D74C0F20804A04783
:1045B0004FF02700A0474FF080434FF072029A60FF
:1045C000DA614FF0110058654FF4E06159604FF027
:1045D00005021A6010BD00BF00280CBF0420002097
:1045E000704700BF4FF00100704700BF33B14FF07C
:1045F0008043586D40F48070586505E04FF080436B
:10460000586D20F48070586581B14FEA41014FF434
:104610003D43C0F20153B3FBF1F001FB103109B18E
:1046200000F1010020B100F1FF3001E04FF0000087
:104630004FF08043596821F0FF0159605968C0B2BA
:1046400008435860042A04D0082A0CBFC022002264
:1046500001E04FF080024FF08043DA60704700BF06
:10466000704700BF4FF080435A6822F46050586092
:104670004FF0000119614FF410625A611846036C43
:1046800013F0010FFBD0704710B504460A464FF0F7
:104690008043596821F4605058604FF0000018655D
:1046A0009861214644F2D543C0F20803984710BDF3
:1046B0004FF08043186A70474FF080431A6A4FEA00
:1046C000126101704FEA124141704FEA122181706C
:1046D000C2701A6A4FEA126101714FEA12414171C8
:1046E0004FEA12218171C2711A6A4FEA1261017296
:1046F0004FEA124141724FEA12218172C2721B6A63
:104700004FEA136202734FEA134141734FEA1322D7
:104710008273C373704700BF70B504460D469DF8A1
:10472000101029B14FF480704FF08041086504E00B
:104730004FF000004FF0804630654FF080467068C3
:1047400040F4C051716012F0030F04D0706840F45F
:104750000051716005E04FF08046706820F4005110
:10476000716004F40046002E0CBF4FF4A0204FF4FB
:10477000803014F4803F09D040F400104FEAC25654
:104780004FEAD6514FF08046B16118E043EA024645
:104790004FF080418E6114F4003F02D040F42010AD
:1047A0000DE014F4802F02D040F4801007E014F4E0
:1047B000002F04D114F4801F18BF40F4002040F6ED
:1047C0005C41C2F207014FF000060E6040F658410E
:1047D000C2F207010A8040F65A42C2F20702138071
:1047E00021462A4644F2D543C0F20803984770BDDB
:1047F00008B54FF080414FF00002CCF260020B6C24
:10480000134207D044F2A540C0F2080080474FF0A1
:10481000000008BD13F0020FF1D04FF080410A6B89
:10482000026040F65C40C2F20700036803F1040333
:10483000036040F65A41C2F207010A8840F6584028
:10484000C2F20700018801FB02F2934216D34FF037
:1048500080404FF00002CCF26002036C134207D09C
:1048600044F2A541C0F2080188474FF0000008BD9E
:1048700013F0006FF1D04FF0010008BD4FF00100C0
:1048800008BD00BF70B586B0044640F65843C2F27A
:1048900007031E8806FB01F64FF08040416811F4C3
:1048A000005F2FD14FF48045C4F20C05284644F632
:1048B0003D72C0F20802904728464FF0000144F6CE
:1048C0005173C0F20803984728464FF000014FF497
:1048D0000072C0F2011244F69975C0F20805A847AB
:1048E0004FF03000C4F200000190029414F0030F66
:1048F00002D0B4B203942AE0C6F38F0444F0085106
:10490000039124E04FF48045C4F20C05284644F698
:104910003D72C0F20802904728464FF0000144F66D
:104920005173C0F20803984728464FF000014FF436
:104930000072C0F2011244F69975C0F20805A8474A
:104940004FF03000C4F2000001900294D1E74FF024
:104950000001C4F2512104914FF0000405944FF47A
:104960008045C4F20C052846214601AA44F6A573E9
:10497000C0F2080398472846214644F64572C0F223
:104980000802904740F65C40C2F2070001687618C2
:1049900006604FF0010006B070BD00BF10B540F6D4
:1049A0005A43C2F20703188840F65842C2F207027F
:1049B000148804FB00F440F65C41C2F20701086869
:1049C0004FF080414FF00002CCF260020B6C1342BA
:1049D00012D044F2A540C0F2080080474FF4804056
:1049E000C4F20C004FF0000144F65172C0F208020C
:1049F00090474FF0000010BD844202D913F0007FB1
:104A000005D113F0006FE1D04FF0010010BD4FF061
:104A1000010010BD70B586B0044640F65843C2F29E
:104A200007031E8806FB01F64FF08040416811F431
:104A3000005F27D14FF48045C4F20C05284644F6A8
:104A40003D72C0F20802904728464FF000014FF433
:104A50000052C0F2011244F69973C0F2080398475D
:104A600001944FF03400C4F20000029014F0030FE0
:104A700002D0B4B2039422E0C6F38F0444F008518C
:104A800003911CE04FF48045C4F20C05284644F61F
:104A90003D72C0F20802904728464FF000014FF4E3
:104AA0000052C0F2011244F69973C0F2080398470D
:104AB00001944FF03400C4F200000290D9E74FF0A7
:104AC0000001C6F2310104914FF0000405944FF447
:104AD0008045C4F20C052846214601AA44F6A57378
:104AE000C0F2080398472846214644F64572C0F2B2
:104AF0000802904740F65C40C2F207000168761851
:104B000006604FF0010006B070BD00BF10B540F662
:104B10005A43C2F20703188840F65842C2F207020D
:104B2000148804FB00F440F65C41C2F207010868F7
:104B30004FF080414FF00002CCF260020B6C134248
:104B400012D044F2A540C0F2080080474FF48040E4
:104B5000C4F20C004FF0000144F65172C0F208029A
:104B600090474FF0000010BD844202D913F0007F3F
:104B700005D113F0200FE1D04FF0010010BD4FF030
:104B8000010010BD10B5044640F66043C2F20703B1
:104B9000187868B120464AF2B172C0F20802904714
:104BA0000146204645F66D23C0F20803984710BD24
:104BB00020464AF2B171C0F20801884710BD00BF1B
:104BC00039B140F66040C2F207004FF001010170B8
:104BD000704740F66043C2F207034FF000021A70BC
:104BE000704700BF40F66143C2F207034FF0010275
:104BF0001A707047704700BF704700BF704700BF12
:104C000030B583B0134641F67034C2F20704009108
:104C100020464FF064014DF27452C0F208024AF28D
:104C20004B75C0F20805A847204644F68533C0F20C
:104C3000080398474FF0010003B030BD4FF001006A
:104C4000704700BF30B583B00D4608B242F2F17331
:104C5000C0F20803984741F67034C2F2070400908E
:104C600020464FF064014DF27C52C0F208022B4600
:104C70004AF24B75C0F20805A847204644F6853134
:104C8000C0F2080188474FF0000003B030BD00BFFC
:104C900030B583B00B461446012918D141F6703562
:104CA000C2F20705009228464FF064014DF290527F
:104CB000C0F2080223464AF24B74C0F20804A0472F
:104CC000284644F68531C0F20801884717E041F6CE
:104CD0007035C2F207050092019228464FF0640138
:104CE0004DF2A452C0F208024AF24B74C0F208041A
:104CF000A047284644F68533C0F2080398474FF092
:104D0000010003B030BD00BF08B541F67032C2F2F9
:104D100007024DF2C053C0F2080303CB106051608C
:104D200018781072104644F68531C0F208018847A1
:104D30004FF0010008BD00BF08B541F67032C2F265
:104D400007024DF2CC53C0F2080303CB1060516050
:104D500018881081104644F68531C0F20801884752
:104D60004FF0010008BD00BF08B540F23800C2F2A4
:104D7000070043F24513C0F20803984708BD00BF7F
:104D80002DE9F04745F2D153C0F2080398470028B7
:104D900040D040F66244C2F2070441F6D435C2F274
:104DA00007054FF0010645F6E50AC0F2080A40F291
:104DB0003809C2F2070943F25918C0F208082088DE
:104DC00040193146D047074621884846491932469E
:104DD000C047228802F1010293B22380E81810F83C
:104DE000011C0D2901D00A2902D14FF000022280B6
:104DF00017B12388C72BE2D940F66240C2F2070000
:104E00000188C82906D140F66243C2F207034FF079
:104E100000021A80BDE8F08741F6A443C2F20703FE
:104E20009878042802D005283BD104E040F2BC0267
:104E3000C2F2070203E040F2AC02C2F2070240F203
:104E40009003C2F2070311785980507898809178C6
:104E5000D980D078188111795981507998819179C8
:104E6000D981D0791882117A5982507A9882917AB0
:104E7000D982D07A1883127B5A834FF01C011970A3
:104E800041F6A440C2F2070081818360C3881B2BD6
:104E90000AD841F6A442C2F2070293814FF0010002
:104EA00070474FF0000070474FF00100704700BF9F
:104EB00004207146084200F00480EFF3098000F0FE
:104EC00005B8EFF3088000F001B800BF8EB00368AA
:104ED0000D9341680C9182680B92C3680A93016933
:104EE00009914269089283690793C06906904EF65A
:104EF0002851CEF200010A6805924EF62C53CEF2EC
:104F00000003186804904EF63051CEF200010A6892
:104F100003924EF63C53CEF20003186802904EF610
:104F20003451CEF200010A6800924EF63853CEF2A8
:104F300000031868019000BEFEE700BF4FF00103B8
:104F4000436070474FF0010303FA01F1816270473B
:104F50004FF0010303FA01F1C162704701EB8101D7
:104F600000EBC100C263704701EB810100EBC1009F
:104F70000264704701EB810100EBC100426470479D
:104F800001EB810100EBC1008264704701EB8101FC
:104F900000EBC100C264704701EB810100EBC1006E
:104FA0000265704770B504460E461546436A12689E
:104FB00044F65D73C0F208039847204631466A689C
:104FC00044F66973C0F208039847204631464FF013
:104FD000000244F67573C0F2080398472046314634
:104FE000AA6844F68173C0F2080398472046314608
:104FF000EA6844F68D73C0F20803984770BD00BF9D
:1050000021B1426842F0010343607047436823F0D6
:1050100001014160704700BF016270474162704703
:1050200080697047C161704708B547F2FD63C0F2FF
:10503000080398474FF0000047F2A171C0F2080141
:10504000884747F2B970C0F20800804708BD00BF2A
:1050500010B54FF43D40C0F2015049F6A123C0F213
:10506000080398474FF000004FF03E0147F25D62A1
:10507000C0F20802904747F2CD64C0F20804A0478E
:105080000028FCD047F2DD60C0F2080080474FF4F2
:10509000C061C4F20E0143F60173C2F20D038B62CC
:1050A00047F2ED64C0F20804A0470028FCD04FF09E
:1050B000100047F2BD52C0F20802904749F6D900ED
:1050C000C0F20800804710BD4FF00100704700BFDC
:1050D00008B528B944F27923C0F20803984708BDFF
:1050E0004FF0010008BD00BF08B530B9084644F2D2
:1050F000B523C0F20803984708BD4FF0010008BD72
:1051000010B981F0010070474FF00000704700BFF8
:1051100008B528B944F2D923C0F20803984708BD5E
:105120004FF0010008BD00BF08B528B944F2F523CF
:10513000C0F20803984708BD4FF0010008BD00BF4A
:1051400020B94DF2D850C0F2080070474FF000006F
:10515000704700BF08B538B90846114644F2C1335C
:10516000C0F20803984708BD4FF0010008BD00BF1A
:1051700008B538B90846114644F28D43C0F2080319
:10518000984708BD4FF0010008BD00BF41F27C0305
:10519000C2F207031A7802F1FF30C1B219707047EA
:1051A0004FF00000704700BF4FF00000704700BF95
:1051B000704700BF30B583B041F29003C2F20703DD
:1051C0001878002840F0DF8048F63941C0F2080125
:1051D000884760B141F28404C2F20704248848F68B
:1051E0009D40C0F20800804784420DD1CBE041F2DF
:1051F0008402C2F20702148848F68D43C0F2080305
:105200009847844200F0BF80EFF31085D5F1010587
:1052100038BF002572B6BFF35F8F40F29821C2F20B
:1052200007014FF000020A7040F67043C2F2070314
:105230001C7840F67440C2F2070030F8141079BBB5
:1052400041F29403C2F207031A8802F101021A80A4
:1052500048F63940C0F20800804730B941F2940165
:10526000C2F207010B88632B0DD948F63942C0F210
:1052700008029047A0B141F29400C2F207000188F1
:10528000B1F5487F0CD2002D7DD040F29823C2F2B8
:1052900007034FF001021A70BFF35F8F62B672E02E
:1052A00041F29403C2F207034FF000021A8041F268
:1052B000A840C2F20700017849B9944214BF002205
:1052C000012240F67043C2F207031A7003E0D4F1E2
:1052D000010438BF002441F29000C2F207004FF0F1
:1052E000010202703DB140F29825C2F207052A7012
:1052F000BFF35F8F62B6254640F67441C2F20701E4
:1053000031F81440B4F5007418BF0124DCB148F63C
:105310003942C0F20802904750B148F69D40C0F2B1
:105320000800804741F28402C2F20702108011E0B7
:1053300048F68D41C0F20801884741F28403C2F269
:105340000703188006E041F28403C2F207034FF01E
:105350000000188040F67441C2F2070131F81530A0
:1053600045F2A130C0F2080000904FF084002146C1
:1053700040F67844C2F2070404EB452248F659741B
:10538000C0F20804A04703B030BD00BF08B54FF01D
:10539000000045F2B513C0F20803984708BD00BFEE
:1053A00008B5E8B940F67043C2F207031978D1F1A5
:1053B000010138BF002140F67443C2F2070323F80D
:1053C000110041F2A841C2F20701087041F29002B7
:1053D000C2F20702107045F2B513C0F208039847F5
:1053E00008BD00BF08B541F6A443C2F20703187810
:1053F00010F0800F20D000F06001202956D141F636
:10540000A442C2F207025378212B52D141F6A440A4
:10541000C2F20700C18807294ED141F6A443C2F267
:10542000070340F66442C2F207029A604FF0070099
:1054300098814FF0010008BD00F0600120293ED1A5
:1054400041F6A442C2F207025378202B02D0222B4D
:1054500038D11AE041F6A443C2F20703D8880728DE
:1054600033D141F6A441C2F2070145F2B112C0F2B4
:1054700008020A6140F66443C2F207038B604FF0F2
:10548000070088814FF0010008BD41F6A440C2F238
:10549000070081784FF0000001F0010144F6C132AD
:1054A000C0F2080290474FF0010008BD4FF0000025
:1054B00008BD4FF0000008BD4FF0000008BD4FF0E0
:1054C000000008BD4FF0000008BD4FF0000008BD0F
:1054D00008B540F66C43C2F207031A7802F1FF30B8
:1054E000C1B21970187849F6C533C0F2080398475D
:1054F00041F28800C2F207004FF00002027008BDBE
:1055000008B54FF0000041F27C03C2F207031870A7
:1055100041F2AC41C2F20701088041F29803C2F2A5
:1055200007034FF0A10119704FF020015970588006
:1055300098804FF00201D980188140F66443C2F28E
:1055400007034FF4E1311960187158714FF00802E8
:105550009A7149F6B533C0F20803984758B141F241
:105560007C00C2F20700017801F10101CAB20270A9
:105570004FF0010008BD4FF0000008BDEFF31083AD
:1055800072B6BFF35F8F40F29822C2F207024FF06B
:105590000001117041F28000C2F20700028890B24F
:1055A00041F28C01C2F20701097841F27802C2F29D
:1055B000070232F81110081A4BB940F29823C2F2D0
:1055C00007034FF001021A70BFF35F8F62B6704796
:1055D00008B54FF0000045F27D53C0F2080398472C
:1055E00008BD00BF08B545F27D53C0F208039847D7
:1055F000003018BF012008BD10B582B0EFF3108352
:10560000D3F1010038BF002072B6BFF35F8F40F2C4
:105610009822C2F207024FF00001117041F28C048F
:10562000C2F20704247841F2A443C2F207031A78B5
:105630006AB941F28001C2F207010B889AB241F2C5
:105640007801C2F2070131F8143093420ED90028D4
:1056500052D040F29821C2F207014FF001020A70C5
:10566000BFF35F8F62B64FF0000047E041F2800267
:10567000C2F207024FF0000111808C4214BF0021DA
:10568000012141F28C03C2F20703197041F2A442D6
:10569000C2F207024FF00101117038B140F29820B8
:1056A000C2F207000170BFF35F8F62B64FF00000D7
:1056B00045F2E552C0F20802904730B14FF00000C9
:1056C00044F6E531C0F20801884745F20170C0F2A6
:1056D000080000904FF005004FF0010141F2A403D3
:1056E000C2F2070303EB44224FF4007348F65974E7
:1056F000C0F20804A04701E04FF0000002B010BD66
:1057000010B582B088BB41F28C03C2F2070318784F
:10571000D0F1010338BF0023A9B945F20174C0F2EA
:105720000804009410464FF0010141F2A402C2F2B5
:10573000070202EB43224FF4007348F65974C0F29B
:105740000804A04711E041F27802C2F2070222F8F1
:1057500013104FF0000041F2A441C2F2070108709B
:1057600045F2F953C0F20803984702B010BD00BFDC
:1057700038B54FF0000440F66C43C2F207031C70CA
:1057800041F29000C2F20700047041F2A841C2F257
:1057900007010C7040F67042C2F20702147040F626
:1057A0007443C2F2070325461C805C8041F28400EA
:1057B000C2F207000480204645F2B511C0F208018C
:1057C000884741F2A442C2F20702147041F28C03EE
:1057D000C2F207031C7041F27800C2F20700048095
:1057E00041F28001C2F207010C80204645F2F952D5
:1057F000C0F20802904798B140F66C43C2F207032A
:10580000187800F10100C1B219701A78012A0AD182
:105810004FF0010041F28803C2F20703187038BD4F
:105820004FF0000038BD4FF0010038BD2DE9F04FBA
:1058300083B01546884640F29827C2F207074FF01A
:10584000000B41F28006C2F2070641F28C0AC2F256
:10585000070A41F27809C2F2070941F2A403C2F231
:1058600007030193EFF3108272B6BFF35F8F87F8DF
:1058700000B0308883B29AF800102AB94FF00104C2
:105880003C70BFF35F8F62B639F81140A34207D373
:1058900041F28800C2F2070001780029E2D11DE040
:1058A000E41AA54238BF2C4603EB41224046019B37
:1058B000991822464AF2A563C0F208039847308837
:1058C00021188AB23280A0442D1B4FF0000045F20F
:1058D000F953C0F208039847002DC3D1284603B0FE
:1058E000BDE8F08F08B503460A464FF000001946A0
:1058F00045F62D03C0F20803984708BD10B4EFF336
:10590000108472B6BFF35F8F40F29823C2F2070390
:105910004FF000021A7040F67040C2F207000178A2
:1059200040F67442C2F2070232F81130D1F101019F
:1059300038BF0021C8B232F81000B3F5007F1BD188
:1059400041F29002C2F207021278AAB941F2A842CB
:10595000C2F2070212787AB941F2A843C2F20703F1
:105960004FF00100187040F67042C2F20702117049
:105970004FF400704FF000034CB940F29822C2F28D
:1059800007024FF001011170BFF35F8F62B6C018BC
:10599000C0F5806010BC704708B545F6FD03C0F245
:1059A00008039847003018BF012008BD2DE9F04FCB
:1059B00083B0154640F66443C2F20703987909287C
:1059C00008BF550089464FF0000841F28801C2F235
:1059D0000701019140F29822C2F20702009240466C
:1059E00045F69913C0F20803984720B90198037847
:1059F000002BF4D135E0EFF3108B72B6BFF35F8F5D
:105A0000009C84F8008040F67046C2F207063678A3
:105A100040F6744AC2F2070A3AF81670C7F50074E5
:105A2000A54238BF2C4607EB462140F67840C2F22B
:105A300007004018494622464AF2A563C0F208030F
:105A400098473F192AF81670BBF1000F06D14FF0A6
:105A50000101009A1170BFF35F8F62B6A1442D1B44
:105A6000BDD1284603B0BDE8F08F00BF08B503469E
:105A70000A464FF00000194645F6AD13C0F2080380
:105A8000984708BD4FF00000704700BF003018BFB6
:105A9000012041F6A143C2F20703187040F20C2125
:105AA000C2F207014FF001020A70704741F2F8425A
:105AB000C2F207024FF00003114641F8043B536065
:105AC00001F1040141F8043B41F8043B0B804FF025
:105AD000F00010704FF00A03D371704708B545F617
