:0200000280007C
:10000000383E0720619A08005D9A08007151080087
:100010005D9A08005D9A08005D9A080000000000E3
:100020000000000000000000000000005D9A0800D1
:100030005D9A0800000000005D9A08005D9A0800C3
:100040005D9A08005D9A0800A11E08005D9A0800EC
:100050005D9A08005D9A08005D9A08005D9A0800A4
:100060005D9A08005D9A0800000000000D78080005
:100070002978080045780800617808000000000031
:10008000000000005D9A08005D9A08005D9A080073
:100090005D9A08005D9A08005D9A08005D9A080064
:1000A0005D9A0800000000005D9A0800011F08002A
:1000B00035200800A52008005D9A08005D9A080018
:1000C0006D2008005D9A08005D9A08005D9A08009E
:1000D0005D9A08005D9A08005D9A08005D9A080024
:1000E000898308005D9A08005D9A08005D9A0800FF
:1000F0005D9A080008B50548054B191A062900D86D
:1001000008BD044A002AFBD09047F9E7C8DA080086
:10011000CBDA08000000000008B50748074B191AA1
:100120008A1002EBD273591000D108BD044A002A8C
:10013000FBD09047F9E700BFC8DA0800C8DA08002A
:100140000000000010B5064C237843B9FFF7D2FF3A
:10015000044810B10448AFF300800121217010BDA4
:10016000F00A072000000000C8DA080008B5084BB4
:100170001BB108480849AFF300800848016811B175
:10018000074A02B19047BDE80840FFF7C5BF00BF6E
:1001900000000000C8DA0800F40A0720C8DA0800E6
:1001A0000000000010B540F61033C2F207031A68D1
:1001B00092F8224040F61631C2F207010878116821
:1001C000527C231C18BF012344F6AD04C0F208047E
:1001D000A04710BD70B582B0069C49F23536C0F21A
:1001E000010641F23535C0F201054FEA017141EADD
:1001F000422242EAC0724FEAC4514FEAD151114340
:100200009DF81C200092002814BF3046284641EA81
:100210008361A2B24FF0010344F6D914C0F208047E
:10022000A04702B070BD00BF08B540F61633C2F259
:100230000703187830B94FF0000044F62111C0F2DE
:100240000801884708BD00BF10B5029C4FEA422252
:1002500042EA017141EAC07040EAC363227841F288
:10026000343043EA020144F64913C0F208039847C8
:1002700040B144F67111C0F20801884720704FF078
:10028000010010BD4FF0000010BD00BF08B540F6E2
:100290001033C2F207031868818941F609304FEA2A
:1002A000014144F64912C0F20802904770B140F68D
:1002B0001033C2F20703186800F1120044F67911F6
:1002C000C0F2080188474FF0010008BD4FF0000060
:1002D00008BD00BF10B5002840F0A88040F20C0314
:1002E000C2F2070398684FEA501202F5001101F2BA
:1002F00007734FEA4322D26B00F01F004FF0010159
:1003000001FA00F313421DD040F20C02C2F20702C0
:10031000907B88420CD140F60E33C2F20703197865
:1003200031B14EF21000CEF200004FF00002026038
:1003300040F20C03C2F207034FF0040199734FF02F
:10034000020010BD40F20C02C2F20702907B0428AA
:1003500031D140F20C01C2F207014FF001028A7361
:100360004EF21003CEF20003186888B940F60E3042
:10037000C2F2070002704EF21003CEF2000343F205
:10038000A071C0F2A00159601A604FF0020010BDC8
:1003900040F60E31C2F207014FF000020A7048F633
:1003A0008050C0F25B0040F20103C2F2070398479D
:1003B0004FF0020010BD012816D140F60E31C2F2F6
:1003C00007010B78002B3AD04EF21002CEF2000259
:1003D000106810F4803F2CD04EF21001CEF20001D4
:1003E0004FF000030B602AE040F20C00C2F207005D
:1003F000817B032920D040F61634C2F207044FF067
:100400000003237040F20C04C2F2070440F61032DD
:10041000C2F20702146040F2A510C0F20800804743
:10042000A07B022814BF0020012010BD4FF0040063
:1004300010BD4FF0020010BD4FF0030010BD40F2A0
:100440000C00C2F207004FF0020282734FF4D45145
:10045000C0F2060101604FF0010343744FF0000247
:1004600080F82220C0E700BF08B540F20C03C2F2BA
:1004700007034FF004029A7340F61630C2F20700E9
:100480004FF0FF01017044F66103C0F20803984782
:1004900008BD00BF2DE9F04F95B040F2D523C0F262
:1004A000080398470446012806D040F22921C0F2EB
:1004B0000801884700F05DBD40F61030C2F2070029
:1004C00001684FF00102CA734FF000050D748D8171
:1004D00044F62513C0F2080398474FF4804029469C
:1004E00044F64912C0F208029047002800F0C18487
:1004F00045F208504FF4D57144F64913C0F2080391
:100500009847002800F0C38444F67110C0F2080038
:100510008047B0F1FF3F00F0BD844FEA00514FEA41
:100520001152B2F5D57F40F0A4844FF0010600F0DF
:10053000B3BC44F67110C0F208008047014610F0C9
:10054000E04F00F0B58441F2893944F2055744F692
:100550004915C0F2080544F67118C0F2080838467B
:1005600001F4FC11A847002800F08384C047011E55
:100570000ADB09F1FF39384601F4FC11A8470028CD
:1005800040F0398500F075BC11F0006F40F6103373
:10059000C2F20703186814BF05220422C27300F0D8
:1005A00087BC41F237174FF0000844F64915C0F2F6
:1005B00008054FF4004944F6711AC0F2080A38469B
:1005C0004146A847002840F0EA8400F07DBC384648
:1005D0004146A847002800F077844946C4F21F012D
:1005E00044F22950002E08BF4FF4FC11A847002800
:1005F00000F06A84D04700280EDA10F0804F00F037
:100600008F8440F61030C2F207000168CA7B42F0C6
:100610000803CB7300F084BC0BF1FF3B3846414626
:10062000A847002840F0D18400F04EBC4FF40045AC
:10063000C4F21F0544F2015744F64918C0F20808F5
:1006400044F67119C0F2080938462946C047002807
:1006500040F0938400F079BC38462946C047002812
:1006600000F07384C84700280DDA00F0C040B0F1F4
:10067000804F40F06084A6490B68DA7B42F00800A6
:10068000D87300F058BC06F1FF3638462946C047FB
:10069000002840F07C8400F058BC9D4908684FF069
:1006A0000102828141F203104FF48031994B984747
:1006B000002800F0218198498847002800F01F8118
:1006C000934803689A7CC2F3830101F1FF30032849
:1006D00003D8DFE800F0060A0E124FF01201197479
:1006E0000EE04FF014021A740AE04FF02200187462
:1006F00006E04FF03001197402E04FF040021A7426
:100700005A7D02F00700854951F820104FF47A70A5
:1007100000FB01F1C2F3C302814850F8222002FB22
:1007200001F11960997E187E5A7E4FEA820242EAF0
:10073000802040EAA1114FEA01524FEA125112F50E
:10074000801F15D0187FDA7E4FEA420242EAE0109D
:1007500001F1010100F0070202F1020201FA02F1C7
:10076000D87D00F00F0201FA02F14FEA91205860A3
:100770009B8943F207104FEA0341664A90470028DD
:1007800000F0C080624D2968087C3F2840F29C80C0
:100790004FF00001009141F20810C0F208004FF440
:1007A00000724FF001035F4DA847002800F0D0838E
:1007B0004FF000055C4E02A8B047002800F0C88347
:1007C00005F10105ADB2322DF5D1029E06F002030E
:1007D000DEB24F4A1068877E017E437E4FEA830275
:1007E00042EA812040EAA7174FEA075111F5801F1E
:1007F0001AD14D4F03A8B847002800F0A98305F18E
:100800000105ADB2352DF5D9414B1A6803984FEA71
:100810005007576008E003A8B847002800F0988305
:1008200005F10105ADB200E03F4F7F2DF3D992E312
:100830003E4D28783E4A9047054604280BD04FF499
:100840000071C0F2B7114FF00000C0F2B710082DD0
:1008500018BF014603E04FF48071C0F2B71143F2B4
:1008600006102C4B9847002800F07D8331498847BB
:1008700010F0800F40F07783254A106845742E4BA6
:1008800098472E49884738B336B343F206104FF4E1
:100890008071C0F2B9311F4A9047002800F066838A
:1008A0002448804710F0800F40F06083184E37686E
:1008B0004FF0010587F822504FF4EA43C0F2193394
:1008C0003B601D49884707E01B4FB84704E040469E
:1008D0003946B04740B118E04FF00A0541F2101810
:1008E0004FF400770B4EF2E705F1FF3212F0FF05EF
:1008F000EDD14FF00000ADE24FF00000AAE24FF062
:100900000000A7E24FF00000A4E24FF00100A1E2D6
:10091000100B0720494908008D02080080CC080010
:100920009CCC0800D9490800B14A0800160B0720E2
:100930009948080071490800A5010800A548080069
:1009400045F602304FF0000144F64913C0F20803A7
:100950009847002800F08D8245F203104FF0000107
:1009600044F64912C0F208029047002800F0818244
:1009700040F61035C2F207052E6844F67110C0F239
:10098000080080474FEA1041B1812B68DA7B12F0F2
:10099000010F56D040F28D20C0F208008047002899
:1009A00000F067822B685A7D02F007004CF6804108
:1009B000C0F2080151F820104FF47A7000FB01F1E9
:1009C000C2F3C3024CF64040C0F2080050F82220A7
:1009D00002FB01F11960987C82090FD0DA7E987EC3
:1009E000597E4FEA014141EA0020024322F44001CE
:1009F00001F101014FEA4120586022E0997E187E02
:100A00005A7E4FEA820242EA802040EAA112187F11
:100A1000D97E4FEA410141EAE0104FEA02524FEA23
:100A2000125202F1010200F0070101F1020102FA83
:100A300001F0DA7D02F00F0100FA01F04FEA902296
:100A40005A6040F61033C2F207031A68918943F2E4
:100A500007104FEA014144F64913C0F208039847D2
:100A6000002800F0068240F61030C2F2070001684C
:100A7000CA7B12F0010F4ED08B8941F237104FEA3A
:100A8000034144F64912C0F208029047002800F0E2
:100A9000F0814FF00103009341F23310C0F20800DF
:100AA0004FF000014FF008024C4DA847002800F01D
:100AB000E08104A84FF00101494B9847002800F05D
:100AC000D88148488047002800F0D3819DF8101055
:100AD00001F00F03012B09D013B1022B16D10BE04B
:100AE000414A13684FF01000187414E03E490B6837
:100AF0004FF01A021A740EE09DF81230DB093A48E2
:100B0000016814BF302220220A7404E0364A1068BB
:100B10004FF01001017440F61030C2F20700016876
:100B2000CB7B03F00402D0B2002800F095804FF098
:100B3000000103914FF0030500954FF0010301936D
:100B400008464FF0090240F2D515C0F20805A84743
:100B5000002800F08E8103A84FF00101204B984738
:100B6000002800F086811F498847002800F0818115
:100B7000039DDFF878801A4F1A4E4FF0030200925F
:100B80004FF0010301934FF0000001462A46C04791
:100B9000002800F06E8104A84FF00101B84700283A
:100BA00000F06781B047002800F063819DF81000D5
:100BB000FF2800F05E81222802D19DF81230BBB1DF
:100BC0009DF81110002900F0548101F102016D1807
:100BD000039A02F580708542CFD94AE1D9490800CD
:100BE000454B08005D4C0800100B0720D50108009C
:100BF0004FF0060300934FF0010301934FF0000004
:100C000001462A46BB4DA847002800F0328104A8BF
:100C10004FF00101B84A9047002800F02A81B749F7
:100C20008847002800F025819DF81530322B28BF19
:100C30003223B348026803F00700B24951F820108C
:100C40004FF47A7000FB01F1C3F3C303AE4850F8D0
:100C5000233003FB01F1116040F61632C2F20702A5
:100C6000107844F69903C0F208039847032859D92D
:100C700040F61030C2F207000168CA7B02F004039C
:100C8000D8B230B303AD00954FF0000001464FF0ED
:100C9000080203469D4DA847002800F0EA809DF910
:100CA0000C10002915DA14AB4FF0020203F8442DA2
:100CB00000934FF001004FF000014FF00702034690
:100CC000A847002800F0D5808D4801684FF0040344
:100CD0004B7440F61032C2F207021068C17B11F06B
:100CE000010F1AD0838941F237104FEA034144F6CD
:100CF0004912C0F208029047002800F0BA8041F281
:100D000006104FF00201824B9847002800F0B18096
:100D10007B4801684FF004024A7440F2A513C0F208
:100D20000803984744F6A500C0F208008047002851
:100D300000F0818040F61031C2F207010A68D37BCF
:100D400003F00400C1B259B303AD00954FF00000A9
:100D500001464FF0130203466C4DA847002800F0EF
:100D600088809DF80C2012F0010F19D014AB4FF0C1
:100D7000020003F8440D00934FF001004FF0000112
:100D80004FF013020346A847002872D05C490B6855
:100D90004FF0010283F8222018684FEA40011960E1
:100DA00040F61033C2F207031868C27B12F0010F3D
:100DB0003CD0017C102939D94FF00103009341F256
:100DC0000610C0F208004FF60171C8F2FF014FF0A3
:100DD0004002504DA84700284BD004A84FF0010115
:100DE000454B9847002844D044488047002840D0CD
:100DF000494A904710F0800F3BD19DF8201001F038
:100E00000F030F2B12D09DF82D009DF82C2050EAD7
:100E100002222ED141498847394B18684FF0010210
:100E200080F8222001684FEA4103036040F2A510D8
:100E3000C0F20800804740F61032C2F20702116883
:100E4000CB7B13F0010F06D041F210104FF400716C
:100E50002F4A904768B140F61030C2F2070003688D
:100E60004FF00001997340F22922C0F20802904726
:100E70007FE040F61034C2F2070420684FF003040C
:100E8000847340F22923C0F20803984771E04FF0C1
:100E9000000601E04FF0000644F205504FF000015B
:100EA00044F64913C0F20803984700287FF441AB89
:100EB00040F61032C2F207021168CB7B13F0010F2B
:100EC0003FF44AADFFF76DBB40F61030C2F20700A9
:100ED00001684FF00203CB734FF480404FF00001E4
:100EE00044F64912C0F20802904700287FF49EABF6
:100EF000B0E700BFD5010800454B08005D4C080075
:100F0000100B072080CC080040CC080049020800E4
:100F100049490800D94908007149080025490800D5
:100F200040F61030C2F207000168CA7B12F0010FD0
:100F30007FF406AD10E545F602304FF00001384B66
:100F4000984700287FF4A9AB84E74FF0000081E7C1
:100F50004FF000007EE733490878334B9847032869
:100F60003FF666AC8DE44FF0000073E74FF00000F1
:100F700070E7204615B0BDE8F08FC8470028FFF69F
:100F800074AB41F2690606F1FF36FFF765BBC8474F
:100F90000028FFF66AAB013E7FF45EABD5E7494619
:100FA000C4F21F0144F22950002E08BF4FF4FC1177
:100FB000A847002888D0D0470028FFF61EAB40F68F
:100FC000350B0BF1FF3BFFF702BB4946C4F21F0193
:100FD00044F22950002E08BF4FF4FC11A847002806
:100FE0003FF472AFD0470028FFF607ABBBF1010B0F
:100FF0007FF4EDAA68E7C047011EFFF6C5AA384690
:1010000001F4FC11A84700283FF433AFC047011E8C
:10101000FFF6BAAAB9F102097FF4A1AA29E700BF35
:1010200049490800160B07209948080008B540F206
:10103000D523C0F20803984758B940F22920C0F2DE
:101040000800804740F61031C2F207010A68D07BE1
:1010500008BD4FF0000008BD08B540F2D523C0F22E
:101060000803984758B940F22920C0F20800804789
:1010700040F61031C2F207010A68506808BD4FF00F
:10108000000008BD4FF00000704700BF2DE9F04F91
:1010900083B08B46924640F2D523C0F208039847AE
:1010A0008146002840F0818040F64158C0F2030894
:1010B00040F61036C2F2070641F20D1544F6491407
:1010C000C0F2080444F67117C0F20807306881893D
:1010D00028464FEA0141A047002846D0B84710F4FF
:1010E000807F4AD108F1FF383268938928464FEA59
:1010F0000341A04700285CD137E04FEA4B2100E0D4
:1011000059464FF0010300934FF40072534644F6E2
:10111000D914C0F20804A04738B940F22921C0F21E
:10112000080188474FF005093FE044F67110C0F20E
:10113000080080474FF00001CEF25841014039B11C
:1011400040F22920C0F2080080474FF005092CE04A
:1011500040F61432C2F20702A2F800A040F60C33A7
:10116000C2F20703A3F800A01FE040F22922C0F258
:10117000080290474FF0050917E041F21110C0F244
:10118000080041F21214C0F21004BAF1010F88BF36
:10119000204640F61032C2F207021368D97B01F0F4
:1011A0000804E2B2002AABD1A7E7484603B0BDE885
:1011B000F08FB84710F4807FDFD1306881892846EE
:1011C0004FEA0141A0470028CFD0B84710F4807FF4
:1011D000D3D1B8F102087FF479AFC6E710B50C4659
:1011E00044F64533C0F20803984748B940F6143135
:1011F000C2F207014FF000030B804FF0050010BD55
:1012000040F61430C2F207000288141B04804FF02D
:10121000000010BD08B544F65D43C0F208039847CE
:10122000002830D040F61430C2F2070001880029AF
:101230002CD140F60C32C2F207021388012B07D1E1
:1012400040F22921C0F2080188474FF0000008BD94
:1012500043F20C104FF0000144F64912C0F20802AC
:10126000904740B943F20C104FF0000144F6491387
:10127000C0F20803984740F22920C0F208008047D6
:101280004FF0000008BD4FF0050008BD4FF0000012
:1012900008BD00BFF0B583B006460F46154640F2C4
:1012A000D524C0F20804A0470446002858D130468F
:1012B00041F28503C0F20803984738B140F2292370
:1012C000C0F2080398474FF0070449E049F21810AC
:1012D000C0F2080049F21911C0F21001012D88BFB7
:1012E000084640F61032C2F207021668F37B03F09C
:1012F0000801CAB212B94FEA472100E039464FF05F
:10130000010600964FF400722B4644F6D916C0F23F
:101310000806B04738B940F22920C0F208008047DB
:101320004FF005041CE044F67110C0F2080080473D
:101330004FF00003CEF2584303403BB140F2292462
:10134000C0F20804A0474FF0050409E040F614314C
:10135000C2F207010D8040F60C32C2F2070215807E
:10136000204603B0F0BD00BF10B50C4644F6D5438F
:10137000C0F20803984748B940F61431C2F2070199
:101380004FF000030B804FF0050010BD40F6143005
:10139000C2F207000288141B04804FF0000010BD49
:1013A00008B544F6CD53C0F20803984700282FD063
:1013B00040F61430C2F20700018800292BD140F614
:1013C0000C32C2F207021388012B07D140F2292305
:1013D000C0F2080398474FF0000008BD43F20C101C
:1013E0004FF0000144F64912C0F20802904738B9A4
:1013F00040F22921C0F2080188474FF0050008BDDE
:1014000040F22920C0F2080080474FF0000008BDDC
:101410004FF0050008BD4FF0000008BDF0B48CB0DF
:1014200006460F4601AC4CF6DC45C0F208050FCD70
:101430000FC40FCD0FC495E8070084E80700019B97
:10144000B7FBF3F0B0FBF6F1B1F5807F52D902990A
:10145000B7FBF1F2B2FBF6F1B1F5807F4FD9039BF8
:10146000B7FBF3F0B0FBF6F1B1F5807F4AD90499F0
:10147000B7FBF1F2B2FBF6F1B1F5807F45D9059BE0
:10148000B7FBF3F0B0FBF6F1B1F5807F40D90699D8
:10149000B7FBF1F2B2FBF6F1B1F5807F3BD9079BC8
:1014A000B7FBF3F0B0FBF6F1B1F5807F36D90899C0
:1014B000B7FBF1F2B2FBF6F1B1F5807F31D9099BB0
:1014C000B7FBF3F0B0FBF6F1B1F5807F2CD90A99A8
:1014D000B7FBF1F2B2FBF6F1B1F5807F27D90B9B98
:1014E000B7FBF3F0B0FBF6F1B1F5807F22D94FF6F0
:1014F000FF7022E04FF0000241EA02201DE04FF0B1
:101500000102F9E74FF00202F6E74FF00302F3E7BA
:101510004FF00402F0E74FF00502EDE74FF006024E
:10152000EAE74FF00702E7E74FF00802E4E74FF081
:101530000902E1E74FF00A02DEE70CB0F0BC7047A9
:1015400070B506460C46086858B1896841F21D43DB
:10155000C0F2080398474FF6FF71884214D0054641
:1015600001E04FF00005606858B1A16841F21D42EA
:10157000C0F2080290474FF6FF73984204D045EA44
:10158000004535604FF0000070BD00BF70B40B68BF
:101590004FF0010202FA03F28E8A4C6804F00F0544
:1015A0002E430C8926438D7A46EA45268C7D46EAF1
:1015B0000445CE7D45EA46450C7E45EA844603F166
:1015C00010054FEA451405190651CC686C600C698A
:1015D00000EB4315C5F80C428C7D3CB18D8B4C8BD8
:1015E00044EA054500EB4314C4F81852CD7F05FAD0
:1015F00003F58C7F04FA03F444EA0545856491F809
:10160000215005FA03F591F8204004FA03F444EA66
:101610000544446491F822401CB1046A14430462F6
:1016200003E0046A24EA0204046291F82440012CD5
:1016300003D1846E1443846606E0846E002A14BFCE
:10164000002404F00104846691F82540012C04D1A3
:10165000846E44EA0242826606E0846E120414BF7D
:10166000002204F001028266032B0FD8C46E4FEAF9
:10167000C3034FF0FF0202FA03F224EA020291F8D8
:10168000231001FA03F31A43C26610E0A3F1040326
:10169000046F4FEAC3034FF0FF0202FA03F224EA99
:1016A000020291F8231001FA03F31A4302674FF084
:1016B000000070BC704700BF10B40C680B69934207
:1016C00007D3CA6000EB4410C0F808224FF00000B6
:1016D00001E04FF6FF7010BC704700BF4FF00103F0
:1016E00003FA01F1416070474FF0010303FA01F181
:1016F0008160704702F110024FF0010303FA02F219
:1017000003FA01F10A434261704700BF012905D184
:10171000836843F0254141F480128260036843F0FE
:10172000254141F008020260704700BF10B44FEA43
:10173000811143184FF0020444504FF0FF3098627B
:10174000196A5A6010BC7047C0F8C410704700BFD7
:101750004FEA81114FF00503435070474FEA811162
:101760004FF002034350704700EB81110869704746
:1017700000EB81118A61704700EB8111CA617047EB
:1017800000EB81114A62704700EB8111086A7047D3
:1017900070B487B04FF0020401944FF00805029531
:1017A0004FF0200403944FF0800504950A9C4FEA03
:1017B000D43405944FEA5145B0EB510F3ED8A842BE
:1017C00051D24FF00806B1FBF6F54FEA1546A84294
:1017D00037D8B0421ED24FF02005B1FBF5F54FEAE5
:1017E0001546A84230D8B04217D24FF08006B1FB60
:1017F000F6F54FEA1546A84229D8B04210D2B1FBFF
:10180000F4F14FEA1144814224D3844298BF042169
:101810002BD922E04FF0010127E04FF0020124E034
:101820004FF0030121E006AC04EB810050F8140CEA
:101830001060ABB119604FF0010019E04FF00000EB
:1018400016E04FF0000013E04FF0000010E04FF002
:1018500000000DE04FF000000AE04FF0000007E04C
:101860004FF0010004E04FF00001002ADBD1E0E777
:1018700007B070BC704700BF4FF0080303604FF023
:10188000200101604FF00402026070474FF4D4530E
:10189000C0F20603994245D84FEA4101B2FBF1F28A
:1018A000A2F10402FF2A2ED94FEA5202FF2A18D9C8
:1018B0004FEA5202FF2A17D94FEA5202FF2A16D9DD
:1018C0004FEA5202FF2A15D94FEA5202FF2A14D9D1
:1018D0004FEA5202FF2A13D94FEA52024FF0070390
:1018E00013E04FF0010310E04FF002030DE04FF062
:1018F00003030AE04FF0040307E04FF0050304E0A0
:101900004FF0060301E04FF000034FEA02614FEA97
:10191000034343EA1141D2B241EA020303614FF0AB
:10192000000070474FF00100704700BF4FF0800388
:101930000360036B704700BF38B504460D464FF097
:10194000FF338362036A41F62D11C0F20801884714
:10195000204641F67902C0F20802904720466968A5
:101960002A6841F68D03C0F208039847012814BF86
:1019700000200120697A012904BF4021216038BD7F
:101980004FF400434360704770B54FF02B004FF0A9
:10199000006147F2B964C0F20804A0474FF02A0082
:1019A0004FF00061A0474FF014004FF00061A047D6
:1019B0004FF013004FF00061A0474FF015004FF0BB
:1019C0000061A0474FF016004FF00061A0474FF0B4
:1019D00017004FF00061A0474FF018004FF0006172
:1019E000A0474FF067004FF00801A0474FF01600E6
:1019F00047F6DD16C0F20806B0474FF011004FF071
:101A00000061A0474FF012004FF00061A0474FF077
:101A10000C00B0474FF48055C4F20E054FF08073B0
:101A20002B61C5F8A0306B634FF46064C4F20E0400
:101A30004FF48050206660656062C4F88000226FB9
:101A40000243226760604FF00101216661656162B7
:101A5000C4F88010236F0B43236761604FF400507C
:101A6000206660656062C4F88000226F02432267CE
:101A700060604FF00C00B0474FF400016961C5F899
:101A8000A010696669652962C5F884102B6F23F47C
:101A9000000028674FF00E00B0474FF4A055C4F285
:101AA0000E054FF480626A61C5F8A0206A666A6517
:101AB0002A62C5F88420296F21F480632B674FF0D8
:101AC0000B00B0474FF020002061C4F8A000606315
:101AD0004FF00B00B0474FF080022261C4F8A02005
:101AE00022634FF00B00B0474FF002016161C4F870
:101AF000A010216661652162C4F88410236F23F071
:101B0000020020674FF00E00B0474FF480726A6108
:101B1000C5F8A0202A666A652A62C5F88420296F64
:101B200021F480732B674FF00E00B0474FF4007024
:101B30002861C5F8A000686370BD00BF08B54FF408
:101B40008040C4F208004FF0020141F26973C0F214
:101B50000803984740F61C31C2F207010A68904218
:101B60003AD040F23200C2F207000388032B10D1B2
:101B70004FF49051C4F20E01CA6B12F0800F4FF473
:101B80009050C4F20E004FF0800314BF4363036310
:101B900011E0022B0FD14FF49051C4F20E01CA6B29
:101BA00012F4007F4FF49050C4F20E004FF4007313
:101BB00014BF436303634FF48040C4F208004FF046
:101BC000020141F26972C0F20802904740F61C31EE
:101BD000C2F2070108600CE04FF49050C4F20E000E
:101BE0004FF0200303634FF0800101634FF4007254
:101BF00002634FF00000C4F208004FF0010141F20F
:101C00006973C0F20803984740F62032C2F2070217
:101C1000116888423AD040F23400C2F207000388CB
:101C2000032B10D14FF49052C4F20E02D16B11F479
:101C3000800F4FF49050C4F20E004FF4800314BF95
:101C40004363036311E0022B0FD14FF49052C4F2AF
:101C50000E02D16B11F4000F4FF49050C4F20E003D
:101C60004FF4000314BF436303634FF00000C4F25A
:101C700008004FF0010141F26972C0F2080290477A
:101C800040F62031C2F2070108600CE04FF490509A
:101C9000C4F20E004FF4001303634FF4800202639A
:101CA0004FF4000101634FF49050C4F20E00C36B77
:101CB00013F0805F66D04FF46060C4F20E004FF402
:101CC0008063436300BF00BF00BF036340F238017D
:101CD000C2F207010A88032A10D14FF49050C4F2CF
:101CE0000E00C36B13F0007F4FF49051C4F20E014D
:101CF0004FF0007214BF4A630A6311E0022A0FD149
:101D00004FF49050C4F20E00C36B13F0806F4FF489
:101D10009051C4F20E014FF0806214BF4A630A630F
:101D200040F23A00C2F207000388012B4BD140F287
:101D30003001C2F207010A88032A10D14FF4805003
:101D4000C4F20E00C36B13F0400F4FF48051C4F285
:101D50000E014FF0400214BF4A630A6333E0022AC7
:101D600077D14FF48050C4F20E00C36B13F4807F20
:101D70004FF48051C4F20E014FF4807214BF4A63D5
:101D80000A6320E04FF49051C4F20E014FF08072CC
:101D90000A634FF0007008634FF080630B6340F2FA
:101DA0003A01C2F207010A88012A0CD14FF480508F
:101DB000C4F20E004FF0800303634FF04001016353
:101DC0004FF48072026340F23A00C2F207000388C7
:101DD000002B3ED140F23601C2F207010A88012AE7
:101DE0002AD140F23000C2F207000388032B10D141
:101DF0004FF48051C4F20E01CA6B12F0400F4FF441
:101E00008050C4F20E004FF0400314BF43630363DD
:101E100008BD022B1DD14FF48051C4F20E01CA6BD4
:101E200012F4807F4FF48050C4F20E004FF48073A0
:101E300014BF4363036308BD4FF48050C4F20E0027
:101E40004FF0800303634FF0400101634FF4807251
:101E5000026308BD4FF48053C4F20E034FF48002B6
:101E60005A6340F23A00C2F207004FF001010180CC
:101E7000704700BF4FF48053C4F20E034FF480024A
:101E80001A6340F23A00C2F207004FF000010180ED
:101E9000704700BF40F23A03C2F207031888704748
:101EA00010B54FF4D350C4F20E0045F2E123C0F256
:101EB0000803984710F0040F20D04FF4D354C4F215
:101EC0000E0420464FF0040145F2DD22C0F2080264
:101ED000904749F69560C0F20800804720464FF0D1
:101EE000040145F2E523C0F20803984720464FF06D
:101EF000040145F2D922C0F20802904710BD00BF8C
:101F000030B583B04FF00004C4F2080420464FF00F
:101F1000000141F28973C0F20803984749F6A560B1
:101F2000C0F2080080474FF48040C4F208004FF030
:101F3000020141F26975C0F20805A84701902046E8
:101F40004FF00101A847009041F2D861C2F20701A9
:101F50000A68BAB141F2D863C2F20703196840F6C1
:101F60001832C2F207021068019B091801F1010141
:101F7000CA184FF0000341F2D060C2F20700C0E976
:101F800000230EE0019840F61833C2F207031968E7
:101F9000421A4FF0000341F2D060C2F20700C0E9DC
:101FA000002341F2DC63C2F207031968C1B141F2B8
:101FB000DC62C2F20702116840F62833C2F207035E
:101FC0001868009A091801F101018B181A464FF0A0
:101FD000000341F2E060C2F20700C0E900230FE015
:101FE000009A40F62830C2F207000368D11A0A4668
:101FF0004FF0000341F2E060C2F20700C0E90023A5
:10200000019A40F61831C2F207010A60009840F6C2
:102010002833C2F2070318604FF0000141F2D86282
:10202000C2F20702116041F2DC60C2F207000160F7
:1020300003B030BD08B54FF00000C4F208004FF007
:10204000010141F28973C0F20803984740F6283035
:10205000C2F2070001686FEA010341F2DC62C2F2DA
:10206000070213604FF00001016008BD08B54FF48E
:102070008040C4F208004FF0020141F28973C0F2BF
:102080000803984740F61830C2F2070001686FEA6B
:10209000010341F2D862C2F2070213604FF000015F
:1020A000016008BD08B54FF00000C4F208004FF011
:1020B000020141F28973C0F20803984741F63D30AE
:1020C000C0F20800804708BD41F2D063C2F20703A6
:1020D000D3E9002310461946704700BF41F2E06380
:1020E000C2F20703D3E9002310461946704700BF28
:1020F00010B54FF4D354C4F20E0420464FF0000143
:1021000045F2C123C0F20803984741F61020C4F2FB
:102110000E004FF0000141F20D72C0F2080290472C
:102120004FF46140CEF200004FF00401C0F880107F
:10213000C0F880110160204645F2D923C0F208039F
:10214000984710BD10B540F62433C2F20703188833
:1021500000283ED14FF0200047F6DD11C0F2080103
:1021600088474FF48044C4F2080420464FF002012F
:1021700048F2070241F22D73C0F208039847204647
:102180004FF0000141F24972C0F208029047204628
:102190004FF002014FF0010241F28173C0F20803D7
:1021A000984720464FF0020141F25172C0F20802F6
:1021B00090474FF46140CEF200004FF00101C0F8AB
:1021C0008410C0F88411416040F62433C2F2070342
:1021D000198010BD10B540F62633C2F207031888E7
:1021E00000283FD14FF01C0047F6DD11C0F2080176
:1021F00088474FF00004C4F2080420464FF0010164
:1022000048F2060241F22D73C0F2080398472046B7
:102210004FF0000141F24972C0F208029047204697
:102220004FF001010A4641F28173C0F2080398475A
:1022300020464FF0010141F25172C0F2080290476E
:102240004FF46140CEF200004FF08051C0F8801092
:10225000C0F88011016040F62633C2F207034FF048
:1022600001021A8010BD00BF08B542F24513C0F24A
:102270000803984742F2D510C0F20800804708BD15
:1022800008B54FF48040C4F208004FF0020141F25B
:102290005D73C0F20803984740F62430C2F207008D
:1022A0004FF00002028008BD08B54FF00000C4F2F4
:1022B00008004FF0010141F25D73C0F20803984736
:1022C00040F62630C2F207004FF00002028008BD3F
:1022D00008B542F28123C0F20803984742F2A920D0
:1022E000C0F20800804708BD40F62433C2F207035D
:1022F0001888704740F62633C2F2070318887047E3
:102300002DE9F04F85B042F2F103C0F2080398477F
:102310004FF00D0047F6DD14C0F20804A0474FF45B
:102320009056C4F20E064FF000553566756575621D
:10233000C6F88050306F2843306775604FF480577F
:10234000C4F20E074FF4804179604FF00C00A047B3
:102350004FF48009C7F81090C7F8A090C7F83490E0
:102360004FF00B00A0474FF46068C4F20E084FF422
:102370008062C8F81020C8F8A020C8F830204FF0BC
:102380000D00A0474FF080537361C6F8A0304FF0A6
:102390000C00A0474FF0800AC7F810A0C7F8A0A013
:1023A000C7F830A04FF00C00A0474FF04000386154
:1023B000C7F8A00038634FF00C00A0474FF48071BD
:1023C0003961C7F8A01039634FF00D00A0474FF0F6
:1023D00020023261C6F8A02032634FF00D00A04702
:1023E000C6F810A0C6F8A0A0C6F830A04FF00D00A7
:1023F000A0474FF400733361C6F8A03033634FF049
:102400000D00A0474FF400103061C6F8A000306303
:102410004FF00D00A047C6F81090C6F8A090C6F87F
:1024200030904FF00D00A0474FF400013161C6F825
:10243000A01031634FF00D00A0474FF08072326161
:10244000C6F8A02032634FF00D00A0474FF0007394
:102450003361C6F8A03033634FF00D00A0474FF052
:1024600080603061C6F8A00030634FF01009C8F8F2
:102470006090C8F85490C8F82490C8F88090D8F8B4
:10248000701021F01002C8F87020C8F804904FF4C2
:1024900080333B667B657B62C7F88030386F20F401
:1024A000803139677B604FF0006BC6F860B0C6F8CA
:1024B00054B0C6F824B0C6F880B0376F47EA0B02B4
:1024C0003267C6F804B0356675657562C6F8805027
:1024D000336F2B43336775604FF01B00A0474FF0FD
:1024E0000006C4F2080630464FF000014CF2050227
:1024F00041F22D7AC0F2080AD04730464FF0000171
:1025000042F2A052C0F2260241F27977C0F20807E7
:10251000B84730464FF0000141F24972C0F208025C
:10252000904730464FF000014A4641F28173C0F2B5
:102530000803984730464FF0000141F25177C0F24E
:102540000807B8474FF46147CEF20007C7F880B0DC
:10255000C7F880B1C7F800B04FF01D00A0474FF496
:102560003D48C0F20158CDF800804FF014004146BC
:1025700003AA02AB41F2917BC0F2080BD847304668
:102580004FF00201029A42F48042D0470398B8FB10
:10259000F0F14CF6CD43CCF6CC43A3FB0112304610
:1025A0004FF002014FEA121241F27973C0F20803B0
:1025B000984730464FF0020141F25172C0F20802D2
:1025C0009047C7F88050C7F880513D6030464FF0C3
:1025D00002014A4641F28175C0F20805A84740F25F
:1025E0003C05C2F207054CF2503028604FF0220043
:1025F000A0472868CDF80080414603AA02ABD8471F
:102600004FF40044C4F20804029941F0C06320462C
:102610004FF0010143F44442D04720464FF00101FE
:102620004FF0020241F27173C0F208039847039A17
:10263000B8FBF2F22B6820464FF00101B2FBF3F237
:1026400041F27973C0F20803984720464FF0010128
:1026500041F25172C0F2080290474FF00400C7F8EF
:102660008400C7F8840105B0BDE8F08FF0B585B0EF
:1026700040F23C06C2F2070630604FF40044C4F258
:10268000080420464FF0010141F25D73C0F20803D7
:10269000984730684FF43D45C0F2015500952946F2
:1026A00003AA02AB41F29177C0F20807B847029A39
:1026B00042F0C06320464FF0010143F4444241F22E
:1026C0002D73C0F20803984720464FF001014FF0E8
:1026D000020241F27173C0F2080398470398B5FBF8
:1026E000F0F2336820464FF00101B2FBF3F241F201
:1026F0007973C0F20803984720464FF0010141F278
:102700005172C0F20802904705B0F0BD40F23C03A0
:10271000C2F2070318687047704700BF704700BFD8
:1027200038B541F2E864C2F207044FF43D43C0F209
:10273000015323604FF4D450C0F2060060604FF0A4
:10274000500121724FF0000262724FF44045C4F212
:102750000805284641F67903C0F208039847284641
:10276000214641F63912C0F20802904738BD00BF39
:102770002DE9F04F85B04FF0240047F6DD13C0F28D
:10278000080398474FF48044C4F2090420464FF0F0
:10279000010141F2E965C0F20805A84720464FF063
:1027A0000301A84720464FF00201A8474FF47A20C2
:1027B00001904FF43D41C0F2015102910391204636
:1027C00001A941F24152C0F20802904741F208715A
:1027D000C2F207014FF000050D814FF001068E7225
:1027E0004FF00B0BC1F804B04FF4806AC1F810A091
:1027F000CD600E60204641F28D59C0F20809C847ED
:10280000204631462A4641F2F568C0F20808C04722
:1028100041F25871C2F207010D818E72C1F804B005
:10282000C1F810A0CD604FF003070F602046C847E5
:10283000204639462A46C04741F230731946C2F253
:1028400007010D814FF000008872C1F804B0C1F893
:1028500010A0CD604FF0020AC1F800A02046C84782
:10286000204651462A46C0472046314641F2DD65A2
:10287000C0F20805A84720463946A84720465146D9
:10288000A84705B0BDE8F08FF8B503460E461746D9
:102890004FF48044C4F20904204641F20871C2F2A8
:1028A00007011A4641F2B965C0F20805A84720465B
:1028B00041F25871C2F207013A46A847204641F258
:1028C0003071C2F207013246A847F8BD4FF4805379
:1028D000C4F20E03D86B80F40001C1F3C0507047FE
:1028E0004FF4A053C4F20E03D86BC0F3002070471E
:1028F0004FF4A053C4F20E034FF400721A637047F2
:102900004FF4A053C4F20E034FF400725A637047A1
:1029100008B540F63C43C2F20703C362184642F6CC
:102920004131C0F20801884708BD00BF08B5C06A40
:1029300042F65133C0F20803984708BD00B583B092
:1029400002A94FF0000321F8023DC06A42F65D3251
:10295000C0F208029047BDF9060003B000BD00BFF9
:1029600000B583B002A94FF0000321F8023DC06A10
:1029700042F6F932C0F208029047BDF9060003B0F2
:1029800000BD00BF38B505460C46C06A42F69D330F
:10299000C0F20803984714F1630F0CDA14F1C70F63
:1029A00009DB28464FF002014FF0200242F6A953FE
:1029B000C0F20803984714F1C70F0CDA14F5967F9C
:1029C00009DD28464FF002014FF0100242F6A953EC
:1029D000C0F20803984714F5967F0CDC14F5C87F05
:1029E00009DD28464FF002014FF0080242F6A953D4
:1029F000C0F20803984714F5C87F0CDC14F5FA7F81
:102A000009DD28464FF002014FF0040242F6A953B7
:102A1000C0F20803984714F5FA7F0CDC14F5167F12
:102A200009DD28464FF002014FF0800242F6A9531B
:102A3000C0F20803984714F5167F0CDC14F52F7FBD
:102A400009DD28464FF002014FF0400242F6A9533B
:102A5000C0F20803984714F52F7F0BDC14F5487F6C
:102A600008DD28464FF002010A4642F6A953C0F29B
:102A70000803984714F5487F0CDC14F5617F09DDE5
:102A800028464FF002014FF0010242F6A953C0F26E
:102A90000803984755B1E86920B1026812B1284689
:102AA000214690474FF0010185F8281038BD00BF3E
:102AB00010F16D0F2BD009DC10F1830F2CD010F129
:102AC000710F1AD010F18A0F30D12AE010F1670F80
:102AD0000ED003DC10F16C0F28D113E010F1660F5B
:102AE00029D0002822D14DF27040C0F20800704772
:102AF0004DF28C40C0F2080070474DF2A040C0F289
:102B0000080070474DF2B440C0F2080070474DF223
:102B1000CC40C0F2080070474DF2E040C0F208001F
:102B200070474DF2F040C0F2080070474DF204507B
:102B3000C0F2080070474DF27C40C0F208007047B8
:102B40004FF00003038043804FF0100181807047F5
:102B50004FF0000303804380704700BF10B44388E8
:102B6000B0F900401AB2944214D019B100EB4202FD
:102B7000D3880B80B0F9022002F10102B0F90430D1
:102B800003F1010392FBF3F103FB112242804FF0AA
:102B9000010001E04FF0000010BC704738B504465A
:102BA0000D46B0F90430B0F90010B0F90220D21887
:102BB00003F1010392FBF3F003FB1023994207D1C9
:102BC00020464FF0000142F65D32C0F20802904705
:102BD000B4F9000004EB4001CD8000F10100B4F92C
:102BE000043003F1010390FBF3F203FB1200208099
:102BF0004FF0010038BD00BF02884388D21A92B25C
:102C000093B20B8013F4004F04D0808800F10100D0
:102C100012180A804FF00100704700BF072904D83E
:102C2000036B2BB133F8110070474FF00000704771
:102C30004FF00000704700BF70B505460C461646C1
:102C400042F61D43C0F20803984720EA06022846D0
:102C5000214692B242F69543C0F20803984770BDF0
:102C600070B505460E461C46114642F61D43C0F29D
:102C700008039847304228464FF00001224619BF0A
:102C800042F6A953C0F2080342F63943C0F20803E2
:102C9000984770BDF8B505460C461646072900F260
:102CA0008180036B002B7DD033F8117023F8142042
:102CB000072957D8DFE801F004151D28434E303BA3
:102CC0004FF0010142F61D42C0F2080290474FF654
:102CD000BF713140014252D046F04006B74253D155
:102CE0004EE04FF0000142F6D153C0F2080398477E
:102CF00046E011464FF003024FF0200342F66147D1
:102D0000C0F20807B8473BE04FF0020142F6D1524B
:102D1000C0F20802904733E011464FF007024FF02F
:102D2000080342F66147C0F20807B84728E04FF0B1
:102D3000060142F6D152C0F20802904720E0114647
:102D40004FF005024FF0800342F66147C0F20807DA
:102D5000B84715E04FF0040142F6D153C0F2080322
:102D600098470DE0006B20F81420F8BDE969C9B15F
:102D70008B68BBB128464FF001019847F8BD0E465D
:102D8000286B20F81460F8BD2B6B23F814602846DC
:102D90004FF0000142F61D42C0F208029047024681
:102DA000002DE3D1F8BD00BF70B505460C461646B0
:102DB00042F61D43C0F20803984740EA060228463F
:102DC000214692B242F69543C0F20803984770BD7F
:102DD00038B505460C4642F61D43C0F20803984735
:102DE00002462846214642F69543C0F2080398471A
:102DF00038BD00BF08B54FF002014FF0000242F6A7
:102E00009543C0F20803984708BD00BF38B5044693
:102E100042F6F553C0F208039847204642F62D11BA
:102E2000C0F20801884720464FF004014FF000022D
:102E300042F69545C0F20805A84720464FF0060126
:102E40004FF00002A8474FF0010038BD10B582B026
:102E5000044601A94FF0010243F23163C0F20803B6
:102E6000984748B120464FF00301BDF8042042F6D0
:102E70009543C0F2080398474FF0010002B010BD1F
:102E800010B504464FF0030142F61D43C0F208039B
:102E900098470146204643F21952C0F20802904773
:102EA0004FF0010010BD00BF10B504464FF0020105
:102EB00042F61D43C0F2080398470146204643F2FC
:102EC0001952C0F20802904720464FF002014FF01D
:102ED000000242F69543C0F2080398474FF0010004
:102EE00010BD00BF38B505464DF21451C0F20801BF
:102EF00043F2D944C0F20804A04728464DF21C51C1
:102F0000C0F20801A04728464DF23C51C0F208012A
:102F1000A0474FF0010038BD08B54FF002014FF057
:102F2000010242F6A953C0F2080398474FF001008E
:102F300008BD00BF08B54FF0010143F21953C0F2BC
:102F4000080398474FF0010008BD00BF08B528B13D
:102F5000C36933B1196939B1884707E04FF00100FF
:102F600004E04FF0010001E04FF0010040B208BD65
:102F700010B582B0044601A94FF0010243F231635B
:102F8000C0F20803984748B120464FF00101BDF850
:102F9000042042F69543C0F2080398474FF0010021
:102FA00002B010BD10B504464FF0010142F61D43BA
:102FB000C0F2080398470146204643F21952C0F276
:102FC000080290474FF0010010BD00BF10B5044645
:102FD0004FF0000142F61D43C0F208039847014636
:102FE000204643F21952C0F2080290474FF0010008
:102FF00010BD00BF10B5044630B1C3693BB159697B
:1030000041B18847014607E04FF0000104E04FF06E
:10301000000101E04FF00001204643F21952C0F2D6
:10302000080290474FF0010010BD00BF4FF00100B3
:10303000704700BF08B54DF67C01C0F2080143F2AD
:10304000D943C0F2080398474FF0010008BD00BF04
:1030500008B54DF23C51C0F2080143F2D943C0F229
:10306000080398474FF0010008BD00BF38B504467B
:1030700042F63D13C0F2080398470546204629460C
:1030800043F21952C0F208029047284642F6B12195
:10309000C0F2080188470146204643F26153C0F25E
:1030A000080398474FF0010038BD00BF10B5044633
:1030B00042F66113C0F2080398470146204643F2E6
:1030C0001952C0F2080290474FF0010010BD00BF36
:1030D00010B504464FF0060142F61D43C0F2080346
:1030E00098470146204643F21952C0F20802904721
:1030F00020464FF006014FF0000242F69543C0F221
:10310000080398474FF0010010BD00BF10B50446FA
:103110004FF0070142F61D43C0F2080398470146ED
:10312000204643F21952C0F2080290474FF00100C6
:1031300010BD00BF10B582B0044601A94FF00102D6
:1031400043F23163C0F20803984748B120464FF07C
:103150000701BDF8042042F69543C0F208039847E2
:103160004FF0010002B010BD08B54FF006014FF05E
:10317000000242F69543C0F2080398474FF0010061
:1031800008BD00BF08B5C3695B68984708BD00BFAC
:1031900008B5036A002B0BDD4DF24451C0F2080163
:1031A0004FF0020243F28513C0F20803984708BDAE
:1031B0004FF0000008BD00BF8369994228BF19463F
:1031C000426952184261591A8161704710B504462C
:1031D0004069A16943F61923C0F2080398470146E4
:1031E000204643F2B912C0F20802904710BD00BF5A
:1031F00038B504460D4643F2CD13C0F20803984794
:10320000A06960B9002D31D020466FF06C0142F604
:103210008512C0F2080290474FF0000038BD616A85
:10322000E9B1626913782C2B0ED120464FF00101D1
:1032300043F2B913C0F208039847204643F2CD1178
:10324000C0F2080188470AE020466FF0660142F6A6
:103250008512C0F2080290474FF0000038BD606A46
:1032600000F1010060624FF0010038BD4FF0000036
:1032700038BD00BF08B54DF24852C0F2080243F213
:10328000A963C0F20803984708BD00BF2DE9F04FBD
:1032900083B001EB020B0746002800F09E805945E1
:1032A00080F09E800D4642F68513C0F2080301931C
:1032B0002C46C5EB0B0828464146514A43F2A96605
:1032C000C0F20806B04708B1461B00E04646284653
:1032D000414643F27522C0F20802904710B1001B2C
:1032E000009001E0CDF80080002E5FD0D7F800906C
:1032F000D9F80000002876D04FF0080443F66D3A64
:10330000C0F2080A29463246D04790B1C7F810905B
:10331000AB197B610098861BBE614FF0000487F8F3
:1033200028404FF0000139627962D9F804204AB987
:1033300014E0396801EB0409085904F10804002875
:10334000E0D150E038469047012807D097F8283060
:1033500023B938466FF0C701019CA047386A00289E
:1033600011DD38464DF66001C0F208014FF002024F
:1033700043F28513C0F208039847F96919B1CA6886
:103380000AB138469047384643F2CD14C0F20804DB
:10339000A047B86968B197F828306BB938466FF024
:1033A0006B01019A90474FF0010407E04FF00004D1
:1033B00004E04FF0010401E04FF0010428464146CB
:1033C00043F27523C0F208039847454408B100F161
:1033D0000105AB453FF66CAF0DE04FF0FF340AE05E
:1033E0004FF0000407E038466FF07001019A9047F3
:1033F0004FF00004E2E7204603B0BDE8F08F00BFC5
:103400004CD5080008B54FF00002826042F6111159
:10341000C0F20801884708BDF8B50446154672B9E0
:10342000C16882684FF000068E54E168A26843F2DA
:103430008D25C0F20805A8470546A66049E08368C7
:10344000426802F1FF30C21A95423DD8E768F81889
:103450002A464AF66513C0F208039847A1686D181A
:10346000A560E0684FF000024255E068A16843F6AD
:103470001927C0F20807B8470546E368A16818187D
:10348000491B4DF66002C0F2080243F2A967C0F280
:103490000807B8470746D0B1E268861A2046511996
:1034A000721B43F28D25C0F20805A8470546A368A4
:1034B000E06839469A1B4AF67713C0F2080398472A
:1034C000A068861BA66004E04FF0FF3501E04FF0D6
:1034D00000052846F8BD00BFF8B504460D4608466D
:1034E0004AF67123C0F2080398470746204643F284
:1034F0009111C0F2080188470646204629463A46FF
:1035000043F28513C0F208039847226A02F10102D0
:1035100022628019F8BD00BF70B584B00446084629
:1035200001A94FF00C0243F2F563C0F2080398477B
:103530000646204643F29111C0F20801884705462D
:10354000204601A9324643F28513C0F2080398478A
:10355000226A02F101022262401904B070BD00BF6C
:103560002DE9F04104460F4643F29113C0F20803DF
:10357000984780464DF6B406C0F20806204631460C
:103580004FF0010243F28515C0F20805A8478044B8
:1035900038464AF67121C0F20801884702462046A3
:1035A0003946A84708EB0007204631464FF0010294
:1035B000A847226A02F1010222623818BDE8F081B0
:1035C00070B582B0044615460E4619B32AB31946A3
:1035D00043F2F113C0F20803984708B36069A16988
:1035E000324601AB43F64906C0F20806B047D0B1F7
:1035F0002046019943F2B912C0F2080290472046D2
:1036000043F2CD11C0F208018847019828604FF0BD
:1036100001000AE04FF0000007E04FF0000004E076
:103620004FF0000001E04FF0000002B070BD00BF9D
:1036300070B582B0044613460E46E1B101A96A4650
:1036400043F2C155C0F20805A847B8B10198314608
:1036500043F2FD73C0F2080398470099884210D0E6
:1036600020466FF0890142F68512C0F208029047A9
:103670004FF0000007E04FF0000004E04FF00000C2
:1036800001E04FF0010002B070BD00BFA0F10203E5
:10369000D9B2022904D9D0F1010038BF0020704707
:1036A0004FF00100704700BF70B4411888421AD033
:1036B000034613F8016B36B94FF0000018E0B5422D
:1036C00002D115E02346144614F8015B002DF6D113
:1036D0008B420BD01C4614F8016B1846002EF1D11A
:1036E0004FF0000004E04FF0000001E04FF0000058
:1036F00070BC7047F0B4034638B9002A55D04FF07B
:10370000300008704FF0010049E0002808DAC0F1ED
:10371000000342B14FF02D0008704FF0010004E0AB
:103720004FF0000001E04FF000001D464CF6FF1482
:10373000C3F69A34A34210D84FF44A43C3F69A33DF
:103740004CF6CD46CCF6CC46A6FB03434FEAD3035A
:10375000B5FBF3F4002CF7D003E04FF44A43C3F673
:103760009A33824233D9B5FBF3F6F6B24CF6CD4725
:10377000CCF6CC476FEA0004A41814F0010F28D14E
:1037800006F130040C5400F10104204603FB1655E9
:10379000A7FB0363DB0802D0A24209D817E09042DE
:1037A00015D24FF000020A5411E04FF000000EE075
:1037B000B5FBF3F0C6B206F13000085504F1010084
:1037C00003FB1655A7FB0343DB0813D1E7E7F0BC67
:1037D000704706F130040C5400F1010003FB16554C
:1037E000A7FB0363DB08DAD08242F0D9B5FBF3F61E
:1037F000F6B2C5E7B5FBF3F6F6B2C1E730B583B074
:1038000004460D4601A94FF000024AF61943C0F2E2
:103810000803984728600198001B03B030BD00BF23
:1038200010B50C4699420BD1114622464AF6812327
:10383000C0F208039847D0F1010038BF002010BD46
:103840004FF0000010BD00BF2DE9F04F83B00646D9
:10385000019299460B4600293ED040F2AC22C2F2BA
:103860000702D2F800E04FF001054FF000042746B0
:10387000A0464FF0020B6FEA0401C9182940005D11
:103880002246002C4FD062E0315D12B1022A1BD1DA
:103890000FE00EEB0100407800F00800C0B210B15C
:1038A0002F46A84610E02C291BD0A0462F465A468A
:1038B0000AE02C2918D00EEB0100417801F0080035
:1038C000C1B2002908BF2F4604F1010405F101052A
:1038D000315D002A76D089E04FF00007B8463A46BD
:1038E00004E04FF0040201E04FF00402104643F2FE
:1038F0008D63C0F20803984768B1019A0AB1464443
:103900001660B9F1000F09D0C8EB0707C9F80070BD
:103910004FF0010004E04FF0000001E04FF0010023
:1039200003B0BDE8F08F0EEB000C9CF801C00CF06A
:10393000080C5FFA8CFCBCF1000F05D12C28D0D00C
:10394000A0462F465A460EE02F46A8460BE0022C12
:1039500009D12C28C8D07044407800F00800C0B2CB
:10396000002808BF2F4604F1010405F101059C421F
:10397000BCD0002988D0315D7AB90EEB01004078C7
:1039800000F00800C0B228B92C29AAD0A0462F46C2
:103990005A460FE02F46A8460CE0022A0AD12C29ED
:1039A000A2D00EEB0100417801F00800C1B200295D
:1039B00008BF2F4604F1010405F101059C427FF484
:1039C00063AF93E70EEB010A9AF801A00AF0080A28
:1039D0005FFA8AFABAF1000F05D12C2981D0A046EE
:1039E0002F465A460FE02F46A8460CE0022A0AD17D
:1039F0002C293FF479AF7144497801F00801C9B22C
:103A0000002908BF2F4604F1010405F101059C427D
:103A10007FF43AAF6AE700BF70B40E4611B340F2CC
:103A2000AC23C2F207031C6801786218537803F0D4
:103A30000801CAB2C2B103464FF0000016F0010FF0
:103A400009D115E013F8015F61194D7805F00801FF
:103A5000CDB2CDB90AE000F101021046B242F1D177
:103A6000304603E0084601E04FF0000070BC7047AC
:103A700000F1010013F8011F6218517801F00802EB
:103A8000D1B20029E7D1F1E702F1010013F8012FCB
:103A9000A1184A7802F00801CAB2002ADBD1E5E792
:103AA0002DE9F047804691469A468E4621B3037829
:103AB0002BB340F2AC22C2F207021068C1184C7856
:103AC00004F00305022D1DD042464FF000041EF005
:103AD000010F07D12FE0C719797801F00305022DF6
:103AE00036D111E004F10106344676450CD012F8C7
:103AF000017F002FEFD107E04FF0000404E04FF00A
:103B0000000401E04FF00004404671464A46534627
:103B100043F62105C0F20805A84730B940462146C2
:103B20004A4653462C46A84701E04FF0010000F0FA
:103B30000100BDE8F08704F1010412F8013F002BF9
:103B4000E2D0C1184D7805F00303022BCAD1DBE7A0
:103B500006F1010412F8013F002BD5D0C1184D78B1
:103B600005F00303022BBDD1CEE700BF2DE9F84FCE
:103B700005460C4616464AF67123C0F208039847DC
:103B800005EB0009204631464AF6F322C0F208024E
:103B9000904704EB000A20783A2808BF01344DF220
:103BA000BC7BC0F2080B43F2A968C0F20808C5EB61
:103BB0000907284639465A46C04700B1471BC4EB9F
:103BC0000A06204631461B4AC04700B1061B28465C
:103BD00039462246334643F6A12CC0F2080CE04792
:103BE000C0B1ED19A4194D4505D1A2458CBF0020E7
:103BF0000120BDE8F88FA24510D9287822788242AA
:103C000010D13A2801D03F2810D105F1010504F167
:103C10000104CCE74FF00000BDE8F88F4FF0000042
:103C2000BDE8F88F4FF00000BDE8F88F4FF00000BE
:103C3000BDE8F88FC4D70800F8B54DF2C877C0F2D8
:103C4000080741F68035C2F207053C460FCC2860D4
:103C50006960AA60EB6005F110052E460FCC286064
:103C60006960AA60EB60274623782B7441F68030A8
:103C7000C2F2070044F64561C0F2080188474FF0E0
:103C80000100F8BDF8B54DF2C877C0F2080741F65B
:103C90008035C2F207053C460FCC28606960AA60F7
:103CA000EB6005F110052E460FCC28606960AA6014
:103CB000EB60274623782B7441F68030C2F2070070
:103CC00044F64561C0F2080188474FF00100F8BD95
:103CD000F8B54DF2C877C0F2080741F68035C2F258
:103CE00007053C460FCC28606960AA60EB6005F1CF
:103CF00010052E460FCC28606960AA60EB6027464D
:103D000023782B7441F68030C2F2070044F64561F7
:103D1000C0F2080188474FF00100F8BD08B541F630
:103D20008032C2F207024DF2EC73C0F2080303CBFB
:103D300010605160104644F64561C0F208018847A2
:103D40004FF0010008BD00BF08B541F68033C2F254
:103D500007034DF2F472C0F20802106818609188EF
:103D6000927999809A71184644F64563C0F2080327
:103D700098474FF0010008BD08B541F68033C2F204
:103D800007034DF2FC72C0F2080210681860117946
:103D90001971184644F64563C0F2080398474FF07E
:103DA000010008BD08B541F68033C2F207034DF2A9
:103DB000FC72C0F208021068186011791971184677
:103DC00044F64563C0F2080398474FF0010008BD70
:103DD00008B541F68033C2F207034DF60402C0F283
:103DE000080210681860184644F64561C0F20801E0
:103DF00088474FF0010008BD08B541F68033C2F294
:103E000007034DF60402C0F2080210681860184655
:103E100044F64561C0F2080188474FF0010008BD33
:103E200008B542F6CD03C0F208039847012811D126
:103E300041F68032C2F207024DF60803C0F20803D1
:103E400003CB10605160104644F64561C0F2080192
:103E5000884712E041F68032C2F207024DF61003A5
:103E6000C0F2080303CB106051601888108110461F
:103E700044F64561C0F2080188474FF0010008BDD3
:103E80004FF00100704700BF4FF00100704700BFC6
:103E900030B583B001A96A464FF0010343F2C15423
:103EA000C0F20804A047002839D0009C012C39D961
:103EB000019D28464DF61C01C0F208014FF0020298
:103EC0004AF6C523C0F20803984760B942F6F103E9
:103ED000C0F20803984742F21970C0F20800804708
:103EE0004FF0010026E0022C1FD928464DF6200194
:103EF000C0F208014FF003024AF6C523C0F20803DE
:103F00009847A8B942F21D71C0F20801884742F6ED
:103F10000112C0F2080290474FF001000AE04FF092
:103F2000FF0007E04FF0010004E04FF0FF0001E068
:103F30004FF0FF0040B203B030BD00BF2DE9F047A5
:103F400084B0044603A94FF0010243F23163C0F28A
:103F500008039847002846D0204602A94FF00102E6
:103F600043F23163C0F20803984700283ED0204650
:103F700001A94FF0010243F23163C0F208039847F0
:103F8000002836D04AF22579C0F208090398C847BC
:103F90004AF20D48C0F20808C04706460F4602988C
:103FA000C847C04704460D460198C847C0478046E9
:103FB00089464AF6110AC0F2080A30463946D04707
:103FC00086B220462946D04784B240464946D0476B
:103FD00082B23046214642F68903C0F20803984770
:103FE0004FF0010007E04FF0FF0004E04FF0FF004A
:103FF00001E04FF0FF0040B204B0BDE8F08700BF21
:1040000000B583B001A94FF0010243F23163C0F261
:1040100008039847C0B101984AF22571C0F208011F
:1040200088474AF20D42C0F2080290474AF611034F
:10403000C0F20803984780B249F62571C0F2080122
:1040400088474FF0010001E04FF0FF0040B203B09D
:1040500000BD00BF08B542F26923C0F208039847CB
:104060004FF0010008BD00BF08B542F2D123C0F2F5
:10407000080398474FF0010008BD00BF08B549F696
:10408000B563C0F2080398474FF0010008BD00BFB8
:1040900008B549F6C563C0F2080398474FF0010020
:1040A00008BD00BF08B541F65563C0F20803984744
:1040B0004FF0010008BD00BF00B583B001A94FF06B
:1040C000010243F23163C0F20803984788B10198B6
:1040D00038B942F28122C0F2080290474FF0010342
:1040E00009E042F24511C0F2080188474FF0010390
:1040F00001E04FF0FF0358B203B000BD00B583B03C
:1041000001A94FF0010243F23163C0F2080398475E
:1041100088B1019838B942F2A922C0F2080290474A
:104120004FF0010309E042F2D511C0F208018847BF
:104130004FF0010301E04FF0FF0358B203B000BDA0
:1041400010B584B002A849F68173C0F208039847FD
:1041500001281AD141F68034C2F20704DDE90223B6
:10416000CDE9002320464FF064014DF61012C0F255
:1041700008024AF60B23C0F208039847204644F68B
:104180004561C0F20801884711E041F68034C2F26F
:1041900007044DF62403C0F2080307CB20606160DA
:1041A000A260204644F64561C0F2080188474FF0FE
:1041B000010004B010BD00BF10B584B002A849F6DC
:1041C000C573C0F20803984701281AD141F680341C
:1041D000C2F20704DDE90223CDE9002320464FF0B7
:1041E00064014DF61012C0F208024AF60B23C0F229
:1041F00008039847204644F64561C0F20801884705
:1042000011E041F68034C2F207044DF62403C0F2F7
:10421000080307CB20606160A260204644F6456138
:10422000C0F2080188474FF0010004B010BD00BF84
:1042300000B583B001A94FF0010243F23163C0F22F
:1042400008039847C0B101984AF22571C0F20801ED
:1042500088474AF20D42C0F2080290474AF611031D
:10426000C0F20803984780B249F6D561C0F2080150
:1042700088474FF0010001E04FF0FF0040B203B06B
:1042800000BD00BF00B583B001A94FF0010243F2A9
:104290003163C0F208039847C0B101984AF2257112
:1042A000C0F2080188474AF20D42C0F20802904766
:1042B0004AF61103C0F20803984780B249F6F1614B
:1042C000C0F2080188474FF0010001E04FF0FF0005
:1042D00040B203B000BD00BF00B583B001A94FF0EC
:1042E000010243F23163C0F20803984788B1019894
:1042F00038B941F67562C0F2080290474FF00103E9
:1043000009E041F65561C0F2080188474FF001030A
:1043100001E04FF0FF0358B203B000BD00B583B019
:1043200001A94FF0010243F23163C0F2080398473C
:1043300040B1019842F26D61C0F2080188474FF028
:10434000010001E04FF0FF0040B203B000BD00BF2C
:1043500038B542F2E923C0F208039847034641F614
:104360008034C2F2070420464FF064014DF630025B
:10437000C0F208024AF60B25C0F20805A8472046FD
:1043800044F64561C0F2080188474FF0010038BD8E
:1043900038B542F2F523C0F208039847034641F6C8
:1043A0008034C2F2070420464FF064014DF630021B
:1043B000C0F208024AF60B25C0F20805A8472046BD
:1043C00044F64561C0F2080188474FF0010038BD4E
:1043D00038B549F60D73C0F208039847034641F615
:1043E0008034C2F2070420464FF064014DF63002DB
:1043F000C0F208024AF60B25C0F20805A84720467D
:1044000044F64561C0F2080188474FF0010038BD0D
:1044100038B549F61973C0F208039847034641F6C8
:104420008034C2F2070420464FF064014DF630029A
:10443000C0F208024AF60B25C0F20805A84720463C
:1044400044F64561C0F2080188474FF0010038BDCD
:1044500038B541F69563C0F208039847034641F624
:104460008034C2F2070420464FF064014DF630025A
:10447000C0F208024AF60B25C0F20805A8472046FC
:1044800044F64561C0F2080188474FF0010038BD8D
:1044900038B542F20D73C0F208039847034641F65F
:1044A0008034C2F2070420464FF064014DF630021A
:1044B000C0F208024AF60B25C0F20805A8472046BC
:1044C00044F64561C0F2080188474FF0010038BD4D
:1044D00010B5044640F29543C0F2080398470128FE
:1044E00003D028B1022820D115E04FF0030010BD01
:1044F00040F66441C2F207010B5DCBB9204641F2A0
:104500002D02C0F20802904700F0030000280CBF03
:104510000220002010BD40F66440C2F207004FF0B8
:10452000000202554FF0020010BD4FF0010010BD17
:104530004FF0020010BD00BF08B54FF0000044F27C
:10454000D143C0F20803984708BD00BF38B5044600
:104550000D4641F25903C0F2080398474FEA400064
:1045600000F1FF312960204644F2D142C0F2080236
:10457000904738BD08B501464FF0000044F24D5356
:10458000C0F20803984708BD08B541F28503C0F2A0
:104590000803984708BD00BF08B54FF0000044F27B
:1045A0008953C0F20803984708BD00BF4FF00100CF
:1045B000704700BF08B54FF0000044F2AD53C0F2A1
:1045C0000803984708BD00BF2DE9F041144641F2A9
:1045D0008D03C0F208039847014670B302280CBF50
:1045E00002200120BDE8F08144B114F0010F0CBF9E
:1045F000384640464FF00101B047A0BB85B914F0E2
:10460000010F0CBF414639464FF001004FF40072D4
:104610004FF0000346F62525C0F20805A84730B341
:104620002CB141F21520C0F20800804718BB04F1FC
:10463000FF34A4B24FF000050DE04FF0010541F248
:10464000DD16C0F2080641F28078C2F2070841F692
:104650008017C2F207074FF6FF729442C4D14FF0A1
:104660000000BDE8F0814FF00100BDE8F0814FF09F
:104670000100BDE8F0814FF00100BDE8F08100BF0E
:1046800008B503460A464FF00000194644F2C953E4
:10469000C0F20803984708BD2DE9F041144641F2E5
:1046A0009523C0F208039847014668B302280CBF5F
:1046B00002200120BDE8F08145B914F0010F0CBFC4
:1046C000384640464FF00101B04798BB7CB114F02A
:1046D000010F0CBF414639464FF000004FF4007205
:1046E000034646F6252CC0F2080CE04730B32DB93E
:1046F00041F2A130C0F20800804718BB04F1FF343A
:10470000A4B24FF000050DE04FF0010541F269360B
:10471000C0F2080641F28078C2F2070841F680171D
:10472000C2F207074FF6FF729442C5D14FF0000066
:10473000BDE8F0814FF00100BDE8F0814FF00100CD
:10474000BDE8F0814FF00100BDE8F08108B50346F7
:104750000A464FF00000194644F29963C0F208037C
:10476000984708BD70B44FF080435D689C68D86876
:10477000D9695A6D4FF080061E605D609C60D860FC
:10478000D9615A654FF0000018654FF005011960B6
:1047900070BC704708B501F03F03184311F4807FE7
:1047A0000CD011F4006F02D040F4845006E011F4F4
:1047B000005F14BF40F4865040F4825011F4804FE3
:1047C00018BF40F400604FF080431A6158611846EA
:1047D00001F48052036C52B113F41F0F12D044F253
:1047E0006572C0F2080290474FF0000008BD13F454
:1047F0001B0F07D044F26571C0F2080188474FF0E3
:10480000000008BD13F0010FE4D011F4005F19D1CE
:104810004FF0010008BD086C03F1FF3300F03002D7
:10482000202A19D10BE044F26571C0F208018847D3
:104830004FF0000008BD00F03002202AEBD14FF00D
:10484000010008BD4FF08040006C44F24023C0F2EC
:104850000F034FF08041EEE7086C013BEBD1E2E73C
:1048600010B54FF0150047F6DD14C0F20804A0475C
:104870004FF02700A0474FF080434FF072029A603C
:10488000DA614FF0110058654FF4E06159604FF064
:1048900005021A6010BD00BF00280CBF04200020D4
:1048A000704700BF4FF00100704700BF33B14FF0B9
:1048B0008043586D40F48070586505E04FF08043A8
:1048C000586D20F48070586581B14FEA41014FF472
:1048D0003D43C0F20153B3FBF1F001FB103109B1CC
:1048E00000F1010020B100F1FF3001E04FF00000C5
:1048F0004FF08043596821F0FF0159605968C0B2F8
:1049000008435860042A04D0082A0CBFC0220022A1
:1049100001E04FF080024FF08043DA60704700BF43
:10492000704700BF4FF080435A6822F460505860CF
:104930004FF0000119614FF410625A611846036C80
:1049400013F0010FFBD0704710B504460A464FF034
:104950008043596821F4605058604FF0000018659A
:104960009861214644F29573C0F20803984710BD40
:104970004FF08043186A70474FF080431A6A4FEA3D
:10498000126101704FEA124141704FEA12218170A9
:10499000C2701A6A4FEA126101714FEA1241417105
:1049A0004FEA12218171C2711A6A4FEA12610172D3
:1049B0004FEA124141724FEA12218172C2721B6AA0
:1049C0004FEA136202734FEA134141734FEA132215
:1049D0008273C373704700BF70B504460D469DF8DF
:1049E000101029B14FF480704FF08041086504E049
:1049F0004FF000004FF0804630654FF08046706801
:104A000040F4C051716012F0030F04D0706840F49C
:104A10000051716005E04FF08046706820F400514D
:104A2000716004F40046002E0CBF4FF4A0204FF438
:104A3000803014F4803F09D040F400104FEAC25691
:104A40004FEAD6514FF08046B16118E043EA024682
:104A50004FF080418E6114F4003F02D040F42010EA
:104A60000DE014F4802F02D040F4801007E014F41D
:104A7000002F04D114F4801F18BF40F4002040F62A
:104A80006C41C2F207014FF000060E6040F668412B
:104A9000C2F207010A8040F66A42C2F2070213809E
:104AA00021462A4644F29573C0F20803984770BD28
:104AB00008B54FF080414FF00002CCF260020B6C61
:104AC000134207D044F26570C0F2080080474FF0EF
:104AD000000008BD13F0020FF1D04FF080410A6BC7
:104AE000026040F66C40C2F20700036803F1040361
:104AF000036040F66A41C2F207010A8840F6684046
:104B0000C2F20700018801FB02F2934216D34FF074
:104B100080404FF00002CCF26002036C134207D0D9
:104B200044F26571C0F2080188474FF0000008BDEB
:104B300013F0006FF1D04FF0010008BD4FF00100FD
:104B400008BD00BF70B586B0044640F66843C2F2A7
:104B500007031E8806FB01F64FF08040416811F400
:104B6000005F2FD14FF48045C4F20C05284645F272
:104B7000FD12C0F20802904728464FF0000145F2AE
:104B80001123C0F20803984728464FF000014FF464
:104B90000072C0F2011245F25925C0F20805A8477B
:104BA0004FF03000C4F200000190029414F0030FA3
:104BB00002D0B4B203942AE0C6F38F0444F0085143
:104BC000039124E04FF48045C4F20C05284645F2D9
:104BD000FD12C0F20802904728464FF0000145F24E
:104BE0001123C0F20803984728464FF000014FF404
:104BF0000072C0F2011245F25925C0F20805A8471B
:104C00004FF03000C4F2000001900294D1E74FF061
:104C10000001C4F2512104914FF0000405944FF4B7
:104C20008045C4F20C052846214601AA45F26523B9
:104C3000C0F2080398472846214645F20522C0F2F3
:104C40000802904740F66C40C2F2070001687618EF
:104C500006604FF0010006B070BD00BF10B540F611
:104C60006A43C2F20703188840F66842C2F207029C
:104C7000148804FB00F440F66C41C2F20701086896
:104C80004FF080414FF00002CCF260020B6C1342F7
:104C900012D044F26570C0F2080080474FF48040A3
:104CA000C4F20C004FF0000145F21122C0F20802DC
:104CB00090474FF0000010BD844202D913F0007FEE
:104CC00005D113F0006FE1D04FF0010010BD4FF09F
:104CD000010010BD70B586B0044640F66843C2F2CC
:104CE00007031E8806FB01F64FF08040416811F46F
:104CF000005F27D14FF48045C4F20C05284645F2E9
:104D0000FD12C0F20802904728464FF000014FF410
:104D10000052C0F2011245F25923C0F2080398472D
:104D200001944FF03400C4F20000029014F0030F1D
:104D300002D0B4B2039422E0C6F38F0444F00851C9
:104D400003911CE04FF48045C4F20C05284645F25F
:104D5000FD12C0F20802904728464FF000014FF4C0
:104D60000052C0F2011245F25923C0F208039847DD
:104D700001944FF03400C4F200000290D9E74FF0E4
:104D80000001C6F2310104914FF0000405944FF484
:104D90008045C4F20C052846214601AA45F2652348
:104DA000C0F2080398472846214645F20522C0F282
:104DB0000802904740F66C40C2F20700016876187E
:104DC00006604FF0010006B070BD00BF10B540F6A0
:104DD0006A43C2F20703188840F66842C2F207022B
:104DE000148804FB00F440F66C41C2F20701086825
:104DF0004FF080414FF00002CCF260020B6C134286
:104E000012D044F26570C0F2080080474FF4804031
:104E1000C4F20C004FF0000145F21122C0F208026A
:104E200090474FF0000010BD844202D913F0007F7C
:104E300005D113F0200FE1D04FF0010010BD4FF06D
:104E4000010010BD10B5044640F67043C2F20703DE
:104E5000187868B120464AF67122C0F208029047DD
:104E60000146204645F62D53C0F20803984710BD71
:104E700020464AF67121C0F20801884710BD00BFE4
:104E800039B140F67040C2F207004FF001010170E5
:104E9000704740F67043C2F207034FF000021A70E9
:104EA000704700BF40F67143C2F207034FF00102A2
:104EB0001A707047704700BF704700BF704700BF4F
:104EC00030B583B0134641F68034C2F20704009136
:104ED00020464FF064014DF63402C0F208024AF653
:104EE0000B25C0F20805A847204644F64563C0F2EA
:104EF000080398474FF0010003B030BD4FF00100A8
:104F0000704700BF30B583B00D4608B242F6B123FA
:104F1000C0F20803984741F68034C2F207040090BB
:104F200020464FF064014DF63C02C0F208022B46C9
:104F30004AF60B25C0F20805A847204644F645610D
:104F4000C0F2080188474FF0000003B030BD00BF39
:104F500030B583B00B461446012918D141F680358F
:104F6000C2F20705009228464FF064014DF6500248
:104F7000C0F2080223464AF60B24C0F20804A047F8
:104F8000284644F64561C0F20801884717E041F61B
:104F90008035C2F207050092019228464FF0640165
:104FA0004DF66402C0F208024AF60B24C0F208046F
:104FB000A047284644F64563C0F2080398474FF0DF
:104FC000010003B030BD00BF08B541F68032C2F227
:104FD00007024DF68003C0F2080303CB1060516056
:104FE00018781072104644F64561C0F208018847EF
:104FF0004FF0010008BD00BF08B541F68032C2F293
:1050000007024DF68C03C0F2080303CB1060516019
:1050100018881081104644F64561C0F2080188479F
:105020004FF0010008BD00BF08B540F24000C2F2D9
:10503000070043F20543C0F20803984708BD00BFCC
:105040002DE9F04745F69103C0F208039847002880
:1050500040D040F67244C2F2070441F6E435C2F291
:1050600007054FF0010645F6A53AC0F2080A40F2DE
:105070004009C2F2070943F21948C0F20808208823
:1050800040193146D04707462188484649193246DB
:10509000C047228802F1010293B22380E81810F879
:1050A000011C0D2901D00A2902D14FF000022280F3
:1050B00017B12388C72BE2D940F67240C2F207002D
:1050C0000188C82906D140F67243C2F207034FF0A7
:1050D00000021A80BDE8F08741F6B443C2F207032C
:1050E0009878042802D005283BD104E040F2C4029D
:1050F000C2F2070203E040F2B402C2F2070240F239
:105100009803C2F2070311785980507898809178FB
:10511000D980D07818811179598150799881917905
:10512000D981D0791882117A5982507A9882917AED
:10513000D982D07A1883127B5A834FF01C011970E0
:1051400041F6B440C2F2070081818360C3881B2B03
:105150000AD841F6B442C2F2070293814FF001002F
:1051600070474FF0000070474FF00100704700BFDC
:1051700004207146084200F00480EFF3098000F03B
:1051800005B8EFF3088000F001B800BF8EB00368E7
:105190000D9341680C9182680B92C3680A93016970
:1051A00009914269089283690793C06906904EF697
:1051B0002851CEF200010A6805924EF62C53CEF229
:1051C0000003186804904EF63051CEF200010A68D0
:1051D00003924EF63C53CEF20003186802904EF64E
:1051E0003451CEF200010A6800924EF63853CEF2E6
:1051F00000031868019000BEFEE700BF4FF00103F6
:10520000436070474FF0010303FA01F18162704778
:105210004FF0010303FA01F1C162704701EB810114
:1052200000EBC100C263704701EB810100EBC100DC
:105230000264704701EB810100EBC10042647047DA
:1052400001EB810100EBC1008264704701EB810139
:1052500000EBC100C264704701EB810100EBC100AB
:105260000265704770B504460E461546436A1268DB
:1052700045F21D23C0F208039847204631466A686C
:1052800045F22923C0F208039847204631464FF0E3
:10529000000245F23523C0F2080398472046314604
:1052A000AA6845F24123C0F20803984720463146D8
:1052B000EA6845F24D23C0F20803984770BD00BF6D
:1052C00021B1426842F0010343607047436823F014
:1052D00001014160704700BF016270474162704741
:1052E00080697047C161704708B547F6BD13C0F2C9
:1052F000080398474FF0000047F66121C0F208010B
:10530000884747F67920C0F20800804708BD00BFF3
:1053100010B54FF43D40C0F2015049F66153C0F260
:10532000080398474FF000004FF03E0147F61D126A
:10533000C0F20802904747F68D14C0F20804A04757
:105340000028FCD047F69D10C0F2080080474FF4BB
:10535000C061C4F20E0143F60173C2F20D038B6209
:1053600047F6AD14C0F20804A0470028FCD04FF067
:10537000100047F67D02C0F20802904749F69930C6
:10538000C0F20800804710BD4FF00100704700BF19
:1053900008B528B944F23953C0F20803984708BD4C
:1053A0004FF0010008BD00BF08B530B9084644F20F
:1053B0007553C0F20803984708BD4FF0010008BDBF
:1053C00010B981F0010070474FF00000704700BF36
:1053D00008B528B944F29953C0F20803984708BDAC
:1053E0004FF0010008BD00BF08B528B944F2B5531D
:1053F000C0F20803984708BD4FF0010008BD00BF88
:1054000020B94DF69800C0F2080070474FF0000038
:10541000704700BF08B538B90846114644F28163A9
:10542000C0F20803984708BD4FF0010008BD00BF57
:1054300008B538B90846114644F24D73C0F2080366
:10544000984708BD4FF0010008BD00BF41F28C0332
:10545000C2F207031A7802F1FF30C1B21970704727
:105460004FF00000704700BF4FF00000704700BFD2
:10547000704700BF30B583B041F2A003C2F207030A
:105480001878002840F0DF8048F6F961C0F2080182
:10549000884760B141F29404C2F20704248848F6B8
:1054A0005D70C0F20800804784420DD1CBE041F22C
:1054B0009402C2F20702148848F64D73C0F2080342
:1054C0009847844200F0BF80EFF31085D5F10105C5
:1054D00038BF002572B6BFF35F8F40F2A021C2F241
:1054E00007014FF000020A7040F68043C2F2070342
:1054F0001C7840F68440C2F2070030F8141079BBE3
:1055000041F2A403C2F207031A8802F101021A80D1
:1055100048F6F960C0F20800804730B941F2A401B2
:10552000C2F207010B88632B0DD948F6F962C0F26D
:1055300008029047A0B141F2A400C2F2070001881E
:10554000B1F5487F0CD2002D7DD040F2A023C2F2ED
:1055500007034FF001021A70BFF35F8F62B672E06B
:1055600041F2A403C2F207034FF000021A8041F295
:10557000B840C2F20700017849B9944214BF002232
:10558000012240F68043C2F207031A7003E0D4F10F
:10559000010438BF002441F2A000C2F207004FF01E
:1055A000010202703DB140F2A025C2F207052A7047
:1055B000BFF35F8F62B6254640F68441C2F2070111
:1055C00031F81440B4F5007418BF0124DCB148F67A
:1055D000F962C0F20802904750B148F65D70C0F21F
:1055E0000800804741F29402C2F20702108011E0E5
:1055F00048F64D71C0F20801884741F29403C2F2A7
:105600000703188006E041F29403C2F207034FF04B
:105610000000188040F68441C2F2070131F81530CD
:1056200045F26160C0F2080000904FF0840021460E
:1056300040F68844C2F2070404EB452249F21924DB
:10564000C0F20804A04703B030BD00BF08B54FF05A
:10565000000045F27543C0F20803984708BD00BF3B
:1056600008B5E8B940F68043C2F207031978D1F1D2
:10567000010138BF002140F68443C2F2070323F83A
:10568000110041F2B841C2F20701087041F2A002D4
:10569000C2F20702107045F27543C0F20803984742
:1056A00008BD00BF08B541F6B443C2F2070318783D
:1056B00010F0800F20D000F06001202956D141F673
:1056C000B442C2F207025378212B52D141F6B440C2
:1056D000C2F20700C18807294ED141F6B443C2F295
:1056E000070340F67442C2F207029A604FF00700C7
:1056F00098814FF0010008BD00F0600120293ED1E3
:1057000041F6B442C2F207025378202B02D0222B7A
:1057100038D11AE041F6B443C2F20703D88807280B
:1057200033D141F6B441C2F2070145F27142C0F2F1
:1057300008020A6140F67443C2F207038B604FF01F
:10574000070088814FF0010008BD41F6B440C2F265
:10575000070081784FF0000001F0010144F68162FA
:10576000C0F2080290474FF0010008BD4FF0000062
:1057700008BD4FF0000008BD4FF0000008BD4FF01D
:10578000000008BD4FF0000008BD4FF0000008BD4C
:1057900008B540F67C43C2F207031A7802F1FF30E5
:1057A000C1B21970187849F68563C0F208039847AA
:1057B00041F29800C2F207004FF00002027008BDEB
:1057C00008B54FF0000041F28C03C2F207031870D5
:1057D00041F2BC41C2F20701088041F2A803C2F2C3
:1057E00007034FF0A10119704FF020015970588044
:1057F00098804FF00201D980188140F67443C2F2BC
:1058000007034FF4E1311960187158714FF0080225
:105810009A7149F67563C0F20803984758B141F28E
:105820008C00C2F20700017801F10101CAB20270D6
:105830004FF0010008BD4FF0000008BDEFF31083EA
:1058400072B6BFF35F8F40F2A022C2F207024FF0A0
:105850000001117041F29000C2F20700028890B27C
:1058600041F29C01C2F20701097841F28802C2F2BA
:10587000070232F81110081A4BB940F2A023C2F205
:1058800007034FF001021A70BFF35F8F62B67047D3
:1058900008B54FF0000045F63D03C0F208039847F5
:1058A00008BD00BF08B545F63D03C0F208039847A0
:1058B000003018BF012008BD10B582B0EFF310838F
:1058C000D3F1010038BF002072B6BFF35F8F40F202
:1058D000A022C2F207024FF00001117041F29C04B5
:1058E000C2F20704247841F2B443C2F207031A78E3
:1058F0006AB941F29001C2F207010B889AB241F2F3
:105900008801C2F2070131F8143093420ED9002801
:1059100052D040F2A021C2F207014FF001020A70FA
:10592000BFF35F8F62B64FF0000047E041F2900294
:10593000C2F207024FF0000111808C4214BF002117
:10594000012141F29C03C2F20703197041F2B442F3
:10595000C2F207024FF00101117038B140F2A020ED
:10596000C2F207000170BFF35F8F62B64FF0000014
:1059700045F6A502C0F20802904730B14FF0000092
:1059800044F6A561C0F20801884745F6C110C0F28F
:10599000080000904FF005004FF0010141F2B40300
:1059A000C2F2070303EB44224FF4007349F21924B7
:1059B000C0F20804A04701E04FF0000002B010BDA3
:1059C00010B582B088BB41F29C03C2F2070318787D
:1059D000D0F1010338BF0023A9B945F6C114C0F2C4
:1059E0000804009410464FF0010141F2B402C2F2E3
:1059F000070202EB43224FF4007349F21924C0F26C
:105A00000804A04711E041F28802C2F2070222F81E
:105A100013104FF0000041F2B441C2F207010870C8
:105A200045F6B903C0F20803984702B010BD00BFA5
:105A300038B54FF0000440F67C43C2F207031C70F7
:105A400041F2A000C2F20700047041F2B841C2F274
:105A500007010C7040F68042C2F20702147040F653
:105A60008443C2F2070325461C805C8041F2940007
:105A7000C2F207000480204645F27541C0F20801D9
:105A8000884741F2B442C2F20702147041F29C030B
:105A9000C2F207031C7041F28800C2F207000480C2
:105AA00041F29001C2F207010C80204645F6B9028E
:105AB000C0F20802904798B140F67C43C2F2070357
:105AC000187800F10100C1B219701A78012A0AD1C0
:105AD0004FF0010041F29803C2F20703187038BD7D
