S0130000656173792D7068695F66772E73726563B5
S214080000D03D07209599080091990800CD50080022
S214080010919908009199080091990800000000003D
S2140800200000000000000000000000009199080091
S214080030919908000000000091990800919908001D
S21408004091990800919908009199080091990800DB
S21408005091990800919908009199080091990800CB
S214080060919908009199080000000000417708005F
S2140800705D7708007977080095770800000000008B
S21408008000000000919908009199080091990800CD
S214080090919908009199080091990800919908008B
S2140800A091990800000000009199080091990800AD
S2140800B0919908009199080091990800919908006B
S2140800C0919908009199080091990800919908005B
S2140800D0919908009199080091990800919908004B
S2140800E0BD82080091990800919908009199080026
S2140800F09199080008B50548054B191A062900D82D
S21408010008BD044A002AFBD09047F9E7C4DD08007A
S214080110C7DD08000000000008B50748074B191A95
S2140801208A1002EBD273591000D108BD044A002A7F
S214080130FBD09047F9E700BFC4DD0800C4DD08001F
S2140801400000000010B5064C237843B9FFF7D2FF2D
S214080150044810B10448AFF300800121217010BD97
S214080160E00A072000000000C4DD080008B5084BB8
S2140801701BB108480849AFF300800848016811B168
S214080180074A02B19047BDE80840FFF7C5BF00BF61
S21408019000000000C4DD0800E40A0720C4DD0800EB
S2140801A00000000010B540F60033C2F207031A68D4
S2140801B092F8224040F60631C2F207010878116824
S2140801C0527C231C18BF012344F60904C0F2080415
S2140801D0A04710BD70B582B0069C49F23536C0F20D
S2140801E0010641F23535C0F201054FEA017141EAD0
S2140801F0422242EAC0724FEAC4514FEAD151114333
S2140802009DF81C200092002814BF3046284641EA74
S2140802108361A2B24FF0010344F63514C0F2080415
S214080220A04702B070BD00BF08B540F60633C2F25C
S2140802300703187830B94FF0000044F67D01C0F285
S2140802400801884708BD00BF10B5029C4FEA422245
S21408025042EA017141EAC07040EAC363227841F27B
S214080260343043EA020144F6A503C0F2080398476F
S21408027040B144F6CD01C0F20801884720704FF01F
S214080280010010BD4FF0000010BD00BF08B540F6D5
S2140802900033C2F207031868818941F609304FEA2D
S2140802A0014144F6A502C0F20802904770B140F634
S2140802B00033C2F20703186800F1120044F6D501AD
S2140802C0C0F2080188474FF0010008BD4FF0000053
S2140802D008BD00BF10B5002840F0A88040F20C0307
S2140802E0C2F2070398684FEA501202F5001101F2AD
S2140802F007734FEA4322D26B00F01F004FF001014C
S21408030001FA00F313421DD040F20C02C2F20702B3
S214080310907B88420CD140F6FE23C2F20703197878
S21408032031B14EF21000CEF200004FF0000202602B
S21408033040F20C03C2F207034FF0040199734FF022
S214080340020010BD40F20C02C2F20702907B04289D
S21408035031D140F20C01C2F207014FF001028A7354
S2140803604EF21003CEF20003186888B940F6FE2055
S214080370C2F2070002704EF21003CEF2000343F2F8
S214080380A071C0F2A00159601A604FF0020010BDBB
S21408039040F6FE21C2F207014FF000020A7048F646
S2140803A08050C0F25B0040F20103C2F20703984790
S2140803B04FF0020010BD012816D140F6FE21C2F209
S2140803C007010B78002B3AD04EF21002CEF200024C
S2140803D0106810F4803F2CD04EF21001CEF20001C7
S2140803E04FF000030B602AE040F20C00C2F2070050
S2140803F0817B032920D040F60634C2F207044FF06A
S2140804000003237040F20C04C2F2070440F60032E0
S214080410C2F20702146040F2A510C0F20800804736
S214080420A07B022814BF0020012010BD4FF0040056
S21408043010BD4FF0020010BD4FF0030010BD40F293
S2140804400C00C2F207004FF0020282734FF4D45138
S214080450C0F2060101604FF0010343744FF000023A
S21408046080F82220C0E700BF08B540F20C03C2F2AD
S21408047007034FF004029A7340F60630C2F20700EC
S2140804804FF0FF01017044F2BD73C0F208039847AD
S21408049008BD00BF2DE9F04F95B040F2D523C0F255
S2140804A0080398470446012806D040F22921C0F2DE
S2140804B00801884700F05DBD40F60030C2F207002C
S2140804C001684FF00102CA734FF000050D748D8164
S2140804D044F68103C0F2080398474FF48040294643
S2140804E044F6A502C0F208029047002800F0C1842E
S2140804F045F208504FF4D57144F6A503C0F2080338
S2140805009847002800F0C38444F6CD00C0F20800DF
S2140805108047B0F1FF3F00F0BD844FEA00514FEA34
S2140805201152B2F5D57F40F0A4844FF0010600F0D2
S214080530B3BC44F6CD00C0F208008047014610F070
S214080540E04F00F0B58441F2893944F2055744F685
S214080550A505C0F2080544F6CD08C0F208083846D6
S21408056001F4FC11A847002800F08384C047011E48
S2140805700ADB09F1FF39384601F4FC11A8470028C0
S21408058040F0398500F075BC11F0006F40F6003376
S214080590C2F20703186814BF05220422C27300F0CB
S2140805A087BC41F237174FF0000844F6A505C0F29D
S2140805B008054FF4004944F6CD0AC0F2080A384642
S2140805C04146A847002840F0EA8400F07DBC38463B
S2140805D04146A847002800F077844946C4F21F0120
S2140805E044F22950002E08BF4FF4FC11A8470028F3
S2140805F000F06A84D04700280EDA10F0804F00F02A
S2140806008F8440F60030C2F207000168CA7B42F0C9
S2140806100803CB7300F084BC0BF1FF3B3846414619
S214080620A847002840F0D18400F04EBC4FF400459F
S214080630C4F21F0544F2015744F6A508C0F208089C
S21408064044F6CD09C0F2080938462946C0470028AE
S21408065040F0938400F079BC38462946C047002805
S21408066000F07384C84700280DDA00F0C040B0F1E7
S214080670804F40F06084A6490B68DA7B42F0080099
S214080680D87300F058BC06F1FF3638462946C047EE
S214080690002840F07C8400F058BC9D4908684FF05C
S2140806A00102828141F203104FF48031994B98473A
S2140806B0002800F0218198498847002800F01F810B
S2140806C0934803689A7CC2F3830101F1FF3003283C
S2140806D003D8DFE800F0060A0E124FF0120119746C
S2140806E00EE04FF014021A740AE04FF02200187455
S2140806F006E04FF03001197402E04FF040021A7419
S2140807005A7D02F00700854951F820104FF47A7098
S21408071000FB01F1C2F3C302814850F8222002FB15
S21408072001F11960997E187E5A7E4FEA820242EAE3
S214080730802040EAA1114FEA01524FEA125112F501
S214080740801F15D0187FDA7E4FEA420242EAE01090
S21408075001F1010100F0070202F1020201FA02F1BA
S214080760D87D00F00F0201FA02F14FEA9120586096
S2140807709B8943F207104FEA0341664A90470028D0
S21408078000F0C080624D2968087C3F2840F29C80B3
S2140807904FF00001009141F20810C0F208004FF433
S2140807A000724FF001035F4DA847002800F0D08381
S2140807B04FF000055C4E02A8B047002800F0C8833A
S2140807C005F10105ADB2322DF5D1029E06F0020301
S2140807D0DEB24F4A1068877E017E437E4FEA830268
S2140807E042EA812040EAA7174FEA075111F5801F11
S2140807F01AD14D4F03A8B847002800F0A98305F181
S2140808000105ADB2352DF5D9414B1A6803984FEA64
S2140808105007576008E003A8B847002800F09883F8
S21408082005F10105ADB200E03F4F7F2DF3D992E305
S2140808303E4D28783E4A9047054604280BD04FF48C
S2140808400071C0F2B7114FF00000C0F2B710082DC3
S21408085018BF014603E04FF48071C0F2B71143F2A7
S21408086006102C4B9847002800F07D8331498847AE
S21408087010F0800F40F07783254A106845742E4B99
S21408088098472E49884738B336B343F206104FF4D4
S2140808908071C0F2B9311F4A9047002800F066837D
S2140808A02448804710F0800F40F06083184E376861
S2140808B04FF0010587F822504FF4EA43C0F2193387
S2140808C03B601D49884707E01B4FB84704E0404691
S2140808D03946B04740B118E04FF00A0541F2101803
S2140808E04FF400770B4EF2E705F1FF3212F0FF05E2
S2140808F0EDD14FF00000ADE24FF00000AAE24FF055
S2140809000000A7E24FF00000A4E24FF00100A1E2C9
S214080910000B0720A54808008D0208006CCE0800CA
S21408092088CE0800354908000D4A0800060B07203F
S214080930F5470800CD480800A5010800014808004A
S21408094045F602304FF0000144F6A503C0F208034E
S2140809509847002800F08D8245F203104FF00001FA
S21408096044F6A502C0F208029047002800F08182EB
S21408097040F60035C2F207052E6844F6CD00C0F2F0
S214080980080080474FEA1041B1812B68DA7B12F0E5
S214080990010F56D040F28D20C0F20800804700288C
S2140809A000F067822B685A7D02F007004CF66C61EF
S2140809B0C0F2080151F820104FF47A7000FB01F1DC
S2140809C0C2F3C3024CF62C60C0F2080050F822208E
S2140809D002FB01F11960987C82090FD0DA7E987EB6
S2140809E0597E4FEA014141EA0020024322F44001C1
S2140809F001F101014FEA4120586022E0997E187EF5
S214080A005A7E4FEA820242EA802040EAA112187F04
S214080A10D97E4FEA410141EAE0104FEA02524FEA16
S214080A20125202F1010200F0070101F1020102FA76
S214080A3001F0DA7D02F00F0100FA01F04FEA902289
S214080A405A6040F60033C2F207031A68918943F2E7
S214080A5007104FEA014144F6A503C0F20803984779
S214080A60002800F0068240F60030C2F2070001684F
S214080A70CA7B12F0010F4ED08B8941F237104FEA2D
S214080A80034144F6A502C0F208029047002800F089
S214080A90F0814FF00103009341F23310C0F20800D2
S214080AA04FF000014FF008024C4DA847002800F010
S214080AB0E08104A84FF00101494B9847002800F050
S214080AC0D88148488047002800F0D3819DF8101048
S214080AD001F00F03012B09D013B1022B16D10BE03E
S214080AE0414A13684FF01000187414E03E490B682A
S214080AF04FF01A021A740EE09DF81230DB093A48D5
S214080B00016814BF302220220A7404E0364A1068AE
S214080B104FF01001017440F60030C2F20700016879
S214080B20CB7B03F00402D0B2002800F095804FF08B
S214080B30000103914FF0030500954FF00103019360
S214080B4008464FF0090240F2D515C0F20805A84736
S214080B50002800F08E8103A84FF00101204B98472B
S214080B60002800F086811F498847002800F0818108
S214080B70039DDFF878801A4F1A4E4FF00302009252
S214080B804FF0010301934FF0000001462A46C04784
S214080B90002800F06E8104A84FF00101B84700282D
S214080BA000F06781B047002800F063819DF81000C8
S214080BB0FF2800F05E81222802D19DF81230BBB1D2
S214080BC09DF81110002900F0548101F102016D18FA
S214080BD0039A02F580708542CFD94AE13549080064
S214080BE0A14A0800B94B0800000B0720D5010800E9
S214080BF04FF0060300934FF0010301934FF00000F7
S214080C0001462A46BB4DA847002800F0328104A8B2
S214080C104FF00101B84A9047002800F02A81B749EA
S214080C208847002800F025819DF81530322B28BF0C
S214080C303223B348026803F00700B24951F820107F
S214080C404FF47A7000FB01F1C3F3C303AE4850F8C3
S214080C50233003FB01F1116040F60632C2F20702A8
S214080C60107844F2F573C0F208039847032859D958
S214080C7040F60030C2F207000168CA7B02F004039F
S214080C80D8B230B303AD00954FF0000001464FF0E0
S214080C90080203469D4DA847002800F0EA809DF903
S214080CA00C10002915DA14AB4FF0020203F8442D95
S214080CB000934FF001004FF000014FF00702034683
S214080CC0A847002800F0D5808D4801684FF0040337
S214080CD04B7440F60032C2F207021068C17B11F06E
S214080CE0010F1AD0838941F237104FEA034144F6C0
S214080CF0A502C0F208029047002800F0BA8041F228
S214080D0006104FF00201824B9847002800F0B18089
S214080D107B4801684FF004024A7440F2A513C0F2FB
S214080D200803984744F60100C0F2080080470028E8
S214080D3000F0818040F60031C2F207010A68D37BD2
S214080D4003F00400C1B259B303AD00954FF000009C
S214080D5001464FF0130203466C4DA847002800F0E2
S214080D6088809DF80C2012F0010F19D014AB4FF0B4
S214080D70020003F8440D00934FF001004FF0000105
S214080D804FF013020346A847002872D05C490B6848
S214080D904FF0010283F8222018684FEA40011960D4
S214080DA040F60033C2F207031868C27B12F0010F40
S214080DB03CD0017C102939D94FF00103009341F249
S214080DC00610C0F208004FF60171C8F2FF014FF096
S214080DD04002504DA84700284BD004A84FF0010108
S214080DE0454B9847002844D044488047002840D0C0
S214080DF0494A904710F0800F3BD19DF8201001F02B
S214080E000F030F2B12D09DF82D009DF82C2050EACA
S214080E1002222ED141498847394B18684FF0010203
S214080E2080F8222001684FEA4103036040F2A510CB
S214080E30C0F20800804740F60032C2F20702116886
S214080E40CB7B13F0010F06D041F210104FF400715F
S214080E502F4A904768B140F60030C2F20700036890
S214080E604FF00001997340F22922C0F20802904719
S214080E707FE040F60034C2F2070420684FF003040F
S214080E80847340F22923C0F20803984771E04FF0B4
S214080E90000601E04FF0000644F205504FF000014E
S214080EA044F6A503C0F20803984700287FF441AB30
S214080EB040F60032C2F207021168CB7B13F0010F2E
S214080EC03FF44AADFFF76DBB40F60030C2F20700AC
S214080ED001684FF00203CB734FF480404FF00001D7
S214080EE044F6A502C0F20802904700287FF49EAB9D
S214080EF0B0E700BFD5010800A14A0800B94B0800B2
S214080F00000B07206CCE08002CCE0800490208000B
S214080F10A548080035490800CD480800814808005B
S214080F2040F60030C2F207000168CA7B12F0010FD3
S214080F307FF406AD10E545F602304FF00001384B59
S214080F40984700287FF4A9AB84E74FF0000081E7B4
S214080F504FF000007EE733490878334B984703285C
S214080F603FF666AC8DE44FF0000073E74FF00000E4
S214080F7070E7204615B0BDE8F08FC8470028FFF692
S214080F8074AB41F2690606F1FF36FFF765BBC84742
S214080F900028FFF66AAB013E7FF45EABD5E749460C
S214080FA0C4F21F0144F22950002E08BF4FF4FC116A
S214080FB0A847002888D0D0470028FFF61EAB40F682
S214080FC0350B0BF1FF3BFFF702BB4946C4F21F0186
S214080FD044F22950002E08BF4FF4FC11A8470028F9
S214080FE03FF472AFD0470028FFF607ABBBF1010B02
S214080FF07FF4EDAA68E7C047011EFFF6C5AA384683
S21408100001F4FC11A84700283FF433AFC047011E7F
S214081010FFF6BAAAB9F102097FF4A1AA29E700BF28
S214081020A5480800060B0720F547080008B540F253
S214081030D523C0F20803984758B940F22920C0F2D1
S2140810400800804740F60031C2F207010A68D07BE4
S21408105008BD4FF0000008BD08B540F2D523C0F221
S2140810600803984758B940F22920C0F2080080477C
S21408107040F60031C2F207010A68506808BD4FF012
S214081080000008BD4FF00000704700BF2DE9F04F84
S21408109083B08B46924640F2D523C0F208039847A1
S2140810A08146002840F0818040F64158C0F2030887
S2140810B040F60036C2F2070641F20D1544F6A504BE
S2140810C0C0F2080444F6CD07C0F2080730688189E4
S2140810D028464FEA0141A047002846D0B84710F4F2
S2140810E0807F4AD108F1FF383268938928464FEA4C
S2140810F00341A04700285CD137E04FEA4B2100E0C7
S21408110059464FF0010300934FF40072534644F6D5
S2140811103514C0F20804A04738B940F22921C0F2B5
S214081120080188474FF005093FE044F6CD00C0F2B5
S214081130080080474FF00001CEF25841014039B10F
S21408114040F22920C0F2080080474FF005092CE03D
S21408115040F60432C2F20702A2F800A040F6FC23CA
S214081160C2F20703A3F800A01FE040F22922C0F24B
S214081170080290474FF0050917E041F21110C0F237
S214081180080041F21214C0F21004BAF1010F88BF29
S214081190204640F60032C2F207021368D97B01F0F7
S2140811A00804E2B2002AABD1A7E7484603B0BDE878
S2140811B0F08FB84710F4807FDFD1306881892846E1
S2140811C04FEA0141A0470028CFD0B84710F4807FE7
S2140811D0D3D1B8F102087FF479AFC6E710B50C464C
S2140811E044F6A123C0F20803984748B940F60431EC
S2140811F0C2F207014FF000030B804FF0050010BD48
S21408120040F60430C2F207000288141B04804FF030
S214081210000010BD08B544F6B933C0F20803984775
S214081220002830D040F60430C2F2070001880029B2
S2140812302CD140F6FC22C2F207021388012B07D1F4
S21408124040F22921C0F2080188474FF0000008BD87
S21408125043F20C104FF0000144F6A502C0F2080253
S214081260904740B943F20C104FF0000144F6A5032E
S214081270C0F20803984740F22920C0F208008047C9
S2140812804FF0000008BD4FF0050008BD4FF0000005
S21408129008BD00BFF0B583B006460F46154640F2B7
S2140812A0D524C0F20804A0470446002858D1304682
S2140812B041F28503C0F20803984738B140F2292363
S2140812C0C0F2080398474FF0070449E049F218109F
S2140812D0C0F2080049F21911C0F21001012D88BFAA
S2140812E0084640F60032C2F207021668F37B03F09F
S2140812F00801CAB212B94FEA472100E039464FF052
S214081300010600964FF400722B4644F63516C0F2D6
S2140813100806B04738B940F22920C0F208008047CE
S2140813204FF005041CE044F6CD00C0F208008047E4
S2140813304FF00003CEF2584303403BB140F2292455
S214081340C0F20804A0474FF0050409E040F604314F
S214081350C2F207010D8040F6FC22C2F20702158091
S214081360204603B0F0BD00BF10B50C4644F6314326
S214081370C0F20803984748B940F60431C2F207019C
S2140813804FF000030B804FF0050010BD40F6043008
S214081390C2F207000288141B04804FF0000010BD3C
S2140813A008B544F62953C0F20803984700282FD0FA
S2140813B040F60430C2F20700018800292BD140F617
S2140813C0FC22C2F207021388012B07D140F2292318
S2140813D0C0F2080398474FF0000008BD43F20C100F
S2140813E04FF0000144F6A502C0F20802904738B94B
S2140813F040F22921C0F2080188474FF0050008BDD1
S21408140040F22920C0F2080080474FF0000008BDCF
S2140814104FF0050008BD4FF0000008BDF0B48CB0D2
S21408142006460F4601AC4CF6C865C0F208050FCD57
S2140814300FC40FCD0FC495E8070084E80700019B8A
S214081440B7FBF3F0B0FBF6F1B1F5807F52D90299FD
S214081450B7FBF1F2B2FBF6F1B1F5807F4FD9039BEB
S214081460B7FBF3F0B0FBF6F1B1F5807F4AD90499E3
S214081470B7FBF1F2B2FBF6F1B1F5807F45D9059BD3
S214081480B7FBF3F0B0FBF6F1B1F5807F40D90699CB
S214081490B7FBF1F2B2FBF6F1B1F5807F3BD9079BBB
S2140814A0B7FBF3F0B0FBF6F1B1F5807F36D90899B3
S2140814B0B7FBF1F2B2FBF6F1B1F5807F31D9099BA3
S2140814C0B7FBF3F0B0FBF6F1B1F5807F2CD90A999B
S2140814D0B7FBF1F2B2FBF6F1B1F5807F27D90B9B8B
S2140814E0B7FBF3F0B0FBF6F1B1F5807F22D94FF6E3
S2140814F0FF7022E04FF0000241EA02201DE04FF0A4
S2140815000102F9E74FF00202F6E74FF00302F3E7AD
S2140815104FF00402F0E74FF00502EDE74FF0060241
S214081520EAE74FF00702E7E74FF00802E4E74FF074
S2140815300902E1E74FF00A02DEE70CB0F0BC70479C
S21408154070B506460C46086858B1896841F21D43CE
S214081550C0F2080398474FF6FF71884214D0054634
S21408156001E04FF00005606858B1A16841F21D42DD
S214081570C0F2080290474FF6FF73984204D045EA37
S214081580004535604FF0000070BD00BF70B40B68B2
S2140815904FF0010202FA03F28E8A4C6804F00F0537
S2140815A02E430C8926438D7A46EA45268C7D46EAE4
S2140815B00445CE7D45EA46450C7E45EA844603F159
S2140815C010054FEA451405190651CC686C600C697D
S2140815D000EB4315C5F80C428C7D3CB18D8B4C8BCB
S2140815E044EA054500EB4314C4F81852CD7F05FAC3
S2140815F003F58C7F04FA03F444EA0545856491F8FC
S214081600215005FA03F591F8204004FA03F444EA59
S2140816100544446491F822401CB1046A14430462E9
S21408162003E0046A24EA0204046291F82440012CC8
S21408163003D1846E1443846606E0846E002A14BFC1
S214081640002404F00104846691F82540012C04D196
S214081650846E44EA0242826606E0846E120414BF70
S214081660002204F001028266032B0FD8C46E4FEAEC
S214081670C3034FF0FF0202FA03F224EA020291F8CB
S214081680231001FA03F31A43C26610E0A3F1040319
S214081690046F4FEAC3034FF0FF0202FA03F224EA8C
S2140816A0020291F8231001FA03F31A4302674FF077
S2140816B0000070BC704700BF10B40C680B699342FA
S2140816C007D3CA6000EB4410C0F808224FF00000A9
S2140816D001E04FF6FF7010BC704700BF4FF00103E3
S2140816E003FA01F1416070474FF0010303FA01F174
S2140816F08160704702F110024FF0010303FA02F20C
S21408170003FA01F10A434261704700BF08B54FF477
S2140817100043C4F20003984206D14FF0180047F67B
S2140817201111C0F20801884708BD00BF436823F0BE
S2140817307F424260436843EA01614160704700BFE8
S21408174010B4036913F0010F20D00AE003F1FF3349
S214081750046914F0010F1ED003E0046914F0010FA9
S214081760F4D0836840F60834C2F207042360406861
S21408177010F0020F1CBFC3F3034010700B804FF02D
S214081780000001E04FF0010010BC704743F69924B2
S21408179004F1FF33E1E7013BDFD1F3E730B4046936
S2140817A014F0020F1FD00AE004F1FF34056915F0A3
S2140817B0020F1DD003E0056915F0020FF4D0446847
S2140817C014F0020F07D04FEA024202F470221143C7
S2140817D00BB141F08071C1604FF0000001E04FF09E
S2140817E0010030BC704743F6992505F1FF34E2E75F
S2140817F0013CE0D1F3E700BF42B101F10C0150F81B
S214081800213043F0010240F82120704701F10C0115
S21408181050F8213023F0010240F82120704700BF1D
S21408182042B101F10C0150F8213043F0020240F8B1
S2140818302120704701F10C0150F8213023F00202F4
S21408184040F82120704700BF042A0ED101F10C0190
S21408185050F8213023F0080240F8212050F82130B3
S21408186043F0040240F82120704772B901F10C01D8
S21408187050F8213023F0080240F8212050F8213093
S21408188023F0040240F821207047082A07D101F106
S2140818900C0150F8213043F0080240F82120704728
S2140818A001F10C0150F8213023F0F00340F8213004
S2140818B050F821301A4340F82120704701F10C01F6
S2140818C050F8213023F47F4340F8213050F8213077
S2140818D043EA022240F82120704700BF10B401F105
S2140818E00C0150F82140A4B240F8214050F821409D
S2140818F04FEA036343EA0242144340F8214010BC0F
S214081900704700BF4FF0080303604FF020010160E6
S2140819104FF00402026070474FF4D453C0F2060337
S214081920994245D84FEA4101B2FBF1F2A2F104020E
S214081930FF2A2ED94FEA5202FF2A18D94FEA520236
S214081940FF2A17D94FEA5202FF2A16D94FEA52023F
S214081950FF2A15D94FEA5202FF2A14D94FEA520233
S214081960FF2A13D94FEA52024FF0070313E04FF04D
S214081970010310E04FF002030DE04FF003030AE006
S2140819804FF0040307E04FF0050304E04FF00603AA
S21408199001E04FF000034FEA02614FEA034343EACF
S2140819A01141D2B241EA020303614FF000007047CA
S2140819B04FF00100704700BF4FF080030360036BD1
S2140819C0704700BF38B504460D464FF0FF338362B4
S2140819D0036A41F6B911C0F208018847204641F665
S2140819E00512C0F208029047204669682A6841F640
S2140819F01913C0F208039847012814BF00200120D5
S214081A00697A012904BF4021216038BD4FF400439C
S214081A104360704770B54FF02B004FF0006147F2F7
S214081A20ED54C0F20804A0474FF02A004FF00061BA
S214081A30A0474FF014004FF00061A0474FF0130086
S214081A404FF00061A0474FF015004FF00061A04727
S214081A504FF016004FF00061A0474FF017004FF008
S214081A600061A0474FF018004FF00061A0474FF004
S214081A7067004FF00801A0474FF0160047F611160A
S214081A80C0F20806B0474FF011004FF00061A047BB
S214081A904FF012004FF00061A0474FF00C00B0471F
S214081AA04FF48055C4F20E054FF080732B61C5F8CD
S214081AB0A0306B634FF46064C4F20E044FF4805099
S214081AC0206660656062C4F88000226F0243226761
S214081AD060604FF00101216661656162C4F880109C
S214081AE0236F0B43236761604FF4005020666065E0
S214081AF06062C4F88000226F0243226760604FF07D
S214081B000C00B0474FF400016961C5F8A01069667B
S214081B1069652962C5F884102B6F23F400002867CE
S214081B204FF00E00B0474FF4A055C4F20E054FF420
S214081B3080626A61C5F8A0206A666A652A62C5F886
S214081B408420296F21F480632B674FF00B00B04781
S214081B504FF020002061C4F8A00060634FF00B002F
S214081B60B0474FF080022261C4F8A02022634FF0ED
S214081B700B00B0474FF002016161C4F8A01021665F
S214081B8061652162C4F88410236F23F00200206781
S214081B904FF00E00B0474FF480726A61C5F8A02077
S214081BA02A666A652A62C5F88420296F21F480733C
S214081BB02B674FF00E00B0474FF400702861C5F849
S214081BC0A000686370BD00BF10B582B001464FF430
S214081BD00040C4F200004FF00002134641F29D7424
S214081BE0C0F20804A0474FF40042C4F2000213698A
S214081BF013F0010FFBD04FF40040C4F200000DF1C3
S214081C0006014FF0000241F24173C0F208039847FC
S214081C10BDF8060002B010BD4FF49053C4F20E0390
S214081C20D86BC0F3004070472DE9F84380460F464E
S214081C304FF4804041F6C934C0F20804A0474FF07C
S214081C400000A0474FF00100A04705464FF00200ED
S214081C50A0474FF00006C0F2FF1606EA00404519F6
S214081C604FF00300A04781464FF00400A04706EA5D
S214081C70004101EB090640F61433C2F207031A685E
S214081C8095423ABFC2F100725219C2EB0502C8F873
S214081C90002040F61030C2F2070001688E423ABFB4
S214081CA0C1F100718919C1EB0601396040F6143399
S214081CB0C2F207031D6040F61032C2F20702166031
S214081CC0BDE8F88338B540F60E33C2F207031C8821
S214081CD0012C14BF0024012440F60C30C2F2070081
S214081CE00188012904BF44F00204A4B240F61C325D
S214081CF0C2F207021588012D08BF44F0040440F616
S214081D002033C2F207031888012808BF44F00804E5
S214081D104FF4827041F6C935C0F20805A84700BFDF
S214081D202046A84700BF00BF00BF00BF38BD00BFA1
S214081D3008B540F60E33C2F20703188041F6C540D0
S214081D40C0F20800804708BD40F60E33C2F207030B
S214081D501888704708B540F60C33C2F20703188097
S214081D6041F6C540C0F20800804708BD40F60C336F
S214081D70C2F207031888704708B540F61C33C2F24B
S214081D800703188041F6C540C0F20800804708BD22
S214081D9040F61C33C2F207031888704708B540F6A9
S214081DA02033C2F20703188041F6C540C0F2080087
S214081DB0804708BD40F62033C2F2070318887047EC
S214081DC010B582B0014640F61A33C2F207031880EF
S214081DD04FF40040C4F2000041F480514FF0010275
S214081DE04FF0000341F29D74C0F20804A0474FF478
S214081DF00042C4F20002106910F0010FFBD04FF445
S214081E000040C4F200000DF106014FF0010241F255
S214081E104173C0F20803984702B010BD40F61A3363
S214081E20C2F207031888704710B582B0014640F61C
S214081E301833C2F2070318804FF40040C4F20000BB
S214081E4041F450414FF001024FF0000341F29D74F7
S214081E50C0F20804A0474FF40042C4F2000210691A
S214081E6010F0010FFBD04FF40040C4F200000DF153
S214081E7006014FF0010241F24173C0F20803984789
S214081E8002B010BD40F61833C2F207031888704730
S214081E9010B582B0014640F61E33C2F2070318801A
S214081EA04FF40040C4F2000041F4A0414FF0010294
S214081EB04FF0000341F29D74C0F20804A0474FF4A7
S214081EC00042C4F20002106910F0010FFBD04FF474
S214081ED00040C4F200000DF106014FF0010241F285
S214081EE04173C0F20803984702B010BD40F61E338F
S214081EF0C2F207031888704710B582B0014640F64C
S214081F002233C2F2070318804FF40040C4F20000E0
S214081F1041F410414FF001024FF0000341F29D7466
S214081F20C0F20804A0474FF40042C4F20002106949
S214081F3010F0010FFBD04FF40040C4F200000DF182
S214081F4006014FF0010241F24173C0F208039847B8
S214081F5002B010BD40F62233C2F207031888704755
S214081F60704700BF2DE9F84F4FF019004FF0006199
S214081F7047F2ED54C0F20804A0474FF01A004FF09D
S214081F800061A0474FF01B004FF00061A0474FF0DC
S214081F901C004FF00061A0474FF01D004FF0006195
S214081FA0A0474FF40044C4F20004204641F20D73E3
S214081FB0C0F2080398474FF0020020604FF08005F3
S214081FC025604FF080712160626842F00106666005
S214081FD0676847F010036360606840F0020161605C
S214081FE020464FF000014FF0010241F2F97BC0F2A3
S214081FF0080BD84720464FF000014FF0010241F683
S214082000210AC0F2080AD04720464FF000012A46A7
S21408201041F6A109C0F20809C84720464FF000015A
S2140820204FF0040241F64908C0F20808C0472046A7
S2140820304FF000014FF01C0241F6BD07C0F208073A
S214082040B84720464FF000010A460B4641F6DD0623
S214082050C0F20806B04720464FF001010A46D847A6
S21408206020464FF001010A46D04720464FF00101AE
S2140820702A46C84720464FF001014FF00402C047E1
S21408208020464FF001014FF01C02B84720464FF09B
S21408209001014FF000021346B04720464FF0640196
S2140820A041F22D72C0F2080290474FF001032360F8
S2140820B04FF00E0047F61114C0F20804A0474FF47C
S2140820C0A050C4F20E004FF020010161C0F8A01025
S2140820D041634FF00D00A0474FF49053C4F20E032F
S2140820E04FF480325A61C3F8A0201A665A651A62FD
S2140820F0C3F88020186F20F480311967BDE8F88F80
S214082100704700BF38B541F28064C2F207044FF446
S2140821103D43C0F2015323604FF4D450C0F206008A
S21408212060604FF0500121724FF0000262724FF467
S2140821304045C4F20805284641F60513C0F20803D0
S21408214098472846214641F6C512C0F2080290472D
S21408215038BD00BF2DE9F04F85B04FF0240047F694
S2140821601113C0F2080398474FF48044C4F20904D8
S21408217020464FF0010141F2E965C0F20805A8477C
S21408218020464FF00301A84720464FF00201A84713
S2140821904FF47A2001904FF43D41C0F2015102916C
S2140821A00391204601A941F24152C0F20802904725
S2140821B041F2A061C2F207014FF000050D814FF011
S2140821C001068E724FF00B0BC1F804B04FF4806A0C
S2140821D0C1F810A0CD600E60204641F28D59C0F2BD
S2140821E00809C847204631462A4641F2F568C0F233
S2140821F00808C04741F2F061C2F207010D818E72ED
S214082200C1F804B0C1F810A0CD604FF003070F6006
S2140822102046C847204639462A46C04741F2C86382
S2140822201946C2F207010D814FF000008872C1F806
S21408223004B0C1F810A0CD604FF0020AC1F800A0A3
S2140822402046C847204651462A46C04720463146BB
S21408225041F2DD65C0F20805A84720463946A8477A
S21408226020465146A84705B0BDE8F08FF8B50346A6
S2140822700E4617464FF48044C4F20904204641F23D
S214082280A061C2F207011A4641F2B965C0F2080514
S214082290A847204641F2F061C2F207013A46A8472D
S2140822A0204641F2C861C2F207013246A847F8BD87
S2140822B04FF48053C4F20E03D86B80F40001C1F3C8
S2140822C0C05070474FF4A053C4F20E034FF4007288
S2140822D01A6370474FF4A053C4F20E034FF400720B
S2140822E05A63704708B540F63443C2F20703C36220
S2140822F0184642F21551C0F20801884708BD00BFCB
S21408230008B5C06A42F22553C0F20803984708BDCC
S21408231000B583B002A94FF0000321F8023DC06A59
S21408232042F23152C0F208029047BDF9060003B0E7
S21408233000BD00BF00B583B002A94FF0000321F826
S214082340023DC06A42F2CD52C0F208029047BDF97B
S214082350060003B000BD00BF38B505460C46C06A87
S21408236042F27153C0F20803984714F1630F0CDA6F
S21408237014F1C70F09DB28464FF002014FF0200280
S21408238042F27D73C0F20803984714F1C70F0CDABF
S21408239014F5967F09DD28464FF002014FF010022B
S2140823A042F27D73C0F20803984714F5967F0CDC5A
S2140823B014F5C87F09DD28464FF002014FF00802E1
S2140823C042F27D73C0F20803984714F5C87F0CDC08
S2140823D014F5FA7F09DD28464FF002014FF0040293
S2140823E042F27D73C0F20803984714F5FA7F0CDCB6
S2140823F014F5167F09DD28464FF002014FF08002DB
S21408240042F27D73C0F20803984714F5167F0CDC79
S21408241014F52F7F09DD28464FF002014FF04002E1
S21408242042F27D73C0F20803984714F52F7F0BDC41
S21408243014F5487F08DD28464FF002010A4642F2A6
S2140824407D73C0F20803984714F5487F0CDC14F532
S214082450617F09DD28464FF002014FF0010242F283
S2140824607D73C0F20803984755B1E86920B1026841
S21408247012B12846214690474FF0010185F82810EA
S21408248038BD00BF10F16D0F2BD009DC10F1830F9B
S2140824902CD010F1710F1AD010F18A0F30D12AE023
S2140824A010F1670F0ED003DC10F16C0F28D113E083
S2140824B010F1660F29D0002822D14DF27C70C0F2A8
S2140824C0080070474DF29870C0F2080070474DF249
S2140824D0AC70C0F2080070474DF2C070C0F2080039
S2140824E070474DF2D870C0F2080070474DF2EC7095
S2140824F0C0F2080070474DF2FC70C0F20800704742
S2140825004DF61000C0F2080070474DF28870C0F211
S214082510080070474FF00003038043804FF0100117
S214082520818070474FF0000303804380704700BFE8
S21408253010B44388B0F900401AB2944214D019B1C6
S21408254000EB4202D3880B80B0F9022002F10102A8
S214082550B0F9043003F1010392FBF3F103FB1122F7
S21408256042804FF0010001E04FF0000010BC7047B9
S21408257038B504460D46B0F90430B0F90010B0F985
S2140825800220D21803F1010392FBF3F003FB102399
S214082590994207D120464FF0000142F23152C0F26C
S2140825A008029047B4F9000004EB4001CD8000F122
S2140825B00100B4F9043003F1010390FBF3F203FBC6
S2140825C0120020804FF0010038BD00BF0288438803
S2140825D0D21A92B293B20B8013F4004F04D08088BC
S2140825E000F1010012180A804FF00100704700BF82
S2140825F0072904D8036B2BB133F8110070474FF046
S214082600000070474FF00000704700BF70B50546E1
S2140826100C46164642F2F153C0F20803984720EAE1
S21408262006022846214692B242F26963C0F20803BF
S214082630984770BD70B505460E461C46114642F2D0
S214082640F153C0F208039847304228464FF000017D
S214082650224619BF42F27D73C0F2080342F20D63A8
S214082660C0F20803984770BDF8B505460C461646EE
S214082670072900F28180036B002B7DD033F8117098
S21408268023F81420072957D8DFE801F004151D2879
S214082690434E303B4FF0010142F2F152C0F20802BD
S2140826A090474FF6BF713140014252D046F040067F
S2140826B0B74253D14EE04FF0000142F2A573C0F284
S2140826C00803984746E011464FF003024FF02003F0
S2140826D042F23567C0F20807B8473BE04FF0020100
S2140826E042F2A572C0F20802904733E011464FF056
S2140826F007024FF0080342F23567C0F20807B847EA
S21408270028E04FF0060142F2A572C0F20802904790
S21408271020E011464FF005024FF0800342F235677D
S214082720C0F20807B84715E04FF0040142F2A57357
S214082730C0F2080398470DE0006B20F81420F8BD97
S214082740E969C9B18B68BBB128464FF001019847C3
S214082750F8BD0E46286B20F81460F8BD2B6B23F8DE
S214082760146028464FF0000142F2F152C0F2080207
S21408277090470246002DE3D1F8BD00BF70B5054668
S2140827800C46164642F2F153C0F20803984740EA50
S21408279006022846214692B242F26963C0F208034E
S2140827A0984770BD38B505460C4642F2F153C0F25C
S2140827B00803984702462846214642F26963C0F253
S2140827C00803984738BD00BF08B54FF002014FF020
S2140827D0000242F26963C0F20803984708BD00BFCA
S2140827E038B5044642F2C973C0F208039847204633
S2140827F042F20131C0F20801884720464FF0040132
S2140828004FF0000242F26965C0F20805A847204664
S2140828104FF006014FF00002A8474FF0010038BD00
S21408282010B582B0044601A94FF0010243F2050331
S214082830C0F20803984748B120464FF00301BDF898
S214082840042042F26963C0F2080398474FF001007B
S21408285002B010BD10B504464FF0030142F2F15322
S214082860C0F2080398470146204642F6ED62C0F2D9
S214082870080290474FF0010010BD00BF10B504468F
S2140828804FF0020142F2F153C0F20803984701469E
S214082890204642F6ED62C0F20802904720464FF006
S2140828A002014FF0000242F26963C0F2080398473B
S2140828B04FF0010010BD00BF38B505464DF62001A3
S2140828C0C0F2080142F6AD64C0F20804A0472846E4
S2140828D04DF62801C0F20801A04728464DF64801E3
S2140828E0C0F20801A0474FF0010038BD08B54FF008
S2140828F002014FF0010242F27D73C0F208039847C6
S2140829004FF0010008BD00BF08B54FF0010142F6C0
S214082910ED63C0F2080398474FF0010008BD00BFFA
S21408292008B528B1C36933B1196939B1884707E0D2
S2140829304FF0010004E04FF0010001E04FF0010005
S21408294040B208BD10B582B0044601A94FF0010296
S21408295043F20503C0F20803984748B120464FF0F3
S2140829600101BDF8042042F26963C0F208039847E3
S2140829704FF0010002B010BD10B504464FF001013B
S21408298042F2F153C0F2080398470146204642F641
S214082990ED62C0F2080290474FF0010010BD00BF7C
S2140829A010B504464FF0000142F2F153C0F2080396
S2140829B098470146204642F6ED62C0F20802904764
S2140829C04FF0010010BD00BF10B5044630B1C36912
S2140829D03BB1596941B18847014607E04FF000010D
S2140829E004E04FF0000101E04FF00001204642F6F7
S2140829F0ED62C0F2080290474FF0010010BD00BF1C
S214082A004FF00100704700BF08B54DF6A831C0F278
S214082A10080142F6AD63C0F2080398474FF001007C
S214082A2008BD00BF08B54DF64801C0F2080142F6D9
S214082A30AD63C0F2080398474FF0010008BD00BF19
S214082A4038B5044642F21133C0F2080398470546E3
S214082A502046294642F6ED62C0F20802904728460C
S214082A6042F28541C0F2080188470146204642F6F0
S214082A703573C0F2080398474FF0010038BD00BF11
S214082A8010B5044642F23533C0F2080398470146AB
S214082A90204642F6ED62C0F2080290474FF0010069
S214082AA010BD00BF10B504464FF0060142F2F153C0
S214082AB0C0F2080398470146204642F6ED62C0F287
S214082AC00802904720464FF006014FF0000242F2F7
S214082AD06963C0F2080398474FF0010010BD00BFB5
S214082AE010B504464FF0070142F2F153C0F208034E
S214082AF098470146204642F6ED62C0F20802904723
S214082B004FF0010010BD00BF10B582B0044601A901
S214082B104FF0010243F20503C0F20803984748B194
S214082B2020464FF00701BDF8042042F26963C0F260
S214082B30080398474FF0010002B010BD08B54FF0E3
S214082B4006014FF0000242F26963C0F20803984794
S214082B504FF0010008BD00BF08B5C3695B68984719
S214082B6008BD00BF08B5036A002B0BDD4DF6500103
S214082B70C0F208014FF0020242F65933C0F20803C9
S214082B80984708BD4FF0000008BD00BF836999420A
S214082B9028BF1946426952184261591A816170471E
S214082BA010B504464069A16943F2ED33C0F2080344
S214082BB098470146204642F68D32C0F208029047F2
S214082BC010BD00BF38B504460D4642F6A133C0F224
S214082BD008039847A06960B9002D31D020466FF0E9
S214082BE06C0142F25932C0F2080290474FF00000DA
S214082BF038BD616AE9B1626913782C2B0ED120467C
S214082C004FF0010142F68D33C0F20803984720467C
S214082C1042F6A131C0F2080188470AE020466FF064
S214082C20660142F25932C0F2080290474FF000009F
S214082C3038BD606A00F1010060624FF0010038BDDF
S214082C404FF0000038BD00BF08B54DF65402C0F27C
S214082C50080243F27D03C0F20803984708BD00BF88
S214082C602DE9F04F83B001EB020B0746002800F071
S214082C709E80594580F09E800D4642F25933C0F238
S214082C80080301932C46C5EB0B0828464146514AD3
S214082C9043F27D06C0F20806B04708B1461B00E0BE
S214082CA046462846414642F64942C0F20802904740
S214082CB010B1001B009001E0CDF80080002E5FD018
S214082CC0D7F80090D9F80000002876D04FF008040E
S214082CD043F2415AC0F2080A29463246D04790B114
S214082CE0C7F81090AB197B610098861BBE614FF041
S214082CF0000487F828404FF0000139627962D9F855
S214082D0004204AB914E0396801EB0409085904F1AB
S214082D1008040028E0D150E038469047012807D03C
S214082D2097F8283023B938466FF0C701019CA047AA
S214082D30386A002811DD38464DF68C31C0F2080195
S214082D404FF0020242F65933C0F208039847F96971
S214082D5019B1CA680AB138469047384642F6A134CF
S214082D60C0F20804A047B86968B197F828306BB96C
S214082D7038466FF06B01019A90474FF0010407E060
S214082D804FF0000404E04FF0010401E04FF00104A6
S214082D902846414642F64943C0F208039847454448
S214082DA008B100F10105AB453FF66CAF0DE04FF0FA
S214082DB0FF340AE04FF0000407E038466FF0700171
S214082DC0019A90474FF00004E2E7204603B0BDE8BA
S214082DD0F08F00BF58D8080008B54FF00002826090
S214082DE042F2E521C0F20801884708BDF8B5044656
S214082DF0154672B9C16882684FF000068E54E168BD
S214082E00A26842F66145C0F20805A8470546A660CE
S214082E1049E08368426802F1FF30C21A95423DD8FD
S214082E20E768F8182A464AF65133C0F20803984766
S214082E30A1686D18A560E0684FF000024255E0688A
S214082E40A16843F2ED37C0F20807B8470546E368BD
S214082E50A1681818491B4DF68C32C0F2080243F2D6
S214082E607D07C0F20807B8470746D0B1E268861A59
S214082E7020465119721B42F66145C0F20805A8475C
S214082E800546A368E06839469A1B4AF66333C0F2DB
S214082E9008039847A068861BA66004E04FF0FF3535
S214082EA001E04FF000052846F8BD00BFF8B5044617
S214082EB00D4608464AF65D43C0F20803984707469B
S214082EC0204642F66531C0F2080188470646204685
S214082ED029463A4642F65933C0F208039847226A0A
S214082EE002F1010222628019F8BD00BF70B584B0F5
S214082EF00446084601A94FF00C0243F2C903C0F283
S214082F00080398470646204642F66531C0F208018F
S214082F1088470546204601A9324642F65933C0F28C
S214082F2008039847226A02F101022262401904B097
S214082F3070BD00BF2DE9F04104460F4642F66533E2
S214082F40C0F20803984780464DF6E036C0F20806F9
S214082F50204631464FF0010242F65935C0F20805C0
S214082F60A847804438464AF65D41C0F208018847BB
S214082F70024620463946A84708EB00072046314651
S214082F804FF00102A847226A02F1010222623818AD
S214082F90BDE8F08170B582B0044615460E4619B3F2
S214082FA02AB3194642F6C533C0F20803984708B351
S214082FB06069A169324601AB43F21D26C0F20806D5
S214082FC0B047D0B12046019942F68D32C0F20802C9
S214082FD09047204642F6A131C0F20801884701987A
S214082FE028604FF001000AE04FF0000007E04FF0BD
S214082FF0000004E04FF0000001E04FF0000002B0CF
S21408300070BD00BF70B582B0044613460E46E1B1E7
S21408301001A96A4642F69575C0F20805A847B8B1F0
S2140830200198314643F2D113C0F208039847009935
S214083030884210D020466FF0890142F25932C0F219
S214083040080290474FF0000007E04FF0000004E049
S2140830504FF0000001E04FF0010002B070BD00BF65
S214083060A0F10203D9B2022904D9D0F1010038BF71
S214083070002070474FF00100704700BF70B4411839
S21408308088421AD0034613F8016B36B94FF0000091
S21408309018E0B54202D115E02346144614F8015B41
S2140830A0002DF6D18B420BD01C4614F8016B18463F
S2140830B0002EF1D14FF0000004E04FF0000001E0D0
S2140830C04FF0000070BC7047F0B4034638B9002AC9
S2140830D055D04FF0300008704FF0010049E0002846
S2140830E008DAC0F1000342B14FF02D0008704FF027
S2140830F0010004E04FF0000001E04FF000001D461C
S2140831004CF6FF14C3F69A34A34210D84FF44A4339
S214083110C3F69A334CF6CD46CCF6CC46A6FB03430C
S2140831204FEAD303B5FBF3F4002CF7D003E04FF4D3
S2140831304A43C3F69A33824233D9B5FBF3F6F6B25E
S2140831404CF6CD47CCF6CC476FEA0004A41814F02A
S214083150010F28D106F130040C5400F10104204672
S21408316003FB1655A7FB0363DB0802D0A24209D867
S21408317017E0904215D24FF000020A5411E04FF0C3
S21408318000000EE0B5FBF3F0C6B206F130000855B5
S21408319004F1010003FB1655A7FB0343DB0813D114
S2140831A0E7E7F0BC704706F130040C5400F1010064
S2140831B003FB1655A7FB0363DB08DAD08242F0D977
S2140831C0B5FBF3F6F6B2C5E7B5FBF3F6F6B2C1E71C
S2140831D030B583B004460D4601A94FF000024AF602
S2140831E00563C0F20803984728600198001B03B0DF
S2140831F030BD00BF10B50C4699420BD11146224689
S2140832004AF66D43C0F208039847D0F1010038BF6C
S214083210002010BD4FF0000010BD00BF2DE9F04F94
S21408322083B00646019299460B4600293ED040F2E6
S2140832309C22C2F20702D2F800E04FF001054FF0D8
S21408324000042746A0464FF0020B6FEA0401C9188F
S2140832502940005D2246002C4FD062E0315D12B155
S214083260022A1BD10FE00EEB0100407800F00800A0
S214083270C0B210B12F46A84610E02C291BD0A04695
S2140832802F465A460AE02C2918D00EEB0100417842
S21408329001F00800C1B2002908BF2F4604F1010456
S2140832A005F10105315D002A76D089E04FF0000768
S2140832B0B8463A4604E04FF0040201E04FF0040234
S2140832C0104643F26103C0F20803984768B1019AB2
S2140832D00AB146441660B9F1000F09D0C8EB0707D3
S2140832E0C9F800704FF0010004E04FF0000001E05C
S2140832F04FF0010003B0BDE8F08F0EEB000C9CF811
S21408330001C00CF0080C5FFA8CFCBCF1000F05D16C
S2140833102C28D0D0A0462F465A460EE02F46A84660
S2140833200BE0022C09D12C28C8D07044407800F055
S2140833300800C0B2002808BF2F4604F1010405F1B2
S21408334001059C42BCD0002988D0315D7AB90EEBC5
S2140833500100407800F00800C0B228B92C29AAD08D
S214083360A0462F465A460FE02F46A8460CE0022AEB
S2140833700AD12C29A2D00EEB0100417801F00800F2
S214083380C1B2002908BF2F4604F1010405F1010562
S2140833909C427FF463AF93E70EEB010A9AF801A00C
S2140833A00AF0080A5FFA8AFABAF1000F05D12C2942
S2140833B081D0A0462F465A460FE02F46A8460CE076
S2140833C0022A0AD12C293FF479AF7144497801F0D2
S2140833D00801C9B2002908BF2F4604F1010405F107
S2140833E001059C427FF43AAF6AE700BF70B40E4608
S2140833F011B340F29C23C2F207031C6801786218D6
S214083400537803F00801CAB2C2B103464FF0000071
S21408341016F0010F09D115E013F8015F61194D7810
S21408342005F00801CDB2CDB90AE000F10102104658
S214083430B242F1D1304603E0084601E04FF0000002
S21408344070BC704700F1010013F8011F621851782C
S21408345001F00802D1B20029E7D1F1E702F1010034
S21408346013F8012FA1184A7802F00801CAB2002AF8
S214083470DBD1E5E72DE9F047804691469A468E4629
S21408348021B303782BB340F29C22C2F207021068DD
S214083490C1184C7804F00305022D1DD042464FF0A3
S2140834A000041EF0010F07D12FE0C719797801F044
S2140834B00305022D36D111E004F10106344676459F
S2140834C00CD012F8017F002FEFD107E04FF0000470
S2140834D004E04FF0000401E04FF000044046714657
S2140834E04A46534643F2F515C0F20805A84730B9D0
S2140834F0404621464A4653462C46A84701E04FF028
S214083500010000F00100BDE8F08704F1010412F89C
S214083510013F002BE2D0C1184D7805F00303022BBB
S214083520CAD1DBE706F1010412F8013F002BD5D01B
S214083530C1184D7805F00303022BBDD1CEE700BFB6
S2140835402DE9F84F05460C4616464AF65D43C0F286
S2140835500803984705EB0009204631464AF6DF423D
S214083560C0F20802904704EB000A20783A2808BF01
S21408357001344DF6CC2BC0F2080B43F27D08C0F29E
S2140835800808C5EB0907284639465A46C04700B119
S214083590471BC4EB0A06204631461B4AC04700B103
S2140835A0061B284639462246334643F2754CC0F277
S2140835B0080CE047C0B1ED19A4194D4505D1A24540
S2140835C08CBF00200120BDE8F88FA24510D92878C6
S2140835D02278824210D13A2801D03F2810D105F12E
S2140835E0010504F10104CCE74FF00000BDE8F88FB0
S2140835F04FF00000BDE8F88F4FF00000BDE8F88FE8
S2140836004FF00000BDE8F88FD4DA0800F8B54DF69C
S214083610D827C0F2080741F61835C2F207053C4617
S2140836200FCC28606960AA60EB6005F110052E468D
S2140836300FCC28606960AA60EB6027462288A378CA
S21408364025F8102FAB7041F61830C2F2070044F682
S214083650A151C0F2080188474FF00100F8BD00BF2D
S214083660F8B54DF6D827C0F2080741F61835C2F265
S21408367007053C460FCC28606960AA60EB6005F138
S21408368010052E460FCC28606960AA60EB602746B6
S2140836902288A37825F8102FAB7041F61830C2F2AE
S2140836A0070044F6A151C0F2080188474FF0010010
S2140836B0F8BD00BFF8B54DF6D827C0F2080741F6A2
S2140836C01835C2F207053C460FCC28606960AA6028
S2140836D0EB6005F110052E460FCC28606960AA60DD
S2140836E0EB6027462288A37825F8102FAB7041F6A2
S2140836F01830C2F2070044F6A151C0F20801884704
S2140837004FF00100F8BD00BF08B541F61832C2F206
S21408371007024DF6FC23C0F2080303CB1060516085
S214083720104644F6A151C0F2080188474FF0010040
S21408373008BD00BF08B541F61833C2F207034DF6B8
S2140837400432C0F20802106818609188927999804D
S2140837509A71184644F6A153C0F2080398474FF0EA
S214083760010008BD08B541F61833C2F207034DF646
S2140837700C32C0F2080210681860117919711846E0
S21408378044F6A153C0F2080398474FF0010008BD5D
S21408379008B541F61833C2F207034DF60C32C0F2EC
S2140837A008021068186011791971184644F6A15372
S2140837B0C0F2080398474FF0010008BD08B541F667
S2140837C01833C2F207034DF61432C0F20802106826
S2140837D01860184644F6A151C0F2080188474FF011
S2140837E0010008BD08B541F61833C2F207034DF6C6
S2140837F01432C0F2080210681860184644F6A15140
S214083800C0F2080188474FF0010008BD08B542F22B
S214083810B123C0F208039847012811D141F618329F
S214083820C2F207024DF61833C0F2080303CB106045
S2140838305160104644F6A151C0F20801884712E0CC
S21408384041F61832C2F207024DF62033C0F20803DA
S21408385003CB1060516018881081104644F6A151B9
S214083860C0F2080188474FF0010008BD4FF001007C
S214083870704700BF4FF00100704700BF30B583B0F7
S21408388001A96A464FF0010342F69574C0F208048F
S214083890A047002839D0009C012C39D9019D28461C
S2140838A04DF62C31C0F208014FF002024AF6B14339
S2140838B0C0F20803984760B942F2C523C0F208036D
S2140838C0984741F66570C0F2080080474FF001003F
S2140838D026E0022C1FD928464DF63031C0F20801E2
S2140838E04FF003024AF6B143C0F208039847A8B956
S2140838F042F20111C0F20801884742F2D522C0F20E
S214083900080290474FF001000AE04FF0FF0007E07A
S2140839104FF0010004E04FF0FF0001E04FF0FF0019
S21408392040B203B030BD00BF2DE9F04784B004466E
S21408393003A94FF0010243F20503C0F208039847B3
S214083940002846D0204602A94FF0010243F205039C
S214083950C0F20803984700283ED0204601A94FF039
S214083960010243F20503C0F208039847002836D040
S2140839704AF29D49C0F208090398C8474AF28518D2
S214083980C0F20808C04706460F460298C847C04710
S21408399004460D460198C847C047804689464AF6F9
S2140839A0FD1AC0F2080A30463946D04786B2204685
S2140839B02946D04784B240464946D04782B2304668
S2140839C0214642F26D23C0F2080398474FF00100E3
S2140839D007E04FF0FF0004E04FF0FF0001E04FF073
S2140839E0FF0040B204B0BDE8F08700BF00B583B062
S2140839F001A94FF0010243F20503C0F208039847F5
S214083A00C0B101984AF29D41C0F2080188474AF2BF
S214083A108512C0F2080290474AF6FD13C0F2080362
S214083A20984780B241F6C931C0F2080188474FF07E
S214083A30010001E04FF0FF0040B203B000BD00BF38
S214083A4038B54FF0000041F6C933C0F2080398476E
S214083A50034641F61834C2F2070420464FF06401C4
S214083A604DF63432C0F208024AF6F735C0F20805B9
S214083A70A847204644F6A151C0F2080188474FF0EF
S214083A80010038BD0000000010B582B001A94FF053
S214083A90010243F20503C0F20803984738B30198B9
S214083AA000F6C41241F288318A4223D810464AF2F8
S214083AB0BD44C0F20804A04711A3D3E900234AF284
S214083AC0DD74C0F20804A0474AF28513C0F2080362
S214083AD098474AF6FD12C0F20802904780B241F6AF
S214083AE09161C0F2080188474FF0010004E04FF0EA
S214083AF0FF0001E04FF0FF0040B202B010BD00BF6B
S214083B00F0A7C64B3789F33F10B582B001A94FF02E
S214083B10010243F20503C0F20803984738B3019838
S214083B2000F6C41241F288318A4223D810464AF277
S214083B30BD44C0F20804A04711A3D3E900234AF203
S214083B40DD74C0F20804A0474AF28513C0F20803E1
S214083B5098474AF6FD12C0F20802904780B241F62E
S214083B60F961C0F2080188474FF0010004E04FF001
S214083B70FF0001E04FF0FF0040B202B010BD00BFEA
S214083B80F0A7C64B3789F33F10B582B001A94FF0AE
S214083B90010243F20503C0F20803984748B30198A8
S214083BA000F59C5101F1080142F21072914223D8A7
S214083BB008464AF2BD44C0F20804A04712A3D3E957
S214083BC000234AF2DD74C0F20804A0474AF28513BF
S214083BD0C0F2080398474AF6FD12C0F2080290475A
S214083BE080B241F6C151C0F2080188474FF0010083
S214083BF004E04FF0FF0001E04FF0FF0040B202B0D3
S214083C0010BD00BFAFF30080F0A7C64B378903404E
S214083C1010B582B001A94FF0010243F20503C0F2C5
S214083C200803984748B3019800F59C5101F108012C
S214083C3042F21072914223D808464AF2BD44C0F2B6
S214083C400804A04712A3D3E900234AF2DD74C0F2A1
S214083C500804A0474AF28513C0F2080398474AF6B4
S214083C60FD12C0F20802904780B241F62961C0F200
S214083C70080188474FF0010004E04FF0FF0001E01C
S214083C804FF0FF0040B202B010BD00BFAFF3008097
S214083C90F0A7C64B3789034000B583B001A94FF09B
S214083CA0010243F20503C0F208039847A8B1019839
S214083CB048B94FF0000041F67952C0F20802904722
S214083CC04FF001030BE04FF0010041F67951C0F2C6
S214083CD0080188474FF0010301E04FF0FF0358B290
S214083CE003B000BD00B583B001A94FF0010243F24E
S214083CF00503C0F208039847A8B1019848B94FF0E1
S214083D00000041F69D52C0F2080290474FF00103AA
S214083D100BE04FF0010041F69D51C0F208018847BC
S214083D204FF0010301E04FF0FF0358B203B000BDA7
S214083D3010B582B001A96A464FF0010342F69574A1
S214083D40C0F20804A04778B3009B022B2FD1019C31
S214083D5020464DF63831C0F208014FF002024AF606
S214083D60B143C0F20803984738B941F63152C0F259
S214083D70080290474FF001001EE020464DF63C3101
S214083D80C0F208014FF002024AF6B143C0F2080337
S214083D90984778B94FF0010041F63151C0F2080152
S214083DA088474FF0010007E04FF0FF0004E04FF0AF
S214083DB0010001E04FF0FF0040B202B010BD00BFA6
S214083DC010B582B001A96A464FF0010342F6957411
S214083DD0C0F20804A04778B3009B022B2FD1019CA1
S214083DE020464DF63831C0F208014FF002024AF676
S214083DF0B143C0F20803984738B941F65552C0F2A5
S214083E00080290474FF001001EE020464DF63C3170
S214083E10C0F208014FF002024AF6B143C0F20803A6
S214083E20984778B94FF0010041F65551C0F208019D
S214083E3088474FF0010007E04FF0FF0004E04FF01E
S214083E40010001E04FF0FF0040B202B010BD00BF15
S214083E5038B541F61D63C0F20803984700B24AF227
S214083E60BD41C0F20801884719A3D3E900234AF2E6
S214083E708954C0F20804A04717A3D3E900234AF2DE
S214083E802125C0F20805A8474AF28512C0F20802A2
S214083E90904741F61834C2F207044AF6AD13C0F24A
S214083EA00803984703B220464FF064014DF64032A7
S214083EB0C0F208024AF6F735C0F20805A8472046B9
S214083EC044F6A151C0F2080188474FF0010038BDFA
S214083ED0F0A7C64B37890340000000000088B340AF
S214083EE038B541F68563C0F20803984700B24AF22F
S214083EF0BD41C0F20801884719A3D3E900234AF256
S214083F008954C0F20804A04717A3D3E900234AF24D
S214083F102125C0F20805A8474AF28512C0F2080211
S214083F20904741F61834C2F207044AF6AD13C0F2B9
S214083F300803984703B220464FF064014DF6403216
S214083F40C0F208024AF6F735C0F20805A847204628
S214083F5044F6A151C0F2080188474FF0010038BD69
S214083F60F0A7C64B37890340000000000088B3401E
S214083F7008B541F64953C0F20803984780B941F698
S214083F801831C2F207014DF64432C0F20802106832
S214083F900860084644F6A153C0F2080398470FE0A5
S214083FA041F61831C2F207014DF64832C0F208024F
S214083FB010680860084644F6A153C0F208039847FC
S214083FC04FF0010008BD00BF08B541F66D53C0F2BA
S214083FD00803984780B941F61831C2F207014DF632
S214083FE04432C0F2080210680860084644F6A15336
S214083FF0C0F2080398470FE041F61831C2F20701ED
S2140840004DF64832C0F2080210680860084644F6C2
S214084010A153C0F2080398474FF0010008BD00BF3F
S21408402038B541F69153C0F208039847034641F65F
S2140840301834C2F2070420464FF064014DF63432B5
S214084040C0F208024AF6F735C0F20805A847204627
S21408405044F6A151C0F2080188474FF0010038BD68
S21408406038B541F6B553C0F208039847034641F6FB
S2140840701834C2F2070420464FF064014DF6343275
S214084080C0F208024AF6F735C0F20805A8472046E7
S21408409044F6A151C0F2080188474FF0010038BD28
S2140840A038B541F6ED63C0F20803984700B24AF205
S2140840B0BD41C0F20801884719A3D3E900234AF294
S2140840C08954C0F20804A04717A3D3E900234AF28C
S2140840D02125C0F20805A8474AF28512C0F2080250
S2140840E0904741F61834C2F207044AF6AD13C0F2F8
S2140840F00803984703B220464FF064014DF6403255
S214084100C0F208024AF6F735C0F20805A847204666
S21408411044F6A151C0F2080188474FF0010038BDA7
S214084120F0A7C64B3789F33F000000000088A3407D
S21408413038B541F65573C0F20803984700B24AF2FC
S214084140BD41C0F20801884719A3D3E900234AF203
S2140841508954C0F20804A04717A3D3E900234AF2FB
S2140841602125C0F20805A8474AF28512C0F20802BF
S214084170904741F61834C2F207044AF6AD13C0F267
S2140841800803984703B220464FF064014DF64032C4
S214084190C0F208024AF6F735C0F20805A8472046D6
S2140841A044F6A151C0F2080188474FF0010038BD17
S2140841B0F0A7C64B3789F33F000000000088A340ED
S2140841C000B583B001A94FF0010243F20503C0F21F
S2140841D008039847C0B101984AF29D41C0F2080109
S2140841E088474AF28512C0F2080290474AF6FD133D
S2140841F0C0F20803984780B249F6D951C0F20801C0
S21408420088474FF0010001E04FF0FF0040B203B0CE
S21408421000BD00BF10B584B002A849F63563C0F2E9
S2140842200803984701281AD141F61834C2F2070441
S214084230DDE90223CDE9002320464FF064014DF660
S2140842404C32C0F208024AF6F733C0F20803984721
S214084250204644F6A151C0F20801884711E041F60D
S2140842601834C2F207044DF65433C0F2080307CBDD
S21408427020606160A260204644F6A151C0F20801A1
S21408428088474FF0010004B010BD00BF10B584B0D9
S21408429002A849F67963C0F20803984701281AD19C
S2140842A041F61834C2F20704DDE90223CDE90023FB
S2140842B020464FF064014DF64C32C0F208024AF62A
S2140842C0F733C0F208039847204644F6A151C0F2D7
S2140842D00801884711E041F61834C2F207044DF683
S2140842E05433C0F2080307CB20606160A260204602
S2140842F044F6A151C0F2080188474FF0010004B007
S21408430010BD00BF00B583B001A94FF0010243F20B
S2140843100503C0F208039847C0B101984AF29D41C8
S214084320C0F2080188474AF28512C0F20802904790
S2140843304AF6FD13C0F20803984780B249F6895139
S214084340C0F2080188474FF0010001E04FF0FF0077
S21408435040B203B000BD00BF00B583B001A94FF05E
S214084360010243F20503C0F208039847C0B101985A
S2140843704AF29D41C0F2080188474AF28512C0F207
S214084380080290474AF6FD13C0F20803984780B221
S21408439049F6A551C0F2080188474FF0010001E030
S2140843A04FF0FF0040B203B000BD00BF38B549F675
S2140843B0C153C0F208039847034641F61834C2F2C0
S2140843C0070420464FF064014DF63432C0F2080266
S2140843D04AF6F735C0F20805A847204644F6A15124
S2140843E0C0F2080188474FF0010038BD38B549F6D5
S2140843F0CD53C0F208039847034641F61834C2F274
S214084400070420464FF064014DF63432C0F2080225
S2140844104AF6F735C0F20805A847204644F6A151E3
S214084420C0F2080188474FF0010038BD10B50446B1
S21408443040F29543C0F208039847012803D028B1F4
S214084440022820D115E04FF0030010BD40F65C416D
S214084450C2F207010B5DCBB9204641F22D02C0F22D
S2140844600802904700F0030000280CBF0220002036
S21408447010BD40F65C40C2F207004FF0000202553D
S2140844804FF0020010BD4FF0010010BD4FF00200C3
S21408449010BD00BF08B54FF0000044F22D43C0F22F
S2140844A00803984708BD00BF38B504460D4641F2D4
S2140844B05903C0F2080398474FEA400000F1FF315D
S2140844C02960204644F22D42C0F20802904738BDC3
S2140844D008B501464FF0000044F2A943C0F20803AD
S2140844E0984708BD08B541F28503C0F20803984707
S2140844F008BD00BF08B54FF0000044F2E543C0F21F
S2140845000803984708BD00BF4FF00100704700BF7A
S21408451008B54FF0000044F20953C0F20803984764
S21408452008BD00BF2DE9F041144641F28D03C0F2E4
S21408453008039847014670B302280CBF02200120E2
S214084540BDE8F08144B114F0010F0CBF3846404670
S2140845504FF00101B047A0BB85B914F0010F0CBF9E
S214084560414639464FF001004FF400724FF0000301
S21408457046F65915C0F20805A84730B32CB141F2E3
S2140845801520C0F20800804718BB04F1FF34A4B217
S2140845904FF000050DE04FF0010541F2DD16C0F2C0
S2140845A0080641F21878C2F2070841F61817C2F250
S2140845B007074FF6FF729442C4D14FF00000BDE8DB
S2140845C0F0814FF00100BDE8F0814FF00100BDE832
S2140845D0F0814FF00100BDE8F08100BF08B5034642
S2140845E00A464FF00000194644F22553C0F2080365
S2140845F0984708BD2DE9F041144641F29523C0F2CC
S21408460008039847014668B302280CBF0220012019
S214084610BDE8F08145B914F0010F0CBF3846404696
S2140846204FF00101B04798BB7CB114F0010F0CBFE6
S214084630414639464FF000004FF40072034646F6EE
S214084640591CC0F2080CE04730B32DB941F2A1302E
S214084650C0F20800804718BB04F1FF34A4B24FF03C
S21408466000050DE04FF0010541F26936C0F2080674
S21408467041F21878C2F2070841F61817C2F207077F
S2140846804FF6FF729442C5D14FF00000BDE8F081A6
S2140846904FF00100BDE8F0814FF00100BDE8F08161
S2140846A04FF00100BDE8F08108B503460A464FF012
S2140846B00000194644F2F553C0F20803984708BDAF
S2140846C070B44FF080435D689C68D868D9695A6DA5
S2140846D04FF080061E605D609C60D860D9615A65A0
S2140846E04FF0000018654FF00501196070BC704760
S2140846F008B501F03F03184311F4807F0CD011F47D
S214084700006F02D040F4845006E011F4005F14BF36
S21408471040F4865040F4825011F4804F18BF40F49D
S21408472000604FF080431A615861184601F48052C1
S214084730036C52B113F41F0F12D044F2C162C0F2D8
S214084740080290474FF0000008BD13F41B0F07D06F
S21408475044F2C161C0F2080188474FF0000008BD66
S21408476013F0010FE4D011F4005F19D14FF00100E7
S21408477008BD086C03F1FF3300F03002202A19D177
S2140847800BE044F2C161C0F2080188474FF0000010
S21408479008BD00F03002202AEBD14FF0010008BD1A
S2140847A04FF08040006C44F24023C0F20F034FF0F5
S2140847B08041EEE7086C013BEBD1E2E710B54FF01D
S2140847C0150047F61114C0F20804A0474FF027005A
S2140847D0A0474FF080434FF072029A60DA614FF0BC
S2140847E0110058654FF4E06159604FF005021A60F1
S2140847F010BD00BF00280CBF04200020704700BF73
S2140848004FF00100704700BF33B14FF08043586D3A
S21408481040F48070586505E04FF08043586D20F4EA
S2140848208070586581B14FEA41014FF43D43C0F2AC
S2140848300153B3FBF1F001FB103109B100F101009F
S21408484020B100F1FF3001E04FF000004FF0804348
S214084850596821F0FF0159605968C0B2084358608A
S214084860042A04D0082A0CBFC022002201E04FF018
S21408487080024FF08043DA60704700BF704700BF81
S2140848804FF080435A6822F4605058604FF0000199
S21408489019614FF410625A611846036C13F0010F41
S2140848A0FBD0704710B504460A464FF08043596857
S2140848B021F4605058604FF0000018659861214652
S2140848C044F2F163C0F20803984710BD4FF08043E6
S2140848D0186A70474FF080431A6A4FEA12610170EF
S2140848E04FEA124141704FEA12218170C2701A6A6B
S2140848F04FEA126101714FEA124141714FEA1221E3
S2140849008171C2711A6A4FEA126101724FEA124146
S21408491041724FEA12218172C2721B6A4FEA136211
S21408492002734FEA134141734FEA13228273C3732B
S214084930704700BF70B504460D469DF8101029B1A3
S2140849404FF480704FF08041086504E04FF0000097
S2140849504FF0804630654FF08046706840F4C0518E
S214084960716012F0030F04D0706840F40051716053
S21408497005E04FF08046706820F40051716004F43A
S2140849800046002E0CBF4FF4A0204FF4803014F4DD
S214084990803F09D040F400104FEAC2564FEAD6517D
S2140849A04FF08046B16118E043EA02464FF0804176
S2140849B08E6114F4003F02D040F420100DE014F489
S2140849C0802F02D040F4801007E014F4002F04D1A2
S2140849D014F4801F18BF40F4002040F66441C2F269
S2140849E007014FF000060E6040F66041C2F207016C
S2140849F00A8040F66242C2F20702138021462A461F
S214084A0044F2F163C0F20803984770BD08B54FF04A
S214084A1080414FF00002CCF260020B6C134207D0C4
S214084A2044F2C160C0F2080080474FF0000008BD9D
S214084A3013F0020FF1D04FF080410A6B026040F687
S214084A406440C2F20700036803F10403036040F6FB
S214084A506241C2F207010A8840F66040C2F20700C7
S214084A60018801FB02F2934216D34FF080404FF0C4
S214084A700002CCF26002036C134207D044F2C16114
S214084A80C0F2080188474FF0000008BD13F0006F19
S214084A90F1D04FF0010008BD4FF0010008BD00BF7F
S214084AA070B586B0044640F66043C2F207031E8817
S214084AB006FB01F64FF08040416811F4005F2FD1E5
S214084AC04FF48045C4F20C05284645F25912C0F248
S214084AD00802904728464FF0000145F26D13C0F2D1
S214084AE00803984728464FF000014FF40072C0F2BA
S214084AF0011245F2B515C0F20805A8474FF0300078
S214084B00C4F200000190029414F0030F02D0B4B26D
S214084B1003942AE0C6F38F0444F00851039124E076
S214084B204FF48045C4F20C05284645F25912C0F2E7
S214084B300802904728464FF0000145F26D13C0F270
S214084B400803984728464FF000014FF40072C0F259
S214084B50011245F2B515C0F20805A8474FF0300017
S214084B60C4F2000001900294D1E74FF00001C4F2AD
S214084B70512104914FF0000405944FF48045C4F287
S214084B800C052846214601AA45F2C113C0F20803BF
S214084B9098472846214645F26112C0F20802904717
S214084BA040F66440C2F207000168761806604FF0C7
S214084BB0010006B070BD00BF10B540F66243C2F2F1
S214084BC00703188840F66042C2F20702148804FBFE
S214084BD000F440F66441C2F2070108684FF08041CD
S214084BE04FF00002CCF260020B6C134212D044F273
S214084BF0C160C0F2080080474FF48040C4F20C0041
S214084C004FF0000145F26D12C0F2080290474FF0CF
S214084C10000010BD844202D913F0007F05D113F0BE
S214084C20006FE1D04FF0010010BD4FF0010010BD3D
S214084C3070B586B0044640F66043C2F207031E8885
S214084C4006FB01F64FF08040416811F4005F27D15B
S214084C504FF48045C4F20C05284645F25912C0F2B6
S214084C600802904728464FF000014FF40052C0F261
S214084C70011245F2B513C0F20803984701944FF0A5
S214084C803400C4F20000029014F0030F02D0B4B24D
S214084C90039422E0C6F38F0444F0085103911CE005
S214084CA04FF48045C4F20C05284645F25912C0F266
S214084CB00802904728464FF000014FF40052C0F211
S214084CC0011245F2B513C0F20803984701944FF055
S214084CD03400C4F200000290D9E74FF00001C6F293
S214084CE0310104914FF0000405944FF48045C4F256
S214084CF00C052846214601AA45F2C113C0F208034E
S214084D0098472846214645F26112C0F208029047A5
S214084D1040F66440C2F207000168761806604FF055
S214084D20010006B070BD00BF10B540F66243C2F27F
S214084D300703188840F66042C2F20702148804FB8C
S214084D4000F440F66441C2F2070108684FF080415B
S214084D504FF00002CCF260020B6C134212D044F201
S214084D60C160C0F2080080474FF48040C4F20C00CF
S214084D704FF0000145F26D12C0F2080290474FF05E
S214084D80000010BD844202D913F0007F05D113F04D
S214084D90200FE1D04FF0010010BD4FF0010010BD0C
S214084DA010B5044640F66843C2F20703187868B19F
S214084DB020464AF65D42C0F2080290470146204661
S214084DC045F66143C0F20803984710BD20464AF6E8
S214084DD05D41C0F20801884710BD00BF39B140F6F2
S214084DE06840C2F207004FF001010170704740F6B4
S214084DF06843C2F207034FF000021A70704700BFFC
S214084E0040F66943C2F207034FF001021A70704772
S214084E10704700BF704700BF704700BF30B583B00B
S214084E20134641F61834C2F20704009120464FF0A4
S214084E3064014DF66032C0F208024AF6F735C0F251
S214084E400805A847204644F6A153C0F20803984729
S214084E504FF0010003B030BD4FF00100704700BFAF
S214084E6030B583B00D4608B242F28543C0F2080357
S214084E70984741F61834C2F20704009020464FF0CF
S214084E8064014DF66832C0F208022B464AF6F7353A
S214084E90C0F20805A847204644F6A151C0F208010A
S214084EA088474FF0000003B030BD00BF30B583B070
S214084EB00B461446012918D141F61835C2F20705E3
S214084EC0009228464FF064014DF67C32C0F2080284
S214084ED023464AF6F734C0F20804A047284644F6A4
S214084EE0A151C0F20801884717E041F61835C2F20A
S214084EF007050092019228464FF064014DF690325D
S214084F00C0F208024AF6F734C0F20804A04728465A
S214084F1044F6A153C0F2080398474FF0010003B0C7
S214084F2030BD00BF08B541F61832C2F207024DF68A
S214084F30AC33C0F2080303CB1060516018781072C7
S214084F40104644F6A151C0F2080188474FF0010008
S214084F5008BD00BF08B541F61832C2F207024DF682
S214084F60B833C0F2080303CB10605160188810816C
S214084F70104644F6A151C0F2080188474FF00100D8
S214084F8008BD00BF08B540F23000C2F2070042F67E
S214084F90D953C0F20803984708BD00BF2DE9F0476B
S214084FA045F2C573C0F208039847002840D040F67B
S214084FB06A44C2F2070441F67C35C2F207054FF090
S214084FC0010645F6D92AC0F2080A40F23009C2F2AC
S214084FD0070942F6ED58C0F20808208840193146FD
S214084FE0D04707462188484649193246C04722888E
S214084FF002F1010293B22380E81810F8011C0D296B
S21408500001D00A2902D14FF00002228017B1238866
S214085010C72BE2D940F66A40C2F207000188C829C1
S21408502006D140F66A43C2F207034FF000021A8020
S214085030BDE8F08741F64C43C2F207039878042887
S21408504002D005283BD104E040F2B402C2F20702BF
S21408505003E040F28802C2F2070240F29803C2F266
S214085060070311785980507898809178D980D0783D
S214085070188111795981507998819179D981D07997
S2140850801882117A5982507A9882917AD982D07A7F
S2140850901883127B5A834FF01C01197041F64C4056
S2140850A0C2F2070081818360C3881B2B0AD841F6A9
S2140850B04C42C2F2070293814FF0010070474FF04E
S2140850C0000070474FF00100704700BF042071468B
S2140850D0084200F00480EFF3098000F005B8EFF30B
S2140850E0088000F001B800BF8EB003680D934168D1
S2140850F00C9182680B92C3680A9301690991426908
S214085100089283690793C06906904EF62851CEF236
S21408511000010A6805924EF62C53CEF20003186872
S21408512004904EF63051CEF200010A6803924EF60D
S2140851303C53CEF20003186802904EF63451CEF275
S21408514000010A6800924EF63853CEF2000318683B
S214085150019000BEFEE700BF4FF0010343607047B2
S2140851604FF0010303FA01F1816270474FF0010323
S21408517003FA01F1C162704701EB810100EBC1003F
S214085180C263704701EB810100EBC10002647047FF
S21408519001EB810100EBC1004264704701EB81011D
S2140851A000EBC1008264704701EB810100EBC1008F
S2140851B0C264704701EB810100EBC10002657047CD
S2140851C070B504460E461546436A126845F27913CA
S2140851D0C0F208039847204631466A6845F28513A8
S2140851E0C0F208039847204631464FF0000245F2C1
S2140851F09113C0F20803984720463146AA6845F23C
S2140852009D13C0F20803984720463146EA6845F2DF
S214085210A913C0F20803984770BD00BF08B547F643
S214085220F103C0F2080398474FF0000047F69511BF
S214085230C0F20801884747F6AD10C0F2080080475C
S21408524008BD00BF10B54FF43D40C0F2015049F606
S2140852509543C0F2080398474FF000004FF03E0110
S21408526047F65102C0F20802904747F6C104C0F25A
S2140852700804A0470028FCD047F6D100C0F2080072
S21408528080474FF4C061C4F20E0143F60173C2F2C0
S2140852900D038B6247F6E104C0F20804A047002815
S2140852A0FCD04FF0100047F2B172C0F208029047E7
S2140852B049F6CD20C0F20800804710BD4FF0010027
S2140852C0704700BF08B528B944F29543C0F20803F2
S2140852D0984708BD4FF0010008BD00BF08B530B9B3
S2140852E0084644F2D143C0F20803984708BD4FF079
S2140852F0010008BD10B981F0010070474FF00000AA
S214085300704700BF08B528B944F2F543C0F2080351
S214085310984708BD4FF0010008BD00BF08B528B97A
S21408532044F21153C0F20803984708BD4FF0010035
S21408533008BD00BF20B94DF6C430C0F2080070475B
S2140853404FF00000704700BF08B538B90846114648
S21408535044F2DD53C0F20803984708BD4FF0010039
S21408536008BD00BF08B538B90846114644F2A96317
S214085370C0F20803984708BD4FF0010008BD00BFFB
S21408538041F28803C2F207031A7802F1FF30C1B26D
S214085390197070474FF00000704700BF4FF00000CC
S2140853A0704700BF704700BF30B583B041F29C031A
S2140853B0C2F207031878002840F0DF8048F62D610F
S2140853C0C0F20801884760B141F29004C2F20704AF
S2140853D0248848F69160C0F20800804784420DD1C0
S2140853E0CBE041F29002C2F20702148848F68163C5
S2140853F0C0F208039847844200F0BF80EFF3108598
S214085400D5F1010538BF002572B6BFF35F8F40F2AD
S2140854109021C2F207014FF000020A7040F6784366
S214085420C2F207031C7840F68040C2F2070030F844
S214085430141079BB40F67C43C2F207031A8802F1BF
S21408544001021A8048F62D60C0F20800804730B97D
S21408545040F67C41C2F207010B88632B0DD948F64B
S2140854602D62C0F208029047A0B140F67C40C2F216
S21408547007000188B1F5487F0CD2002D7DD040F298
S2140854809023C2F207034FF001021A70BFF35F8F32
S21408549062B672E040F67C43C2F207034FF00002A1
S2140854A01A8041F2B040C2F20700017849B9944226
S2140854B014BF0022012240F67843C2F207031A708E
S2140854C003E0D4F1010438BF002441F29C00C2F284
S2140854D007004FF0010202703DB140F29025C2F27B
S2140854E007052A70BFF35F8F62B6254640F68041EF
S2140854F0C2F2070131F81440B4F5007418BF01244D
S214085500DCB148F62D62C0F20802904750B148F662
S2140855109160C0F20800804741F29002C2F207028A
S214085520108011E048F68161C0F20801884741F210
S2140855309003C2F20703188006E041F29003C2F215
S21408554007034FF00000188040F68041C2F20701BA
S21408555031F8153045F29550C0F2080000904FF02B
S2140855608400214640F68444C2F2070404EB452230
S21408557049F24D14C0F20804A04703B030BD00BF7E
S21408558008B54FF0000045F2A933C0F20803984763
S21408559008BD00BF08B5E8B940F67843C2F207036D
S2140855A01978D1F1010138BF002140F68043C2F2D4
S2140855B0070323F8110041F2B041C2F20701087050
S2140855C041F29C02C2F20702107045F2A933C0F2FB
S2140855D00803984708BD00BF08B541F64C43C2F219
S2140855E00703187810F0800F20D000F060012029FB
S2140855F056D141F64C42C2F207025378212B52D1BB
S21408560041F64C40C2F20700C18807294ED141F640
S2140856104C43C2F2070340F66C42C2F207029A6095
S2140856204FF0070098814FF0010008BD00F06001B8
S21408563020293ED141F64C42C2F207025378202B6D
S21408564002D0222B38D11AE041F64C43C2F20703A7
S214085650D888072833D141F64C41C2F2070145F2F3
S214085660A532C0F208020A6140F66C43C2F207038C
S2140856708B604FF0070088814FF0010008BD41F6A7
S2140856804C40C2F2070081784FF0000001F001019B
S21408569044F6DD52C0F2080290474FF0010008BDFC
S2140856A04FF0000008BD4FF0000008BD4FF00000A6
S2140856B008BD4FF0000008BD4FF0000008BD4FF0D1
S2140856C0000008BD08B540F67443C2F207031A780E
S2140856D002F1FF30C1B21970187849F68D73C0F21E
S2140856E00803984741F29400C2F207004FF0000200
S2140856F0027008BD08B54FF0000041F28803C2F2F8
S2140857000703187041F2B441C2F20701088041F25B
S214085710A003C2F207034FF0A10119704FF0200151
S2140857205970588098804FF00201D980188140F649
S2140857306C43C2F207034FF4E131196018715871CF
S2140857404FF008029A7149F67D73C0F2080398472D
S21408575058B141F28800C2F20700017801F1010150
S214085760CAB202704FF0010008BD4FF0000008BD35
S214085770EFF3108372B6BFF35F8F40F29022C2F247
S21408578007024FF00001117041F28C00C2F20700C8
S214085790028890B241F29801C2F20701097841F2F4
S2140857A08402C2F2070232F81110081A4BB940F206
S2140857B09023C2F207034FF001021A70BFF35F8FFF
S2140857C062B6704708B54FF0000045F27173C0F234
S2140857D00803984708BD00BF08B545F27173C0F2C4
S2140857E008039847003018BF012008BD10B582B0DE
S2140857F0EFF31083D3F1010038BF002072B6BFF371
S2140858005F8F40F29022C2F207024FF0000111703B
S21408581041F29804C2F20704247841F2AC43C2F27B
S21408582007031A786AB941F28C01C2F207010B889D
S2140858309AB241F28401C2F2070131F81430934259
S2140858400ED9002852D040F29021C2F207014FF03C
S21408585001020A70BFF35F8F62B64FF0000047E0A0
S21408586041F28C02C2F207024FF0000111808C420E
S21408587014BF0021012141F29803C2F207031970F0
S21408588041F2AC42C2F207024FF00101117038B182
S21408589040F29020C2F207000170BFF35F8F62B635
S2140858A04FF0000045F2D972C0F20802904730B1B6
S2140858B04FF0000044F60161C0F20801884745F63B
S2140858C0F500C0F2080000904FF005004FF0010107
