:100000000C94FC000C9419010C9419010C94190126
:100010000C9419010C9419010C9419010C941901F8
:100020000C9419010C9419010C94EC060C942A07F9
:100030000C9419010C9419010C9419010C941901D8
:100040000C9419010C9419010C9419010C941901C8
:100050000C9419010C9419010C9419010C941901B8
:100060000C9419010C9419010C9419010C941901A8
:100070000C9419010C946E020C9419010C94190142
:100080000C9419010C9419010C9419010C94190188
:100090000C9419010C9419010C9419010C94190178
:1000A0000C9419010C9419010C941901C906C40689
:1000B000BF06BA06B506B006AB06A606A1069C06A4
:1000C000970692068D06880683067E0679067406D4
:1000D0006F066A06650660065B06560651064C0604
:1000E000470642063D06380633062E062906240634
:1000F0001F061A06150610060B0606060106FC0565
:10010000F705F205ED05E805E305DE05D905D4059B
:10011000CF05CA05C505C005BB05B605B105AC05CB
:10012000A705A2059D05980593058E058905000183
:10013000000062011200020000740143000300008D
:10014000B7010401030904BB011402030904D1012E
:100150001603030904E9010C0001C11201803601F4
:1001600081361201000202000010C0167A0400015C
:100170000102030109024300020100C03209040028
:100180000001020201000524001001052401010103
:10019000042402060524060001070582031000401E
:1001A00009040100020A00000007050302400000E4
:1001B0000705840240000004030904140359006F7A
:1001C000007500720020004E0061006D00650000A7
:1001D00000160355005300420020005300650072D2
:1001E00000690061006C0000000C03310032003334
:1001F000003400350000000011241FBECFEFDAE00C
:10020000DEBFCDBF11E0A0E0B1E0E2EFF2E102C05D
:1002100005900D92AE30B107D9F721E0AEE0B1E024
:1002200001C01D92A736B207E1F70E948E040C941C
:1002300077090C94000024EA2093BC00ECEBF0E07A
:1002400020812223ECF72091B900287F283029F063
:1002500084E98093BC0085E0089521E92093BB00E8
:1002600024E82093BC00ECEBF0E020812223ECF7A3
:100270002091B900287F203429F084E98093BC00C4
:1002800089E0089524EC2093BC00ECEBF0E02081A1
:100290002223ECF74091BB00342F20E044E8409348
:1002A000BC00ECEBF0E040814423ECF74091BB0054
:1002B00054E95093BC00240F311DFC01318320838D
:1002C00080E008958BB183608BB98AB183608AB96D
:1002D00081E18093B800E9EBF0E080818C7F80833E
:1002E00008951C9B0AC080911201909113018D7F8B
:1002F000909313018093120109C080911201909193
:10030000130181609093130180931201189B0AC01E
:100310008091120190911301977F90931301809324
:10032000120109C080911201909113019460909381
:10033000130180931201379B0AC0809112019091A2
:1003400013018F7B909313018093120109C0809158
:100350001201909113018062909313018093120116
:10036000369B0AC080911201909113018F77909370
:1003700013018093120109C0809112019091130121
:10038000806490931301809312014F9B0AC0809167
:100390001201909113018B7F9093130180931201AE
:1003A00009C0809112019091130182609093130112
:1003B000809312014E9B0AC080911201909113010B
:1003C000877F909313018093120109C080911201DD
:1003D00090911301846090931301809312014D9BBF
:1003E0000AC080911201909113019E7F9093130196
:1003F0008093120109C080911201909113018068CD
:1004000090931301809312014C9B0AC080911201BA
:10041000909113018F7E909313018093120109C074
:100420008091120190911301886090931301809341
:1004300012014B9B0AC080911201909113019D7F84
:10044000909313018093120109C080911201909141
:100450001301916090931301809312014A9B0AC08B
:1004600080911201909113019B7F909313018093CF
:10047000120109C080911201909113019260909332
:10048000130180931201669B0AC080911201909122
:1004900013019F7E909313018093120109C08091F4
:1004A00012019091130198609093130180931201AF
:1004B0007F9B0AC080911201909113018F7D9093D0
:1004C00013018093120108958091120190911301FC
:1004D0008061909313018093120108951F920F92EF
:1004E0000FB60F9211242F933F938F939F93EF9307
:1004F000FF93809178008091650190911401209183
:10050000790030E1839FF0011124E90FF11DEB5ECA
:10051000FE4F20838F5F853019F0809365010DC0F9
:10052000109265019F5F903119F09093140105C0FE
:100530001092140181E080936601E0916501F0E082
:10054000E050FF4F8081806E80937C00EAE7F0E00E
:10055000808180648083FF91EF919F918F913F9183
:100560002F910F900FBE0F901F901895E82FF92F25
:1005700020E180E090E03191830F911D2150D9F767
:10058000929582958F7089279F7089270895109280
:1005900013011092120185B7806885BF85B7806806
:1005A00085BF84B1866084B984B18E7E84B985B1FB
:1005B0008E7E85B987B18F7387B988B18F7388B9FB
:1005C0008AB183708AB98BB183708BB96E98769833
:1005D00087988F9880B38C7880BB81B38C7881BBEF
:1005E000EEE7F0E0808183678083E0916501F0E0D1
:1005F000E050FF4F8081806E80937C0010927B00E2
:100600008FEC80937A0008951F93CF93DF93CDB73B
:10061000DEB7C256D1090FB6F894DEBF0FBECDBF0C
:10062000BE016D5F7F4F80911201909113010E9476
:10063000C908CE0103960E94DB0863E070E06C0FEE
:100640007D1F680F711D42E050E08CE091E00E9438
:10065000FC0885E191E00E94B602282F30E0295184
:100660003109220F331F44E6429FC001439F900D82
:100670001124880F892F881F990B91959A8389835C
:10068000BE016D5B7F4F0E940E09CE018D5B9F4FB7
:100690000E94DB08182FCE0103960E94DB08412F31
:1006A00050E04F5F5F4F63E070E06C0F7D1F680F9D
:1006B000711DCE018D5B9F4F0E94FC08CE010396F9
:1006C0000E94DB0863E070E06C0F7D1F680F711DF6
:1006D00042E050E08CE091E00E94FC0885E291E06D
:1006E0000E94B60224E0829FC00111249A8389836C
:1006F000BE016D5B7F4F0E940E09CE018D5B9F4F47
:100700000E94DB08182FCE0103960E94DB08412FC0
:1007100050E04F5F5F4F63E070E06C0F7D1F680F2C
:10072000711DCE018D5B9F4F0E94FC08CE01039688
:100730000E94DB0863E070E06C0F7D1F680F711D85
:1007400042E050E08CE091E00E94FC0885E391E0FB
:100750000E94B60228E0829FC00111249A838983F7
:10076000BE016D5B7F4F0E940E09CE018D5B9F4FD6
:100770000E94DB08182FCE0103960E94DB08412F50
:1007800050E04F5F5F4F63E070E06C0F7D1F680FBC
:10079000711DCE018D5B9F4F0E94FC08CE01039618
:1007A0000E94DB0863E070E06C0F7D1F680F711D15
:1007B00042E050E08CE091E00E94FC0885E491E08A
:1007C0000E94B60290E0880F991F9A838983BE0128
:1007D0006D5B7F4F0E940E09CE018D5B9F4F0E9483
:1007E000DB08182FCE0103960E94DB08412F50E052
:1007F0004F5F5F4F63E070E06C0F7D1F680F711DEE
:10080000CE018D5B9F4F0E94FC08CE0103960E9493
:10081000DB0863E070E06C0F7D1F680F711D42E024
:1008200050E08CE091E00E94FC0885E591E00E9498
:10083000B60224E0829FC00111249A838983BE01FD
:100840006D5B7F4F0E940E09CE018D5B9F4F0E9412
:10085000DB08182FCE0103960E94DB08412F50E0E1
:100860004F5F5F4F63E070E06C0F7D1F680F711D7D
:10087000CE018D5B9F4F0E94FC08CE0103960E9423
:10088000DB0863E070E06C0F7D1F680F711D42E0B4
:1008900050E08CE091E00E94FC08CE0101960E949D
:1008A0001B01811127C089819A81880F892F881F98
:1008B000990B91959A838983BE016D5B7F4F0E944E
:1008C0000E09CE018D5B9F4F0E94DB08182FCE01D1
:1008D00003960E94DB08412F50E04F5F5F4F63E0BB
:1008E00070E06C0F7D1F680F711DCE018D5B9F4FF7
:1008F0000E94FC08CE0103960E94E908BC01CE01CB
:1009000003960E940805CE59DF4F0FB6F894DEBF5C
:100910000FBECDBFDF91CF911F910895E1E6F0E0CA
:1009200080E8808310820E9462010E94C7020E94B8
:10093000BE04809166018823C1F01092660185E4AF
:1009400091E00E94B6028B3910F0803B10F029989C
:1009500001C0299A85E591E00E94B602883710F01F
:10096000833810F02A9801C02A9A0E94D70499234C
:1009700004F30E9471010E940403DBCF81E08093A5
:10098000D70080EA8093D80082E189BD09B400FED7
:10099000FDCF80E98093D8001092E00010920F0103
:1009A000109210018CE08093E200789408953FB794
:1009B000F89480910F01811104C03FBF2FEF3FEFEA
:1009C00024C083E08093E9008091E80085FD12C097
:1009D00082FD04C00BC082FD04C008C0E8EEF0E058
:1009E0009BE69083808185FFF6CF04C03FBF2FEF49
:1009F0003FEF0BC02091F1008091E80085FD03C01E
:100A00008BE68093E8003FBF30E0822F932F08955C
:100A10006F927F928F929F92AF92BF92CF92DF920E
:100A2000EF92FF920F931F93CF93DF934C0180912E
:100A30000F01882309F4BAC1FFB6F89484E08093CB
:100A4000E90080911101882349F08091E80085FD3B
:100A500003C0FFBE8FEFB1C1109211016115710586
:100A600009F4A6C1A4EEB0E00F2EF8EE6F2E712CA3
:100A7000F02D29EE30E06894EE24E2F802EF10E069
:100A80006894CC24C6F881EF90E00F2EFAE3BF2ED5
:100A9000F02D0F2EF5E0DF2EF02D5C91575EE30177
:100AA000488145FD1FC0FFBE4C91451749F040915C
:100AB0000F0141110FC07EC1FFBE4C91451305C00F
:100AC00081E0809311018FEF78C140910F014423A1
:100AD00009F472C1FFB6F894F901E082E30148819C
:100AE00045FFEACFF8014081AC2CA41A4A2D50E012
:100AF0006417750708F4A62E6A1971094A2D50E08B
:100B00004134510508F040C14A5A5F4FFA010C9434
:100B10006509E40149914E01FC014083E4014991DA
:100B20004E01FC014083E40149914E01FC014083E8
:100B3000E40149914E01FC014083E40149914E01D9
:100B4000FC014083E40149914E01FC014083E40132
:100B500049914E01FC014083E40149914E01FC01A1
:100B60004083E40149914E01FC014083E401499135
:100B70004E01FC014083E40149914E01FC01408398
:100B8000E40149914E01FC014083E40149914E0189
:100B9000FC014083E40149914E01FC014083E401E2
:100BA00049914E01FC014083E40149914E01FC0151
:100BB0004083E40149914E01FC014083E4014991E5
:100BC0004E01FC014083E40149914E01FC01408348
:100BD000E40149914E01FC014083E40149914E0139
:100BE000FC014083E40149914E01FC014083E40192
:100BF00049914E01FC014083E40149914E01FC0101
:100C00004083E40149914E01FC014083E401499194
:100C10004E01FC014083E40149914E01FC014083F7
:100C2000E40149914E01FC014083E40149914E01E8
:100C3000FC014083E40149914E01FC014083E40141
:100C400049914E01FC014083E40149914E01FC01B0
:100C50004083E40149914E01FC014083E401499144
:100C60004E01FC014083E40149914E01FC014083A7
:100C7000E40149914E01FC014083E40149914E0198
:100C8000FC014083E40149914E01FC014083E401F1
:100C900049914E01FC014083E40149914E01FC0160
:100CA0004083E40149914E01FC014083E4014991F4
:100CB0004E01FC014083E40149914E01FC01408357
:100CC000E40149914E01FC014083E40149914E0148
:100CD000FC014083E40149914E01FC014083E401A1
:100CE00049914E01FC014083E40149914E01FC0110
:100CF0004083E40149914E01FC014083E4014991A4
:100D00004E01FC014083E40149914E01FC01408306
:100D1000E40149914E01FC014083E40149914E01F7
:100D2000FC014083E40149914E01FC014083E40150
:100D300049914E01FC014083E40149914E01FC01BF
:100D40004083E40149914E01FC014083E401499153
:100D50004E01FC014083E40149914E01FC014083B6
:100D6000E40149914E01FC014083E40149914E01A7
:100D7000FC014083E40149914E01FC014083E40100
:100D800049914E01FC014083E40149914E01FC016F
:100D90004083E301488145FFB882D0920E01FFBE37
:100DA0006115710509F079CE80E007C08FEF05C0AD
:100DB00080E003C08FEF01C08FEFDF91CF911F91D3
:100DC0000F91FF90EF90DF90CF90BF90AF909F90EA
:100DD0008F907F906F9008951F920F920FB60F9291
:100DE00011248F939F93EF93FF93E1EEF0E08081C6
:100DF000108283FF11C01092E90091E09093EB0004
:100E00001092EC0092E19093ED0098E09093F00046
:100E100010920F011092100182FF13C080910F01F8
:100E2000882379F080910E01882359F081508093B6
:100E30000E01811106C084E08093E9008AE380936B
:100E4000E800FF91EF919F918F910F900FBE0F904F
:100E50001F9018951F920F920FB60F9211240F93A7
:100E60001F932F933F934F935F936F937F938F9332
:100E70009F93AF93BF93CF93DF93EF93FF93109222
:100E8000E9008091E80083FF51C1E1EFF0E070815B
:100E9000408120813081932F80E0DC01A22B9D01D5
:100EA00050816081962F80E0852BA081B08152EF28
:100EB0005093E800463009F05CC004C081E28093A2
:100EC000EB003BC1C6E04EE251E0FA01659174913E
:100ED0002617370719F0495F5F4F20C0FA01329695
:100EE000659174918617970719F0495F5F4F16C097
:100EF000FA01349685919491282F392FFA0136966C
:100F000044919B2F80E08A2B8F3F910519F010F0C0
:100F10008FEF90E0841728F4482F03C0C150A9F642
:100F2000CDCFC8EED0E07EEFA1EFB0E010E1888138
:100F3000982F9570E1F382FD00C1642F413108F0D4
:100F4000612F662309F4F6C0C901562FFC010196F2
:100F5000E491EC935150D1F7862F815090E00196A7
:100F6000280F391F461B78834111E1CF6031F9F218
:100F7000E4C0453061F48EEF8093E800E8EEF0E0E5
:100F8000808180FFFDCF20682093E300D6C04930E8
:100F9000A1F571115BC020930F0110921001109206
:100FA0000E018EEF8093E80011E088E591E0C9EE34
:100FB000D0E0ABEEB0E06CEE70E04DEE50E01883A8
:100FC0009C012F5F3F4FFC0104910C93002359F0CB
:100FD000F9012491FB012083FC01329603962491B0
:100FE000FA01208301C0C9011F5F153041F7EAEE05
:100FF000F0E08EE180831082A0C0483081F4703828
:1010000009F03FC0E8EEF0E0808180FFFDCF8091E5
:101010000F018093F1008EEF8093E8008EC0413283
:10102000A9F4713AF1F5E8EEF0E0808180FFFDCFA0
:10103000E5E0F1E0A1EFB0E081918C9341E0EC308C
:10104000F407D1F78EEF8093E80077C04032C9F4FF
:10105000713209F06BC0E8EEF0E0808182FFFDCFD5
:10106000E5E0F1E0A1EFB0E08C91819351E0EC304C
:10107000F507D1F7E8EEF0E08BEF80838EEF808309
:101080005CC0423271F4713209F050C020931001FB
:10109000E8EEF0E0808180FFFDCF8EEF8093E800E6
:1010A0004CC041111AC0E8EEF0E0208120FFFDCFD6
:1010B000723851F4E9EEF0E080838091EB0085FB1B
:1010C000882780F9108201C080E0E1EFF0E08083A2
:1010D00010828EEF8093E80030C0413011F0433031
:1010E00029F5723019F5232B09F58F779927382FB9
:1010F00031503430D8F43EEF3093E8008093E9006B
:10110000433021F481E28093EB0017C099E1909382
:10111000EB0021E030E0D90102C0AA0FBB1F8A9585
:10112000E2F7EAEEF0E0A083108207C081E280934C
:10113000EB0003C078834111FACEFF91EF91DF916C
:10114000CF91BF91AF919F918F917F916F915F915F
:101150004F913F912F911F910F910F900FBE0F90C4
:101160001F901895805D0895FB01982F9F709A300D
:1011700018F0995C918302C0905D918382958F7085
:101180008A3018F0895C808302C0805D808312827F
:1011900008951F93CF93DF93182FEB01892F0E949F
:1011A000B408BE016E5F7F4F812F0E94B408DF91AB
:1011B000CF911F910895FC013196DC018C91882319
:1011C00031F080E08F5F91919111FCCF089580E024
:1011D0000895FC013196DC018C91882341F020E0D8
:1011E00030E02F5F3F4F81918111FBCF02C020E0A3
:1011F00030E0822F932F0895242F352F21153105AC
:1012000061F0A82FB92FE62FF72F80E090E04D91E5
:101210004193019682179307D1F70895DF92EF92D9
:10122000FF920F931F93CF93DF93EC017B01009705
:1012300039F480E00E94B208F701808311823DC03A
:10124000D12C9E01ADECBCEC0E946B099C01369543
:1012500027953695279536952795A901440F551F53
:10126000C901880F991F880F991F880F991F840F34
:10127000951FAE01481B590BCA01E90187010D0DED
:10128000111D0E94B208F8018083D3942097C9F6FB
:101290002D2D269571F0D701AD0DB11D3E2DEE2DF2
:1012A000FF2D80819E9191938C938E2F831B8217AB
:1012B000C0F3F701ED0DF11D1082DF91CF911F9169
:1012C0000F91FF90EF90DF900895EE0FFF1F0590B4
:1012D000F491E02D0994A29FB001B39FC001A39F98
:1012E00001D0B29F700D811D1124911D0895F894B5
:0212F000FFCF2E
:0E12F200000104050600E100000000087C0079
:00000001FF
