S0130000656173792D7068695F66772E73726563B5
S214080000303C0720A9880800A5880800293F080072
S214080010A5880800A5880800A58808000000000034
S214080020000000000000000000000000A58808008E
S214080030A588080000000000A5880800A588080014
S214080040A5880800A5880800A5880800A5880800CF
S214080050A5880800A5880800A5880800A5880800BF
S214080060A5880800A5880800000000005566080056
S214080070716608008D660800A96608000000000082
S21408008000000000A5880800A5880800A5880800C4
S214080090A5880800A5880800A5880800A58808007F
S2140800A0A588080000000000A5880800A5880800A4
S2140800B0A5880800A5880800A5880800A58808005F
S2140800C0A5880800A5880800A5880800A58808004F
S2140800D0A5880800A5880800A5880800A58808003F
S2140800E0D1710800A5880800A5880800A58808001A
S2140800F0A588080008B50548054B191A062900D82A
S21408010008BD044A002AFBD09047F9E74CC108000E
S2140801104FC108000000000008B50748074B191A29
S2140801208A1002EBD273591000D108BD044A002A7F
S214080130FBD09047F9E700BF4CC108004CC1080047
S2140801400000000010B5064C237843B9FFF7D2FF2D
S214080150044810B10448AFF300800121217010BD97
S214080160E00A0720000000004CC1080008B5084B4C
S2140801701BB108480849AFF300800848016811B168
S214080180074A02B19047BDE80840FFF7C5BF00BF61
S214080190000000004CC10800E40A07204CC1080013
S2140801A00000000010B540F60033C2F207031A68D4
S2140801B092F8224040F60631C2F207010878116824
S2140801C0527C231C18BF012343F25564C0F208046E
S2140801D0A04710BD70B582B0069C49F23536C0F20D
S2140801E0010641F23535C0F201054FEA017141EAD0
S2140801F0422242EAC0724FEAC4514FEAD151114333
S2140802009DF81C200092002814BF3046284641EA74
S2140802108361A2B24FF0010343F28174C0F208046E
S214080220A04702B070BD00BF08B540F60633C2F25C
S2140802300703187830B94FF0000043F2C961C0F2DE
S2140802400801884708BD00BF10B5029C4FEA422245
S21408025042EA017141EAC07040EAC363227841F27B
S214080260343043EA020143F2F163C0F208039847C8
S21408027040B143F21971C0F20801884720704FF068
S214080280010010BD4FF0000010BD00BF08B540F6D5
S2140802900033C2F207031868818941F609304FEA2D
S2140802A0014143F2F162C0F20802904770B140F68D
S2140802B00033C2F20703186800F1120043F22171F6
S2140802C0C0F2080188474FF0010008BD4FF0000053
S2140802D008BD00BF10B5002840F0A88040F20C0307
S2140802E0C2F2070398684FEA501202F5001101F2AD
S2140802F007734FEA4322D26B00F01F004FF001014C
S21408030001FA00F313421DD040F20C02C2F20702B3
S214080310907B88420CD140F6FE23C2F20703197878
S21408032031B14EF21000CEF200004FF0000202602B
S21408033040F20C03C2F207034FF0040199734FF022
S214080340020010BD40F20C02C2F20702907B04289D
S21408035031D140F20C01C2F207014FF001028A7354
S2140803604EF21003CEF20003186888B940F6FE2055
S214080370C2F2070002704EF21003CEF2000343F2F8
S214080380A071C0F2A00159601A604FF0020010BDBB
S21408039040F6FE21C2F207014FF000020A7048F646
S2140803A08050C0F25B0040F20103C2F20703984790
S2140803B04FF0020010BD012816D140F6FE21C2F209
S2140803C007010B78002B3AD04EF21002CEF200024C
S2140803D0106810F4803F2CD04EF21001CEF20001C7
S2140803E04FF000030B602AE040F20C00C2F2070050
S2140803F0817B032920D040F60634C2F207044FF06A
S2140804000003237040F20C04C2F2070440F60032E0
S214080410C2F20702146040F2A510C0F20800804736
S214080420A07B022814BF0020012010BD4FF0040056
S21408043010BD4FF0020010BD4FF0030010BD40F293
S2140804400C00C2F207004FF0020282734FF4D45138
S214080450C0F2060101604FF0010343744FF000023A
S21408046080F82220C0E700BF08B540F20C03C2F2AD
S21408047007034FF004029A7340F60630C2F20700EC
S2140804804FF0FF01017043F20963C0F20803984772
S21408049008BD00BF2DE9F04F95B040F2D523C0F255
S2140804A0080398470446012806D040F22921C0F2DE
S2140804B00801884700F05DBD40F60030C2F207002C
S2140804C001684FF00102CA734FF000050D748D8164
S2140804D043F2CD63C0F2080398474FF4804029469C
S2140804E043F2F162C0F208029047002800F0C18487
S2140804F045F208504FF4D57143F2F163C0F2080391
S2140805009847002800F0C38443F21970C0F2080028
S2140805108047B0F1FF3F00F0BD844FEA00514FEA34
S2140805201152B2F5D57F40F0A4844FF0010600F0D2
S214080530B3BC43F21970C0F208008047014610F0B9
S214080540E04F00F0B58441F2893944F2055743F28A
S214080550F165C0F2080543F21978C0F20808384673
S21408056001F4FC11A847002800F08384C047011E48
S2140805700ADB09F1FF39384601F4FC11A8470028C0
S21408058040F0398500F075BC11F0006F40F6003376
S214080590C2F20703186814BF05220422C27300F0CB
S2140805A087BC41F237174FF0000843F2F165C0F2F6
S2140805B008054FF4004943F2197AC0F2080A38468B
S2140805C04146A847002840F0EA8400F07DBC38463B
S2140805D04146A847002800F077844946C4F21F0120
S2140805E044F22950002E08BF4FF4FC11A8470028F3
S2140805F000F06A84D04700280EDA10F0804F00F02A
S2140806008F8440F60030C2F207000168CA7B42F0C9
S2140806100803CB7300F084BC0BF1FF3B3846414619
S214080620A847002840F0D18400F04EBC4FF400459F
S214080630C4F21F0544F2015743F2F168C0F20808F5
S21408064043F21979C0F2080938462946C0470028F7
S21408065040F0938400F079BC38462946C047002805
S21408066000F07384C84700280DDA00F0C040B0F1E7
S214080670804F40F06084A6490B68DA7B42F0080099
S214080680D87300F058BC06F1FF3638462946C047EE
S214080690002840F07C8400F058BC9D4908684FF05C
S2140806A00102828141F203104FF48031994B98473A
S2140806B0002800F0218198498847002800F01F810B
S2140806C0934803689A7CC2F3830101F1FF3003283C
S2140806D003D8DFE800F0060A0E124FF0120119746C
S2140806E00EE04FF014021A740AE04FF02200187455
S2140806F006E04FF03001197402E04FF040021A7419
S2140807005A7D02F00700854951F820104FF47A7098
S21408071000FB01F1C2F3C302814850F8222002FB15
S21408072001F11960997E187E5A7E4FEA820242EAE3
S214080730802040EAA1114FEA01524FEA125112F501
S214080740801F15D0187FDA7E4FEA420242EAE01090
S21408075001F1010100F0070202F1020201FA02F1BA
S214080760D87D00F00F0201FA02F14FEA9120586096
S2140807709B8943F207104FEA0341664A90470028D0
S21408078000F0C080624D2968087C3F2840F29C80B3
S2140807904FF00001009141F20810C0F208004FF433
S2140807A000724FF001035F4DA847002800F0D08381
S2140807B04FF000055C4E02A8B047002800F0C8833A
S2140807C005F10105ADB2322DF5D1029E06F0020301
S2140807D0DEB24F4A1068877E017E437E4FEA830268
S2140807E042EA812040EAA7174FEA075111F5801F11
S2140807F01AD14D4F03A8B847002800F0A98305F181
S2140808000105ADB2352DF5D9414B1A6803984FEA64
S2140808105007576008E003A8B847002800F09883F8
S21408082005F10105ADB200E03F4F7F2DF3D992E305
S2140808303E4D28783E4A9047054604280BD04FF48C
S2140808400071C0F2B7114FF00000C0F2B710082DC3
S21408085018BF014603E04FF48071C0F2B71143F2A7
S21408086006102C4B9847002800F07D8331498847AE
S21408087010F0800F40F07783254A106845742E4B99
S21408088098472E49884738B336B343F206104FF4D4
S2140808908071C0F2B9311F4A9047002800F066837D
S2140808A02448804710F0800F40F06083184E376861
S2140808B04FF0010587F822504FF4EA43C0F2193387
S2140808C03B601D49884707E01B4FB84704E0404691
S2140808D03946B04740B118E04FF00A0541F2101803
S2140808E04FF400770B4EF2E705F1FF3212F0FF05E2
S2140808F0EDD14FF00000ADE24FF00000AAE24FF055
S2140809000000A7E24FF00000A4E24FF00100A1E2C9
S214080910000B0720F13608008D02080040B60800D4
S2140809205CB608008137080059380800060B07200F
S2140809304136080019370800A50108004D3608009A
S21408094045F602304FF0000143F2F163C0F20803A7
S2140809509847002800F08D8245F203104FF00001FA
S21408096043F2F162C0F208029047002800F0818244
S21408097040F60035C2F207052E6843F21970C0F239
S214080980080080474FEA1041B1812B68DA7B12F0E5
S214080990010F56D040F28D20C0F20800804700288C
S2140809A000F067822B685A7D02F007004BF2406120
S2140809B0C0F2080151F820104FF47A7000FB01F1DC
S2140809C0C2F3C3024BF20060C0F2080050F82220BF
S2140809D002FB01F11960987C82090FD0DA7E987EB6
S2140809E0597E4FEA014141EA0020024322F44001C1
S2140809F001F101014FEA4120586022E0997E187EF5
S214080A005A7E4FEA820242EA802040EAA112187F04
S214080A10D97E4FEA410141EAE0104FEA02524FEA16
S214080A20125202F1010200F0070101F1020102FA76
S214080A3001F0DA7D02F00F0100FA01F04FEA902289
S214080A405A6040F60033C2F207031A68918943F2E7
S214080A5007104FEA014143F2F163C0F208039847D2
S214080A60002800F0068240F60030C2F2070001684F
S214080A70CA7B12F0010F4ED08B8941F237104FEA2D
S214080A80034143F2F162C0F208029047002800F0E2
S214080A90F0814FF00103009341F23310C0F20800D2
S214080AA04FF000014FF008024C4DA847002800F010
S214080AB0E08104A84FF00101494B9847002800F050
S214080AC0D88148488047002800F0D3819DF8101048
S214080AD001F00F03012B09D013B1022B16D10BE03E
S214080AE0414A13684FF01000187414E03E490B682A
S214080AF04FF01A021A740EE09DF81230DB093A48D5
S214080B00016814BF302220220A7404E0364A1068AE
S214080B104FF01001017440F60030C2F20700016879
S214080B20CB7B03F00402D0B2002800F095804FF08B
S214080B30000103914FF0030500954FF00103019360
S214080B4008464FF0090240F2D515C0F20805A84736
S214080B50002800F08E8103A84FF00101204B98472B
S214080B60002800F086811F498847002800F0818108
S214080B70039DDFF878801A4F1A4E4FF00302009252
S214080B804FF0010301934FF0000001462A46C04784
S214080B90002800F06E8104A84FF00101B84700282D
S214080BA000F06781B047002800F063819DF81000C8
S214080BB0FF2800F05E81222802D19DF81230BBB1D2
S214080BC09DF81110002900F0548101F102016D18FA
S214080BD0039A02F580708542CFD94AE1813708002A
S214080BE0ED380800053A0800000B0720D501080074
S214080BF04FF0060300934FF0010301934FF00000F7
S214080C0001462A46BB4DA847002800F0328104A8B2
S214080C104FF00101B84A9047002800F02A81B749EA
S214080C208847002800F025819DF81530322B28BF0C
S214080C303223B348026803F00700B24951F820107F
S214080C404FF47A7000FB01F1C3F3C303AE4850F8C3
S214080C50233003FB01F1116040F60632C2F20702A8
S214080C60107843F24163C0F208039847032859D91D
S214080C7040F60030C2F207000168CA7B02F004039F
S214080C80D8B230B303AD00954FF0000001464FF0E0
S214080C90080203469D4DA847002800F0EA809DF903
S214080CA00C10002915DA14AB4FF0020203F8442D95
S214080CB000934FF001004FF000014FF00702034683
S214080CC0A847002800F0D5808D4801684FF0040337
S214080CD04B7440F60032C2F207021068C17B11F06E
S214080CE0010F1AD0838941F237104FEA034143F2C5
S214080CF0F162C0F208029047002800F0BA8041F27C
S214080D0006104FF00201824B9847002800F0B18089
S214080D107B4801684FF004024A7440F2A513C0F2FB
S214080D200803984743F24D60C0F208008047002841
S214080D3000F0818040F60031C2F207010A68D37BD2
S214080D4003F00400C1B259B303AD00954FF000009C
S214080D5001464FF0130203466C4DA847002800F0E2
S214080D6088809DF80C2012F0010F19D014AB4FF0B4
S214080D70020003F8440D00934FF001004FF0000105
S214080D804FF013020346A847002872D05C490B6848
S214080D904FF0010283F8222018684FEA40011960D4
S214080DA040F60033C2F207031868C27B12F0010F40
S214080DB03CD0017C102939D94FF00103009341F249
S214080DC00610C0F208004FF60171C8F2FF014FF096
S214080DD04002504DA84700284BD004A84FF0010108
S214080DE0454B9847002844D044488047002840D0C0
S214080DF0494A904710F0800F3BD19DF8201001F02B
S214080E000F030F2B12D09DF82D009DF82C2050EACA
S214080E1002222ED141498847394B18684FF0010203
S214080E2080F8222001684FEA4103036040F2A510CB
S214080E30C0F20800804740F60032C2F20702116886
S214080E40CB7B13F0010F06D041F210104FF400715F
S214080E502F4A904768B140F60030C2F20700036890
S214080E604FF00001997340F22922C0F20802904719
S214080E707FE040F60034C2F2070420684FF003040F
S214080E80847340F22923C0F20803984771E04FF0B4
S214080E90000601E04FF0000644F205504FF000014E
S214080EA043F2F163C0F20803984700287FF441AB89
S214080EB040F60032C2F207021168CB7B13F0010F2E
S214080EC03FF44AADFFF76DBB40F60030C2F20700AC
S214080ED001684FF00203CB734FF480404FF00001D7
S214080EE043F2F162C0F20802904700287FF49EABF6
S214080EF0B0E700BFD5010800ED380800053A08003D
S214080F00000B072040B6080000B608004902080093
S214080F10F13608008137080019370800CD36080072
S214080F2040F60030C2F207000168CA7B12F0010FD3
S214080F307FF406AD10E545F602304FF00001384B59
S214080F40984700287FF4A9AB84E74FF0000081E7B4
S214080F504FF000007EE733490878334B984703285C
S214080F603FF666AC8DE44FF0000073E74FF00000E4
S214080F7070E7204615B0BDE8F08FC8470028FFF692
S214080F8074AB41F2690606F1FF36FFF765BBC84742
S214080F900028FFF66AAB013E7FF45EABD5E749460C
S214080FA0C4F21F0144F22950002E08BF4FF4FC116A
S214080FB0A847002888D0D0470028FFF61EAB40F682
S214080FC0350B0BF1FF3BFFF702BB4946C4F21F0186
S214080FD044F22950002E08BF4FF4FC11A8470028F9
S214080FE03FF472AFD0470028FFF607ABBBF1010B02
S214080FF07FF4EDAA68E7C047011EFFF6C5AA384683
S21408100001F4FC11A84700283FF433AFC047011E7F
S214081010FFF6BAAAB9F102097FF4A1AA29E700BF28
S214081020F1360800060B07204136080008B540F2DE
S214081030D523C0F20803984758B940F22920C0F2D1
S2140810400800804740F60031C2F207010A68D07BE4
S21408105008BD4FF0000008BD08B540F2D523C0F221
S2140810600803984758B940F22920C0F2080080477C
S21408107040F60031C2F207010A68506808BD4FF012
S214081080000008BD4FF00000704700BF2DE9F04F84
S21408109083B08B46924640F2D523C0F208039847A1
S2140810A08146002840F0818040F64158C0F2030887
S2140810B040F60036C2F2070641F20D1543F2F16417
S2140810C0C0F2080443F21977C0F20807306881892D
S2140810D028464FEA0141A047002846D0B84710F4F2
S2140810E0807F4AD108F1FF383268938928464FEA4C
S2140810F00341A04700285CD137E04FEA4B2100E0C7
S21408110059464FF0010300934FF40072534643F2DA
S2140811108174C0F20804A04738B940F22921C0F209
S214081120080188474FF005093FE043F21970C0F2FE
S214081130080080474FF00001CEF25841014039B10F
S21408114040F22920C0F2080080474FF005092CE03D
S21408115040F60432C2F20702A2F800A040F6FC23CA
S214081160C2F20703A3F800A01FE040F22922C0F24B
S214081170080290474FF0050917E041F21110C0F237
S214081180080041F21214C0F21004BAF1010F88BF29
S214081190204640F60032C2F207021368D97B01F0F7
S2140811A00804E2B2002AABD1A7E7484603B0BDE878
S2140811B0F08FB84710F4807FDFD1306881892846E1
S2140811C04FEA0141A0470028CFD0B84710F4807FE7
S2140811D0D3D1B8F102087FF479AFC6E710B50C464C
S2140811E043F6ED03C0F20803984748B940F60431C1
S2140811F0C2F207014FF000030B804FF0050010BD48
S21408120040F60430C2F207000288141B04804FF030
S214081210000010BD08B543F60523C0F2080398473A
S214081220002830D040F60430C2F2070001880029B2
S2140812302CD140F6FC22C2F207021388012B07D1F4
S21408124040F22921C0F2080188474FF0000008BD87
S21408125043F20C104FF0000143F2F162C0F20802AC
S214081260904740B943F20C104FF0000143F2F16387
S214081270C0F20803984740F22920C0F208008047C9
S2140812804FF0000008BD4FF0050008BD4FF0000005
S21408129008BD00BFF0B583B006460F46154640F2B7
S2140812A0D524C0F20804A0470446002858D1304682
S2140812B041F28503C0F20803984738B140F2292363
S2140812C0C0F2080398474FF0070449E049F218109F
S2140812D0C0F2080049F21911C0F21001012D88BFAA
S2140812E0084640F60032C2F207021668F37B03F09F
S2140812F00801CAB212B94FEA472100E039464FF052
S214081300010600964FF400722B4643F28176C0F22F
S2140813100806B04738B940F22920C0F208008047CE
S2140813204FF005041CE043F21970C0F2080080472D
S2140813304FF00003CEF2584303403BB140F2292455
S214081340C0F20804A0474FF0050409E040F604314F
S214081350C2F207010D8040F6FC22C2F20702158091
S214081360204603B0F0BD00BF10B50C4643F67D23FB
S214081370C0F20803984748B940F60431C2F207019C
S2140813804FF000030B804FF0050010BD40F6043008
S214081390C2F207000288141B04804FF0000010BD3C
S2140813A008B543F67533C0F20803984700282FD0CF
S2140813B040F60430C2F20700018800292BD140F617
S2140813C0FC22C2F207021388012B07D140F2292318
S2140813D0C0F2080398474FF0000008BD43F20C100F
S2140813E04FF0000143F2F162C0F20802904738B9A4
S2140813F040F22921C0F2080188474FF0050008BDD1
S21408140040F22920C0F2080080474FF0000008BDCF
S2140814104FF0050008BD4FF0000008BDF0B48CB0D2
S21408142006460F4601AC4BF29C65C0F208050FCD88
S2140814300FC40FCD0FC495E8070084E80700019B8A
S214081440B7FBF3F0B0FBF6F1B1F5807F52D90299FD
S214081450B7FBF1F2B2FBF6F1B1F5807F4FD9039BEB
S214081460B7FBF3F0B0FBF6F1B1F5807F4AD90499E3
S214081470B7FBF1F2B2FBF6F1B1F5807F45D9059BD3
S214081480B7FBF3F0B0FBF6F1B1F5807F40D90699CB
S214081490B7FBF1F2B2FBF6F1B1F5807F3BD9079BBB
S2140814A0B7FBF3F0B0FBF6F1B1F5807F36D90899B3
S2140814B0B7FBF1F2B2FBF6F1B1F5807F31D9099BA3
S2140814C0B7FBF3F0B0FBF6F1B1F5807F2CD90A999B
S2140814D0B7FBF1F2B2FBF6F1B1F5807F27D90B9B8B
S2140814E0B7FBF3F0B0FBF6F1B1F5807F22D94FF6E3
S2140814F0FF7022E04FF0000241EA02201DE04FF0A4
S2140815000102F9E74FF00202F6E74FF00302F3E7AD
S2140815104FF00402F0E74FF00502EDE74FF0060241
S214081520EAE74FF00702E7E74FF00802E4E74FF074
S2140815300902E1E74FF00A02DEE70CB0F0BC70479C
S21408154070B506460C46086858B1896841F21D43CE
S214081550C0F2080398474FF6FF71884214D0054634
S21408156001E04FF00005606858B1A16841F21D42DD
S214081570C0F2080290474FF6FF73984204D045EA37
S214081580004535604FF0000070BD00BF70B40B68B2
S2140815904FF0010202FA03F28E8A4C6804F00F0537
S2140815A02E430C8926438D7A46EA45268C7D46EAE4
S2140815B00445CE7D45EA46450C7E45EA844603F159
S2140815C010054FEA451405190651CC686C600C697D
S2140815D000EB4315C5F80C428C7D3CB18D8B4C8BCB
S2140815E044EA054500EB4314C4F81852CD7F05FAC3
S2140815F003F58C7F04FA03F444EA0545856491F8FC
S214081600215005FA03F591F8204004FA03F444EA59
S2140816100544446491F822401CB1046A14430462E9
S21408162003E0046A24EA0204046291F82440012CC8
S21408163003D1846E1443846606E0846E002A14BFC1
S214081640002404F00104846691F82540012C04D196
S214081650846E44EA0242826606E0846E120414BF70
S214081660002204F001028266032B0FD8C46E4FEAEC
S214081670C3034FF0FF0202FA03F224EA020291F8CB
S214081680231001FA03F31A43C26610E0A3F1040319
S214081690046F4FEAC3034FF0FF0202FA03F224EA8C
S2140816A0020291F8231001FA03F31A4302674FF077
S2140816B0000070BC704700BF10B40C680B699342FA
S2140816C007D3CA6000EB4410C0F808224FF00000A9
S2140816D001E04FF6FF7010BC704700BF4FF00103E3
S2140816E003FA01F1416070474FF0010303FA01F174
S2140816F08160704702F110024FF0010303FA02F20C
S21408170003FA01F10A434261704700BF4FF008032D
S21408171003604FF0200101604FF00402026070473A
S2140817204FF4D453C0F20603994245D84FEA410114
S214081730B2FBF1F2A2F10402FF2A2ED94FEA5202B6
S214081740FF2A18D94FEA5202FF2A17D94FEA52023F
S214081750FF2A16D94FEA5202FF2A15D94FEA520233
S214081760FF2A14D94FEA5202FF2A13D94FEA520227
S2140817704FF0070313E04FF0010310E04FF00203A9
S2140817800DE04FF003030AE04FF0040307E04FF0C4
S214081790050304E04FF0060301E04FF000034FEAAC
S2140817A002614FEA034343EA1141D2B241EA020317
S2140817B003614FF0000070474FF00100704700BF0C
S2140817C04FF080030360036B704700BF38B50446CC
S2140817D00D464FF0FF338362036A41F2C171C0F2CF
S2140817E008018847204641F20D72C0F20802904769
S2140817F0204669682A6841F22173C0F208039847B0
S214081800012814BF00200120697A012904BF40215D
S214081810216038BD4FF400434360704770B54FF001
S2140818202B004FF0006146F20154C0F20804A047AE
S2140818304FF02A004FF00061A0474FF014004FF019
S2140818400061A0474FF013004FF00061A0474FF02B
S21408185015004FF00061A0474FF016004FF00061EA
S214081860A0474FF017004FF00061A0474FF0180050
S2140818704FF00061A0474FF067004FF00801A047FF
S2140818804FF0160046F62506C0F20806B0474FF099
S21408189011004FF00061A0474FF012004FF00061B2
S2140818A0A0474FF00C00B0474FF48055C4F20E0521
S2140818B04FF080732B61C5F8A0306B634FF46064FB
S2140818C0C4F20E044FF48050206660656062C4F867
S2140818D08000226F0243226760604FF00101216694
S2140818E061656162C4F88010236F0B4323676160EB
S2140818F04FF40050206660656062C4F88000226F6E
S2140819000243226760604FF00C00B0474FF40001B6
S2140819106961C5F8A010696669652962C5F884100A
S2140819202B6F23F4000028674FF00E00B0474FF4E3
S214081930A055C4F20E054FF480626A61C5F8A0206F
S2140819406A666A652A62C5F88420296F21F480636E
S2140819502B674FF00B00B0474FF020002061C4F80B
S214081960A00060634FF00B00B0474FF08002226182
S214081970C4F8A02022634FF00B00B0474FF00201D6
S2140819806161C4F8A010216661652162C4F88410FC
S214081990236F23F0020020674FF00E00B0474FF485
S2140819A080726A61C5F8A0202A666A652A62C5F848
S2140819B08420296F21F480732B674FF00E00B04700
S2140819C04FF400702861C5F8A000686370BD00BFBA
S2140819D0704700BF704700BF704700BF38B541F278
S2140819E04464C2F207044FF43D43C0F20153236037
S2140819F04FF4D450C0F2060060604FF050012172D8
S214081A004FF0000262724FF44045C4F208052846BB
S214081A1041F20D73C0F2080398472846214641F262
S214081A20CD72C0F20802904738BD00BF2DE9F04FCE
S214081A3085B04FF0240046F62503C0F20803984701
S214081A404FF48044C4F2090420464FF0010141F2E5
S214081A50E965C0F20805A84720464FF00301A847E5
S214081A6020464FF00201A8474FF47A2001900290D2
S214081A704FF43D41C0F201510391204601A941F2BD
S214081A804152C0F20802904741F26461C2F207016F
S214081A904FF000050D814FF001068E724FF00B0BCC
S214081AA0C1F804B04FF4806AC1F810A0CD600E608B
S214081AB0204641F28D59C0F20809C84720463146EB
S214081AC02A4641F2F568C0F20808C04741F2B461F8
S214081AD0C2F207010D818E72C1F804B0C1F810A0D9
S214081AE0CD604FF003070F602046C84720463946AA
S214081AF02A46C04741F28C631946C2F207010D8197
S214081B004FF000008872C1F804B0C1F810A0CD608C
S214081B104FF0020AC1F800A02046C84720465146A2
S214081B202A46C0472046314641F2DD65C0F2080520
S214081B30A84720463946A84720465146A84705B034
S214081B40BDE8F08FF8B503460E4617464FF48044B6
S214081B50C4F20904204641F26461C2F207011A463B
S214081B6041F2B965C0F20805A847204641F2B461BB
S214081B70C2F207013A46A847204641F28C61C2F2F3
S214081B8007013246A847F8BD4FF48053C4F20E0347
S214081B90D86B80F40001C1F3C05070474FF4A053CF
S214081BA0C4F20E034FF400721A6370474FF4A05342
S214081BB0C4F20E034FF400725A63704708B540F635
S214081BC01843C2F20703C362184641F6ED51C0F245
S214081BD00801884708BD00BF08B5C06A41F6FD532E
S214081BE0C0F20803984708BD00B583B002A94FF0B5
S214081BF0000321F8023DC06A41F60962C0F20802F5
S214081C009047BDF9060003B000BD00BF00B583B01D
S214081C1002A94FF0000321F8023DC06A41F6A5620A
S214081C20C0F208029047BDF9060003B000BD00BF29
S214081C3038B505460C46C06A41F64963C0F2080343
S214081C40984714F1630F0CDA14F1C70F09DB28461E
S214081C504FF002014FF0200242F25503C0F208038B
S214081C60984714F1C70F0CDA14F5967F09DD284655
S214081C704FF002014FF0100242F25503C0F208037B
S214081C80984714F5967F0CDC14F5C87F09DD2846BE
S214081C904FF002014FF0080242F25503C0F2080363
S214081CA0984714F5C87F0CDC14F5FA7F09DD28463A
S214081CB04FF002014FF0040242F25503C0F2080347
S214081CC0984714F5FA7F0CDC14F5167F09DD2846CC
S214081CD04FF002014FF0800242F25503C0F20803AB
S214081CE0984714F5167F0CDC14F52F7F09DD284677
S214081CF04FF002014FF0400242F25503C0F20803CB
S214081D00984714F52F7F0BDC14F5487F08DD284626
S214081D104FF002010A4642F25503C0F208039847FC
S214081D2014F5487F0CDC14F5617F09DD28464FF072
S214081D3002014FF0010242F25503C0F20803984729
S214081D4055B1E86920B1026812B128462146904785
S214081D504FF0010185F8281038BD00BF10F16D0F4F
S214081D602BD009DC10F1830F2CD010F1710F1AD08C
S214081D7010F18A0F30D12AE010F1670F0ED003DC7D
S214081D8010F16C0F28D113E010F1660F29D0002847
S214081D9022D14BF63C30C0F2080070474BF658305C
S214081DA0C0F2080070474BF66C30C0F20800704767
S214081DB04BF68030C0F2080070474BF69830C0F2F9
S214081DC0080070474BF6AC30C0F2080070474BF678
S214081DD0BC30C0F2080070474BF6D030C0F208009E
S214081DE070474BF64830C0F2080070474FF00003C3
S214081DF0038043804FF01001818070474FF0000346
S214081E0003804380704700BF10B44388B0F9004091
S214081E101AB2944214D019B100EB4202D3880B8050
S214081E20B0F9022002F10102B0F9043003F101030F
S214081E3092FBF3F103FB112242804FF0010001E010
S214081E404FF0000010BC704738B504460D46B0F990
S214081E500430B0F90010B0F90220D21803F10103DB
S214081E6092FBF3F003FB1023994207D120464FF06C
S214081E70000141F60962C0F208029047B4F9000072
S214081E8004EB4001CD8000F10100B4F9043003F101
S214081E90010390FBF3F203FB120020804FF00100D1
S214081EA038BD00BF02884388D21A92B293B20B801C
S214081EB013F4004F04D0808800F1010012180A803D
S214081EC04FF00100704700BF072904D8036B2BB1F9
S214081ED033F8110070474FF0000070474FF00000CD
S214081EE0704700BF70B505460C46164641F6C963EE
S214081EF0C0F20803984720EA06022846214692B20E
S214081F0041F64173C0F20803984770BD70B50546A0
S214081F100E461C46114641F6C963C0F208039847A8
S214081F20304228464FF00001224619BF42F25503B8
S214081F30C0F2080341F6E563C0F20803984770BD8F
S214081F40F8B505460C461646072900F28180036B4D
S214081F50002B7DD033F8117023F81420072957D8A2
S214081F60DFE801F004151D28434E303B4FF0010111
S214081F7041F6C962C0F2080290474FF6BF71314079
S214081F80014252D046F04006B74253D14EE04FF0D9
S214081F90000142F27D03C0F20803984746E0114666
S214081FA04FF003024FF0200341F60D77C0F2080702
S214081FB0B8473BE04FF0020142F27D02C0F2080249
S214081FC0904733E011464FF007024FF0080341F6FA
S214081FD00D77C0F20807B84728E04FF0060142F22E
S214081FE07D02C0F20802904720E011464FF0050235
S214081FF04FF0800341F60D77C0F20807B84715E0A2
S2140820004FF0040142F27D03C0F2080398470DE042
S214082010006B20F81420F8BDE969C9B18B68BBB11C
S21408202028464FF001019847F8BD0E46286B20F861
S2140820301460F8BD2B6B23F8146028464FF0000197
S21408204041F6C962C0F2080290470246002DE3D165
S214082050F8BD00BF70B505460C46164641F6C9637E
S214082060C0F20803984740EA06022846214692B27C
S21408207041F64173C0F20803984770BD38B5054667
S2140820800C4641F6C963C0F208039847024628463C
S214082090214641F64173C0F20803984738BD00BF91
S2140820A008B54FF002014FF0000241F64173C0F246
S2140820B00803984708BD00BF38B5044642F2A10396
S2140820C0C0F208039847204641F6D931C0F2080105
S2140820D0884720464FF004014FF0000241F641754C
S2140820E0C0F20805A84720464FF006014FF0000248
S2140820F0A8474FF0010038BD10B582B0044601A9C4
S2140821004FF0010242F6DD03C0F20803984748B1D3
S21408211020464FF00301BDF8042041F64173C0F293
S214082120080398474FF0010002B010BD10B50446EA
S2140821304FF0030141F6C963C0F208039847014609
S214082140204642F2C572C0F2080290474FF00100DE
S21408215010BD00BF10B504464FF0020141F6C96332
S214082160C0F2080398470146204642F2C572C0F2FC
S2140821700802904720464FF002014FF0000241F651
S2140821804173C0F2080398474FF0010010BD00BF26
S21408219038B505464BF6E031C0F2080142F28574C0
S2140821A0C0F20804A04728464BF6E831C0F20801FA
S2140821B0A04728464BF60841C0F20801A0474FF052
S2140821C0010038BD08B54FF002014FF0010242F297
S2140821D05503C0F2080398474FF0010008BD00BF3A
S2140821E008B54FF0010142F2C573C0F208039847DC
S2140821F04FF0010008BD00BF08B528B1C36933B168
S214082200196939B1884707E04FF0010004E04FF03C
S214082210010001E04FF0010040B208BD10B582B0E1
S214082220044601A94FF0010242F6DD03C0F2080396
S214082230984748B120464FF00101BDF8042041F602
S2140822404173C0F2080398474FF0010002B010BD72
S21408225010B504464FF0010141F6C963C0F2080301
S21408226098470146204642F2C572C0F208029047D7
S2140822704FF0010010BD00BF10B504464FF0000136
S21408228041F6C963C0F2080398470146204642F261
S214082290C572C0F2080290474FF0010010BD00BF9B
S2140822A010B5044630B1C3693BB1596941B1884796
S2140822B0014607E04FF0000104E04FF0000101E09E
S2140822C04FF00001204642F2C572C0F2080290475D
S2140822D04FF0010010BD00BF4FF00100704700BF6F
S2140822E008B54BF63071C0F2080142F28573C0F2A9
S2140822F0080398474FF0010008BD00BF08B54BF625
S2140823000841C0F2080142F28573C0F208039847F4
S2140823104FF0010008BD00BF38B5044641F6E93362
S214082320C0F20803984705462046294642F2C57279
S214082330C0F208029047284641F65D51C0F20801EF
S21408234088470146204642F60D03C0F20803984720
S2140823504FF0010038BD00BF10B5044641F60D43E6
S214082360C0F2080398470146204642F2C572C0F2FA
S214082370080290474FF0010010BD00BF10B5044694
S2140823804FF0060141F6C963C0F2080398470146B4
S214082390204642F2C572C0F20802904720464FF027
S2140823A006014FF0000241F64173C0F20803984751
S2140823B04FF0010010BD00BF10B504464FF00701EE
S2140823C041F6C963C0F2080398470146204642F220
S2140823D0C572C0F2080290474FF0010010BD00BF5A
S2140823E010B582B0044601A94FF0010242F6DD039B
S2140823F0C0F20803984748B120464FF00701BDF8D9
S214082400042041F64173C0F2080398474FF00100D4
S21408241002B010BD08B54FF006014FF0000241F6B5
S2140824204173C0F2080398474FF0010008BD00BF8B
S21408243008B5C3695B68984708BD00BF08B5036A56
S214082440002B0BDD4BF61041C0F208014FF00202DC
S21408245042F23143C0F20803984708BD4FF0000027
S21408246008BD00BF8369994228BF194642695218B9
S2140824704261591A8161704710B504464069A169DE
S21408248042F6C543C0F2080398470146204642F282
S2140824906542C0F20802904710BD00BF38B5044632
S2140824A00D4642F27943C0F208039847A06960B91E
S2140824B0002D31D020466FF06C0141F63142C0F253
S2140824C0080290474FF0000038BD616AE9B16269BA
S2140824D013782C2B0ED120464FF0010142F26543AB
S2140824E0C0F208039847204642F27941C0F2080134
S2140824F088470AE020466FF0660141F63142C0F28E
S214082500080290474FF0000038BD606A00F10100ED
S21408251060624FF0010038BD4FF0000038BD00BFC4
S21408252008B54BF61442C0F2080242F65513C0F23C
S2140825300803984708BD00BF2DE9F04F83B001EBAC
S214082540020B0746002800F09E80594580F09E80C2
S2140825500D4641F63143C0F2080301932C46C5EBFD
S2140825600B0828464146514A42F65516C0F2080658
S214082570B04708B1461B00E046462846414642F2A8
S2140825802152C0F20802904710B1001B009001E0EB
S214082590CDF80080002E5FD0D7F80090D9F800005C
S2140825A0002876D04FF0080442F6196AC0F2080AE6
S2140825B029463246D04790B1C7F81090AB197B61D0
S2140825C00098861BBE614FF0000487F828404FF03D
S2140825D0000139627962D9F804204AB914E03968EA
S2140825E001EB0409085904F108040028E0D150E07A
S2140825F038469047012807D097F8283023B9384638
S2140826006FF0C701019CA047386A002811DD3846DC
S2140826104BF61471C0F208014FF0020242F2314341
S214082620C0F208039847F96919B1CA680AB138466A
S2140826309047384642F27944C0F20804A047B86981
S21408264068B197F828306BB938466FF06B01019A75
S21408265090474FF0010407E04FF0000404E04FF005
S214082660010401E04FF001042846414642F2215396
S214082670C0F208039847454408B100F10105AB4588
S2140826803FF66CAF0DE04FF0FF340AE04FF0000461
S21408269007E038466FF07001019A90474FF0000443
S2140826A0E2E7204603B0BDE8F08F00BF18BC08007C
S2140826B008B54FF00002826041F6BD31C0F208014D
S2140826C0884708BDF8B50446154672B9C1688268D9
S2140826D04FF000068E54E168A26842F23955C0F2FF
S2140826E00805A8470546A66049E08368426802F1DF
S2140826F0FF30C21A95423DD8E768F8182A4649F2CC
S2140827002533C0F208039847A1686D18A560E068ED
S2140827104FF000024255E068A16842F6C547C0F28D
S2140827200807B8470546E368A1681818491B4BF61A
S2140827301472C0F2080242F65517C0F20807B847E6
S2140827400746D0B1E268861A20465119721B42F233
S2140827503955C0F20805A8470546A368E068394613
S2140827609A1B49F23733C0F208039847A068861BBD
S214082770A66004E04FF0FF3501E04FF0000528465C
S214082780F8BD00BFF8B504460D46084649F2314381
S214082790C0F2080398470746204642F23D41C0F279
S2140827A0080188470646204629463A4642F23143FB
S2140827B0C0F208039847226A02F1010222628019D1
S2140827C0F8BD00BF70B584B00446084601A94FF0AE
S2140827D00C0242F6A113C0F20803984706462046A4
S2140827E042F23D41C0F2080188470546204601A945
S2140827F0324642F23143C0F208039847226A02F191
S21408280001022262401904B070BD00BF2DE9F041F4
S21408281004460F4642F23D43C0F2080398478046F6
S2140828204BF66876C0F20806204631464FF001029D
S21408283042F23145C0F20805A8478044384649F2B6
S2140828403141C0F208018847024620463946A84763
S21408285008EB0007204631464FF00102A847226AD7
S21408286002F1010222623818BDE8F08170B582B024
S214082870044615460E4619B32AB3194642F29D4336
S214082880C0F20803984708B36069A169324601ABED
S21408289042F6F526C0F20806B047D0B120460199A0
S2140828A042F26542C0F208029047204642F2794159
S2140828B0C0F208018847019828604FF001000AE036
S2140828C04FF0000007E04FF0000004E04FF0000073
S2140828D001E04FF0000002B070BD00BF70B582B0D6
S2140828E0044613460E46E1B101A96A4642F66D054E
S2140828F0C0F20805A847B8B10198314642F6A923A0
S214082900C0F2080398470099884210D020466FF016
S214082910890141F63142C0F2080290474FF00000A4
S21408292007E04FF0000004E04FF0000001E04FF031
S214082930010002B070BD00BFA0F10203D9B202299F
S21408294004D9D0F1010038BF002070474FF00100CD
S214082950704700BF70B4411888421AD0034613F86F
S214082960016B36B94FF0000018E0B54202D115E009
S2140829702346144614F8015B002DF6D18B420BD083
S2140829801C4614F8016B1846002EF1D14FF00000D3
S21408299004E04FF0000001E04FF0000070BC704704
S2140829A0F0B4034638B9002A55D04FF03000087006
S2140829B04FF0010049E0002808DAC0F1000342B1F0
S2140829C04FF02D0008704FF0010004E04FF00000B3
S2140829D001E04FF000001D464CF6FF14C3F69A348B
S2140829E0A34210D84FF44A43C3F69A334CF6CD4662
S2140829F0CCF6CC46A6FB03434FEAD303B5FBF3F469
S214082A00002CF7D003E04FF44A43C3F69A338242C9
S214082A1033D9B5FBF3F6F6B24CF6CD47CCF6CC4731
S214082A206FEA0004A41814F0010F28D106F1300448
S214082A300C5400F10104204603FB1655A7FB03635C
S214082A40DB0802D0A24209D817E0904215D24FF010
S214082A5000020A5411E04FF000000EE0B5FBF3F058
S214082A60C6B206F13000085504F1010003FB1655FE
S214082A70A7FB0343DB0813D1E7E7F0BC704706F172
S214082A8030040C5400F1010003FB1655A7FB036342
S214082A90DB08DAD08242F0D9B5FBF3F6F6B2C5E722
S214082AA0B5FBF3F6F6B2C1E730B583B004460D467B
S214082AB001A94FF0000249F2D953C0F2080398471B
S214082AC028600198001B03B030BD00BF10B50C4647
S214082AD099420BD11146224649F24143C0F20803F7
S214082AE09847D0F1010038BF002010BD4FF0000015
S214082AF010BD00BF2DE9F04F83B0064601929946F7
S214082B000B4600293ED040F29822C2F20702D2F8BD
S214082B1000E04FF001054FF000042746A0464FF0AE
S214082B20020B6FEA0401C9182940005D2246002CF2
S214082B304FD062E0315D12B1022A1BD10FE00EEBD6
S214082B400100407800F00800C0B210B12F46A84631
S214082B5010E02C291BD0A0462F465A460AE02C29FE
S214082B6018D00EEB0100417801F00800C1B2002928
S214082B7008BF2F4604F1010405F10105315D002A5E
S214082B8076D089E04FF00007B8463A4604E04FF0A2
S214082B90040201E04FF00402104642F63913C0F270
S214082BA00803984768B1019A0AB146441660B9F115
S214082BB0000F09D0C8EB0707C9F800704FF00100EE
S214082BC004E04FF0000001E04FF0010003B0BDE85C
S214082BD0F08F0EEB000C9CF801C00CF0080C5FFAA6
S214082BE08CFCBCF1000F05D12C28D0D0A0462F466F
S214082BF05A460EE02F46A8460BE0022C09D12C2890
S214082C00C8D07044407800F00800C0B2002808BF5A
S214082C102F4604F1010405F101059C42BCD00029A9
S214082C2088D0315D7AB90EEB0100407800F00800D4
S214082C30C0B228B92C29AAD0A0462F465A460FE07B
S214082C402F46A8460CE0022A0AD12C29A2D00EEB61
S214082C500100417801F00800C1B2002908BF2F46DC
S214082C6004F1010405F101059C427FF463AF93E784
S214082C700EEB010A9AF801A00AF0080A5FFA8AFA27
S214082C80BAF1000F05D12C2981D0A0462F465A4606
S214082C900FE02F46A8460CE0022A0AD12C293FF45A
S214082CA079AF7144497801F00801C9B2002908BF14
S214082CB02F4604F1010405F101059C427FF43AAF62
S214082CC06AE700BF70B40E4611B340F29823C2F20A
S214082CD007031C6801786218537803F00801CAB223
S214082CE0C2B103464FF0000016F0010F09D115E0F7
S214082CF013F8015F61194D7805F00801CDB2CDB91A
S214082D000AE000F101021046B242F1D1304603E073
S214082D10084601E04FF0000070BC704700F1010063
S214082D2013F8011F6218517801F00802D1B2002981
S214082D30E7D1F1E702F1010013F8012FA1184A784C
S214082D4002F00801CAB2002ADBD1E5E72DE9F04710
S214082D50804691469A468E4621B303782BB340F2B6
S214082D609822C2F207021068C1184C7804F00305CE
S214082D70022D1DD042464FF000041EF0010F07D169
S214082D802FE0C719797801F00305022D36D111E036
S214082D9004F10106344676450CD012F8017F002F60
S214082DA0EFD107E04FF0000404E04FF0000401E024
S214082DB04FF00004404671464A46534642F6CD2533
S214082DC0C0F20805A84730B9404621464A46534649
S214082DD02C46A84701E04FF0010000F00100BDE8CE
S214082DE0F08704F1010412F8013F002BE2D0C11865
S214082DF04D7805F00303022BCAD1DBE706F1010480
S214082E0012F8013F002BD5D0C1184D7805F0030302
S214082E10022BBDD1CEE700BF2DE9F84F05460C467C
S214082E20164649F23143C0F20803984705EB0009F5
S214082E302046314649F2B342C0F20802904704EBF6
S214082E40000A20783A2808BF01344BF68C6BC0F28B
S214082E50080B42F65518C0F20808C5EB09072846BD
S214082E6039465A46C04700B1471BC4EB0A062046F7
S214082E7031461B4AC04700B1061B2846394622463B
S214082E80334642F64D5CC0F2080CE047C0B1ED1977
S214082E90A4194D4505D1A2458CBF00200120BDE8E8
S214082EA0F88FA24510D928782278824210D13A287D
S214082EB001D03F2810D105F1010504F10104CCE743
S214082EC04FF00000BDE8F88F4FF00000BDE8F88F1F
S214082ED04FF00000BDE8F88F4FF00000BDE8F88F0F
S214082EE094BE080038B541F6DC25C2F207054BF655
S214082EF09864C0F208040FCC28606960AA60EB608A
S214082F0003CC2861696123782B76284643F6ED3191
S214082F10C0F2080188474FF0010038BD38B541F6C1
S214082F20DC25C2F207054BF69864C0F208040FCCFD
S214082F3028606960AA60EB6003CC28616961237821
S214082F402B76284643F6ED31C0F2080188474FF045
S214082F50010038BD38B541F6DC25C2F207054BF648
S214082F609864C0F208040FCC28606960AA60EB6019
S214082F7003CC2861696123782B76284643F6ED3121
S214082F80C0F2080188474FF0010038BD08B541F681
S214082F90DC23C2F207034BF6B462C0F208021068DC
S214082FA018609188927999809A71184643F6ED339D
S214082FB0C0F2080398474FF0010008BD08B541F66F
S214082FC0DC23C2F207034BF6BC62C0F208021068A4
S214082FD0186091889980184643F6ED33C0F20803C6
S214082FE098474FF0010008BD08B541F6DC23C2F249
S214082FF007034BF6C462C0F2080210681860184649
S21408300043F6ED31C0F2080188474FF0010008BDCD
S21408301008B541F6DC23C2F207034BF6C462C0F2D9
S214083020080210681860184643F6ED31C0F2080129
S21408303088474FF0010008BD08B541F6DC20C2F20B
S21408304007004BF6C863C0F208031A88997802800E
S214083050817043F6ED33C0F2080398474FF001003D
S21408306008BD00BF08B541F6DC20C2F207004BF6E3
S214083070C863C0F208031A8899780280817043F6FC
S214083080ED33C0F2080398474FF0010008BD00BFB3
S21408309008B541F68933C0F208039847012814D1C9
S2140830A041F6DC23C2F207034BF6CC62C0F20802F4
S2140830B0106818609188927999809A71184643F634
S2140830C0ED33C0F20803984712E041F6DC22C2F25C
S2140830D007024BF6D463C0F2080303CB10605160B6
S2140830E018781072104643F6ED31C0F2080188478A
S2140830F04FF0010008BD00BF4FF00100704700BF49
S2140831004FF00100704700BF30B583B001A96A468A
S2140831104FF0010342F66D04C0F20804A0470028E9
S21408312039D0009C012C39D9019D28464BF6E06120
S214083130C0F208014FF0020249F28543C0F20803C4
S214083140984760B941F69D33C0F20803984741F6A0
S214083150D510C0F2080080474FF0010026E0022C88
S2140831601FD928464BF6E461C0F208014FF0030267
S21408317049F28543C0F208039847A8B941F6D91121
S214083180C0F20801884741F6AD32C0F208029047FF
S2140831904FF001000AE04FF0FF0007E04FF0010093
S2140831A004E04FF0FF0001E04FF0FF0040B203B02C
S2140831B030BD00BF2DE9F04784B0044603A94FF0A0
S2140831C0010242F6DD03C0F208039847002846D0FD
S2140831D0204602A94FF0010242F6DD03C0F20803BA
S2140831E0984700283ED0204601A94FF0010242F633
S2140831F0DD03C0F208039847002836D049F2E509EF
S214083200C0F208090398C84748F6CD58C0F208081F
S214083210C04706460F460298C847C04704460D46AC
S2140832200198C847C0478046894649F2D11AC0F275
S214083230080A30463946D04786B220462946D0473F
S21408324084B240464946D04782B23046214641F6C7
S2140832504533C0F2080398474FF0010007E04FF0E7
S214083260FF0004E04FF0FF0001E04FF0FF0040B21F
S21408327004B0BDE8F08700BF10B5044640F2954399
S214083280C0F208039847012803D028B1022820D1A5
S21408329015E04FF0030010BD40F64041C2F20701AA
S2140832A00B5DCBB9204641F22D02C0F208029047CA
S2140832B000F0030000280CBF0220002010BD40F6D6
S2140832C04040C2F207004FF0000202554FF00200DD
S2140832D010BD4FF0010010BD4FF0020010BD00BF3A
S2140832E008B54FF0000043F27923C0F20803984768
S2140832F008BD00BF38B504460D4641F25903C0F272
S214083300080398474FEA400000F1FF31296020463D
S21408331043F27922C0F20802904738BD08B5014644
S2140833204FF0000043F2F523C0F20803984708BDA3
S21408333008B541F28503C0F20803984708BD00BFE8
S21408334008B54FF0000043F23133C0F2080398473F
S21408335008BD00BF4FF00100704700BF08B54FF02A
S214083360000043F25533C0F20803984708BD00BF73
S2140833702DE9F041144641F28D03C0F20803984740
S214083380014670B302280CBF02200120BDE8F08178
S21408339044B114F0010F0CBF384640464FF0010107
S2140833A0B047A0BB85B914F0010F0CBF414639469B
S2140833B04FF001004FF400724FF0000345F66D051C
S2140833C0C0F20805A84730B32CB141F21520C0F268
S2140833D00800804718BB04F1FF34A4B24FF000057C
S2140833E00DE04FF0010541F2DD16C0F2080641F285
S2140833F0DC68C2F2070841F6DC07C2F207074FF698
S214083400FF729442C4D14FF00000BDE8F0814FF03F
S2140834100100BDE8F0814FF00100BDE8F0814FF0F3
S2140834200100BDE8F08100BF08B503460A464FF024
S2140834300000194643F27133C0F20803984708BDE6
S2140834402DE9F041144641F29523C0F20803984747
S214083450014668B302280CBF02200120BDE8F081AF
S21408346045B914F0010F0CBF384640464FF001012D
S214083470B04798BB7CB114F0010F0CBF41463946E3
S2140834804FF000004FF40072034645F66D0CC0F28C
S214083490080CE04730B32DB941F2A130C0F208005D
S2140834A0804718BB04F1FF34A4B24FF000050DE0C6
S2140834B04FF0010541F26936C0F2080641F2DC68B1
S2140834C0C2F2070841F6DC07C2F207074FF6FF729A
S2140834D09442C5D14FF00000BDE8F0814FF00100DE
S2140834E0BDE8F0814FF00100BDE8F0814FF0010023
S2140834F0BDE8F08108B503460A464FF000001946B5
S21408350043F24143C0F20803984708BD70B44FF031
S21408351080435D689C68D868D9695A6D4FF0800604
S2140835201E605D609C60D860D9615A654FF00000E7
S21408353018654FF00501196070BC704708B501F0B2
S2140835403F03184311F4807F0CD011F4006F02D0AB
S21408355040F4845006E011F4005F14BF40F486502F
S21408356040F4825011F4804F18BF40F400604FF0CA
S21408357080431A615861184601F48052036C52B1B0
S21408358013F41F0F12D043F20D52C0F208029047F0
S2140835904FF0000008BD13F41B0F07D043F20D517F
S2140835A0C0F2080188474FF0000008BD13F0010F6D
S2140835B0E4D011F4005F19D14FF0010008BD086C83
S2140835C003F1FF3300F03002202A19D10BE043F252
S2140835D00D51C0F2080188474FF0000008BD00F002
S2140835E03002202AEBD14FF0010008BD4FF0804092
S2140835F0006C44F24023C0F20F034FF08041EEE720
S214083600086C013BEBD1E2E710B54FF0150046F623
S2140836102504C0F20804A0474FF02700A0474FF043
S21408362080434FF072029A60DA614FF011005865D5
S2140836304FF4E06159604FF005021A6010BD00BFF4
S21408364000280CBF04200020704700BF4FF0010080
S214083650704700BF33B14FF08043586D40F4807018
S214083660586505E04FF08043586D20F48070586523
S21408367081B14FEA41014FF43D43C0F20153B3FB19
S214083680F1F001FB103109B100F1010020B100F1A1
S214083690FF3001E04FF000004FF08043596821F0FA
S2140836A0FF0159605968C0B208435860042A04D01C
S2140836B0082A0CBFC022002201E04FF080024FF01B
S2140836C08043DA60704700BF704700BF4FF0804302
S2140836D05A6822F4605058604FF0000119614FF4A0
S2140836E010625A611846036C13F0010FFBD070473E
S2140836F010B504460A464FF08043596821F46050D6
S21408370058604FF0000018659861214643F23D5313
S214083710C0F20803984710BD4FF08043186A7047F8
S2140837204FF080431A6A4FEA126101704FEA12415D
S21408373041704FEA12218170C2701A6A4FEA12610C
S21408374001714FEA124141714FEA12218171C2712B
S2140837501A6A4FEA126101724FEA124141724FEA41
S21408376012218172C2721B6A4FEA136202734FEA11
S214083770134141734FEA13228273C373704700BF25
S21408378070B504460D469DF8101029B14FF48070A8
S2140837904FF08041086504E04FF000004FF0804687
S2140837A030654FF08046706840F4C051716012F082
S2140837B0030F04D0706840F40051716005E04FF0C4
S2140837C08046706820F40051716004F40046002EAC
S2140837D00CBF4FF4A0204FF4803014F4803F09D07B
S2140837E040F400104FEAC2564FEAD6514FF08046D2
S2140837F0B16118E043EA02464FF080418E6114F446
S214083800003F02D040F420100DE014F4802F02D0C0
S21408381040F4801007E014F4002F04D114F4801F3D
S21408382018BF40F4002040F64841C2F207014FF0A6
S21408383000060E6040F64441C2F207010A8040F6D0
S2140838404642C2F20702138021462A4643F23D53F7
S214083850C0F20803984770BD08B54FF080414FF096
S2140838600002CCF260020B6C134207D043F20D50F4
S214083870C0F2080080474FF0000008BD13F0020FA2
S214083880F1D04FF080410A6B026040F64840C2F221
S2140838900700036803F10403036040F64641C2F2DA
S2140838A007010A8840F64440C2F20700018801FB77
S2140838B002F2934216D34FF080404FF00002CCF24B
S2140838C06002036C134207D043F20D51C0F20801A0
S2140838D088474FF0000008BD13F0006FF1D04FF096
S2140838E0010008BD4FF0010008BD00BF70B586B0E6
S2140838F0044640F64443C2F207031E8806FB01F658
S2140839004FF08040416811F4005F2FD14FF4804596
S214083910C4F20C05284643F6B572C0F20802904772
S21408392028464FF0000143F6C973C0F208039847CB
S21408393028464FF000014FF40072C0F2011244F21C
S2140839401105C0F20805A8474FF03000C4F2000081
S2140839500190029414F0030F02D0B4B203942AE044
S214083960C6F38F0444F00851039124E04FF48045D1
S214083970C4F20C05284643F6B572C0F20802904712
S21408398028464FF0000143F6C973C0F2080398476B
S21408399028464FF000014FF40072C0F2011244F2BC
S2140839A01105C0F20805A8474FF03000C4F2000021
S2140839B001900294D1E74FF00001C4F2512104911E
S2140839C04FF0000405944FF48045C4F20C052846D1
S2140839D0214601AA44F21D03C0F208039847284668
S2140839E0214643F6BD72C0F20802904740F64840AA
S2140839F0C2F207000168761806604FF0010006B0AC
S214083A0070BD00BF10B540F64643C2F207031888DB
S214083A1040F64442C2F20702148804FB00F440F65B
S214083A204841C2F2070108684FF080414FF0000293
S214083A30CCF260020B6C134212D043F20D50C0F267
S214083A40080080474FF48040C4F20C004FF0000195
S214083A5043F6C972C0F2080290474FF0000010BD46
S214083A60844202D913F0007F05D113F0006FE1D02D
S214083A704FF0010010BD4FF0010010BD70B586B0C4
S214083A80044640F64443C2F207031E8806FB01F6C6
S214083A904FF08040416811F4005F27D14FF480450D
S214083AA0C4F20C05284643F6B572C0F208029047E1
S214083AB028464FF000014FF40052C0F2011244F2BB
S214083AC01103C0F20803984701944FF03400C4F27B
S214083AD00000029014F0030F02D0B4B2039422E060
S214083AE0C6F38F0444F0085103911CE04FF4804558
S214083AF0C4F20C05284643F6B572C0F20802904791
S214083B0028464FF000014FF40052C0F2011244F26A
S214083B101103C0F20803984701944FF03400C4F22A
S214083B2000000290D9E74FF00001C6F23101049177
S214083B304FF0000405944FF48045C4F20C0528465F
S214083B40214601AA44F21D03C0F2080398472846F6
S214083B50214643F6BD72C0F20802904740F6484038
S214083B60C2F207000168761806604FF0010006B03A
S214083B7070BD00BF10B540F64643C2F2070318886A
S214083B8040F64442C2F20702148804FB00F440F6EA
S214083B904841C2F2070108684FF080414FF0000222
S214083BA0CCF260020B6C134212D043F20D50C0F2F6
S214083BB0080080474FF48040C4F20C004FF0000124
S214083BC043F6C972C0F2080290474FF0000010BDD5
S214083BD0844202D913F0007F05D113F0200FE1D0FC
S214083BE04FF0010010BD4FF0010010BD10B504469F
S214083BF040F64C43C2F20703187868B1204649F2EB
S214083C003142C0F2080290470146204644F6753312
S214083C10C0F20803984710BD204649F23141C0F269
S214083C200801884710BD00BF39B140F64C40C2F2C3
S214083C3007004FF001010170704740F64C43C2F28E
S214083C4007034FF000021A70704700BF40F64D4356
S214083C50C2F207034FF001021A707047704700BFA0
S214083C60704700BF704700BF30B583B0134641F6B3
S214083C70DC24C2F20704009120464FF064014BF69C
S214083C80E862C0F2080249F2CB35C0F20805A84738
S214083C90204643F6ED33C0F2080398474FF001007C
S214083CA003B030BD4FF00100704700BF30B583B099
S214083CB00D4608B241F65D53C0F20803984741F630
S214083CC0DC24C2F20704009020464FF064014BF64D
S214083CD0F062C0F208022B4649F2CB35C0F208055E
S214083CE0A847204643F6ED31C0F2080188474FF052
S214083CF0000003B030BD00BF30B583B00B46144695
S214083D00012918D141F6DC25C2F20705009228469B
S214083D104FF064014BF60472C0F20802234649F2DB
S214083D20CB34C0F20804A047284643F6ED31C0F26B
S214083D300801884717E041F6DC25C2F2070500921D
S214083D40019228464FF064014BF61872C0F208023A
S214083D5049F2CB34C0F20804A047284643F6ED33B0
S214083D60C0F2080398474FF0010003B030BD00BF0B
S214083D7008B541F6DC22C2F207024BF63473C0F2ED
S214083D80080303CB1060516018781072104643F68B
S214083D90ED31C0F2080188474FF0010008BD00BFAA
S214083DA008B541F6DC22C2F207024BF64073C0F2B1
S214083DB0080303CB1060516018881081104643F63C
S214083DC0ED31C0F2080188474FF0010008BD00BF7A
S214083DD008B540F23000C2F2070042F2B163C0F202
S214083DE00803984708BD00BF2DE9F04744F2216351
S214083DF0C0F208039847002847D040F64E44C2F25F
S214083E00070441F64035C2F2070544F6351AC0F2F3
S214083E10080A44F6A129C0F2080940F23008C2F29E
S214083E20070842F2C567C0F20807208840194FF015
S214083E300101D04706462188685CC8472288404664
S214083E4051194FF00102B847238803F1010398B2CD
S214083E502080291811F8012C0D2A01D00A2A02D12F
S214083E604FF00003238016B12088C728DDD940F616
S214083E704E41C2F207010A88C82A06D140F64E43C8
S214083E80C2F207034FF000001880BDE8F08700BFB5
S214083E9041F61043C2F207039878042802D0052892
S214083EA03BD104E040F2B402C2F2070203E040F25B
S214083EB0A402C2F2070240F28803C2F2070311788E
S214083EC05980507898809178D980D078188111795F
S214083ED05981507998819179D981D0791882117A47
S214083EE05982507A9882917AD982D07A1883127B2E
S214083EF05A834FF01C01197041F61040C2F20700B1
S214083F0081818360C3881B2B0AD841F61042C2F20F
S214083F10070293814FF0010070474FF0000070478A
S214083F204FF00100704700BF04207146084200F0B9
S214083F300480EFF3098000F005B8EFF3088000F07E
S214083F4001B800BF8EB003680D9341680C91826873
S214083F500B92C3680A9301690991426908928369BA
S214083F600793C06906904EF62851CEF200010A68FB
S214083F7005924EF62C53CEF20003186804904EF6BF
S214083F803051CEF200010A6803924EF63C53CEF248
S214083F900003186802904EF63451CEF200010A6803
S214083FA000924EF63853CEF200031868019000BE11
S214083FB0FEE700BF4FF00103436070474FF0010370
S214083FC003FA01F1816270474FF0010303FA01F129
S214083FD0C162704701EB810100EBC100C263704704
S214083FE001EB810100EBC1000264704701EB81011F
S214083FF000EBC1004264704701EB810100EBC10091
S2140840008264704701EB810100EBC100C26470470F
S21408401001EB810100EBC1000265704770B50446EC
S2140840200E461546436A126843F6D573C0F208036F
S2140840309847204631466A6843F6E173C0F208039B
S2140840409847204631464FF0000243F6ED73C0F21B
S2140840500803984720463146AA6843F6F973C0F223
S2140840600803984720463146EA6844F20503C0F23A
S2140840700803984770BD00BF08B546F60503C0F2AA
S214084080080398474FF0000046F6A901C0F2080159
S214084090884746F6C100C0F20800804708BD00BF42
S2140840A010B54FF43D40C0F2015048F6A933C0F2AF
S2140840B0080398474FF000004FF03E0146F265723D
S2140840C0C0F20802904746F2D574C0F20804A0472A
S2140840D00028FCD046F2E570C0F2080080474FF48E
S2140840E0C061C4F20E0143F60173C2F20D038B627F
S2140840F046F2F574C0F20804A0470028FCD04FF03A
S214084100100046F2C562C0F20802904748F6E11071
S214084110C0F20800804710BD4FF00100704700BF8E
S21408412008B528B943F2E123C0F20803984708BD4A
S2140841304FF0010008BD00BF08B530B9084643F285
S2140841401D33C0F20803984708BD4FF0010008BDAC
S21408415010B981F0010070474FF00000704700BFAB
S21408416008B528B943F24133C0F20803984708BD9A
S2140841704FF0010008BD00BF08B528B943F25D330B
S214084180C0F20803984708BD4FF0010008BD00BFFD
S21408419020B94BF64C70C0F2080070474FF000008C
S2140841A0704700BF08B538B90846114643F2294398
S2140841B0C0F20803984708BD4FF0010008BD00BFCD
S2140841C008B538B90846114643F2F543C0F2080365
S2140841D0984708BD4FF0010008BD00BF41F26803CC
S2140841E0C2F207031A7802F1FF30C1B2197070479D
S2140841F04FF00000704700BF4FF00000704700BF48
S214084200704700BF30B583B041F27C03C2F20703A3
S2140842101878002840F0DF8047F64151C0F20801C0
S214084220884760B141F27004C2F20704248847F652
S214084230A550C0F20800804784420DD1CBE041F279
S2140842407002C2F20702148847F69553C0F20803B4
S2140842509847844200F0BF80EFF31085D5F101053A
S21408426038BF002572B6BFF35F8F40F29021C2F2C6
S21408427007014FF000020A7040F65C43C2F20703DB
S2140842801C7840F66040C2F2070030F8141079BB7C
S21408429041F29843C2F207031A8802F101021A8013
S2140842A047F64150C0F20800804730B941F29841BD
S2140842B0C2F207010B88632B0DD947F64152C0F2AC
S2140842C008029047A0B141F29840C2F20700018860
S2140842D0B1F5487F0CD2002D7DD040F29023C2F273
S2140842E007034FF001021A70BFF35F8F62B672E0E1
S2140842F041F29843C2F207034FF000021A8041F2D7
S2140843009040C2F20700017849B9944214BF0022CF
S214084310012240F65C43C2F207031A7003E0D4F1A8
S214084320010438BF002441F27C00C2F207004FF0B7
S214084330010202703DB140F29025C2F207052A70CC
S214084340BFF35F8F62B6254640F66041C2F20701AA
S21408435031F81440B4F5007418BF0124DCB147F6F0
S2140843604152C0F20802904750B147F6A550C0F235
S2140843700800804741F27002C2F20702108011E07E
S21408438047F69551C0F20801884741F27003C2F219
S2140843900703188006E041F27003C2F207034FF0E5
S2140843A00000188040F66041C2F2070131F8153067
S2140843B044F2F130C0F2080000904FF08400214625
S2140843C040F66444C2F2070404EB452248F261044E
S2140843D0C0F20804A04703B030BD00BF08B54FF0D0
S2140843E0000044F20523C0F20803984708BD00BF42
S2140843F008B5E8B940F65C43C2F207031978D1F16C
S214084400010138BF002140F66043C2F2070323F8D3
S214084410110041F29041C2F20701087041F27C0295
S214084420C2F20702107044F20523C0F20803984748
S21408443008BD00BF08B541F61043C2F20703187856
S21408444010F0800F20D000F06001202956D141F6E8
S2140844501042C2F207025378212B52D141F610407F
S214084460C2F20700C18807294ED141F61043C2F2AE
S214084470070340F65042C2F207029A604FF0070060
S21408448098814FF0010008BD00F0600120293ED158
S21408449041F61042C2F207025378202B02D0222B94
S2140844A038D11AE041F61043C2F20703D888072825
S2140844B033D141F61041C2F2070144F20122C0F29C
S2140844C008020A6140F65043C2F207038B604FF0B9
S2140844D0070088814FF0010008BD41F61040C2F27F
S2140844E0070081784FF0000001F0010143F62942E9
S2140844F0C0F2080290474FF0010008BD4FF00000D8
S21408450008BD4FF0000008BD4FF0000008BD4FF092
S214084510000008BD4FF0000008BD4FF0000008BDC1
S21408452008B540F65843C2F207031A7802F1FF307E
S214084530C1B21970187848F6CD43C0F208039847F8
S21408454041F27400C2F207004FF00002027008BD84
S21408455008B54FF0000041F26803C2F2070318706E
S21408456041F29441C2F20701088041F28003C2F288
S21408457007034FF0A10119704FF0200159705880B9
S21408458098804FF00201D980188140F65043C2F255
S21408459007034FF4E1311960187158714FF008029B
S2140845A09A7148F6BD43C0F20803984758B141F2DD
S2140845B06800C2F20700017801F10101CAB2027070
S2140845C04FF0010008BD4FF0000008BDEFF3108360
S2140845D072B6BFF35F8F40F29022C2F207024FF026
S2140845E00001117041F26C00C2F20700028890B216
S2140845F041F27801C2F20701097841F26402C2F278
S214084600070232F81110081A4BB940F29023C2F28A
S21408461007034FF001021A70BFF35F8F62B6704748
S21408462008B54FF0000044F2CD53C0F2080398478F
S21408463008BD00BF08B544F2CD53C0F2080398473A
S214084640003018BF012008BD10B582B0EFF3108304
S214084650D3F1010038BF002072B6BFF35F8F40F277
S2140846609022C2F207024FF00001117041F278045E
S214084670C2F20704247841F28C43C2F207031A7880
S2140846806AB941F26C01C2F207010B889AB241F28C
S2140846906401C2F2070131F8143093420ED900289B
S2140846A052D040F29021C2F207014FF001020A7080
S2140846B0BFF35F8F62B64FF0000047E041F26C022E
S2140846C0C2F207024FF0000111808C4214BF00218D
S2140846D0012141F27803C2F20703197041F28C42B5
S2140846E0C2F207024FF00101117038B140F2902073
S2140846F0C2F207000170BFF35F8F62B64FF000008A
S21408470044F23562C0F20802904730B14FF000001C
S21408471043F64D41C0F20801884744F25170C0F292
S214084720080000904FF005004FF0010141F28C039D
S214084730C2F2070303EB44224FF4007348F2610405
S214084740C0F20804A04701E04FF0000002B010BD18
S21408475010B582B088BB41F27803C2F20703187816
S214084760D0F1010338BF0023A9B944F25174C0F24E
S2140847700804009410464FF0010141F28C02C2F280
S214084780070202EB43224FF4007348F26104C0F2BA
S2140847900804A04711E041F26402C2F2070222F8B8
S2140847A013104FF0000041F28C41C2F20701087066
S2140847B044F24963C0F20803984702B010BD00BF30
S2140847C038B54FF0000440F65843C2F207031C7091
S2140847D041F27C00C2F20700047041F29041C2F236
S2140847E007010C7040F65C42C2F20702147040F6ED
S2140847F06043C2F2070325461C805C8041F27000C5
S214084800C2F207000480204644F20521C0F20801DF
S214084810884741F28C42C2F20702147041F27803CC
S214084820C2F207031C7041F26400C2F2070004805B
S21408483041F26C01C2F207010C80204644F249623C
S214084840C0F20802904798B140F65843C2F20703F0
S214084850187800F10100C1B219701A78012A0AD135
S2140848604FF0010041F27403C2F20703187038BD16
S2140848704FF0000038BD4FF0010038BD2DE9F04F6D
S21408488083B01546884640F29027C2F207074FF0D5
S214084890000B41F26C06C2F2070641F2780AC2F231
S2140848A0070A41F26409C2F2070941F28C03C2F210
S2140848B007030193EFF3108272B6BFF35F8F87F892
S2140848C000B0308883B29AF800102AB94FF0010475
S2140848D03C70BFF35F8F62B639F81140A34207D326
S2140848E041F27400C2F2070001780029E2D11DE007
S2140848F0E41AA54238BF2C4603EB41224046019BEA
S2140849009918224649F22533C0F20803984730889A
S21408491021188AB23280A0442D1B4FF0000044F2C2
S2140849204963C0F208039847002DC3D1284603B050
S214084930BDE8F08F08B503460A464FF00000194652
S21408494044F67D03C0F20803984708BD10B4EFF399
S214084950108472B6BFF35F8F40F29023C2F207034B
S2140849604FF000021A7040F65C40C2F20700017869
S21408497040F66042C2F2070232F81130D1F1010166
S21408498038BF0021C8B232F81000B3F5007F1BD13B
S21408499041F27C02C2F207021278AAB941F29042AA
S2140849A0C2F2070212787AB941F29043C2F20703BC
S2140849B04FF00100187040F65C42C2F20702117010
S2140849C04FF400704FF000034CB940F29022C2F248
S2140849D007024FF001011170BFF35F8F62B6C0186F
S2140849E0C0F5806010BC704708B544F64D13C0F299
S2140849F008039847003018BF012008BD2DE9F04786
S214084A000D4640F65043C2F207039F79092F14BF9C
S214084A10002701274FF0000444F6E916C0F20806FE
S214084A2041F27409C2F2070940F29028C2F2070858
S214084A302046B04728B999F80030002BF8D1BDE8D1
S214084A40F087EFF3108072B6BFF35F8F88F80040E8
S214084A5040F65C41C2F207010B7840F66042C2F2AB
S214084A60070232F8131001EB432C40F6644AC2F2F0
S214084A70070A0AF80C5001F1010122F8131030B9A0
S214084A804FF0010088F80000BFF35F8F62B61FB1D1
S214084A904FEA25252746CBE74FF00100BDE8F0870B
S214084AA008B501464FF0000044F6FD13C0F20803AF
S214084AB0984708BD2DE9F04F83B0154640F6504399
S214084AC0C2F207039879092808BF550089464FF0AF
S214084AD0000841F27401C2F20701019140F29022E7
S214084AE0C2F207020092404644F6E913C0F20803F1
S214084AF0984720B901980378002BF4D135E0EFF3F6
S214084B00108B72B6BFF35F8F009C84F8008040F667
S214084B105C46C2F20706367840F6604AC2F2070AD2
S214084B203AF81670C7F50074A54238BF2C4607EB4E
S214084B30462140F66440C2F207004018494622461D
S214084B4049F22533C0F2080398473F192AF8167029
S214084B50BBF1000F06D14FF00101009A1170BFF3A8
S214084B605F8F62B6A1442D1BBDD1284603B0BDE8B1
S214084B70F08F00BF08B503460A464FF000001946F6
S214084B8044F6B523C0F20803984708BD4FF0000066
S214084B90704700BF003018BF012041F60D43C2F22F
S214084BA00703187040F20421C2F207014FF0010211
S214084BB00A70704741F2E042C2F207024FF0000363
S214084BC0114641F8043B536001F1040141F8043BE7
S214084BD041F8043B0B804FF0F00010704FF00A03CA
S214084BE0D371704708B544F6B533C0F20803984742
S214084BF040F24020C2F207004FF00002027308BDE0
S214084C0070B506460D46144644F6B533C0F208039A
S214084C10984740F24020C2F207004FF001020273A4
S214084C2041F2E041C2F207018E704FEA1463CB707E
S214084C304FEA144008714FEA14224A718C714FEA01
S214084C4015230B734D7370BD08B54FF006004FF46F
S214084C5020514FF0000244F60143C0F2080398477B
S214084C6008BD00BF08B54FF002004FF468514FF07A
S214084C70000244F60143C0F20803984708BD00BF87
S214084C8008B54FF004004FF000010A4644F6014309
S214084C90C0F20803984708BD08B54FF005004FF462
S214084CA010514FF0000244F60143C0F2080398473B
S214084CB008BD00BF10B582B044F64163C0F20803D1
S214084CC000934FF081004FF0000140F24022C2F2FC
S214084CD007024FF00D0348F26104C0F20804A0472B
S214084CE050B94FF0810044F6B541C0F2080148F2C9
S214084CF0ED62C0F20802904702B010BD08B540F257
S214084D004023C2F20703996871B141F2B042C2F279
S214084D10070292F90C30002BB4BF8120022047F618
S214084D204561C0F20801884741F2B040C2F2070068
S214084D30426840F24023C2F207035A6044F6B5417F
S214084D40C0F20801884708BD08B541F2B043C2F270
S214084D5007031A7B514011F0800F06D140F240211C
S214084D60C2F207018B6883420CD244F69940C0F21F
S214084D700800804744F6FD42C0F2080290474FF00C
S214084D80000008BD4FF0010008BD00BF10B582B096
S214084D9002460B4644F6CD51C0F2080100914FF08A
S214084DA081004FF0010148F26104C0F20804A047F0
S214084DB048B944F68143C0F20803984744F6FD40D4
S214084DC0C0F20800804702B010BD00BF10B50C4600
S214084DD080B944F6E533C0F20803984740F240200D
S214084DE0C2F207008268141B846044F6FD41C0F2D4
S214084DF00801884710BD00BF10B582B045F25503BC
S214084E00C0F2080300934FF002004FF0010141F290
S214084E10B042C2F207024FF01F0348F26104C0F224
S214084E200804A04750B94FF0020044F6F951C0F202
S214084E30080148F2ED62C0F20802904702B010BDC1
S214084E4008B544F6F953C0F20803984708BD00BFF2
S214084E5008B541F2D043C2F20703187888B14FF07C
S214084E60020047F64561C0F2080188474FF0020085
S214084E7044F65161C0F2080148F2ED62C0F2080239
S214084E80904708BD08B541F2D043C2F20703187828
S214084E9088B14FF0810047F64561C0F2080188479F
S214084EA04FF0810044F68561C0F2080148F2ED62D1
S214084EB0C0F20802904708BD70B541F29C41C2F2A4
S214084EC007014FF000030A4642F8043B4B6002F124
S214084ED0040242F8043B42F8043B1360064648B115
S214084EE041F2B044C2F20704E57D01F108014FF033
S214084EF0080407E041F2B040C2F20700C57C2B491F
S214084F004FF0040441F2B043C2F207035A7C02F0A1
S214084F103F001C2801D03F280BD14FF01C030B7014
S214084F204FF00A024A704FF00500C87004F10C04EE
S214084F30E4B2AC4238BF254628464FF0800144F616
S214084F404953C0F20803984770B341F2B041C2F221
S214084F500701487B44F26112C0F208029047002815
S214084F6014BF802000206EB1A4F10204A4B241F25E
S214084F709C41C2F207014FEA142242EA04240C803C
S214084F80C87007E041F29C43C2F2070304F1FF34FD
S214084F901C70987041F29C40C2F20700294644F6FD
S214084FA08D53C0F20803984770BD00BFA0140720B1
S214084FB010B50446D8B941F2B043C2F20703587B8D
S214084FC044F26111C0F20801884780B14FF007002B
S214084FD04FF41C514FF0000244F60143C0F2080398
S214084FE0984744F6FD42C0F20802904710BD41F2C9
S214084FF0DC42C2F2070241F2B040C2F20700437C2C
S214085000D370817C9170C37C5370017D117041F21E
S214085010D842C2F20702837D5370C07D1070118893
S2140850204FEA4120002C14BF8021002144F6495243
S214085030C0F20802904758B141F2F443C2F207039F
S2140850401C7041F29A40C2F207004FF0010101704D
S21408505010BD00BF70B5002840F0B8821F290AD1DD
S21408506045F25533C4F2423341F2B042C2F2070267
S2140850701068984211D041F2D043C2F207034FF0AD
S21408508001021A7044F65161C0F20801884744F6D6
S2140850908560C0F20800804770BD41F2B041C2F298
S2140850A007014B7B03F00F00487341F2D442C2F26B
S2140850B00702117881420AD244F69941C0F20801E3
S2140850C0884744F6FD40C0F20800804770BD41F2AC
S2140850D0B043C2F207039A6840F24021C2F20701C1
S2140850E08A60DB7B5A2B00F25A82DFE813F0A601AF
S2140850F0580258025B0058025802580258025802D2
S21408510058025802580258025802580258025802C2
S2140851105802790058025802580258025802580293
S21408512058029601090258025802260258025802E6
S2140851305802580258025802CE015802580248022D
S2140851405802500258025802580258023D025802A5
S2140851505802580258025802580258025802580272
S2140851605802580258025802580258025802580262
S2140851705802580258025802580258025802580252
S2140851805802580258025802580258025802580242
S2140851905802580258025802580258025802580232
S2140851A058029E0141F2B044C2F20704E47C122C75
S2140851B028BF122420464FF0800144F64952C0F218
S2140851C008029047002800F0018241F2E040C2F24F
S2140851D00700214644F68D53C0F20803984770BD71
S2140851E041F2B044C2F20704E47C242C28BF2424ED
S2140851F020464FF0800144F64952C0F20802904714
S214085200002800F0E38141F2B040C2F20700017CBA
S21408521011F0030F05D141F2B043C2F207035A7CDE
S21408522052B144F69941C0F20801884744F6FD4356
S214085230C0F20803984770BD41F2B045C2F20705B0
S214085240687B44F27916C0F20806B047002814BFF7
S2140852508020002040F21C26C2F20706707041F239
S214085260B041C2F20701487B44F29113C0F208032A
S214085270984706F11005034653F8010F59689A68CF
S214085280DB680FC5327C002A00F09A81222A00F0DB
S2140852909A81717C00293ED022296BD0B27C002AE4
S2140852A03CD0222A69D0F17C00293AD0222967D03E
S2140852B0327D002A38D0222A65D0717D002936D062
S2140852C0222963D0B27DAAB3222A62D0F17DA1B387
S2140852D0222961D0327E9AB3222A60D0717E91B399
S2140852E022295FD0B27E8AB3222A5ED0F17E81B3AD
S2140852F022295DD0327F7AB3222A5CD0717F71B3BF
S21408530022295BD0B27F6AB3222A5AD0F37F63BBC6
S2140853104FF00F0357E04FF0010354E04FF002033D
S21408532051E04FF003034EE04FF004034BE04FF01C
S214085330050348E04FF0060345E04FF0070342E058
S2140853404FF008033FE04FF009033CE04FF00A0334
S21408535039E04FF00B0336E04FF00C0333E04FF024
S2140853600D0330E04FF00E032DE0222B08BF0F236D
S21408537029D047E04FF0010325E04FF0020322E072
S2140853804FF003031FE04FF004031CE04FF0050343
S21408539019E04FF0060316E04FF0070313E04FF04E
S2140853A0080310E04FF009030DE04FF00A030AE087
S2140853B04FF00B0307E04FF00C0304E04FF00D032B
S2140853C001E04FF00E0340F21C21C2F207014FF035
S2140853D02002C3F10F0505F00100CD182A7403F169
S2140853E00103102B40F0F3800CE0C818027403F198
S2140853F0010303F0FF03C818027403F10103DBB2CC
S214085400102BF2D140F21C20C2F20700214644F6C7
S2140854108D52C0F20802904770BD4FF0000044F667
S214085420B963C0F20803984770BD4FF0010044F610
S214085430B962C0F20802904770BD44F22111C0F26A
S21408544008018847022809D0032801D090B10BE04C
S21408545044F64943C0F20803984710E044F665410D
S214085460C0F2080188470AE044F68140C0F2080006
S214085470804704E044F6E532C0F20802904744F656
S214085480FD40C0F20800804770BD4FF008004FF09E
S214085490800144F64953C0F208039847002800F0F4
S2140854A0958041F2B040C2F20700407B41F2F841D5
S2140854B0C2F2070144F23912C0F2080290470228E5
S2140854C008D0032801D078B109E047488047474903
S2140854D0884770BD464B9847444A904770BD454933
S2140854E08847424B984770BD43484FF400324260A5
S2140854F001680BBA03604FF00801404A904770BD38
S21408550041F2B041C2F20701CB7C03F00202D1B2ED
S21408551041B183F0010303F0010144F25112C0F2D5
S2140855200802904744F6E530C0F20800804744F683
S214085530FD41C0F20801884770BD41F2B040C2F292
S2140855400700C17C29B944F6E532C0F20802904744
S21408555004E044F69943C0F20803984744F6FD4031
S214085560C0F20800804770BD44F6E530C0F2080077
S214085570804744F6FD41C0F20801884770BD4FF0E9
S214085580010044F6B172C0F20802904770BD4FF0B1
S214085590000044F6B173C0F20803984770BD4FF098
S2140855A005004FF400514FF0000244F60143C0F2E4
S2140855B00803984744F6FD42C0F20802904770BDBB
S2140855C04FF00003FFE64FF00003FCE670BD40B264
S2140855D000283FF40AAFC818027403F10103DBB2CF
S2140855E0102B7FF402AF0DE7494C0800FD4C08006D
S2140855F0654C0800814C0800F81407208D4D0800FB
S21408560010B541F61043C2F20703187810F0800F61
S21408561025D000F06002202A56D141F61043C2F287
S21408562007035878FE2852D141F61041C2F2070106
S214085630CA88012A4ED141F61043C2F20703588899
S21408564000284AD141F61041C2F2070141F2D4427D
S214085650C2F207028A604FF00100888110BD00F090
S214085660600120293CD141F61042C2F20702537865
S214085670FF2B38D141F61040C2F20700C188002936
S21408568034D141F61042C2F207025388002B30D1BB
S21408569041F2D044C2F20704237041F29A40C2F2A3
S2140856A0070003704FF0020048F26964C0F208046D
S2140856B0A0474FF08100A04744F6F951C0F2080110
S2140856C088474FF0010010BD4FF0000010BD4FF0A6
S2140856D0000010BD4FF0000010BD4FF0000010BDD8
S2140856E04FF0000010BD4FF0000010BD4FF0000056
S2140856F010BD4FF0000010BD08B541F29A43C2F243
S21408570007034FF000021A7048F6AD40C0F20800D2
S214085710804708BDF8B54FF0000341F29A42C2F23E
S2140857200702137041F2D040C2F20700037044F239
S2140857301911C0F20801884728B941F2D442C2F2CA
S21408574007021070F8BD00F1FF3041F2D442C2F2F1
S2140857500702107048F69D41C0F208018847D8B184
S2140857604FF00004274644F25116C0F2080641F2EC
S214085770D445C2F2070520463946B04704F101046D
S214085780E4B22B78A342F6D244F6F950C0F20800E9
S21408579080474FF00100F8BD4FF00000F8BD00BF8D
S2140857A008B541F29A43C2F207031878002859D080
S2140857B041F29A41C2F207014FF000020A7041F224
S2140857C0F443C2F207031878A0B141F2B040C2F21F
S2140857D00700407B41F2DC41C2F20701096841F24A
S2140857E0D842C2F20702128844F2A513C0F2080390
S2140857F0984713E041F2B041C2F20701487B41F2F4
S214085800DC42C2F20702116841F2D843C2F207032B
S2140858101A8844F2C113C0F20803984702280ED02B
S214085820032806D088B944F6E531C0F2080188474F
S21408583010E044F64942C0F2080290470AE044F6EF
S2140858406543C0F20803984704E044F68140C0F276
S2140858500800804744F6FD40C0F2080080474FF035
S214085860010008BD4FF0000008BD00BFF0B583B0CA
S2140858700F46154640F20424C2F207042478002C8A
S2140858803DD040F20421C2F207014FF000060E7028
S214085890B0420CBF02208120002B41D135E040F2F7
S2140858A00423C2F207034FF0010018704FF00000FF
S2140858B040E040F20422C2F2070210780028FCD02A
S2140858C041F60D41C2F207010B78DBB940F24020E1
