:0200000280007C
:10000000383C07205995080055950800914C080088
:10001000559508005595080055950800000000000A
:1000200000000000000000000000000055950800DE
:1000300055950800000000005595080055950800EA
:1000400055950800559508005595080055950800E8
:1000500055950800559508005595080055950800D8
:10006000559508005595080000000000057308002C
:10007000217308003D730800597308000000000058
:10008000000000005595080055950800559508009A
:100090005595080055950800559508005595080098
:1000A000559508000000000055950800559508007A
:1000B0005D1F0800559508005595080055950800E6
:1000C0005595080055950800559508005595080068
:1000D0005595080055950800559508005595080058
:1000E000817E080055950800559508005595080033
:1000F0005595080008B50548054B191A062900D87A
:1001000008BD044A002AFBD09047F9E770CF0800E9
:1001100073CF08000000000008B50748074B191A04
:100120008A1002EBD273591000D108BD044A002A8C
:10013000FBD09047F9E700BF70CF080070CF0800F0
:100140000000000010B5064C237843B9FFF7D2FF3A
:10015000044810B10448AFF300800121217010BDA4
:10016000E80A07200000000070CF080008B5084B1F
:100170001BB108480849AFF300800848016811B175
:10018000074A02B19047BDE80840FFF7C5BF00BF6E
:100190000000000070CF0800EC0A072070CF0800B4
:1001A0000000000010B540F60833C2F207031A68D9
:1001B00092F8224040F60E31C2F207010878116829
:1001C000527C231C18BF012344F29934C0F2080466
:1001D000A04710BD70B582B0069C49F23536C0F21A
:1001E000010641F23535C0F201054FEA017141EADD
:1001F000422242EAC0724FEAC4514FEAD151114340
:100200009DF81C200092002814BF3046284641EA81
:100210008361A2B24FF0010344F2C544C0F2080466
:10022000A04702B070BD00BF08B540F60E33C2F261
:100230000703187830B94FF0000044F20D41C0F2C6
:100240000801884708BD00BF10B5029C4FEA422252
:1002500042EA017141EAC07040EAC363227841F288
:10026000343043EA020144F23543C0F208039847B0
:1002700040B144F25D41C0F20801884720704FF060
:10028000010010BD4FF0000010BD00BF08B540F6E2
:100290000833C2F207031868818941F609304FEA32
:1002A000014144F23542C0F20802904770B140F675
:1002B0000833C2F20703186800F1120044F26541E6
:1002C000C0F2080188474FF0010008BD4FF0000060
:1002D00008BD00BF10B5002840F0A88040F20C0314
:1002E000C2F2070398684FEA501202F5001101F2BA
:1002F00007734FEA4322D26B00F01F004FF0010159
:1003000001FA00F313421DD040F20C02C2F20702C0
:10031000907B88420CD140F60633C2F2070319786D
:1003200031B14EF21000CEF200004FF00002026038
:1003300040F20C03C2F207034FF0040199734FF02F
:10034000020010BD40F20C02C2F20702907B0428AA
:1003500031D140F20C01C2F207014FF001028A7361
:100360004EF21003CEF20003186888B940F606304A
:10037000C2F2070002704EF21003CEF2000343F205
:10038000A071C0F2A00159601A604FF0020010BDC8
:1003900040F60631C2F207014FF000020A7048F63B
:1003A0008050C0F25B0040F20103C2F2070398479D
:1003B0004FF0020010BD012816D140F60631C2F2FE
:1003C00007010B78002B3AD04EF21002CEF2000259
:1003D000106810F4803F2CD04EF21001CEF20001D4
:1003E0004FF000030B602AE040F20C00C2F207005D
:1003F000817B032920D040F60E34C2F207044FF06F
:100400000003237040F20C04C2F2070440F60832E5
:10041000C2F20702146040F2A510C0F20800804743
:10042000A07B022814BF0020012010BD4FF0040063
:1004300010BD4FF0020010BD4FF0030010BD40F2A0
:100440000C00C2F207004FF0020282734FF4D45145
:10045000C0F2060101604FF0010343744FF0000247
:1004600080F82220C0E700BF08B540F20C03C2F2BA
:1004700007034FF004029A7340F60E30C2F20700F1
:100480004FF0FF01017044F24D33C0F2080398476A
:1004900008BD00BF2DE9F04F95B040F2D523C0F262
:1004A000080398470446012806D040F22921C0F2EB
:1004B0000801884700F05DBD40F60830C2F2070031
:1004C00001684FF00102CA734FF000050D748D8171
:1004D00044F21143C0F2080398474FF48040294684
:1004E00044F23542C0F208029047002800F0C1846F
:1004F00045F208504FF4D57144F23543C0F2080379
:100500009847002800F0C38444F25D40C0F2080020
:100510008047B0F1FF3F00F0BD844FEA00514FEA41
:100520001152B2F5D57F40F0A4844FF0010600F0DF
:10053000B3BC44F25D40C0F208008047014610F0B1
:10054000E04F00F0B58441F2893944F2055744F296
:100550003545C0F2080544F25D48C0F20808384647
:1005600001F4FC11A847002800F08384C047011E55
:100570000ADB09F1FF39384601F4FC11A8470028CD
:1005800040F0398500F075BC11F0006F40F608337B
:10059000C2F20703186814BF05220422C27300F0D8
:1005A00087BC41F237174FF0000844F23545C0F2DE
:1005B00008054FF4004944F25D4AC0F2080A384683
:1005C0004146A847002840F0EA8400F07DBC384648
:1005D0004146A847002800F077844946C4F21F012D
:1005E00044F22950002E08BF4FF4FC11A847002800
:1005F00000F06A84D04700280EDA10F0804F00F037
:100600008F8440F60830C2F207000168CA7B42F0CE
:100610000803CB7300F084BC0BF1FF3B3846414626
:10062000A847002840F0D18400F04EBC4FF40045AC
:10063000C4F21F0544F2015744F23548C0F20808DD
:1006400044F25D49C0F2080938462946C0470028EF
:1006500040F0938400F079BC38462946C047002812
:1006600000F07384C84700280DDA00F0C040B0F1F4
:10067000804F40F06084A6490B68DA7B42F00800A6
:10068000D87300F058BC06F1FF3638462946C047FB
:10069000002840F07C8400F058BC9D4908684FF069
:1006A0000102828141F203104FF48031994B984747
:1006B000002800F0218198498847002800F01F8118
:1006C000934803689A7CC2F3830101F1FF30032849
:1006D00003D8DFE800F0060A0E124FF01201197479
:1006E0000EE04FF014021A740AE04FF02200187462
:1006F00006E04FF03001197402E04FF040021A7426
:100700005A7D02F00700854951F820104FF47A70A5
:1007100000FB01F1C2F3C302814850F8222002FB22
:1007200001F11960997E187E5A7E4FEA820242EAF0
:10073000802040EAA1114FEA01524FEA125112F50E
:10074000801F15D0187FDA7E4FEA420242EAE0109D
:1007500001F1010100F0070202F1020201FA02F1C7
:10076000D87D00F00F0201FA02F14FEA91205860A3
:100770009B8943F207104FEA0341664A90470028DD
:1007800000F0C080624D2968087C3F2840F29C80C0
:100790004FF00001009141F20810C0F208004FF440
:1007A00000724FF001035F4DA847002800F0D0838E
:1007B0004FF000055C4E02A8B047002800F0C88347
:1007C00005F10105ADB2322DF5D1029E06F002030E
:1007D000DEB24F4A1068877E017E437E4FEA830275
:1007E00042EA812040EAA7174FEA075111F5801F1E
:1007F0001AD14D4F03A8B847002800F0A98305F18E
:100800000105ADB2352DF5D9414B1A6803984FEA71
:100810005007576008E003A8B847002800F0988305
:1008200005F10105ADB200E03F4F7F2DF3D992E312
:100830003E4D28783E4A9047054604280BD04FF499
:100840000071C0F2B7114FF00000C0F2B710082DD0
:1008500018BF014603E04FF48071C0F2B71143F2B4
:1008600006102C4B9847002800F07D8331498847BB
:1008700010F0800F40F07783254A106845742E4BA6
:1008800098472E49884738B336B343F206104FF4E1
:100890008071C0F2B9311F4A9047002800F066838A
:1008A0002448804710F0800F40F06083184E37686E
:1008B0004FF0010587F822504FF4EA43C0F2193394
:1008C0003B601D49884707E01B4FB84704E040469E
:1008D0003946B04740B118E04FF00A0541F2101810
:1008E0004FF400770B4EF2E705F1FF3212F0FF05EF
:1008F000EDD14FF00000ADE24FF00000AAE24FF062
:100900000000A7E24FF00000A4E24FF00100A1E2D6
:10091000080B0720354408008D02080028C3080092
:1009200044C30800C54408009D4508000E0B07207D
:10093000854308005D440800A501080091430800B4
:1009400045F602304FF0000144F23543C0F208038F
:100950009847002800F08D8245F203104FF0000107
:1009600044F23542C0F208029047002800F081822C
:1009700040F60835C2F207052E6844F25D40C0F229
:10098000080080474FEA1041B1812B68DA7B12F0F2
:10099000010F56D040F28D20C0F208008047002899
:1009A00000F067822B685A7D02F007004CF2283174
:1009B000C0F2080151F820104FF47A7000FB01F1E9
:1009C000C2F3C3024CF2E820C0F2080050F8222023
:1009D00002FB01F11960987C82090FD0DA7E987EC3
:1009E000597E4FEA014141EA0020024322F44001CE
:1009F00001F101014FEA4120586022E0997E187E02
:100A00005A7E4FEA820242EA802040EAA112187F11
:100A1000D97E4FEA410141EAE0104FEA02524FEA23
:100A2000125202F1010200F0070101F1020102FA83
:100A300001F0DA7D02F00F0100FA01F04FEA902296
:100A40005A6040F60833C2F207031A68918943F2EC
:100A500007104FEA014144F23543C0F208039847BA
:100A6000002800F0068240F60830C2F20700016854
:100A7000CA7B12F0010F4ED08B8941F237104FEA3A
:100A8000034144F23542C0F208029047002800F0CA
:100A9000F0814FF00103009341F23310C0F20800DF
:100AA0004FF000014FF008024C4DA847002800F01D
:100AB000E08104A84FF00101494B9847002800F05D
:100AC000D88148488047002800F0D3819DF8101055
:100AD00001F00F03012B09D013B1022B16D10BE04B
:100AE000414A13684FF01000187414E03E490B6837
:100AF0004FF01A021A740EE09DF81230DB093A48E2
:100B0000016814BF302220220A7404E0364A1068BB
:100B10004FF01001017440F60830C2F2070001687E
:100B2000CB7B03F00402D0B2002800F095804FF098
:100B3000000103914FF0030500954FF0010301936D
:100B400008464FF0090240F2D515C0F20805A84743
:100B5000002800F08E8103A84FF00101204B984738
:100B6000002800F086811F498847002800F0818115
:100B7000039DDFF878801A4F1A4E4FF0030200925F
:100B80004FF0010301934FF0000001462A46C04791
:100B9000002800F06E8104A84FF00101B84700283A
:100BA00000F06781B047002800F063819DF81000D5
:100BB000FF2800F05E81222802D19DF81230BBB1DF
:100BC0009DF81110002900F0548101F102016D1807
:100BD000039A02F580708542CFD94AE1C5440800E6
:100BE0003146080049470800080B0720D5010800D6
:100BF0004FF0060300934FF0010301934FF0000004
:100C000001462A46BB4DA847002800F0328104A8BF
:100C10004FF00101B84A9047002800F02A81B749F7
:100C20008847002800F025819DF81530322B28BF19
:100C30003223B348026803F00700B24951F820108C
:100C40004FF47A7000FB01F1C3F3C303AE4850F8D0
:100C5000233003FB01F1116040F60E32C2F20702AD
:100C6000107844F28533C0F208039847032859D915
:100C700040F60830C2F207000168CA7B02F00403A4
:100C8000D8B230B303AD00954FF0000001464FF0ED
:100C9000080203469D4DA847002800F0EA809DF910
:100CA0000C10002915DA14AB4FF0020203F8442DA2
:100CB00000934FF001004FF000014FF00702034690
:100CC000A847002800F0D5808D4801684FF0040344
:100CD0004B7440F60832C2F207021068C17B11F073
:100CE000010F1AD0838941F237104FEA034144F2D1
:100CF0003542C0F208029047002800F0BA8041F265
:100D000006104FF00201824B9847002800F0B18096
:100D10007B4801684FF004024A7440F2A513C0F208
:100D20000803984744F29130C0F208008047002839
:100D300000F0818040F60831C2F207010A68D37BD7
:100D400003F00400C1B259B303AD00954FF00000A9
:100D500001464FF0130203466C4DA847002800F0EF
:100D600088809DF80C2012F0010F19D014AB4FF0C1
:100D7000020003F8440D00934FF001004FF0000112
:100D80004FF013020346A847002872D05C490B6855
:100D90004FF0010283F8222018684FEA40011960E1
:100DA00040F60833C2F207031868C27B12F0010F45
:100DB0003CD0017C102939D94FF00103009341F256
:100DC0000610C0F208004FF60171C8F2FF014FF0A3
:100DD0004002504DA84700284BD004A84FF0010115
:100DE000454B9847002844D044488047002840D0CD
:100DF000494A904710F0800F3BD19DF8201001F038
:100E00000F030F2B12D09DF82D009DF82C2050EAD7
:100E100002222ED141498847394B18684FF0010210
:100E200080F8222001684FEA4103036040F2A510D8
:100E3000C0F20800804740F60832C2F2070211688B
:100E4000CB7B13F0010F06D041F210104FF400716C
:100E50002F4A904768B140F60830C2F20700036895
:100E60004FF00001997340F22922C0F20802904726
:100E70007FE040F60834C2F2070420684FF0030414
:100E8000847340F22923C0F20803984771E04FF0C1
:100E9000000601E04FF0000644F205504FF000015B
:100EA00044F23543C0F20803984700287FF441AB71
:100EB00040F60832C2F207021168CB7B13F0010F33
:100EC0003FF44AADFFF76DBB40F60830C2F20700B1
:100ED00001684FF00203CB734FF480404FF00001E4
:100EE00044F23542C0F20802904700287FF49EABDE
:100EF000B0E700BFD50108003146080049470800A7
:100F0000080B072028C30800E8C2080049020800AF
:100F100035440800C54408005D4408001144080039
:100F200040F60830C2F207000168CA7B12F0010FD8
:100F30007FF406AD10E545F602304FF00001384B66
:100F4000984700287FF4A9AB84E74FF0000081E7C1
:100F50004FF000007EE733490878334B9847032869
:100F60003FF666AC8DE44FF0000073E74FF00000F1
:100F700070E7204615B0BDE8F08FC8470028FFF69F
:100F800074AB41F2690606F1FF36FFF765BBC8474F
:100F90000028FFF66AAB013E7FF45EABD5E7494619
:100FA000C4F21F0144F22950002E08BF4FF4FC1177
:100FB000A847002888D0D0470028FFF61EAB40F68F
:100FC000350B0BF1FF3BFFF702BB4946C4F21F0193
:100FD00044F22950002E08BF4FF4FC11A847002806
:100FE0003FF472AFD0470028FFF607ABBBF1010B0F
:100FF0007FF4EDAA68E7C047011EFFF6C5AA384690
:1010000001F4FC11A84700283FF433AFC047011E8C
:10101000FFF6BAAAB9F102097FF4A1AA29E700BF35
:10102000354408000E0B07208543080008B540F240
:10103000D523C0F20803984758B940F22920C0F2DE
:101040000800804740F60831C2F207010A68D07BE9
:1010500008BD4FF0000008BD08B540F2D523C0F22E
:101060000803984758B940F22920C0F20800804789
:1010700040F60831C2F207010A68506808BD4FF017
:10108000000008BD4FF00000704700BF2DE9F04F91
:1010900083B08B46924640F2D523C0F208039847AE
:1010A0008146002840F0818040F64158C0F2030894
:1010B00040F60836C2F2070641F20D1544F23544F7
:1010C000C0F2080444F25D47C0F208073068818925
:1010D00028464FEA0141A047002846D0B84710F4FF
:1010E000807F4AD108F1FF383268938928464FEA59
:1010F0000341A04700285CD137E04FEA4B2100E0D4
:1011000059464FF0010300934FF40072534644F2E6
:10111000C544C0F20804A04738B940F22921C0F202
:10112000080188474FF005093FE044F25D40C0F2F6
:10113000080080474FF00001CEF25841014039B11C
:1011400040F22920C0F2080080474FF005092CE04A
:1011500040F60C32C2F20702A2F800A040F60433B7
:10116000C2F20703A3F800A01FE040F22922C0F258
:10117000080290474FF0050917E041F21110C0F244
:10118000080041F21214C0F21004BAF1010F88BF36
:10119000204640F60832C2F207021368D97B01F0FC
:1011A0000804E2B2002AABD1A7E7484603B0BDE885
:1011B000F08FB84710F4807FDFD1306881892846EE
:1011C0004FEA0141A0470028CFD0B84710F4807FF4
:1011D000D3D1B8F102087FF479AFC6E710B50C4659
:1011E00044F23163C0F20803984748B940F60C3125
:1011F000C2F207014FF000030B804FF0050010BD55
:1012000040F60C30C2F207000288141B04804FF035
:10121000000010BD08B544F24973C0F208039847B6
:10122000002830D040F60C30C2F2070001880029B7
:101230002CD140F60432C2F207021388012B07D1E9
:1012400040F22921C0F2080188474FF0000008BD94
:1012500043F20C104FF0000144F23542C0F2080294
:10126000904740B943F20C104FF0000144F235436F
:10127000C0F20803984740F22920C0F208008047D6
:101280004FF0000008BD4FF0050008BD4FF0000012
:1012900008BD00BFF0B583B006460F46154640F2C4
:1012A000D524C0F20804A0470446002858D130468F
:1012B00041F28503C0F20803984738B140F2292370
:1012C000C0F2080398474FF0070449E049F21810AC
:1012D000C0F2080049F21911C0F21001012D88BFB7
:1012E000084640F60832C2F207021668F37B03F0A4
:1012F0000801CAB212B94FEA472100E039464FF05F
:10130000010600964FF400722B4644F2C546C0F227
:101310000806B04738B940F22920C0F208008047DB
:101320004FF005041CE044F25D40C0F20800804725
:101330004FF00003CEF2584303403BB140F2292462
:10134000C0F20804A0474FF0050409E040F60C3154
:10135000C2F207010D8040F60432C2F20702158086
:10136000204603B0F0BD00BF10B50C4644F2C17377
:10137000C0F20803984748B940F60C31C2F20701A1
:101380004FF000030B804FF0050010BD40F60C300D
:10139000C2F207000288141B04804FF0000010BD49
:1013A00008B544F6B903C0F20803984700282FD0C7
:1013B00040F60C30C2F20700018800292BD140F61C
:1013C0000432C2F207021388012B07D140F229230D
:1013D000C0F2080398474FF0000008BD43F20C101C
:1013E0004FF0000144F23542C0F20802904738B98C
:1013F00040F22921C0F2080188474FF0050008BDDE
:1014000040F22920C0F2080080474FF0000008BDDC
:101410004FF0050008BD4FF0000008BDF0B48CB0DF
:1014200006460F4601AC4CF28435C0F208050FCDDC
:101430000FC40FCD0FC495E8070084E80700019B97
:10144000B7FBF3F0B0FBF6F1B1F5807F52D902990A
:10145000B7FBF1F2B2FBF6F1B1F5807F4FD9039BF8
:10146000B7FBF3F0B0FBF6F1B1F5807F4AD90499F0
:10147000B7FBF1F2B2FBF6F1B1F5807F45D9059BE0
:10148000B7FBF3F0B0FBF6F1B1F5807F40D90699D8
:10149000B7FBF1F2B2FBF6F1B1F5807F3BD9079BC8
:1014A000B7FBF3F0B0FBF6F1B1F5807F36D90899C0
:1014B000B7FBF1F2B2FBF6F1B1F5807F31D9099BB0
:1014C000B7FBF3F0B0FBF6F1B1F5807F2CD90A99A8
:1014D000B7FBF1F2B2FBF6F1B1F5807F27D90B9B98
:1014E000B7FBF3F0B0FBF6F1B1F5807F22D94FF6F0
:1014F000FF7022E04FF0000241EA02201DE04FF0B1
:101500000102F9E74FF00202F6E74FF00302F3E7BA
:101510004FF00402F0E74FF00502EDE74FF006024E
:10152000EAE74FF00702E7E74FF00802E4E74FF081
:101530000902E1E74FF00A02DEE70CB0F0BC7047A9
:1015400070B506460C46086858B1896841F21D43DB
:10155000C0F2080398474FF6FF71884214D0054641
:1015600001E04FF00005606858B1A16841F21D42EA
:10157000C0F2080290474FF6FF73984204D045EA44
:10158000004535604FF0000070BD00BF70B40B68BF
:101590004FF0010202FA03F28E8A4C6804F00F0544
:1015A0002E430C8926438D7A46EA45268C7D46EAF1
:1015B0000445CE7D45EA46450C7E45EA844603F166
:1015C00010054FEA451405190651CC686C600C698A
:1015D00000EB4315C5F80C428C7D3CB18D8B4C8BD8
:1015E00044EA054500EB4314C4F81852CD7F05FAD0
:1015F00003F58C7F04FA03F444EA0545856491F809
:10160000215005FA03F591F8204004FA03F444EA66
:101610000544446491F822401CB1046A14430462F6
:1016200003E0046A24EA0204046291F82440012CD5
:1016300003D1846E1443846606E0846E002A14BFCE
:10164000002404F00104846691F82540012C04D1A3
:10165000846E44EA0242826606E0846E120414BF7D
:10166000002204F001028266032B0FD8C46E4FEAF9
:10167000C3034FF0FF0202FA03F224EA020291F8D8
:10168000231001FA03F31A43C26610E0A3F1040326
:10169000046F4FEAC3034FF0FF0202FA03F224EA99
:1016A000020291F8231001FA03F31A4302674FF084
:1016B000000070BC704700BF10B40C680B69934207
:1016C00007D3CA6000EB4410C0F808224FF00000B6
:1016D00001E04FF6FF7010BC704700BF4FF00103F0
:1016E00003FA01F1416070474FF0010303FA01F181
:1016F0008160704702F110024FF0010303FA02F219
:1017000003FA01F10A434261704700BF08B54FF484
:101710000043C4F20003984206D14FF0180047F28C
:10172000D541C0F20801884708BD00BF436823F4D3
:101730007022426043684FEA014101F47022134372
:101740004360704730B4046914F0020F1FD00AE000
:1017500004F1FF34056915F0020F1DD003E005699F
:1017600015F0020FF4D0446814F0020F07D04FEACE
:10177000024202F4702211430BB141F08071C1604A
:101780004FF0000001E04FF0010030BC704743F61D
:10179000992505F1FF34E2E7013CE0D1F3E700BF12
:1017A00042B101F10C0150F8213043F0010240F840
:1017B0002120704701F10C0150F8213023F0010283
:1017C00040F82120704700BF42B101F10C0150F8F0
:1017D000213043F0020240F82120704701F10C0152
:1017E00050F8213023F0020240F82120704700BF5A
:1017F000042A0ED101F10C0150F8213023F0080227
:1018000040F8212050F8213043F0040240F8212014
:10181000704772B901F10C0150F8213023F0080231
:1018200040F8212050F8213023F0040240F8212014
:101830007047082A07D101F10C0150F8213043F01C
:10184000080240F82120704701F10C0150F82130C6
:1018500023F0F00340F8213050F821301A4340F8CB
:101860002120704701F10C0150F8213023F47F430F
:1018700040F8213050F8213043EA022240F821207C
:10188000704700BF10B401F10C0150F82140A4B220
:1018900040F8214050F821404FEA036343EA0242F6
:1018A000144340F8214010BC704700BF10B44FEA09
:1018B000811143184FF0020444504FF0FF309862FA
:1018C000196A5A6010BC70474FEA81114FF0050346
:1018D0004350704700EB8111CA61704700EB8111E2
:1018E0004A62704700EB8111086A704770B487B094
:1018F0004FF0020401944FF0080502954FF02004C8
:1019000003944FF0800504950A9C4FEAD434059463
:101910004FEA5145B0EB510F3ED8A84251D24FF09B
:101920000806B1FBF6F54FEA1546A84237D8B04293
:101930001ED24FF02005B1FBF5F54FEA1546A8423F
:1019400030D8B04217D24FF08006B1FBF6F54FEA1F
:101950001546A84229D8B04210D2B1FBF4F14FEAA3
:101960001144814224D3844298BF04212BD922E020
:101970004FF0010127E04FF0020124E04FF0030196
:1019800021E006AC04EB810050F8140C1060ABB100
:1019900019604FF0010019E04FF0000016E04FF021
:1019A000000013E04FF0000010E04FF000000DE0E9
:1019B0004FF000000AE04FF0000007E04FF0010098
:1019C00004E04FF00001002ADBD1E0E707B070BC73
:1019D000704700BF4FF0080303604FF02001016023
:1019E0004FF00402026070474FF4D453C0F2060374
:1019F000994245D84FEA4101B2FBF1F2A2F104024B
:101A0000FF2A2ED94FEA5202FF2A18D94FEA520272
:101A1000FF2A17D94FEA5202FF2A16D94FEA52027B
:101A2000FF2A15D94FEA5202FF2A14D94FEA52026F
:101A3000FF2A13D94FEA52024FF0070313E04FF089
:101A4000010310E04FF002030DE04FF003030AE042
:101A50004FF0040307E04FF0050304E04FF00603E6
:101A600001E04FF000034FEA02614FEA034343EA0B
:101A70001141D2B241EA020303614FF00000704706
:101A80004FF00100704700BF4FF080030360036B0D
:101A9000704700BF38B504460D464FF0FF338362F0
:101AA000036A41F68921C0F208018847204641F6C1
:101AB000D512C0F208029047204669682A6841F6AC
:101AC000E913C0F208039847012814BF0020012041
:101AD000697A012904BF4021216038BD4FF40043D9
:101AE0004360704770B54FF02B004FF0006147F234
:101AF000B114C0F20804A0474FF02A004FF0006173
:101B0000A0474FF014004FF00061A0474FF01300C2
:101B10004FF00061A0474FF015004FF00061A04763
:101B20004FF016004FF00061A0474FF017004FF044
:101B30000061A0474FF018004FF00061A0474FF040
:101B400067004FF00801A0474FF0160047F2D54656
:101B5000C0F20806B0474FF011004FF00061A047F7
:101B60004FF012004FF00061A0474FF00C00B0475B
:101B70004FF48055C4F20E054FF080732B61C5F809
:101B8000A0306B634FF46064C4F20E044FF48050D5
:101B9000206660656062C4F88000226F024322679D
:101BA00060604FF00101216661656162C4F88010D8
:101BB000236F0B43236761604FF40050206660651C
:101BC0006062C4F88000226F0243226760604FF0B9
:101BD0000C00B0474FF400016961C5F8A0106966B8
:101BE00069652962C5F884102B6F23F4000028670B
:101BF0004FF00E00B0474FF4A055C4F20E054FF45D
:101C000080626A61C5F8A0206A666A652A62C5F8C2
:101C10008420296F21F480632B674FF00B00B047BD
:101C20004FF020002061C4F8A00060634FF00B006B
:101C3000B0474FF080022261C4F8A02022634FF029
:101C40000B00B0474FF002016161C4F8A01021669B
:101C500061652162C4F88410236F23F002002067BD
:101C60004FF00E00B0474FF480726A61C5F8A020B3
:101C70002A666A652A62C5F88420296F21F4807378
:101C80002B674FF00E00B0474FF400702861C5F885
:101C9000A000686370BD00BF40F61833C2F20703AE
:101CA0001880704740F61833C2F2070318880128DD
:101CB00029D14FF49053C4F20E034FF400621A631B
:101CC0004FF4005018634FF4805119634FF0100225
:101CD0001A634FF48050C4F20E004FF00801016304
:101CE0004FF480621A634FF4003119634FF40022FD
:101CF0001A634FF4802119634FF0200303634FF000
:101D00008002026370474FF49051C4F20E01CA6B17
:101D100012F4004F74D04FF49053C4F20E034FF4FA
:101D20008030186300BF00BF00BF586340F2340129
:101D3000C2F207010A88032A10D14FF49053C4F26B
:101D40000E03D86B10F4805F4FF49051C4F20E0173
:101D50004FF4805214BF4A630A6311E0022A0FD184
:101D60004FF49053C4F20E03D86B10F4005F4FF49D
:101D70009051C4F20E014FF4005214BF4A630A633B
:101D800040F61033C2F20703188801282AD140F226
:101D90003601C2F207010A88032A10D14FF490538A
:101DA000C4F20E03D86B10F4802F4FF49051C4F29C
:101DB0000E014FF4802214BF4A630A6336E0022A00
:101DC00034D14FF49053C4F20E03D86B10F4002FAB
:101DD0004FF49051C4F20E014FF4002214BF4A6335
:101DE0000A6323E04FF49051C4F20E014FF4003225
:101DF0000A634FF400230B634FF48020086315E05F
:101E00004FF49053C4F20E034FF4006018634FF484
:101E1000005119634FF480521A634FF40030186375
:101E20004FF4002119634FF480221A634FF480535A
:101E3000C4F20E03D86B10F0040F74D04FF480532B
:101E4000C4F20E034FF010021A6300BF00BF00BFC0
:101E50005A6340F23000C2F207000188032910D112
:101E60004FF49053C4F20E03DA6B12F4806F4FF408
:101E70009050C4F20E004FF4806114BF41630163BF
:101E800011E002290FD14FF48053C4F20E03DA6B34
:101E900012F0080F4FF48050C4F20E004FF008010A
:101EA00014BF4163016340F61633C2F207031A8878
:101EB000012A2AD140F23200C2F207000188032928
:101EC00010D14FF48053C4F20E03DA6B12F0400FBE
:101ED0004FF48050C4F20E004FF0400114BF416334
:101EE00001637047022938D14FF48053C4F20E03C6
:101EF000DA6B12F0800F4FF48050C4F20E004FF0F6
:101F0000800114BF4163016370474FF48050C4F2F5
:101F10000E004FF0200101634FF0800303634FF088
:101F20004002026370474FF49052C4F20E024FF029
:101F3000100111634FF48053C4F20E034FF00800F8
:101F400018634FF4806111634FF020021A634FF061
:101F5000800018634FF040011963704708B54FF0D7
:101F60000000C4F208004FF0010141F6E503C0F2A1
:101F70000803984741F6A540C0F20800804708BD15
:101F80002DE9F04784B04FF00D0047F2D546C0F27E
:101F90000806B0474FF49054C4F20E044FF40063A7
:101FA0002361C4F8A03023634FF00D00B0474FF415
:101FB00000502061C4F8A00020634FF00D00B0472E
:101FC0004FF480512161C4F8A01021634FF00D003F
:101FD000B0474FF400322261C4F8A02022634FF0D2
:101FE0000D00B0474FF400252561C4F8A0502563CB
:101FF0004FF00D00B0474FF480272761C4F8A07060
:1020000027634FF00D00B0474FF01008C4F8108060
:10201000C4F8A080C4F830804FF00C00B0474FF4F3
:102020008055C4F20E054FF008032B61C5F8A030AF
:102030002B634FF00D00B0474FF480602061C4F86F
:10204000A00020634FF00C00B0474FF02009C5F806
:102050001090C5F8A090C5F830904FF00C00B04734
:102060004FF0800AC5F810A0C5F8A0A0C5F830A0B0
:102070004FF00C00B0474FF040012961C5F8A010A7
:1020800029634FF00D00B0474FF400426261C4F87D
:10209000A0204FF00D00B0474FF480372761C4F8FF
:1020A000A07067634FF00C00B0474FF004046C6100
:1020B000C5F8A0404FF00C00B047C5F81080C5F837
:1020C000A080C5F834804FF00C00B0474FF00107F6
:1020D0002F61C5F8A0702F634FF00B00B0474FF48D
:1020E0006065C4F20E054FF000532B61C5F8A030B7
:1020F0002B634FF01C00B0474FF43D45C0F2015533
:1021000000954FF01400294603AA02AB41F6ED04F6
:10211000C0F20804A0474FF00004C4F208042046AF
:102120003946029A42F4804241F6AD03C0F20803F8
:1021300098470398B5FBF0F14CF6CD45CCF6CC456D
:10214000A5FB0112204639464FEA121241F6D5038B
:10215000C0F2080398472046394641F6C905C0F247
:102160000805A8474FF46140CEF200004FF08051BF
:10217000C0F88010C0F88011016020463946424600
:1021800041F6DD04C0F20804A0474FF019004FF0FB
:10219000006147F2B115C0F20805A8474FF01A00D8
:1021A0004FF00061A8474FF01B004FF00061A847B7
:1021B0004FF01C004FF00061A8474FF40044C4F2F8
:1021C0000004204641F20D72C0F2080290474FF021
:1021D00002032360C4F800A04FF0807020606168A3
:1021E00039436160656845EA0802626020464FF045
:1021F000000141F22D73C0F20803984720464FF0CA
:1022000000010A4641F2A175C0F20805A847204620
:102210004FF000013A4641F2C973C0F208039847F3
:1022200020464FF000014A4641F64905C0F2080534
:10223000A84720464FF000010A4641F2F173C0F270
:102240000803984720464FF000014FF0480241F63E
:102250006505C0F20805A84720464FF000010A4670
:102260000B4641F68505C0F20805A847276004B073
:10227000BDE8F08740F61033C2F2070318887047B4
:1022800040F61633C2F207031888704701280CD1B4
:102290004FF0010240F61033C2F207031A804FF4E8
:1022A0008050C4F20E004263704740F61033C2F211
:1022B00007034FF000021A804FF48050C4F20E0062
:1022C0004FF001010163704701280ED140F616332B
:1022D000C2F207034FF001021A804FF46060C4F2AB
:1022E0000E004FF000514163704740F61633C2F2C2
:1022F00007034FF000021A804FF46060C4F20E0032
:102300004FF000510163704700F0553100F0AA30E2
:102310004FEA500242EA410303F0333003F0CC317C
:102320004FEA910242EA800000F00F3300F0F031F2
:102330004FEA111242EA031303F0FF104FEA132190
:1023400041EA00224FEA32434FEA9350704700BF00
:1023500010B54FF40040C4F2000040F61233C2F250
:10236000070319884FF00002134641F24574C0F28A
:102370000804A0474FF40042C4F20002106910F0B4
:10238000020FFBD04FF40040C4F2000040F61431BD
:10239000C2F2070109884FF00002134641F245746A
:1023A000C0F20804A0474FF40042C4F200021369CF
:1023B00013F0020FFBD010BD08B542F20933C0F292
:1023C0000803984740F61231C2F20701088042F232
:1023D0005130C0F20800804708BD00BF08B542F286
:1023E0000933C0F20803984740F61431C2F20701DE
:1023F000088042F25130C0F20800804708BD00BF9B
:1024000008B540F61233C2F20703188842F20931C8
:10241000C0F2080188474FEA80504FEA905008BD4B
:1024200008B540F61433C2F20703188842F20931A6
:10243000C0F2080188474FEA80504FEA905008BD2B
:10244000704700BF704700BF38B541F25064C2F218
:1024500007044FF43D43C0F2015323604FF4D450BE
:10246000C0F2060060604FF0500121724FF0000290
:1024700062724FF44045C4F20805284641F6D51370
:10248000C0F2080398472846214641F69522C0F23B
:102490000802904738BD00BF2DE9F04F85B04FF0DE
:1024A000240047F2D543C0F2080398474FF4804414
:1024B000C4F2090420464FF0010141F2E965C0F27F
:1024C0000805A84720464FF00301A84720464FF0D3
:1024D0000201A8474FF47A2001904FF43D41C0F229
:1024E000015102910391204601A941F24152C0F2EB
:1024F0000802904741F27061C2F207014FF00005F7
:102500000D814FF001068E724FF00B0BC1F804B035
:102510004FF4806AC1F810A0CD600E60204641F2F1
:102520008D59C0F20809C847204631462A4641F273
:10253000F568C0F20808C04741F2C061C2F2070165
:102540000D818E72C1F804B0C1F810A0CD604FF0BB
:1025500003070F602046C847204639462A46C04731
:1025600041F298631946C2F207010D814FF0000055
:102570008872C1F804B0C1F810A0CD604FF0020A13
:10258000C1F800A02046C847204651462A46C04709
:102590002046314641F2DD65C0F20805A8472046D5
:1025A0003946A84720465146A84705B0BDE8F08FF8
:1025B000F8B503460E4617464FF48044C4F20904AA
:1025C000204641F27061C2F207011A4641F2B96534
:1025D000C0F20805A847204641F2C061C2F20701D7
:1025E0003A46A847204641F29861C2F207013246B6
:1025F000A847F8BD4FF48053C4F20E03D86B80F4A3
:102600000001C1F3C05070474FF46063C4F20E0381
:10261000D86BC0F3400070474FF4A053C4F20E03D0
:10262000D86BC0F3002070474FF4A053C4F20E03E0
:102630004FF400721A6370474FF4A053C4F20E03B4
:102640004FF400725A63704708B540F62C43C2F24B
:102650000703C362184642F67901C0F208018847B1
:1026600008BD00BF08B5C06A42F68903C0F208037E
:10267000984708BD00B583B002A94FF0000321F8C8
:10268000023DC06A42F69502C0F208029047BDF9C9
:10269000060003B000BD00BF00B583B002A94FF033
:1026A000000321F8023DC06A42F63112C0F208026E
:1026B0009047BDF9060003B000BD00BF38B5054620
:1026C0000C46C06A42F6D503C0F20803984714F1DD
:1026D000630F0CDA14F1C70F09DB28464FF0020133
:1026E0004FF0200242F6E123C0F20803984714F1AC
:1026F000C70F0CDA14F5967F09DD28464FF002016A
:102700004FF0100242F6E123C0F20803984714F597
:10271000967F0CDC14F5C87F09DD28464FF00201D6
:102720004FF0080242F6E123C0F20803984714F57F
:10273000C87F0CDC14F5FA7F09DD28464FF0020152
:102740004FF0040242F6E123C0F20803984714F563
:10275000FA7F0CDC14F5167F09DD28464FF00201E4
:102760004FF0800242F6E123C0F20803984714F5C7
:10277000167F0CDC14F52F7F09DD28464FF002018F
:102780004FF0400242F6E123C0F20803984714F5E7
:102790002F7F0BDC14F5487F08DD28464FF002013F
:1027A0000A4642F6E123C0F20803984714F5487F31
:1027B0000CDC14F5617F09DD28464FF002014FF073
:1027C000010242F6E123C0F20803984755B1E869D7
:1027D00020B1026812B12846214690474FF001010E
:1027E00085F8281038BD00BF10F16D0F2BD009DC23
:1027F00010F1830F2CD010F1710F1AD010F18A0F45
:1028000030D12AE010F1670F0ED003DC10F16C0F0D
:1028100028D113E010F1660F29D0002822D14CF600
:102820005810C0F2080070474CF67410C0F208004F
:1028300070474CF68810C0F2080070474CF69C10A8
:10284000C0F2080070474CF6B410C0F208007047A0
:102850004CF6C810C0F2080070474CF6D810C0F211
:10286000080070474CF6EC10C0F2080070474CF6B8
:102870006410C0F2080070474FF0000303804380EB
:102880004FF01001818070474FF0000303804380B8
:10289000704700BF10B44388B0F900401AB29442A8
:1028A00014D019B100EB4202D3880B80B0F902209A
:1028B00002F10102B0F9043003F1010392FBF3F1DC
:1028C00003FB112242804FF0010001E04FF00000B5
:1028D00010BC704738B504460D46B0F90430B0F965
:1028E0000010B0F90220D21803F1010392FBF3F0BB
:1028F00003FB1023994207D120464FF0000142F616
:102900009502C0F208029047B4F9000004EB4001C0
:10291000CD8000F10100B4F9043003F1010390FB14
:10292000F3F203FB120020804FF0010038BD00BF1E
:1029300002884388D21A92B293B20B8013F4004FEC
:1029400004D0808800F1010012180A804FF00100C5
:10295000704700BF072904D8036B2BB133F811006F
:1029600070474FF0000070474FF00000704700BF05
:1029700070B505460C46164642F65513C0F20803DC
:10298000984720EA06022846214692B242F6CD1325
:10299000C0F20803984770BD70B505460E461C4648
:1029A000114642F65513C0F20803984730422846B4
:1029B0004FF00001224619BF42F6E123C0F208039E
:1029C00042F67113C0F20803984770BDF8B505468A
:1029D0000C461646072900F28180036B002B7DD040
:1029E00033F8117023F81420072957D8DFE801F0D5
:1029F00004151D28434E303B4FF0010142F655129D
:102A0000C0F2080290474FF6BF713140014252D0E8
:102A100046F04006B74253D14EE04FF0000142F677
:102A20000933C0F20803984746E011464FF003020D
:102A30004FF0200342F69917C0F20807B8473BE071
:102A40004FF0020142F60932C0F20802904733E02B
:102A500011464FF007024FF0080342F69917C0F2F3
:102A60000807B84728E04FF0060142F60932C0F2E5
:102A70000802904720E011464FF005024FF0800316
:102A800042F69917C0F20807B84715E04FF0040165
:102A900042F60933C0F2080398470DE0006B20F8B6
:102AA0001420F8BDE969C9B18B68BBB128464FF065
:102AB00001019847F8BD0E46286B20F81460F8BD58
:102AC0002B6B23F8146028464FF0000142F6551294
:102AD000C0F2080290470246002DE3D1F8BD00BFC6
:102AE00070B505460C46164642F65513C0F208036B
:102AF000984740EA06022846214692B242F6CD1394
:102B0000C0F20803984770BD38B505460C4642F63A
:102B10005513C0F20803984702462846214642F65C
:102B2000CD13C0F20803984738BD00BF08B54FF079
:102B300002014FF0000242F6CD13C0F2080398479D
:102B400008BD00BF38B5044642F62D33C0F2080375
:102B50009847204642F26561C0F208018847204646
:102B60004FF004014FF0000242F6CD15C0F2080507
:102B7000A84720464FF006014FF00002A8474FF04B
:102B8000010038BD10B582B0044601A94FF0010222
:102B900043F26933C0F20803984748B120464FF02A
:102BA0000301BDF8042042F6CD13C0F20803984794
:102BB0004FF0010002B010BD10B504464FF0030104
:102BC00042F65513C0F2080398470146204643F2E7
:102BD0005122C0F2080290474FF0010010BD00BF23
:102BE00010B504464FF0020142F65513C0F2080337
:102BF00098470146204643F25122C0F2080290470E
:102C000020464FF002014FF0000242F6CD13C0F211
:102C1000080398474FF0010010BD00BF38B50546C6
:102C20004CF6FC11C0F2080143F21124C0F2080472
:102C3000A04728464CF60421C0F20801A0472846C8
:102C40004CF62421C0F20801A0474FF0010038BD26
:102C500008B54FF002014FF0010242F6E123C0F245
:102C6000080398474FF0010008BD00BF08B54FF0BA
:102C7000010143F25123C0F2080398474FF00100CD
:102C800008BD00BF08B528B1C36933B1196939B1AE
:102C9000884707E04FF0010004E04FF0010001E039
:102CA0004FF0010040B208BD10B582B0044601A942
:102CB0004FF0010243F26933C0F20803984748B16C
:102CC00020464FF00101BDF8042042F6CD13C0F2BA
:102CD000080398474FF0010002B010BD10B504463C
:102CE0004FF0010142F65513C0F208039847014620
:102CF000204643F25122C0F2080290474FF00100F3
:102D000010BD00BF10B504464FF0000142F6551348
:102D1000C0F2080398470146204643F25122C0F210
:102D2000080290474FF0010010BD00BF10B50446E7
:102D300030B1C3693BB1596941B18847014607E0E9
:102D40004FF0000104E04FF0000101E04FF00001FE
:102D5000204643F25122C0F2080290474FF0010092
:102D600010BD00BF4FF00100704700BF08B54CF622
:102D70005451C0F2080143F21123C0F208039847EE
:102D80004FF0010008BD00BF08B54CF62421C0F289
:102D9000080143F21123C0F2080398474FF00100E5
:102DA00008BD00BF38B5044642F27563C0F208039F
:102DB000984705462046294643F25122C0F20802B0
:102DC0009047284642F2E971C0F20801884701465F
:102DD000204643F29923C0F2080398474FF00100C0
:102DE00038BD00BF10B5044642F29963C0F2080333
:102DF00098470146204643F25122C0F2080290470C
:102E00004FF0010010BD00BF10B504464FF00601A1
:102E100042F65513C0F2080398470146204643F294
:102E20005122C0F20802904720464FF006014FF0B1
:102E3000000242F6CD13C0F2080398474FF001009C
:102E400010BD00BF10B504464FF0070142F6551300
:102E5000C0F2080398470146204643F25122C0F2CF
:102E6000080290474FF0010010BD00BF10B582B0BE
:102E7000044601A94FF0010243F26933C0F208038E
:102E8000984748B120464FF00701BDF8042042F6AC
:102E9000CD13C0F2080398474FF0010002B010BDF7
:102EA00008B54FF006014FF0000242F6CD13C0F214
:102EB000080398474FF0010008BD00BF08B5C3697B
:102EC0005B68984708BD00BF08B5036A002B0BDD9F
:102ED0004CF62C21C0F208014FF0020242F6BD630D
:102EE000C0F20803984708BD4FF0000008BD00BFBE
:102EF0008369994228BF1946426952184261591A9A
:102F00008161704710B504464069A16943F251736D
:102F1000C0F2080398470146204642F6F162C0F22B
:102F20000802904710BD00BF38B504460D4642F672
:102F30000573C0F208039847A06960B9002D31D02D
:102F400020466FF06C0142F2BD62C0F20802904769
:102F50004FF0000038BD616AE9B1626913782C2B2B
:102F60000ED120464FF0010142F6F163C0F2080392
:102F70009847204642F60571C0F2080188470AE0EA
:102F800020466FF0660142F2BD62C0F2080290472F
:102F90004FF0000038BD606A00F1010060624FF040
:102FA000010038BD4FF0000038BD00BF08B54CF639
:102FB0003022C0F2080243F2E133C0F2080398471E
:102FC00008BD00BF2DE9F04F83B001EB020B0746AF
:102FD000002800F09E80594580F09E800D4642F208
:102FE000BD63C0F2080301932C46C5EB0B082846CD
:102FF0004146514A43F2E136C0F20806B04708B1F3
:10300000461B00E046462846414642F6AD72C0F2F5
:103010000802904710B1001B009001E0CDF800803D
:10302000002E5FD0D7F80090D9F80000002876D0A5
:103030004FF0080443F6A50AC0F2080A29463246B2
:10304000D04790B1C7F81090AB197B610098861BF0
:10305000BE614FF0000487F828404FF0000139624C
:103060007962D9F804204AB914E0396801EB0409FF
:10307000085904F108040028E0D150E03846904790
:10308000012807D097F8283023B938466FF0C701D8
:10309000019CA047386A002811DD38464CF63851AB
:1030A000C0F208014FF0020242F6BD63C0F208030D
:1030B0009847F96919B1CA680AB138469047384645
:1030C00042F60574C0F20804A047B86968B197F8E1
:1030D00028306BB938466FF06B01019A90474FF07A
:1030E000010407E04FF0000404E04FF0010401E0A8
:1030F0004FF001042846414642F6AD73C0F2080382
:103100009847454408B100F10105AB453FF66CAF67
:103110000DE04FF0FF340AE04FF0000407E03846BE
:103120006FF07001019A90474FF00004E2E72046EB
:1031300003B0BDE8F08F00BF34CA080008B54FF0F7
:103140000002826042F24961C0F20801884708BD6E
:10315000F8B50446154672B9C16882684FF000069A
:103160008E54E168A26842F6C575C0F20805A8470A
:103170000546A66049E08368426802F1FF30C21A42
:1031800095423DD8E768F8182A464AF20D03C0F286
:1031900008039847A1686D18A560E0684FF0000229
:1031A0004255E068A16843F25177C0F20807B8477A
:1031B0000546E368A1681818491B4CF63852C0F25E
:1031C000080243F2E137C0F20807B8470746D0B11A
:1031D000E268861A20465119721B42F6C575C0F284
:1031E0000805A8470546A368E06839469A1B4AF2D5
:1031F0001F03C0F208039847A068861BA66004E07E
:103200004FF0FF3501E04FF000052846F8BD00BF44
:10321000F8B504460D4608464AF21913C0F20803F1
:1032200098470746204642F6C961C0F20801884720
:103230000646204629463A4642F6BD63C0F20803D8
:103240009847226A02F1010222628019F8BD00BF8C
:1032500070B584B00446084601A94FF00C0243F251
:103260002D43C0F2080398470646204642F6C9613E
:10327000C0F2080188470546204601A9324642F6B9
:10328000BD63C0F208039847226A02F1010222627C
:10329000401904B070BD00BF2DE9F04104460F464F
:1032A00042F6C963C0F20803984780464CF68C5634
:1032B000C0F20806204631464FF0010242F6BD65D5
:1032C000C0F20805A847804438464AF21911C0F2F6
:1032D00008018847024620463946A84708EB000700
:1032E000204631464FF00102A847226A02F101024E
:1032F00022623818BDE8F08170B582B004461546E8
:103300000E4619B32AB3194642F62973C0F20803D0
:10331000984708B36069A169324601AB43F2815610
:10332000C0F20806B047D0B12046019942F6F162DA
:10333000C0F208029047204642F60571C0F208012B
:103340008847019828604FF001000AE04FF0000024
:1033500007E04FF0000004E04FF0000001E04FF004
:10336000000002B070BD00BF70B582B004461346C5
:103370000E46E1B101A96A4643F2F925C0F20805FB
:10338000A847B8B10198314643F23553C0F208035B
:1033900098470099884210D020466FF0890142F288
:1033A000BD62C0F2080290474FF0000007E04FF006
:1033B000000004E04FF0000001E04FF0010002B017
:1033C00070BD00BFA0F10203D9B2022904D9D0F127
:1033D000010038BF002070474FF00100704700BF68
:1033E00070B4411888421AD0034613F8016B36B9FD
:1033F0004FF0000018E0B54202D115E02346144614
:1034000014F8015B002DF6D18B420BD01C4614F84A
:10341000016B1846002EF1D14FF0000004E04FF090
:10342000000001E04FF0000070BC7047F0B40346AC
:1034300038B9002A55D04FF0300008704FF0010025
:1034400049E0002808DAC0F1000342B14FF02D0036
:1034500008704FF0010004E04FF0000001E04FF071
:1034600000001D464CF6FF14C3F69A34A34210D850
:103470004FF44A43C3F69A334CF6CD46CCF6CC46CD
:10348000A6FB03434FEAD303B5FBF3F4002CF7D0BC
:1034900003E04FF44A43C3F69A33824233D9B5FB73
:1034A000F3F6F6B24CF6CD47CCF6CC476FEA000403
:1034B000A41814F0010F28D106F130040C5400F1C7
:1034C0000104204603FB1655A7FB0363DB0802D06B
:1034D000A24209D817E0904215D24FF000020A54D8
:1034E00011E04FF000000EE0B5FBF3F0C6B206F1BC
:1034F0003000085504F1010003FB1655A7FB0343F8
:10350000DB0813D1E7E7F0BC704706F130040C5438
:1035100000F1010003FB1655A7FB0363DB08DAD0BB
:103520008242F0D9B5FBF3F6F6B2C5E7B5FBF3F688
:10353000F6B2C1E730B583B004460D4601A94FF09D
:1035400000024AF2C123C0F208039847286001989C
:10355000001B03B030BD00BF10B50C4699420BD123
:10356000114622464AF22913C0F208039847D0F1C7
:10357000010038BF002010BD4FF0000010BD00BF9B
:103580002DE9F04F83B00646019299460B4600297B
:103590003ED040F2A022C2F20702D2F800E04FF083
:1035A00001054FF000042746A0464FF0020B6FEADA
:1035B0000401C9182940005D2246002C4FD062E06A
:1035C000315D12B1022A1BD10FE00EEB01004078F1
:1035D00000F00800C0B210B12F46A84610E02C2918
:1035E0001BD0A0462F465A460AE02C2918D00EEBD5
:1035F0000100417801F00800C1B2002908BF2F4640
:1036000004F1010405F10105315D002A76D089E05D
:103610004FF00007B8463A4604E04FF0040201E0DC
:103620004FF00402104643F2C533C0F20803984736
:1036300068B1019A0AB146441660B9F1000F09D089
:10364000C8EB0707C9F800704FF0010004E04FF025
:10365000000001E04FF0010003B0BDE8F08F0EEB79
:10366000000C9CF801C00CF0080C5FFA8CFCBCF15B
:10367000000F05D12C28D0D0A0462F465A460EE088
:103680002F46A8460BE0022C09D12C28C8D0704444
:10369000407800F00800C0B2002808BF2F4604F1AF
:1036A000010405F101059C42BCD0002988D0315DA0
:1036B0007AB90EEB0100407800F00800C0B228B9DA
:1036C0002C29AAD0A0462F465A460FE02F46A846DE
:1036D0000CE0022A0AD12C29A2D00EEB010041787D
:1036E00001F00800C1B2002908BF2F4604F101040F
:1036F00005F101059C427FF463AF93E70EEB010AED
:103700009AF801A00AF0080A5FFA8AFABAF1000FE3
:1037100005D12C2981D0A0462F465A460FE02F46CE
:10372000A8460CE0022A0AD12C293FF479AF714453
:10373000497801F00801C9B2002908BF2F4604F1F9
:10374000010405F101059C427FF43AAF6AE700BF2E
:1037500070B40E4611B340F2A023C2F207031C68F6
:1037600001786218537803F00801CAB2C2B1034667
:103770004FF0000016F0010F09D115E013F8015FBA
:1037800061194D7805F00801CDB2CDB90AE000F11C
:1037900001021046B242F1D1304603E0084601E092
:1037A0004FF0000070BC704700F1010013F8011FDA
:1037B0006218517801F00802D1B20029E7D1F1E78F
:1037C00002F1010013F8012FA1184A7802F0080154
:1037D000CAB2002ADBD1E5E72DE9F04780469146E1
:1037E0009A468E4621B303782BB340F2A022C2F250
:1037F00007021068C1184C7804F00305022D1DD093
:1038000042464FF000041EF0010F07D12FE0C71908
:10381000797801F00305022D36D111E004F101069B
:10382000344676450CD012F8017F002FEFD107E027
:103830004FF0000404E04FF0000401E04FF00004FA
:10384000404671464A46534643F25955C0F2080570
:10385000A84730B9404621464A4653462C46A84719
:1038600001E04FF0010000F00100BDE8F08704F135
:10387000010412F8013F002BE2D0C1184D7805F089
:103880000303022BCAD1DBE706F1010412F8013F62
:10389000002BD5D0C1184D7805F00303022BBDD104
:1038A000CEE700BF2DE9F84F05460C4616464AF212
:1038B0001913C0F20803984705EB0009204631466A
:1038C0004AF29B12C0F20802904704EB000A2078EB
:1038D0003A2808BF01344CF6A44BC0F2080B43F25F
:1038E000E138C0F20808C5EB0907284639465A46B0
:1038F000C04700B1471BC4EB0A06204631461B4AAD
:10390000C04700B1061B284639462246334643F2DB
:10391000D97CC0F2080CE047C0B1ED19A4194D459F
:1039200005D1A2458CBF00200120BDE8F88FA2453B
:1039300010D928782278824210D13A2801D03F2825
:1039400010D105F1010504F10104CCE74FF00000AE
:10395000BDE8F88F4FF00000BDE8F88F4FF0000091
:10396000BDE8F88F4FF00000BDE8F88FACCC080040
:1039700038B541F6E825C2F207054CF6B044C0F26E
:1039800008040FCC28606960AA60EB6007CC28614E
:103990006961AA6123782B77284644F63111C0F279
:1039A000080188474FF0010038BD00BF38B541F627
:1039B000E825C2F207054CF6B044C0F208040FCC6B
:1039C00028606960AA60EB6007CC28616961AA6120
:1039D00023782B77284644F63111C0F20801884736
:1039E0004FF0010038BD00BF38B541F6E825C2F2FE
:1039F00007054CF6B044C0F208040FCC286069609B
:103A0000AA60EB6007CC28616961AA6123782B77F3
:103A1000284644F63111C0F2080188474FF00100F2
:103A200038BD00BF08B541F6E822C2F207024CF6E5
:103A3000D043C0F2080303CB10605160104644F637
:103A40003111C0F2080188474FF0010008BD00BFE6
:103A500008B541F6E823C2F207034CF6D842C0F29B
:103A60000802106818609188927999809A711846B6
:103A700044F63113C0F2080398474FF0010008BD27
:103A800008B541F6E823C2F207034CF6E042C0F263
:103A900008021068186011791971184644F631133C
:103AA000C0F2080398474FF0010008BD08B541F681
:103AB000E823C2F207034CF6E042C0F208021068A5
:103AC000186011791971184644F63113C0F20803D1
:103AD00098474FF0010008BD08B541F6E823C2F24F
:103AE00007034CF6E842C0F2080210681860184656
:103AF00044F63111C0F2080188474FF0010008BDBB
:103B000008B541F6E823C2F207034CF6E842C0F2DA
:103B1000080210681860184644F63111C0F2080116
:103B200088474FF0010008BD08B542F2F553C0F2D6
:103B300008039847012811D141F6E822C2F2070292
:103B40004CF6EC43C0F2080303CB10605160104602
:103B500044F63111C0F20801884712E041F6E8222C
:103B6000C2F207024CF6F443C0F2080303CB106024
:103B7000516018881081104644F63111C0F20801D6
:103B800088474FF0010008BD4FF00100704700BFAB
:103B90004FF00100704700BF30B583B001A96A46FD
:103BA0004FF0010343F2F924C0F20804A0470028B3
:103BB00039D0009C012C39D9019D28464CF6005182
:103BC000C0F208014FF002024AF26D13C0F208037E
:103BD000984760B942F22963C0F20803984742F25D
:103BE0004140C0F2080080474FF0010026E0022C5F
:103BF0001FD928464CF60451C0F208014FF00302C9
:103C00004AF26D13C0F208039847A8B942F2454141
:103C1000C0F20801884742F23962C0F208029047B8
:103C20004FF001000AE04FF0FF0007E04FF0010005
:103C300004E04FF0FF0001E04FF0FF0040B203B09E
:103C400030BD00BF2DE9F04784B0044603A94FF012
:103C5000010243F26933C0F208039847002846D0B6
:103C6000204602A94FF0010243F26933C0F2080373
:103C7000984700283ED0204601A94FF0010243F2A8
:103C80006933C0F208039847002836D049F6CD5969
:103C9000C0F208090398C84749F6B528C0F20808D9
:103CA000C04706460F460298C847C04704460D461F
:103CB0000198C847C0478046894649F6B96AC0F2AC
:103CC000080A30463946D04786B220462946D047B2
:103CD00084B240464946D04782B23046214642F23D
:103CE000B153C0F2080398474FF0010007E04FF0CE
:103CF000FF0004E04FF0FF0001E04FF0FF0040B292
:103D000004B0BDE8F08700BF00B583B001A94FF053
:103D1000010243F26933C0F208039847A8B1019841
:103D200048B94FF0000041F69942C0F208029047AE
:103D30004FF001030BE04FF0010041F69941C0F252
:103D4000080188474FF0010301E04FF0FF0358B22C
:103D500003B000BD00B583B001A94FF0010243F2EA
:103D60006933C0F20803984700B34CF6CD41CCF656
:103D7000CC410198A1FB00234FEA930049F6CD52B4
:103D8000C0F20802904749F6B523C0F208039847ED
:103D900049F6B962C0F20802904780B242F2B931E6
:103DA000C0F2080188474FF0010001E04FF0FF002A
:103DB00040B203B000BD00BF00B583B001A94FF011
:103DC000010243F26933C0F20803984700B34CF68E
:103DD000CD41CCF6CC410198A1FB00234FEA9300E2
:103DE00049F6CD52C0F20802904749F6B523C0F219
:103DF0000803984749F6B962C0F20802904780B2BA
:103E000042F2DD31C0F2080188474FF0010001E0C5
:103E10004FF0FF0040B203B000BD00BF38B542F222
:103E20000143C0F20803984741F6E824C2F20704B0
:103E300000EB800320464FF064014CF60852C0F2BC
:103E400008024AF2B305C0F20805A847204644F626
:103E50003111C0F2080188474FF0010038BD00BFA2
:103E600038B542F22143C0F20803984741F6E824EE
:103E7000C2F2070400EB800320464FF064014CF6C9
:103E80000852C0F208024AF2B305C0F20805A8477A
:103E9000204644F63111C0F2080188474FF0010076
:103EA00038BD00BF00B583B001A94FF0010243F255
:103EB0006933C0F208039847A8B1019848B94FF098
:103EC000000042F28D22C0F2080290474FF0010339
:103ED0000BE04FF0010042F28D21C0F2080188474B
:103EE0004FF0010301E04FF0FF0358B203B000BDF3
:103EF00000B583B001A94FF0010243F26933C0F26B
:103F000008039847A8B1019848B94FF0000042F261
:103F1000C922C0F2080290474FF001030BE04FF0B6
:103F2000010042F2C921C0F2080188474FF00103A5
:103F300001E04FF0FF0358B203B000BD38B542F2C4
:103F40007523C0F208039847034641F6E824C2F2FD
:103F5000070420464FF064014CF60852C0F20802F4
:103F60004AF2B305C0F20805A847204644F63111CD
:103F7000C0F2080188474FF0010038BD38B542F261
:103F80008123C0F208039847034641F6E824C2F2B1
:103F9000070420464FF064014CF60852C0F20802B4
:103FA0004AF2B305C0F20805A847204644F631118D
:103FB000C0F2080188474FF0010038BD10B5044633
:103FC00040F29543C0F208039847012803D028B176
:103FD000022820D115E04FF0030010BD40F65441F7
:103FE000C2F207010B5DCBB9204641F22D02C0F2AF
:103FF0000802904700F0030000280CBF02200020B8
:1040000010BD40F65440C2F207004FF000020255C6
:104010004FF0020010BD4FF0010010BD4FF0020044
:1040200010BD00BF08B54FF0000043F6BD73C0F2ED
:104030000803984708BD00BF38B504460D4641F255
:104040005903C0F2080398474FEA400000F1FF31DE
:104050002960204643F6BD72C0F20802904738BD81
:1040600008B501464FF0000044F23903C0F20803DE
:10407000984708BD08B541F28503C0F20803984788
:1040800008BD00BF08B54FF0000044F27503C0F250
:104090000803984708BD00BF4FF00100704700BFFC
:1040A00008B54FF0000044F29903C0F208039847A6
:1040B00008BD00BF2DE9F041144641F28D03C0F266
:1040C00008039847014670B302280CBF0220012064
:1040D000BDE8F08144B114F0010F0CBF38464046F2
:1040E0004FF00101B047A0BB85B914F0010F0CBF20
:1040F000414639464FF001004FF400724FF0000383
:1041000046F21D55C0F20805A84730B32CB141F264
:104110001520C0F20800804718BB04F1FF34A4B298
:104120004FF000050DE04FF0010541F2DD16C0F241
:10413000080641F2E868C2F2070841F6E807C2F251
:1041400007074FF6FF729442C4D14FF00000BDE85C
:10415000F0814FF00100BDE8F0814FF00100BDE8B3
:10416000F0814FF00100BDE8F08100BF08B50346C3
:104170000A464FF00000194644F2B503C0F20803A6
:10418000984708BD2DE9F041144641F29523C0F24D
:1041900008039847014668B302280CBF022001209B
:1041A000BDE8F08145B914F0010F0CBF3846404618
:1041B0004FF00101B04798BB7CB114F0010F0CBF68
:1041C000414639464FF000004FF40072034646F274
:1041D0001D5CC0F2080CE04730B32DB941F2A130AC
:1041E000C0F20800804718BB04F1FF34A4B24FF0BE
:1041F00000050DE04FF0010541F26936C0F20806F6
:1042000041F2E868C2F2070841F6E807C2F2070780
:104210004FF6FF729442C5D14FF00000BDE8F08127
:104220004FF00100BDE8F0814FF00100BDE8F081E2
:104230004FF00100BDE8F08108B503460A464FF093
:104240000000194644F28513C0F20803984708BDE0
:1042500070B44FF080435D689C68D868D9695A6D26
:104260004FF080061E605D609C60D860D9615A6521
:104270004FF0000018654FF00501196070BC7047E1
:1042800008B501F03F03184311F4807F0CD011F4FE
:10429000006F02D040F4845006E011F4005F14BFB8
:1042A00040F4865040F4825011F4804F18BF40F41F
:1042B00000604FF080431A615861184601F4805243
:1042C000036C52B113F41F0F12D044F25122C0F20A
:1042D000080290474FF0000008BD13F41B0F07D0F1
:1042E00044F25121C0F2080188474FF0000008BD98
:1042F00013F0010FE4D011F4005F19D14FF0010069
:1043000008BD086C03F1FF3300F03002202A19D1F8
:104310000BE044F25121C0F2080188474FF0000041
:1043200008BD00F03002202AEBD14FF0010008BD9B
:104330004FF08040006C44F24023C0F20F034FF076
:104340008041EEE7086C013BEBD1E2E710B54FF09E
:10435000150047F2D544C0F20804A0474FF02700EB
:10436000A0474FF080434FF072029A60DA614FF03D
:10437000110058654FF4E06159604FF005021A6072
:1043800010BD00BF00280CBF04200020704700BFF4
:104390004FF00100704700BF33B14FF08043586DBC
:1043A00040F48070586505E04FF08043586D20F46C
:1043B0008070586581B14FEA41014FF43D43C0F22E
:1043C0000153B3FBF1F001FB103109B100F1010021
:1043D00020B100F1FF3001E04FF000004FF08043CA
:1043E000596821F0FF0159605968C0B2084358600C
:1043F000042A04D0082A0CBFC022002201E04FF09A
:1044000080024FF08043DA60704700BF704700BF02
:104410004FF080435A6822F4605058604FF000011A
:1044200019614FF410625A611846036C13F0010FC2
:10443000FBD0704710B504460A464FF080435968D8
:1044400021F4605058604FF00000186598612146D3
:1044500044F28123C0F20803984710BD4FF0804317
:10446000186A70474FF080431A6A4FEA1261017070
:104470004FEA124141704FEA12218170C2701A6AEC
:104480004FEA126101714FEA124141714FEA122164
:104490008171C2711A6A4FEA126101724FEA1241C8
:1044A00041724FEA12218172C2721B6A4FEA136293
:1044B00002734FEA134141734FEA13228273C373AD
:1044C000704700BF70B504460D469DF8101029B125
:1044D0004FF480704FF08041086504E04FF0000019
:1044E0004FF0804630654FF08046706840F4C05110
:1044F000716012F0030F04D0706840F400517160D5
:1045000005E04FF08046706820F40051716004F4BB
:104510000046002E0CBF4FF4A0204FF4803014F45E
:10452000803F09D040F400104FEAC2564FEAD651FE
:104530004FF08046B16118E043EA02464FF08041F7
:104540008E6114F4003F02D040F420100DE014F40A
:10455000802F02D040F4801007E014F4002F04D123
:1045600014F4801F18BF40F4002040F65C41C2F2F2
:1045700007014FF000060E6040F65841C2F20701F5
:104580000A8040F65A42C2F20702138021462A46A8
:1045900044F28123C0F20803984770BD08B54FF07C
:1045A00080414FF00002CCF260020B6C134207D046
:1045B00044F25120C0F2080080474FF0000008BDCF
:1045C00013F0020FF1D04FF080410A6B026040F609
:1045D0005C40C2F20700036803F10403036040F685
:1045E0005A41C2F207010A8840F65840C2F2070059
:1045F000018801FB02F2934216D34FF080404FF046
:104600000002CCF26002036C134207D044F2512145
:10461000C0F2080188474FF0000008BD13F0006F9A
:10462000F1D04FF0010008BD4FF0010008BD00BF00
:1046300070B586B0044640F65843C2F207031E88A0
:1046400006FB01F64FF08040416811F4005F2FD166
:104650004FF48045C4F20C05284644F61D52C0F2C2
:104660000802904728464FF0000144F63153C0F24B
:104670000803984728464FF000014FF40072C0F23B
:10468000011244F67955C0F20805A8474FF03000F2
:10469000C4F200000190029414F0030F02D0B4B2EF
:1046A00003942AE0C6F38F0444F00851039124E0F8
:1046B0004FF48045C4F20C05284644F61D52C0F262
:1046C0000802904728464FF0000144F63153C0F2EB
:1046D0000803984728464FF000014FF40072C0F2DB
:1046E000011244F67955C0F20805A8474FF0300092
:1046F000C4F2000001900294D1E74FF00001C4F22F
:10470000512104914FF0000405944FF48045C4F208
:104710000C052846214601AA44F68553C0F2080339
:1047200098472846214644F62552C0F20802904791
:1047300040F65C40C2F207000168761806604FF050
:10474000010006B070BD00BF10B540F65A43C2F27A
:104750000703188840F65842C2F20702148804FB87
:1047600000F440F65C41C2F2070108684FF0804156
:104770004FF00002CCF260020B6C134212D044F2F4
:104780005120C0F2080080474FF48040C4F20C0072
:104790004FF0000144F63152C0F2080290474FF04A
:1047A000000010BD844202D913F0007F05D113F040
:1047B000006FE1D04FF0010010BD4FF0010010BDBF
:1047C00070B586B0044640F65843C2F207031E880F
:1047D00006FB01F64FF08040416811F4005F27D1DD
:1047E0004FF48045C4F20C05284644F61D52C0F231
:1047F0000802904728464FF000014FF40052C0F2E3
:10480000011244F67953C0F20803984701944FF01F
:104810003400C4F20000029014F0030F02D0B4B2CE
:10482000039422E0C6F38F0444F0085103911CE086
:104830004FF48045C4F20C05284644F61D52C0F2E0
:104840000802904728464FF000014FF40052C0F292
:10485000011244F67953C0F20803984701944FF0CF
:104860003400C4F200000290D9E74FF00001C6F214
:10487000310104914FF0000405944FF48045C4F2D7
:104880000C052846214601AA44F68553C0F20803C8
:1048900098472846214644F62552C0F20802904720
:1048A00040F65C40C2F207000168761806604FF0DF
:1048B000010006B070BD00BF10B540F65A43C2F209
:1048C0000703188840F65842C2F20702148804FB16
:1048D00000F440F65C41C2F2070108684FF08041E5
:1048E0004FF00002CCF260020B6C134212D044F283
:1048F0005120C0F2080080474FF48040C4F20C0001
:104900004FF0000144F63152C0F2080290474FF0D8
:10491000000010BD844202D913F0007F05D113F0CE
:10492000200FE1D04FF0010010BD4FF0010010BD8D
:1049300010B5044640F66043C2F20703187868B128
:1049400020464AF21912C0F208029047014620465A
:1049500045F62503C0F20803984710BD20464AF2E9
:104960001911C0F20801884710BD00BF39B140F6E7
:104970006040C2F207004FF001010170704740F63D
:104980006043C2F207034FF000021A70704700BF85
:1049900040F66143C2F207034FF001021A707047FC
:1049A000704700BF704700BF704700BF30B583B08D
:1049B000134641F6E824C2F20704009120464FF066
:1049C00064014CF60C52C0F208024AF2B305C0F280
:1049D0000805A847204644F63113C0F2080398475B
:1049E0004FF0010003B030BD4FF00100704700BF31
:1049F0002DE9F04F83B00546884690F82830002B0B
:104A000030D0806870B34FF00006344642F2E97B44
:104A10005F46C0F2080741F6E829C2F207094CF6E2
:104A2000145AC0F2080AE9688A5D3F2A13D10FFAC6
:104A300088F0B847009048464FF06401524643461C
:104A40004AF2B306C0F20806B047484644F63113AE
:104A5000C0F20803984704F10104A4B22646A868EE
:104A60008442E0D34FF0000003B0BDE8F08F00BFF8
:104A700030B583B00B461446012918D141F6E8251C
:104A8000C2F20705009228464FF064014CF6285206
:104A9000C0F2080223464AF2B304C0F20804A04759
:104AA000284644F63111C0F20801884717E041F664
:104AB000E825C2F207050092019228464FF06401F2
:104AC0004CF63C52C0F208024AF2B304C0F20804A9
:104AD000A047284644F63113C0F2080398474FF028
:104AE000010003B030BD00BF08B541F6E822C2F2B4
:104AF00007024CF65853C0F2080303CB1060516014
:104B000018781072104644F63111C0F20801884737
:104B10004FF0010008BD00BF08B541F6E822C2F21F
:104B200007024CF66453C0F2080303CB10605160D7
:104B300018881081104644F63111C0F208018847E8
:104B40004FF0010008BD00BF08B540F23800C2F2C6
:104B5000070043F23D13C0F20803984708BD00BFA9
:104B60002DE9F04745F28933C0F208039847002841
:104B700040D040F66244C2F2070441F64C35C2F21E
:104B800007054FF0010645F29D6AC0F2080A40F29F
:104B90003809C2F2070943F25118C0F20808208808
:104BA00040193146D04707462188484649193246C0
:104BB000C047228802F1010293B22380E81810F85E
:104BC000011C0D2901D00A2902D14FF000022280D8
:104BD00017B12388C72BE2D940F66240C2F2070022
:104BE0000188C82906D140F66243C2F207034FF09C
:104BF00000021A80BDE8F08741F61C43C2F20703A9
:104C00009878042802D005283BD104E040F2BC0289
:104C1000C2F2070203E040F29002C2F2070240F241
:104C2000A003C2F2070311785980507898809178D8
:104C3000D980D078188111795981507998819179EA
:104C4000D981D0791882117A5982507A9882917AD2
:104C5000D982D07A1883127B5A834FF01C011970C5
:104C600041F61C40C2F2070081818360C3881B2B80
:104C70000AD841F61C42C2F2070293814FF00100AC
:104C800070474FF0000070474FF00100704700BFC1
:104C900004207146084200F00480EFF3098000F020
:104CA00005B8EFF3088000F001B800BF8EB00368CC
:104CB0000D9341680C9182680B92C3680A93016955
:104CC00009914269089283690793C06906904EF67C
:104CD0002851CEF200010A6805924EF62C53CEF20E
:104CE0000003186804904EF63051CEF200010A68B5
:104CF00003924EF63C53CEF20003186802904EF633
:104D00003451CEF200010A6800924EF63853CEF2CA
:104D100000031868019000BEFEE700BF4FF00103DA
:104D2000436070474FF0010303FA01F1816270475D
:104D30004FF0010303FA01F1C162704701EB8101F9
:104D400000EBC100C263704701EB810100EBC100C1
:104D50000264704701EB810100EBC10042647047BF
:104D600001EB810100EBC1008264704701EB81011E
:104D700000EBC100C264704701EB810100EBC10090
:104D80000265704770B504460E461546436A1268C0
:104D900044F63D53C0F208039847204631466A68FE
:104DA00044F64953C0F208039847204631464FF075
:104DB000000244F65553C0F2080398472046314696
:104DC000AA6844F66153C0F208039847204631466A
:104DD000EA6844F66D53C0F20803984770BD00BFFF
:104DE00008B547F2B543C0F2080398474FF00000FA
:104DF00047F25951C0F20801884747F27150C0F29A
:104E00000800804708BD00BF10B54FF43D40C0F218
:104E1000015049F65903C0F2080398474FF00000CB
:104E20004FF03E0147F21542C0F20802904747F2A8
:104E30008544C0F20804A0470028FCD047F2954002
:104E4000C0F2080080474FF4C061C4F20E0143F67F
:104E50000173C2F20D038B6247F2A544C0F208044D
:104E6000A0470028FCD04FF0100047F27532C0F286
:104E70000802904749F29160C0F20800804710BDD7
:104E80004FF00100704700BF08B528B944F2250370
:104E9000C0F20803984708BD4FF0010008BD00BFED
:104EA00008B530B9084644F26103C0F208039847D8
:104EB00008BD4FF0010008BD10B981F00100704736
:104EC0004FF00000704700BF08B528B944F28503D1
:104ED000C0F20803984708BD4FF0010008BD00BFAD
:104EE00008B528B944F2A103C0F20803984708BDE9
:104EF0004FF0010008BD00BF20B94CF67050C0F261
:104F0000080070474FF00000704700BF08B538B97F
:104F10000846114644F26D13C0F20803984708BDD5
:104F20004FF0010008BD00BF08B538B9084611466A
:104F300044F23923C0F20803984708BD4FF001003E
:104F400008BD00BF41F27C03C2F207031A7802F1E8
:104F5000FF30C1B2197070474FF00000704700BFBA
:104F60004FF00000704700BF704700BF30B583B0FE
:104F700041F29003C2F207031878002840F0DF8066
:104F800048F6F111C0F20801884760B141F284048B
:104F9000C2F20704248848F65520C0F20800804772
:104FA00084420DD1CBE041F28402C2F207021488A0
:104FB00048F64523C0F208039847844200F0BF80BA
:104FC000EFF31085D5F1010538BF002572B6BFF3A8
:104FD0005F8F40F29821C2F207014FF000020A7081
:104FE00040F67043C2F207031C7840F67440C2F2E8
:104FF000070030F8141079BB40F66C43C2F2070387
:105000001A8802F101021A8048F6F110C0F2080075
:10501000804730B940F66C41C2F207010B88632B20
:105020000DD948F6F112C0F208029047A0B140F63F
:105030006C40C2F207000188B1F5487F0CD2002D08
:105040007DD040F29823C2F207034FF001021A709C
:10505000BFF35F8F62B672E040F66C43C2F20703A3
:105060004FF000021A8041F2A440C2F2070001781A
:1050700049B9944214BF0022012240F67043C2F2A3
:1050800007031A7003E0D4F1010438BF002441F291
:105090009000C2F207004FF0010202703DB140F2F1
:1050A0009825C2F207052A70BFF35F8F62B62546C6
:1050B00040F67441C2F2070131F81440B4F50074AF
:1050C00018BF0124DCB148F6F112C0F20802904783
:1050D00050B148F65520C0F20800804741F28402E2
:1050E000C2F20702108011E048F64521C0F2080123
:1050F000884741F28403C2F20703188006E041F2B8
:105100008403C2F207034FF00000188040F6744198
:10511000C2F2070131F8153045F25910C0F208000B
:1051200000904FF08400214640F67844C2F2070414
:1051300004EB452248F61154C0F20804A04703B01E
:1051400030BD00BF08B54FF0000044F66D73C0F2EB
:105150000803984708BD00BF08B5E8B940F670439A
:10516000C2F207031978D1F1010138BF002140F6DE
:105170007443C2F2070323F8110041F2A441C2F2C2
:105180000701087041F29002C2F20702107044F663
:105190006D73C0F20803984708BD00BF08B541F61B
:1051A0001C43C2F20703187810F0800F20D000F0E3
:1051B0006001202956D141F61C42C2F20702537801
:1051C000212B52D141F61C40C2F20700C1880729A9
:1051D0004ED141F61C43C2F2070340F66442C2F2CC
:1051E00007029A604FF0070098814FF0010008BD58
:1051F00000F0600120293ED141F61C42C2F20702B4
:105200005378202B02D0222B38D11AE041F61C43D0
:10521000C2F20703D888072833D141F61C41C2F2F5
:10522000070144F66972C0F208020A6140F664435D
:10523000C2F207038B604FF0070088814FF0010036
:1052400008BD41F61C40C2F2070081784FF0000013
:1052500001F0010144F66D12C0F2080290474FF0D0
:10526000010008BD4FF0000008BD4FF0000008BD70
:105270004FF0000008BD4FF0000008BD4FF00000E7
:1052800008BD4FF0000008BD08B540F66E43C2F2FD
:1052900007031A7802F1FF30C1B21970187849F685
:1052A0007D13C0F20803984741F28800C2F207005C
:1052B0004FF00002027008BD08B54FF0000041F247
:1052C0007C03C2F20703187041F2A841C2F2070141
:1052D000088041F29403C2F207034FF0A101197054
:1052E0004FF020015970588098804FF00201D9800A
:1052F000188140F66443C2F207034FF4E1311960AC
:10530000187158714FF008029A7149F66D13C0F286
:105310000803984758B141F27C00C2F207000178B7
:1053200001F10101CAB202704FF0010008BD4FF057
:10533000000008BDEFF3108372B6BFF35F8F40F239
:105340009822C2F207024FF00001117041F2800072
:10535000C2F20700028890B241F28C01C2F207014A
:10536000097841F27802C2F2070232F81110081AE5
:105370004BB940F29823C2F207034FF001021A70B2
:10538000BFF35F8F62B6704708B54FF0000045F27B
:105390003533C0F20803984708BD00BF08B545F291
:1053A0003533C0F208039847003018BF012008BD0C
:1053B00010B582B0EFF31083D3F1010038BF0020A5
:1053C00072B6BFF35F8F40F29822C2F207024FF02D
:1053D0000001117041F28C04C2F20704247841F2FA
:1053E000A043C2F207031A786AB941F28001C2F2FF
:1053F00007010B889AB241F27801C2F2070131F835
:10540000143093420ED9002852D040F29821C2F2B3
:1054100007014FF001020A70BFF35F8F62B64FF0D1
:10542000000047E041F28002C2F207024FF00001A3
:1054300011808C4214BF0021012141F28C03C2F281
:105440000703197041F2A042C2F207024FF00101B6
:10545000117038B140F29820C2F207000170BFF31A
:105460005F8F62B64FF0000045F29D32C0F2080235
:10547000904730B14FF0000044F69111C0F208019E
:10548000884745F2B940C0F2080000904FF005008F
:105490004FF0010141F2A003C2F2070303EB4422E3
:1054A0004FF4007348F61154C0F20804A04701E01D
:1054B0004FF0000002B010BD10B582B088BB41F2C1
:1054C0008C03C2F207031878D0F1010338BF002320
:1054D000A9B945F2B944C0F20804009410464FF04F
:1054E000010141F2A002C2F2070202EB43224FF493
:1054F000007348F61154C0F20804A04711E041F2CD
:105500007802C2F2070222F813104FF0000041F2B5
:10551000A041C2F20701087045F2B133C0F208039E
:10552000984702B010BD00BF38B54FF0000440F6F8
:105530006E43C2F207031C7041F29000C2F20700F2
:10554000047041F2A441C2F207010C7040F67042AF
:10555000C2F20702147040F67443C2F207032546F4
:105560001C805C8041F28400C2F207000480204667
:1055700044F66D71C0F20801884741F2A042C2F2C0
:105580000702147041F28C03C2F207031C7041F24F
:105590007800C2F20700048041F28001C2F20701E4
:1055A0000C80204645F2B132C0F20802904798B113
:1055B00040F66E43C2F20703187800F10100C1B251
:1055C00019701A78012A0AD14FF0010041F28803BC
:1055D000C2F20703187038BD4FF0000038BD4FF01D
:1055E000010038BD2DE9F04F83B01546884640F2E2
:1055F0009827C2F207074FF0000B41F28006C2F273
:10560000070641F28C0AC2F2070A41F27809C2F297
:10561000070941F2A003C2F207030193EFF31082DE
:1056200072B6BFF35F8F87F800B0308883B29AF804
:1056300000102AB94FF001043C70BFF35F8F62B6CF
:1056400039F81140A34207D341F28800C2F20700A3
:1056500001780029E2D11DE0E41AA54238BF2C46AA
:1056600003EB41224046019B991822464AF20D0362
:10567000C0F208039847308821188AB23280A044CB
:105680002D1B4FF0000045F2B133C0F208039847DC
:10569000002DC3D1284603B0BDE8F08F08B50346FE
:1056A0000A464FF00000194645F2E553C0F20803E0
:1056B000984708BD10B4EFF3108472B6BFF35F8F44
:1056C00040F29823C2F207034FF000021A7040F62E
:1056D0007040C2F20700017840F67442C2F207023D
:1056E00032F81130D1F1010138BF0021C8B232F8CF
:1056F0001000B3F5007F1BD141F29002C2F2070205
:105700001278AAB941F2A442C2F2070212787AB919
:1057100041F2A443C2F207034FF00100187040F6B3
:105720007042C2F2070211704FF400704FF0000394
:105730004CB940F29822C2F207024FF001011170F9
:10574000BFF35F8F62B6C018C0F5806010BC7047B1
:1057500008B545F2B563C0F208039847003018BF9A
:10576000012008BD2DE9F04F83B0154640F6644393
:10577000C2F207039879092808BF550089464FF0FF
:10578000000841F28801C2F20701019140F298221B
:10579000C2F207020092404645F25173C0F208037C
:1057A000984720B901980378002BF4D135E0EFF346
:1057B000108B72B6BFF35F8F009C84F8008040F6B8
:1057C0007046C2F20706367840F6744AC2F2070AFB
:1057D0003AF81670C7F50074A54238BF2C4607EB9F
:1057E000462140F67840C2F207004018494622465A
:1057F0004AF20D03C0F2080398473F192AF81670C1
:10580000BBF1000F06D14FF00101009A1170BFF3F8
:105810005F8F62B6A1442D1BBDD1284603B0BDE801
:10582000F08F00BF08B503460A464FF00000194646
:1058300045F26573C0F20803984708BD4FF00000B9
:10584000704700BF003018BF012041F61943C2F273
:105850000703187040F23021C2F207014FF0010235
:105860000A70704741F2F842C2F207024FF000039B
:10587000114641F8043B536001F1040141F8043B37
:1058800041F8043B0B804FF0F00010704FF00A031A
:10589000D371704708B545F66503C0F20803984711
:1058A00040F24820C2F207004FF00002027308BD28
:1058B00070B506460D46144645F66503C0F208036A
:1058C000984740F24820C2F207004FF001020273ED
:1058D00041F2F841C2F207018E704FEA1463CB70B7
:1058E0004FEA144008714FEA14224A718C714FEA52
:1058F00015230B734D7370BD08B54FF006004FF4C0
:1059000020514FF0000245F6B103C0F2080398475A
:1059100008BD00BF08B54FF002004FF468514FF0CA
:10592000000245F6B103C0F20803984708BD00BF66
:1059300008B54FF004004FF000010A4645F6B103E8
:10594000C0F20803984708BD08B54FF005004FF4B2
:1059500010514FF0000245F6B103C0F2080398471A
:1059600008BD00BF10B582B045F6F123C0F20803B0
:1059700000934FF081004FF0000140F24822C2F244
:1059800007024FF00D0348F61154C0F20804A04777
:1059900050B94FF0810045F66511C0F2080149F297
:1059A0009D32C0F20802904702B010BD08B540F227
:1059B0004823C2F20703996871B141F2B442C2F2BE
:1059C000070292F90C30002BB4BF8120022048F668
:1059D000F521C0F20801884741F2B440C2F2070045
:1059E000426840F24823C2F207035A6045F6651147
:1059F000C0F20801884708BD08B541F2B443C2F2BD
:105A000007031A7B514011F0800F06D140F2482164
:105A1000C2F207018B6883420CD245F64910C0F2EE
:105A20000800804745F6AD12C0F2080290474FF0DB
:105A3000000008BD4FF0010008BD00BF10B582B0E6
:105A400002460B4645F67D21C0F2080100914FF059
:105A500081004FF0010148F61154C0F20804A0473C
:105A600048B945F63113C0F20803984745F6AD1022
:105A7000C0F20800804702B010BD00BF10B50C4650
:105A800080B945F69503C0F20803984740F24820D4
:105A9000C2F207008268141B846045F6AD11C0F2A3
:105AA0000801884710BD00BF10B582B045F6055308
:105AB000C0F2080300934FF002004FF0010141F2E1
:105AC000B442C2F207024FF01F0348F61154C0F26D
:105AD0000804A04750B94FF0020045F6A921C0F2D2
